{
  "_format": "hh-sol-artifact-1",
  "contractName": "DTOStakingUpgrade",
  "sourceName": "contracts/validator/DTOStakingUpgrade.sol",
  "abi": [
    {
      "inputs": [],
      "stateMutability": "nonpayable",
      "type": "constructor"
    },
    {
      "anonymous": false,
      "inputs": [
        {
          "indexed": false,
          "internalType": "address",
          "name": "previousAdmin",
          "type": "address"
        },
        {
          "indexed": false,
          "internalType": "address",
          "name": "newAdmin",
          "type": "address"
        }
      ],
      "name": "AdminChanged",
      "type": "event"
    },
    {
      "anonymous": false,
      "inputs": [
        {
          "indexed": true,
          "internalType": "address",
          "name": "beacon",
          "type": "address"
        }
      ],
      "name": "BeaconUpgraded",
      "type": "event"
    },
    {
      "anonymous": false,
      "inputs": [
        {
          "indexed": true,
          "internalType": "address",
          "name": "previousOwner",
          "type": "address"
        },
        {
          "indexed": true,
          "internalType": "address",
          "name": "newOwner",
          "type": "address"
        }
      ],
      "name": "OwnershipTransferred",
      "type": "event"
    },
    {
      "anonymous": false,
      "inputs": [
        {
          "indexed": false,
          "internalType": "address",
          "name": "account",
          "type": "address"
        }
      ],
      "name": "Paused",
      "type": "event"
    },
    {
      "anonymous": false,
      "inputs": [
        {
          "indexed": false,
          "internalType": "address",
          "name": "account",
          "type": "address"
        }
      ],
      "name": "Unpaused",
      "type": "event"
    },
    {
      "anonymous": false,
      "inputs": [
        {
          "indexed": true,
          "internalType": "address",
          "name": "implementation",
          "type": "address"
        }
      ],
      "name": "Upgraded",
      "type": "event"
    },
    {
      "inputs": [],
      "name": "getNumberTest",
      "outputs": [
        {
          "internalType": "uint256",
          "name": "",
          "type": "uint256"
        }
      ],
      "stateMutability": "view",
      "type": "function"
    },
    {
      "inputs": [],
      "name": "initialize",
      "outputs": [],
      "stateMutability": "nonpayable",
      "type": "function"
    },
    {
      "inputs": [],
      "name": "lastUpdateTime",
      "outputs": [
        {
          "internalType": "uint256",
          "name": "",
          "type": "uint256"
        }
      ],
      "stateMutability": "view",
      "type": "function"
    },
    {
      "inputs": [],
      "name": "number",
      "outputs": [
        {
          "internalType": "uint256",
          "name": "",
          "type": "uint256"
        }
      ],
      "stateMutability": "view",
      "type": "function"
    },
    {
      "inputs": [],
      "name": "owner",
      "outputs": [
        {
          "internalType": "address",
          "name": "",
          "type": "address"
        }
      ],
      "stateMutability": "view",
      "type": "function"
    },
    {
      "inputs": [],
      "name": "paused",
      "outputs": [
        {
          "internalType": "bool",
          "name": "",
          "type": "bool"
        }
      ],
      "stateMutability": "view",
      "type": "function"
    },
    {
      "inputs": [],
      "name": "periodFinish",
      "outputs": [
        {
          "internalType": "uint256",
          "name": "",
          "type": "uint256"
        }
      ],
      "stateMutability": "view",
      "type": "function"
    },
    {
      "inputs": [],
      "name": "renounceOwnership",
      "outputs": [],
      "stateMutability": "nonpayable",
      "type": "function"
    },
    {
      "inputs": [],
      "name": "rewardPerTokenStored",
      "outputs": [
        {
          "internalType": "uint256",
          "name": "",
          "type": "uint256"
        }
      ],
      "stateMutability": "view",
      "type": "function"
    },
    {
      "inputs": [],
      "name": "rewardRate",
      "outputs": [
        {
          "internalType": "uint256",
          "name": "",
          "type": "uint256"
        }
      ],
      "stateMutability": "view",
      "type": "function"
    },
    {
      "inputs": [
        {
          "internalType": "address",
          "name": "",
          "type": "address"
        }
      ],
      "name": "rewards",
      "outputs": [
        {
          "internalType": "uint256",
          "name": "",
          "type": "uint256"
        }
      ],
      "stateMutability": "view",
      "type": "function"
    },
    {
      "inputs": [],
      "name": "rewardsDistribution",
      "outputs": [
        {
          "internalType": "address",
          "name": "",
          "type": "address"
        }
      ],
      "stateMutability": "view",
      "type": "function"
    },
    {
      "inputs": [],
      "name": "rewardsDuration",
      "outputs": [
        {
          "internalType": "uint256",
          "name": "",
          "type": "uint256"
        }
      ],
      "stateMutability": "view",
      "type": "function"
    },
    {
      "inputs": [],
      "name": "rewardsToken",
      "outputs": [
        {
          "internalType": "contract IERC20Upgradeable",
          "name": "",
          "type": "address"
        }
      ],
      "stateMutability": "view",
      "type": "function"
    },
    {
      "inputs": [
        {
          "internalType": "uint256",
          "name": "_number",
          "type": "uint256"
        }
      ],
      "name": "setNumbetTest",
      "outputs": [],
      "stateMutability": "nonpayable",
      "type": "function"
    },
    {
      "inputs": [],
      "name": "stakingLockTime",
      "outputs": [
        {
          "internalType": "uint256",
          "name": "",
          "type": "uint256"
        }
      ],
      "stateMutability": "view",
      "type": "function"
    },
    {
      "inputs": [],
      "name": "stakingToken",
      "outputs": [
        {
          "internalType": "contract IERC20Upgradeable",
          "name": "",
          "type": "address"
        }
      ],
      "stateMutability": "view",
      "type": "function"
    },
    {
      "inputs": [],
      "name": "stakingTokenLock",
      "outputs": [
        {
          "internalType": "contract IStakingTokenLock",
          "name": "",
          "type": "address"
        }
      ],
      "stateMutability": "view",
      "type": "function"
    },
    {
      "inputs": [
        {
          "internalType": "address",
          "name": "newOwner",
          "type": "address"
        }
      ],
      "name": "transferOwnership",
      "outputs": [],
      "stateMutability": "nonpayable",
      "type": "function"
    },
    {
      "inputs": [
        {
          "internalType": "address",
          "name": "newImplementation",
          "type": "address"
        }
      ],
      "name": "upgradeTo",
      "outputs": [],
      "stateMutability": "nonpayable",
      "type": "function"
    },
    {
      "inputs": [
        {
          "internalType": "address",
          "name": "newImplementation",
          "type": "address"
        },
        {
          "internalType": "bytes",
          "name": "data",
          "type": "bytes"
        }
      ],
      "name": "upgradeToAndCall",
      "outputs": [],
      "stateMutability": "payable",
      "type": "function"
    },
    {
      "inputs": [
        {
          "internalType": "address",
          "name": "",
          "type": "address"
        }
      ],
      "name": "userRewardPerTokenPaid",
      "outputs": [
        {
          "internalType": "uint256",
          "name": "",
          "type": "uint256"
        }
      ],
      "stateMutability": "view",
      "type": "function"
    }
  ],
  "bytecode": "0x608060405234801561001057600080fd5b50600054610100900460ff168061002a575060005460ff16155b6100915760405162461bcd60e51b815260206004820152602e60248201527f496e697469616c697a61626c653a20636f6e747261637420697320616c72656160448201526d191e481a5b9a5d1a585b1a5e995960921b606482015260840160405180910390fd5b600054610100900460ff161580156100b3576000805461ffff19166101011790555b80156100c5576000805461ff00191690555b50610d3f806100d56000396000f3fe6080604052600436106101355760003560e01c80637db62abe116100ab57806392bfe11c1161006f57806392bfe11c14610341578063c8f33c9114610357578063d1af0c7d1461036e578063df136d651461038f578063ebe2b12b146103a6578063f2fde38b146103bd57610135565b80637db62abe146102a85780638129fc1c146102c95780638381f58a146102de5780638b876347146102f55780638da5cb5b1461032357610135565b80634f1ef286116100fd5780634f1ef2861461020e5780635c975abb146102215780636ee7ee5514610244578063715018a61461025b57806372f702f3146102705780637b0a47ee1461029157610135565b80630700037d1461013a5780633659cfe61461017b578063386a95251461019d5780633fc6df6e146101b4578063437386f0146101ed575b600080fd5b34801561014657600080fd5b50610168610155366004610adb565b6101366020526000908152604090205481565b6040519081526020015b60405180910390f35b34801561018757600080fd5b5061019b610196366004610adb565b6103dd565b005b3480156101a957600080fd5b506101686101325481565b3480156101c057600080fd5b5061013a546101d5906001600160a01b031681565b6040516001600160a01b039091168152602001610172565b3480156101f957600080fd5b5061012d546101d5906001600160a01b031681565b61019b61021c366004610af5565b610404565b34801561022d57600080fd5b5060c95460ff166040519015158152602001610172565b34801561025057600080fd5b506101686101395481565b34801561026757600080fd5b5061019b61041d565b34801561027c57600080fd5b5061012f546101d5906001600160a01b031681565b34801561029d57600080fd5b506101686101315481565b3480156102b457600080fd5b5061019b6102c3366004610bb2565b61013b55565b3480156102d557600080fd5b5061019b61045c565b3480156102ea57600080fd5b5061016861013b5481565b34801561030157600080fd5b50610168610310366004610adb565b6101356020526000908152604090205481565b34801561032f57600080fd5b5060fb546001600160a01b03166101d5565b34801561034d57600080fd5b5061013b54610168565b34801561036357600080fd5b506101686101335481565b34801561037a57600080fd5b5061012e546101d5906001600160a01b031681565b34801561039b57600080fd5b506101686101345481565b3480156103b257600080fd5b506101686101305481565b3480156103c957600080fd5b5061019b6103d8366004610adb565b6104cf565b6103e681610567565b61040181604051806020016040528060008152506000610591565b50565b61040d82610567565b61041982826001610591565b5050565b60fb546001600160a01b031633146104505760405162461bcd60e51b815260040161044790610c67565b60405180910390fd5b61045a6000610719565b565b600054610100900460ff1680610475575060005460ff16155b6104915760405162461bcd60e51b815260040161044790610c19565b600054610100900460ff161580156104b3576000805461ffff19166101011790555b6104bb61076b565b8015610401576000805461ff001916905550565b60fb546001600160a01b031633146104f95760405162461bcd60e51b815260040161044790610c67565b6001600160a01b03811661055e5760405162461bcd60e51b815260206004820152602660248201527f4f776e61626c653a206e6577206f776e657220697320746865207a65726f206160448201526564647265737360d01b6064820152608401610447565b61040181610719565b60fb546001600160a01b031633146104015760405162461bcd60e51b815260040161044790610c67565b60006105c47f360894a13ba1a3210667c828492db98dca3e2076cc3735a920a3ca505d382bbc546001600160a01b031690565b90506105cf846107d2565b6000835111806105dc5750815b156105ed576105eb848461087e565b505b7f4910fdfa16fed3260ed0e7147f7cc6da11a60208b5b9406d12a635614ffd9143805460ff1661071257805460ff191660011781556040516001600160a01b038316602482015261066c90869060440160408051601f198184030181529190526020810180516001600160e01b0316631b2ce7f360e11b17905261087e565b50805460ff191681557f360894a13ba1a3210667c828492db98dca3e2076cc3735a920a3ca505d382bbc546001600160a01b038381169116146107095760405162461bcd60e51b815260206004820152602f60248201527f45524331393637557067726164653a207570677261646520627265616b73206660448201526e75727468657220757067726164657360881b6064820152608401610447565b61071285610970565b5050505050565b60fb80546001600160a01b038381166001600160a01b0319831681179093556040519116919082907f8be0079c531659141344cd1fd0a4f28419497f9722a3daafe3b4186f6b6457e090600090a35050565b600054610100900460ff1680610784575060005460ff16155b6107a05760405162461bcd60e51b815260040161044790610c19565b600054610100900460ff161580156107c2576000805461ffff19166101011790555b6107ca6109b0565b6104bb610a1a565b6107db81610a7a565b61083d5760405162461bcd60e51b815260206004820152602d60248201527f455243313936373a206e657720696d706c656d656e746174696f6e206973206e60448201526c1bdd08184818dbdb9d1c9858dd609a1b6064820152608401610447565b7f360894a13ba1a3210667c828492db98dca3e2076cc3735a920a3ca505d382bbc80546001600160a01b0319166001600160a01b0392909216919091179055565b606061088983610a7a565b6108e45760405162461bcd60e51b815260206004820152602660248201527f416464726573733a2064656c65676174652063616c6c20746f206e6f6e2d636f6044820152651b9d1c9858dd60d21b6064820152608401610447565b600080846001600160a01b0316846040516108ff9190610bca565b600060405180830381855af49150503d806000811461093a576040519150601f19603f3d011682016040523d82523d6000602084013e61093f565b606091505b50915091506109678282604051806060016040528060278152602001610ce360279139610a84565b95945050505050565b610979816107d2565b6040516001600160a01b038216907fbc7cd75a20ee27fd9adebab32041f755214dbc6bffa90cc0225b39da2e5c2d3b90600090a250565b600054610100900460ff16806109c9575060005460ff16155b6109e55760405162461bcd60e51b815260040161044790610c19565b600054610100900460ff161580156104bb576000805461ffff19166101011790558015610401576000805461ff001916905550565b600054610100900460ff1680610a33575060005460ff16155b610a4f5760405162461bcd60e51b815260040161044790610c19565b600054610100900460ff16158015610a71576000805461ffff19166101011790555b6104bb33610719565b803b15155b919050565b60608315610a93575081610abd565b825115610aa35782518084602001fd5b8160405162461bcd60e51b81526004016104479190610be6565b9392505050565b80356001600160a01b0381168114610a7f57600080fd5b600060208284031215610aec578081fd5b610abd82610ac4565b60008060408385031215610b07578081fd5b610b1083610ac4565b9150602083013567ffffffffffffffff80821115610b2c578283fd5b818501915085601f830112610b3f578283fd5b813581811115610b5157610b51610ccc565b604051601f8201601f19908116603f01168101908382118183101715610b7957610b79610ccc565b81604052828152886020848701011115610b91578586fd5b82602086016020830137856020848301015280955050505050509250929050565b600060208284031215610bc3578081fd5b5035919050565b60008251610bdc818460208701610c9c565b9190910192915050565b6000602082528251806020840152610c05816040850160208701610c9c565b601f01601f19169190910160400192915050565b6020808252602e908201527f496e697469616c697a61626c653a20636f6e747261637420697320616c72656160408201526d191e481a5b9a5d1a585b1a5e995960921b606082015260800190565b6020808252818101527f4f776e61626c653a2063616c6c6572206973206e6f7420746865206f776e6572604082015260600190565b60005b83811015610cb7578181015183820152602001610c9f565b83811115610cc6576000848401525b50505050565b634e487b7160e01b600052604160045260246000fdfe416464726573733a206c6f772d6c6576656c2064656c65676174652063616c6c206661696c6564a2646970667358221220a61420e349b5fbaa2d8ecbe9ecaf992833a84df39fe4dc00393bfd4cca619f9564736f6c63430008030033",
  "linkReferences": {},
  "deployedLinkReferences": {}
}