{
  "_format": "hh-sol-artifact-1",
  "contractName": "NFT1155Bridge",
  "sourceName": "contracts/generic/NFT1155Bridge.sol",
  "abi": [
    {
      "anonymous": false,
      "inputs": [
        {
          "indexed": false,
          "internalType": "address",
          "name": "previousAdmin",
          "type": "address"
        },
        {
          "indexed": false,
          "internalType": "address",
          "name": "newAdmin",
          "type": "address"
        }
      ],
      "name": "AdminChanged",
      "type": "event"
    },
    {
      "anonymous": false,
      "inputs": [
        {
          "indexed": true,
          "internalType": "address",
          "name": "beacon",
          "type": "address"
        }
      ],
      "name": "BeaconUpgraded",
      "type": "event"
    },
    {
      "anonymous": false,
      "inputs": [
        {
          "indexed": true,
          "internalType": "address",
          "name": "_token",
          "type": "address"
        },
        {
          "indexed": true,
          "internalType": "address",
          "name": "_toAddr",
          "type": "address"
        },
        {
          "indexed": false,
          "internalType": "uint256",
          "name": "_id",
          "type": "uint256"
        },
        {
          "indexed": false,
          "internalType": "uint256",
          "name": "_amount",
          "type": "uint256"
        },
        {
          "indexed": false,
          "internalType": "uint256",
          "name": "_originChainId",
          "type": "uint256"
        },
        {
          "indexed": false,
          "internalType": "uint256",
          "name": "_fromChainId",
          "type": "uint256"
        },
        {
          "indexed": false,
          "internalType": "uint256",
          "name": "_toChainId",
          "type": "uint256"
        },
        {
          "indexed": false,
          "internalType": "uint256",
          "name": "_index",
          "type": "uint256"
        },
        {
          "indexed": false,
          "internalType": "bytes32",
          "name": "_claimId",
          "type": "bytes32"
        }
      ],
      "name": "ClaimNFT1155",
      "type": "event"
    },
    {
      "anonymous": false,
      "inputs": [
        {
          "indexed": true,
          "internalType": "address",
          "name": "previousOwner",
          "type": "address"
        },
        {
          "indexed": true,
          "internalType": "address",
          "name": "newOwner",
          "type": "address"
        }
      ],
      "name": "OwnershipTransferred",
      "type": "event"
    },
    {
      "anonymous": false,
      "inputs": [
        {
          "indexed": true,
          "internalType": "address",
          "name": "_token",
          "type": "address"
        },
        {
          "indexed": false,
          "internalType": "bytes",
          "name": "_toAddr",
          "type": "bytes"
        },
        {
          "indexed": false,
          "internalType": "uint256",
          "name": "_id",
          "type": "uint256"
        },
        {
          "indexed": false,
          "internalType": "uint256",
          "name": "_amount",
          "type": "uint256"
        },
        {
          "indexed": false,
          "internalType": "uint256",
          "name": "_originChainId",
          "type": "uint256"
        },
        {
          "indexed": false,
          "internalType": "uint256",
          "name": "_fromChainId",
          "type": "uint256"
        },
        {
          "indexed": false,
          "internalType": "uint256",
          "name": "_toChainId",
          "type": "uint256"
        },
        {
          "indexed": false,
          "internalType": "uint256",
          "name": "_index",
          "type": "uint256"
        }
      ],
      "name": "RequestNFT1155Bridge",
      "type": "event"
    },
    {
      "anonymous": false,
      "inputs": [
        {
          "indexed": true,
          "internalType": "address",
          "name": "implementation",
          "type": "address"
        }
      ],
      "name": "Upgraded",
      "type": "event"
    },
    {
      "anonymous": false,
      "inputs": [
        {
          "indexed": false,
          "internalType": "address",
          "name": "_validator",
          "type": "address"
        },
        {
          "indexed": false,
          "internalType": "bytes32",
          "name": "_claimId",
          "type": "bytes32"
        },
        {
          "indexed": false,
          "internalType": "uint256",
          "name": "_timestamp",
          "type": "uint256"
        }
      ],
      "name": "ValidatorSign",
      "type": "event"
    },
    {
      "anonymous": false,
      "inputs": [
        {
          "indexed": true,
          "internalType": "address",
          "name": "receiver",
          "type": "address"
        },
        {
          "indexed": true,
          "internalType": "address",
          "name": "tokenAddress",
          "type": "address"
        },
        {
          "indexed": true,
          "internalType": "uint256",
          "name": "id",
          "type": "uint256"
        },
        {
          "indexed": false,
          "internalType": "uint256",
          "name": "amount",
          "type": "uint256"
        }
      ],
      "name": "WithdrawStuckERC1155",
      "type": "event"
    },
    {
      "anonymous": false,
      "inputs": [
        {
          "indexed": true,
          "internalType": "address",
          "name": "receiver",
          "type": "address"
        },
        {
          "indexed": true,
          "internalType": "address",
          "name": "tokenAddress",
          "type": "address"
        },
        {
          "indexed": false,
          "internalType": "uint256",
          "name": "amount",
          "type": "uint256"
        }
      ],
      "name": "WithdrawStuckERC20",
      "type": "event"
    },
    {
      "anonymous": false,
      "inputs": [
        {
          "indexed": true,
          "internalType": "address",
          "name": "receiver",
          "type": "address"
        },
        {
          "indexed": true,
          "internalType": "address",
          "name": "tokenAddress",
          "type": "address"
        },
        {
          "indexed": true,
          "internalType": "uint256",
          "name": "tokenId",
          "type": "uint256"
        }
      ],
      "name": "WithdrawStuckERC721",
      "type": "event"
    },
    {
      "anonymous": false,
      "inputs": [
        {
          "indexed": true,
          "internalType": "address",
          "name": "receiver",
          "type": "address"
        },
        {
          "indexed": false,
          "internalType": "uint256",
          "name": "amount",
          "type": "uint256"
        }
      ],
      "name": "WithdrawStuckEther",
      "type": "event"
    },
    {
      "inputs": [],
      "name": "DEFAULT_FEE_DIVISOR",
      "outputs": [
        {
          "internalType": "uint256",
          "name": "",
          "type": "uint256"
        }
      ],
      "stateMutability": "view",
      "type": "function"
    },
    {
      "inputs": [],
      "name": "DEFAULT_FEE_PERCENTAGE",
      "outputs": [
        {
          "internalType": "uint256",
          "name": "",
          "type": "uint256"
        }
      ],
      "stateMutability": "view",
      "type": "function"
    },
    {
      "inputs": [],
      "name": "IID_ICHECK",
      "outputs": [
        {
          "internalType": "bytes4",
          "name": "",
          "type": "bytes4"
        }
      ],
      "stateMutability": "view",
      "type": "function"
    },
    {
      "inputs": [],
      "name": "IID_IERC1155",
      "outputs": [
        {
          "internalType": "bytes4",
          "name": "",
          "type": "bytes4"
        }
      ],
      "stateMutability": "view",
      "type": "function"
    },
    {
      "inputs": [],
      "name": "IID_IERC165",
      "outputs": [
        {
          "internalType": "bytes4",
          "name": "",
          "type": "bytes4"
        }
      ],
      "stateMutability": "view",
      "type": "function"
    },
    {
      "inputs": [],
      "name": "IID_IERC721",
      "outputs": [
        {
          "internalType": "bytes4",
          "name": "",
          "type": "bytes4"
        }
      ],
      "stateMutability": "view",
      "type": "function"
    },
    {
      "inputs": [
        {
          "internalType": "address",
          "name": "_addr",
          "type": "address"
        }
      ],
      "name": "addApprover",
      "outputs": [],
      "stateMutability": "nonpayable",
      "type": "function"
    },
    {
      "inputs": [
        {
          "internalType": "address[]",
          "name": "_addrs",
          "type": "address[]"
        }
      ],
      "name": "addApprovers",
      "outputs": [],
      "stateMutability": "nonpayable",
      "type": "function"
    },
    {
      "inputs": [
        {
          "internalType": "bytes32",
          "name": "",
          "type": "bytes32"
        }
      ],
      "name": "alreadyClaims",
      "outputs": [
        {
          "internalType": "bool",
          "name": "",
          "type": "bool"
        }
      ],
      "stateMutability": "view",
      "type": "function"
    },
    {
      "inputs": [
        {
          "internalType": "address",
          "name": "",
          "type": "address"
        }
      ],
      "name": "approverMap",
      "outputs": [
        {
          "internalType": "bool",
          "name": "",
          "type": "bool"
        }
      ],
      "stateMutability": "view",
      "type": "function"
    },
    {
      "inputs": [
        {
          "internalType": "uint256",
          "name": "",
          "type": "uint256"
        }
      ],
      "name": "bridgeApprovers",
      "outputs": [
        {
          "internalType": "address",
          "name": "",
          "type": "address"
        }
      ],
      "stateMutability": "view",
      "type": "function"
    },
    {
      "inputs": [
        {
          "internalType": "address",
          "name": "",
          "type": "address"
        }
      ],
      "name": "bridgeNFT1155Tokens",
      "outputs": [
        {
          "internalType": "bool",
          "name": "",
          "type": "bool"
        }
      ],
      "stateMutability": "view",
      "type": "function"
    },
    {
      "inputs": [
        {
          "internalType": "address",
          "name": "",
          "type": "address"
        }
      ],
      "name": "bridgeNFT721Tokens",
      "outputs": [
        {
          "internalType": "bool",
          "name": "",
          "type": "bool"
        }
      ],
      "stateMutability": "view",
      "type": "function"
    },
    {
      "inputs": [],
      "name": "chainId",
      "outputs": [
        {
          "internalType": "uint256",
          "name": "",
          "type": "uint256"
        }
      ],
      "stateMutability": "view",
      "type": "function"
    },
    {
      "inputs": [
        {
          "internalType": "address",
          "name": "_tokenAddress",
          "type": "address"
        }
      ],
      "name": "checkSupportToken",
      "outputs": [
        {
          "internalType": "bool",
          "name": "",
          "type": "bool"
        }
      ],
      "stateMutability": "view",
      "type": "function"
    },
    {
      "inputs": [
        {
          "internalType": "address",
          "name": "_originToken",
          "type": "address"
        },
        {
          "internalType": "address",
          "name": "_toAddr",
          "type": "address"
        },
        {
          "internalType": "uint256",
          "name": "_id",
          "type": "uint256"
        },
        {
          "internalType": "uint256",
          "name": "_amount",
          "type": "uint256"
        },
        {
          "internalType": "uint256[]",
          "name": "_chainIdsIndex",
          "type": "uint256[]"
        },
        {
          "internalType": "bytes32",
          "name": "_txHash",
          "type": "bytes32"
        },
        {
          "internalType": "bytes32[]",
          "name": "r",
          "type": "bytes32[]"
        },
        {
          "internalType": "bytes32[]",
          "name": "s",
          "type": "bytes32[]"
        },
        {
          "internalType": "uint8[]",
          "name": "v",
          "type": "uint8[]"
        },
        {
          "internalType": "string",
          "name": "_uri",
          "type": "string"
        }
      ],
      "name": "claimNFT1155Token",
      "outputs": [],
      "stateMutability": "payable",
      "type": "function"
    },
    {
      "inputs": [],
      "name": "defaultFeePercentage",
      "outputs": [
        {
          "internalType": "uint256",
          "name": "",
          "type": "uint256"
        }
      ],
      "stateMutability": "view",
      "type": "function"
    },
    {
      "inputs": [],
      "name": "feeReceiver",
      "outputs": [
        {
          "internalType": "address payable",
          "name": "",
          "type": "address"
        }
      ],
      "stateMutability": "view",
      "type": "function"
    },
    {
      "inputs": [],
      "name": "getBridgeApprovers",
      "outputs": [
        {
          "internalType": "address[]",
          "name": "",
          "type": "address[]"
        }
      ],
      "stateMutability": "view",
      "type": "function"
    },
    {
      "inputs": [
        {
          "internalType": "address",
          "name": "_token",
          "type": "address"
        }
      ],
      "name": "getSupportedChainsForToken",
      "outputs": [
        {
          "internalType": "uint256[]",
          "name": "",
          "type": "uint256[]"
        }
      ],
      "stateMutability": "view",
      "type": "function"
    },
    {
      "inputs": [],
      "name": "governance",
      "outputs": [
        {
          "internalType": "address",
          "name": "",
          "type": "address"
        }
      ],
      "stateMutability": "view",
      "type": "function"
    },
    {
      "inputs": [],
      "name": "index",
      "outputs": [
        {
          "internalType": "uint256",
          "name": "",
          "type": "uint256"
        }
      ],
      "stateMutability": "view",
      "type": "function"
    },
    {
      "inputs": [
        {
          "internalType": "uint256[]",
          "name": "_chainIds",
          "type": "uint256[]"
        }
      ],
      "name": "initialize",
      "outputs": [],
      "stateMutability": "nonpayable",
      "type": "function"
    },
    {
      "inputs": [
        {
          "internalType": "address",
          "name": "_token",
          "type": "address"
        }
      ],
      "name": "isBridgeToken",
      "outputs": [
        {
          "internalType": "bool",
          "name": "",
          "type": "bool"
        }
      ],
      "stateMutability": "view",
      "type": "function"
    },
    {
      "inputs": [
        {
          "internalType": "address",
          "name": "nftAddress",
          "type": "address"
        }
      ],
      "name": "isERC1155",
      "outputs": [
        {
          "internalType": "bool",
          "name": "",
          "type": "bool"
        }
      ],
      "stateMutability": "view",
      "type": "function"
    },
    {
      "inputs": [
        {
          "internalType": "address",
          "name": "nftAddress",
          "type": "address"
        }
      ],
      "name": "isERC721",
      "outputs": [
        {
          "internalType": "bool",
          "name": "",
          "type": "bool"
        }
      ],
      "stateMutability": "view",
      "type": "function"
    },
    {
      "inputs": [],
      "name": "minApprovers",
      "outputs": [
        {
          "internalType": "uint256",
          "name": "",
          "type": "uint256"
        }
      ],
      "stateMutability": "view",
      "type": "function"
    },
    {
      "inputs": [],
      "name": "nativeFee",
      "outputs": [
        {
          "internalType": "uint256",
          "name": "",
          "type": "uint256"
        }
      ],
      "stateMutability": "view",
      "type": "function"
    },
    {
      "inputs": [],
      "name": "owner",
      "outputs": [
        {
          "internalType": "address",
          "name": "",
          "type": "address"
        }
      ],
      "stateMutability": "view",
      "type": "function"
    },
    {
      "inputs": [
        {
          "internalType": "address",
          "name": "_addr",
          "type": "address"
        }
      ],
      "name": "removeApprover",
      "outputs": [],
      "stateMutability": "nonpayable",
      "type": "function"
    },
    {
      "inputs": [],
      "name": "renounceOwnership",
      "outputs": [],
      "stateMutability": "nonpayable",
      "type": "function"
    },
    {
      "inputs": [
        {
          "internalType": "address",
          "name": "_tokenAddress",
          "type": "address"
        },
        {
          "internalType": "bytes",
          "name": "_toAddr",
          "type": "bytes"
        },
        {
          "internalType": "uint256",
          "name": "_id",
          "type": "uint256"
        },
        {
          "internalType": "uint256",
          "name": "_amount",
          "type": "uint256"
        },
        {
          "internalType": "uint256",
          "name": "_toChainId",
          "type": "uint256"
        }
      ],
      "name": "requestNFT1155Bridge",
      "outputs": [],
      "stateMutability": "payable",
      "type": "function"
    },
    {
      "inputs": [
        {
          "internalType": "address payable",
          "name": "_feeReceiver",
          "type": "address"
        }
      ],
      "name": "setFeeReceiver",
      "outputs": [],
      "stateMutability": "nonpayable",
      "type": "function"
    },
    {
      "inputs": [
        {
          "internalType": "address",
          "name": "_gov",
          "type": "address"
        }
      ],
      "name": "setGovernance",
      "outputs": [],
      "stateMutability": "nonpayable",
      "type": "function"
    },
    {
      "inputs": [
        {
          "internalType": "uint256",
          "name": "_fee",
          "type": "uint256"
        }
      ],
      "name": "setGovernanceFee",
      "outputs": [],
      "stateMutability": "nonpayable",
      "type": "function"
    },
    {
      "inputs": [
        {
          "internalType": "uint256",
          "name": "_val",
          "type": "uint256"
        }
      ],
      "name": "setMinApprovers",
      "outputs": [],
      "stateMutability": "nonpayable",
      "type": "function"
    },
    {
      "inputs": [
        {
          "internalType": "uint256",
          "name": "_chainId",
          "type": "uint256"
        },
        {
          "internalType": "bool",
          "name": "_val",
          "type": "bool"
        }
      ],
      "name": "setSupportedChainId",
      "outputs": [],
      "stateMutability": "nonpayable",
      "type": "function"
    },
    {
      "inputs": [
        {
          "internalType": "uint256[]",
          "name": "_chainIds",
          "type": "uint256[]"
        },
        {
          "internalType": "bool",
          "name": "_val",
          "type": "bool"
        }
      ],
      "name": "setSupportedChainIds",
      "outputs": [],
      "stateMutability": "nonpayable",
      "type": "function"
    },
    {
      "inputs": [
        {
          "internalType": "uint256",
          "name": "",
          "type": "uint256"
        }
      ],
      "name": "supportedChainIds",
      "outputs": [
        {
          "internalType": "bool",
          "name": "",
          "type": "bool"
        }
      ],
      "stateMutability": "view",
      "type": "function"
    },
    {
      "inputs": [
        {
          "internalType": "bytes4",
          "name": "interfaceId",
          "type": "bytes4"
        }
      ],
      "name": "supportsInterface",
      "outputs": [
        {
          "internalType": "bool",
          "name": "",
          "type": "bool"
        }
      ],
      "stateMutability": "view",
      "type": "function"
    },
    {
      "inputs": [
        {
          "internalType": "uint256",
          "name": "",
          "type": "uint256"
        },
        {
          "internalType": "address",
          "name": "",
          "type": "address"
        }
      ],
      "name": "tokenMap",
      "outputs": [
        {
          "internalType": "address",
          "name": "",
          "type": "address"
        }
      ],
      "stateMutability": "view",
      "type": "function"
    },
    {
      "inputs": [
        {
          "internalType": "address",
          "name": "",
          "type": "address"
        },
        {
          "internalType": "uint256",
          "name": "",
          "type": "uint256"
        }
      ],
      "name": "tokenMapList",
      "outputs": [
        {
          "internalType": "uint256",
          "name": "",
          "type": "uint256"
        }
      ],
      "stateMutability": "view",
      "type": "function"
    },
    {
      "inputs": [
        {
          "internalType": "address",
          "name": "",
          "type": "address"
        }
      ],
      "name": "tokenMapReverse",
      "outputs": [
        {
          "internalType": "address",
          "name": "addr",
          "type": "address"
        },
        {
          "internalType": "uint256",
          "name": "chainId",
          "type": "uint256"
        }
      ],
      "stateMutability": "view",
      "type": "function"
    },
    {
      "inputs": [
        {
          "internalType": "address",
          "name": "",
          "type": "address"
        },
        {
          "internalType": "uint256",
          "name": "",
          "type": "uint256"
        }
      ],
      "name": "tokenMapSupportCheck",
      "outputs": [
        {
          "internalType": "bool",
          "name": "",
          "type": "bool"
        }
      ],
      "stateMutability": "view",
      "type": "function"
    },
    {
      "inputs": [
        {
          "internalType": "address",
          "name": "newOwner",
          "type": "address"
        }
      ],
      "name": "transferOwnership",
      "outputs": [],
      "stateMutability": "nonpayable",
      "type": "function"
    },
    {
      "inputs": [
        {
          "internalType": "address",
          "name": "newImplementation",
          "type": "address"
        }
      ],
      "name": "upgradeTo",
      "outputs": [],
      "stateMutability": "nonpayable",
      "type": "function"
    },
    {
      "inputs": [
        {
          "internalType": "address",
          "name": "newImplementation",
          "type": "address"
        },
        {
          "internalType": "bytes",
          "name": "data",
          "type": "bytes"
        }
      ],
      "name": "upgradeToAndCall",
      "outputs": [],
      "stateMutability": "payable",
      "type": "function"
    }
  ],
  "bytecode": "0x60806040523480156200001157600080fd5b50600054610100900460ff16806200002c575060005460ff16155b620000945760405162461bcd60e51b815260206004820152602e60248201527f496e697469616c697a61626c653a20636f6e747261637420697320616c72656160448201526d191e481a5b9a5d1a585b1a5e995960921b606482015260840160405180910390fd5b600054610100900460ff16158015620000b7576000805461ffff19166101011790555b8015620000ca576000805461ff00191690555b506155b380620000db6000396000f3fe6080604052600436106102885760003560e01c806394c9d29b1161015a578063d4638d4e116100c1578063e4b744631161007a578063e4b744631461086a578063e724604214610885578063e9008d5b1461089a578063efdcd974146108ba578063f2fde38b146108da578063ffb2efb8146108fa57610288565b8063d4638d4e1461079a578063d641e916146107ba578063d9bdd659146107eb578063daa09e5414610818578063dee157ca14610838578063e0966dad1461084f57610288565b8063b3f0067411610113578063b3f00674146106b3578063b4824034146106d4578063b646c194146106eb578063bfa411f81461070b578063c60c9a541461072d578063d1408f311461076957610288565b806394c9d29b146105b7578063996f79c0146106175780639a8a05921461062e5780639b8cfe5214610644578063a402783814610678578063ab033ea91461069357610288565b80634cf2ab32116101fe5780636a882d51116101b75780636a882d51146104f45780636cf4c88f146105145780636fe0e55914610534578063715018a6146105545780638d68fdc8146105695780638da5cb5b1461059957610288565b80634cf2ab32146104475780634f1ef2861461047857806354f7088f1461048b5780635aa6e675146104a157806364eed807146104c157806367844634146104d457610288565b8063282e460a11610250578063282e460a146103825780632986c0e5146103a257806332a69330146103c75780633659cfe6146103e757806336db95fb1461040757806345923dfb1461042757610288565b806301ffc9a71461028d57806309b9a559146102c257806313ac7898146102f357806318008b7b1461034d5780631febb1251461036d575b600080fd5b34801561029957600080fd5b506102ad6102a8366004612e32565b61091a565b60405190151581526020015b60405180910390f35b3480156102ce57600080fd5b506102ad6102dd366004612acd565b6101056020526000908152604090205460ff1681565b3480156102ff57600080fd5b5061033561030e366004612e5a565b6101036020908152600092835260408084209091529082529020546001600160a01b031681565b6040516001600160a01b0390911681526020016102b9565b34801561035957600080fd5b506102ad610368366004612acd565b610953565b61038061037b366004612c43565b610982565b005b34801561038e57600080fd5b506102ad61039d366004612acd565b610d62565b3480156103ae57600080fd5b506103b96101085481565b6040519081526020016102b9565b3480156103d357600080fd5b506103806103e2366004612e1a565b610d7e565b3480156103f357600080fd5b50610380610402366004612acd565b610dae565b34801561041357600080fd5b506103b9610422366004612cac565b610dd5565b34801561043357600080fd5b50610335610442366004612e1a565b610e07565b34801561045357600080fd5b506102ad610462366004612e1a565b6101006020526000908152604090205460ff1681565b610380610486366004612bf5565b610e31565b34801561049757600080fd5b506103b961271081565b3480156104ad57600080fd5b5060fb54610335906001600160a01b031681565b6103806104cf366004612ae9565b610e4a565b3480156104e057600080fd5b506103806104ef366004612dae565b611501565b34801561050057600080fd5b5061038061050f366004612cd7565b6115a2565b34801561052057600080fd5b5061038061052f366004612acd565b6116fd565b34801561054057600080fd5b5061038061054f366004612d73565b6118e1565b34801561056057600080fd5b50610380611a39565b34801561057557600080fd5b506102ad610584366004612e1a565b60fd6020526000908152604090205460ff1681565b3480156105a557600080fd5b506097546001600160a01b0316610335565b3480156105c357600080fd5b506105f86105d2366004612acd565b61010460205260009081526040902080546001909101546001600160a01b039091169082565b604080516001600160a01b0390931683526020830191909152016102b9565b34801561062357600080fd5b506103b96101075481565b34801561063a57600080fd5b506103b960fc5481565b34801561065057600080fd5b5061065f636cdb3d1360e11b81565b6040516001600160e01b031990911681526020016102b9565b34801561068457600080fd5b5061065f6301ffc9a760e01b81565b34801561069f57600080fd5b506103806106ae366004612acd565b611a6f565b3480156106bf57600080fd5b5061010a54610335906001600160a01b031681565b3480156106e057600080fd5b506103b961010b5481565b3480156106f757600080fd5b50610380610706366004612acd565b611b00565b34801561071757600080fd5b50610720611c37565b6040516102b99190613007565b34801561073957600080fd5b506102ad610748366004612cac565b61010260209081526000928352604080842090915290825290205460ff1681565b34801561077557600080fd5b506102ad610784366004612acd565b6101066020526000908152604090205460ff1681565b3480156107a657600080fd5b506103806107b5366004612e1a565b611c99565b3480156107c657600080fd5b506102ad6107d5366004612acd565b60ff602081905260009182526040909120541681565b3480156107f757600080fd5b5061080b610806366004612acd565b611d0e565b6040516102b99190613054565b34801561082457600080fd5b506102ad610833366004612acd565b611d7b565b34801561084457600080fd5b506103b96101095481565b34801561085b57600080fd5b5061065f6380ac58cd60e01b81565b34801561087657600080fd5b5061065f6379476c2f60e11b81565b34801561089157600080fd5b506103b9600a81565b3480156108a657600080fd5b506102ad6108b5366004612acd565b611d97565b3480156108c657600080fd5b506103806108d5366004612acd565b611dfc565b3480156108e657600080fd5b506103806108f5366004612acd565b611e49565b34801561090657600080fd5b50610380610915366004612e7e565b611ee1565b60006001600160e01b031982166379476c2f60e11b148061094b57506001600160e01b031982166301ffc9a760e01b145b90505b919050565b600061095e82611d7b565b8061096d575061096d82610d62565b1561097a5750600161094e565b506000919050565b600260c95414156109da5760405162461bcd60e51b815260206004820152601f60248201527f5265656e7472616e637947756172643a207265656e7472616e742063616c6c0060448201526064015b60405180910390fd5b600260c95560fc54811415610a475760405162461bcd60e51b815260206004820152602d60248201527f736f7572636520616e642074617267657420636861696e20696473206d75737460448201526c08189948191a5999995c995b9d609a1b60648201526084016109d1565b610a5085610953565b610a955760405162461bcd60e51b81526020600482015260166024820152753ab739bab83837b93a32b2103a3434b9903a37b5b2b760511b60448201526064016109d1565b61010754341015610ad55760405162461bcd60e51b815260206004820152600a602482015269666565206973206c6f7760b01b60448201526064016109d1565b61010a546040516001600160a01b03909116903480156108fc02916000818181858888f19350505050158015610b0f573d6000803e3d6000fd5b506000818152610100602052604090205460ff16610b655760405162461bcd60e51b81526020600482015260136024820152721d5b9cdd5c1c1bdc9d19590818da185a5b9259606a1b60448201526064016109d1565b610b6e85611d97565b610c595760fc54610108546040516001600160a01b038816927f5976e9734cf776dbeda3fa7cce621538c427f2c2248b6871e274253c9fd4c6d792610bbc9289928992899282918a91613067565b60405180910390a26101088054906000610bd583613206565b90915550506001600160a01b03851660009081526101026020908152604080832084845290915290205460ff16610c54576001600160a01b0385166000818152610101602090815260408083208054600181810183559185528385200186905593835261010282528083208584529091529020805460ff191690911790555b610d56565b6001600160a01b038581166000908152610104602052604090819020549051637a94c56560e11b81523360048201526024810186905260448101859052911690819063f5298aca90606401600060405180830381600087803b158015610cbe57600080fd5b505af1158015610cd2573d6000803e3d6000fd5b505050506001600160a01b0386811660009081526101046020526040908190206001015460fc54610108549251938516937f5976e9734cf776dbeda3fa7cce621538c427f2c2248b6871e274253c9fd4c6d793610d36938b938b938b938b91613067565b60405180910390a26101088054906000610d4f83613206565b9190505550505b5050600160c955505050565b600061094b6001600160a01b038316636cdb3d1360e11b611f2c565b60fb546001600160a01b03163314610da85760405162461bcd60e51b81526004016109d1906130be565b61010755565b610db781611f51565b610dd281604051806020016040528060008152506000611f7b565b50565b6101016020528160005260406000208181548110610df257600080fd5b90600052602060002001600091509150505481565b60fe8181548110610e1757600080fd5b6000918252602090912001546001600160a01b0316905081565b610e3a82611f51565b610e4682826001611f7b565b5050565b600260c9541415610e9d5760405162461bcd60e51b815260206004820152601f60248201527f5265656e7472616e637947756172643a207265656e7472616e742063616c6c0060448201526064016109d1565b600260c95585516004148015610edc575085600281518110610ecf57634e487b7160e01b600052603260045260246000fd5b602002602001015160fc54145b610f1a5760405162461bcd60e51b815260206004820152600f60248201526e21636861696e20696420636c61696d60881b60448201526064016109d1565b60008a8a8a8a8a8a87604051602001610f399796959493929190612f24565b60408051601f198184030181529181528151602092830120600081815260fd90935291205490915060ff1615610fa15760405162461bcd60e51b815260206004820152600d60248201526c616c726561647920636c61696d60981b60448201526064016109d1565b610fad85858584612103565b610fee5760405162461bcd60e51b8152602060048201526012602482015271696e76616c6964207369676e61747572657360701b60448201526064016109d1565b600081815260fd60209081526040808320805460ff191660011790556001600160a01b038e1683526101019091529020546113835760006001600160a01b031661010360008960008151811061105457634e487b7160e01b600052603260045260246000fd5b6020026020010151815260200190815260200160002060008d6001600160a01b03166001600160a01b0316815260200190815260200160002060009054906101000a90046001600160a01b03166001600160a01b031614156112825760006040516110be90612970565b604051809103906000f0801580156110da573d6000803e3d6000fd5b509050806001600160a01b03166381d609568d8a60008151811061110e57634e487b7160e01b600052603260045260246000fd5b6020026020010151866040518463ffffffff1660e01b815260040161113593929190612fe0565b600060405180830381600087803b15801561114f57600080fd5b505af1158015611163573d6000803e3d6000fd5b505050508061010360008a60008151811061118e57634e487b7160e01b600052603260045260246000fd5b6020026020010151815260200190815260200160002060008e6001600160a01b03166001600160a01b0316815260200190815260200160002060006101000a8154816001600160a01b0302191690836001600160a01b0316021790555060405180604001604052808d6001600160a01b031681526020018960008151811061122657634e487b7160e01b600052603260045260246000fd5b6020908102919091018101519091526001600160a01b03928316600090815261010482526040808220845181546001600160a01b03191696169590951785559282015160019485015561010690915220805460ff191690911790555b61129089898d8a8a8f61238f565b896001600160a01b03168b6001600160a01b03167fa8991529a12a3ccde7623f7cc2b40f0b6a117bee5e3660f8ef6cea8713ce76268b8b8b6000815181106112e857634e487b7160e01b600052603260045260246000fd5b60200260200101518c60018151811061131157634e487b7160e01b600052603260045260246000fd5b602002602001015160fc548e60038151811061133d57634e487b7160e01b600052603260045260246000fd5b60209081029190910181015160408051978852918701959095528501929092526060840152608083015260a082015260c0810185905260e00160405180910390a36114ef565b604051637921219560e11b81523060048201526001600160a01b038b81166024830152604482018b9052606482018a905260a06084830152600060a48301528c169063f242432a9060c401600060405180830381600087803b1580156113e857600080fd5b505af11580156113fc573d6000803e3d6000fd5b50505050896001600160a01b03168b6001600160a01b03167fa8991529a12a3ccde7623f7cc2b40f0b6a117bee5e3660f8ef6cea8713ce76268b8b8b60008151811061145857634e487b7160e01b600052603260045260246000fd5b60200260200101518c60018151811061148157634e487b7160e01b600052603260045260246000fd5b602002602001015160fc548e6003815181106114ad57634e487b7160e01b600052603260045260246000fd5b60209081029190910181015160408051978852918701959095528501929092526060840152608083015260a082015260c0810185905260e00160405180910390a35b5050600160c955505050505050505050565b60fb546001600160a01b0316331461152b5760405162461bcd60e51b81526004016109d1906130be565b60005b825181101561159d5781610100600085848151811061155d57634e487b7160e01b600052603260045260246000fd5b6020026020010151815260200190815260200160002060006101000a81548160ff021916908315150217905550808061159590613206565b91505061152e565b505050565b60fb546001600160a01b031633146115cc5760405162461bcd60e51b81526004016109d1906130be565b60005b8151811015610e465760ff60008383815181106115fc57634e487b7160e01b600052603260045260246000fd5b6020908102919091018101516001600160a01b031682528101919091526040016000205460ff166116eb5760fe82828151811061164957634e487b7160e01b600052603260045260246000fd5b60209081029190910181015182546001808201855560009485529284200180546001600160a01b0319166001600160a01b039092169190911790558351909160ff918590859081106116ab57634e487b7160e01b600052603260045260246000fd5b60200260200101516001600160a01b03166001600160a01b0316815260200190815260200160002060006101000a81548160ff0219169083151502179055505b806116f581613206565b9150506115cf565b60fb546001600160a01b031633146117275760405162461bcd60e51b81526004016109d1906130be565b6001600160a01b038116600090815260ff60208190526040909120541661177f5760405162461bcd60e51b815260206004820152600c60248201526b3737ba1030b8383937bb32b960a11b60448201526064016109d1565b60005b60fe54811015610e4657816001600160a01b031660fe82815481106117b757634e487b7160e01b600052603260045260246000fd5b6000918252602090912001546001600160a01b031614156118cf5760fe80546117e2906001906131bf565b8154811061180057634e487b7160e01b600052603260045260246000fd5b60009182526020909120015460fe80546001600160a01b03909216918390811061183a57634e487b7160e01b600052603260045260246000fd5b9060005260206000200160006101000a8154816001600160a01b0302191690836001600160a01b0316021790555060fe80548061188757634e487b7160e01b600052603160045260246000fd5b60008281526020808220830160001990810180546001600160a01b03191690559092019092556001600160a01b038416825260ff905260409020805460ff1916905550610dd2565b806118d981613206565b915050611782565b600054610100900460ff16806118fa575060005460ff16155b6119165760405162461bcd60e51b81526004016109d1906130e7565b600054610100900460ff16158015611938576000805461ffff19166101011790555b61194061244e565b61194861244e565b6119514660fc55565b60fc54600090815261010060205260408120805460ff191660011790556002610109556101075561198a6097546001600160a01b031690565b60fb80546001600160a01b0319166001600160a01b039290921691909117905560005b8251811015611a1d57600161010060008584815181106119dd57634e487b7160e01b600052603260045260246000fd5b6020026020010151815260200190815260200160002060006101000a81548160ff0219169083151502179055508080611a1590613206565b9150506119ad565b50600a61010b558015610e46576000805461ff00191690555050565b6097546001600160a01b03163314611a635760405162461bcd60e51b81526004016109d190613135565b611a6d60006124c1565b565b60fb546001600160a01b03163314611a995760405162461bcd60e51b81526004016109d1906130be565b6001600160a01b038116611ade5760405162461bcd60e51b815260206004820152600c60248201526b6e756c6c206164647265737360a01b60448201526064016109d1565b60fb80546001600160a01b0319166001600160a01b0392909216919091179055565b60fb546001600160a01b03163314611b2a5760405162461bcd60e51b81526004016109d1906130be565b6001600160a01b038116600090815260ff60208190526040909120541615611b875760405162461bcd60e51b815260206004820152601060248201526f30b63932b0b23c9030b8383937bb32b960811b60448201526064016109d1565b6001600160a01b038116611bd05760405162461bcd60e51b815260206004820152601060248201526f6e6f6e207a65726f206164647265737360801b60448201526064016109d1565b60fe805460018181019092557f54075df80ec1ae6ac9100e1fd0ebf3246c17f5c933137af392011f4c5f61513a0180546001600160a01b039093166001600160a01b031990931683179055600091825260ff6020526040909120805460ff19169091179055565b606060fe805480602002602001604051908101604052809291908181526020018280548015611c8f57602002820191906000526020600020905b81546001600160a01b03168152600190910190602001808311611c71575b5050505050905090565b60fb546001600160a01b03163314611cc35760405162461bcd60e51b81526004016109d1906130be565b6002811015611d085760405162461bcd60e51b815260206004820152601160248201527010b6b4b71039b2ba1030b8383937bb32b960791b60448201526064016109d1565b61010955565b6001600160a01b03811660009081526101016020908152604091829020805483518184028101840190945280845260609392830182828015611d6f57602002820191906000526020600020905b815481526020019060010190808311611d5b575b50505050509050919050565b600061094b6001600160a01b0383166380ac58cd60e01b611f2c565b6001600160a01b0381166000908152610105602052604081205460ff1615611ddc57506001600160a01b0381166000908152610105602052604090205460ff1661094e565b506001600160a01b03166000908152610106602052604090205460ff1690565b60fb546001600160a01b03163314611e265760405162461bcd60e51b81526004016109d1906130be565b61010a80546001600160a01b0319166001600160a01b0392909216919091179055565b6097546001600160a01b03163314611e735760405162461bcd60e51b81526004016109d190613135565b6001600160a01b038116611ed85760405162461bcd60e51b815260206004820152602660248201527f4f776e61626c653a206e6577206f776e657220697320746865207a65726f206160448201526564647265737360d01b60648201526084016109d1565b610dd2816124c1565b60fb546001600160a01b03163314611f0b5760405162461bcd60e51b81526004016109d1906130be565b60009182526101006020526040909120805460ff1916911515919091179055565b6000611f3783612513565b8015611f485750611f488383612546565b90505b92915050565b6097546001600160a01b03163314610dd25760405162461bcd60e51b81526004016109d190613135565b6000611fae7f360894a13ba1a3210667c828492db98dca3e2076cc3735a920a3ca505d382bbc546001600160a01b031690565b9050611fb98461262f565b600083511180611fc65750815b15611fd757611fd584846126d4565b505b7f4910fdfa16fed3260ed0e7147f7cc6da11a60208b5b9406d12a635614ffd9143805460ff166120fc57805460ff191660011781556040516001600160a01b038316602482015261205690869060440160408051601f198184030181529190526020810180516001600160e01b0316631b2ce7f360e11b1790526126d4565b50805460ff191681557f360894a13ba1a3210667c828492db98dca3e2076cc3735a920a3ca505d382bbc546001600160a01b038381169116146120f35760405162461bcd60e51b815260206004820152602f60248201527f45524331393637557067726164653a207570677261646520627265616b73206660448201526e75727468657220757067726164657360881b60648201526084016109d1565b6120fc856127bf565b5050505050565b6000600261010954101561214a5760405162461bcd60e51b815260206004820152600e60248201526d216d696e20617070726f7665727360901b60448201526064016109d1565b6101095460fe5410156121905760405162461bcd60e51b815260206004820152600e60248201526d216d696e20617070726f7665727360901b60448201526064016109d1565b6000845186511480156121a4575083518551145b80156121b4575061010954845110155b156123805760005b865181101561237e576040517f19457468657265756d205369676e6564204d6573736167653a0a3332000000006020820152603c8101859052600090600190605c016040516020818303038152906040528051906020012087848151811061223457634e487b7160e01b600052603260045260246000fd5b60200260200101518a858151811061225c57634e487b7160e01b600052603260045260246000fd5b60200260200101518a868151811061228457634e487b7160e01b600052603260045260246000fd5b6020026020010151604051600081526020016040526040516122c2949392919093845260ff9290921660208401526040830152606082015260800190565b6020604051602081039080840390855afa1580156122e4573d6000803e3d6000fd5b505060408051601f1901516001600160a01b038116600090815260ff6020819052929020549093501615905061236b578261231e81613206565b604080516001600160a01b038516815260208101899052428183015290519195507fa1164cf36cb74b65282452422c4a4b867b03edb7007d123f7546f35ea3bf762b925081900360600190a15b508061237681613206565b9150506121bc565b505b61010954111595945050505050565b6101036000846000815181106123b557634e487b7160e01b600052603260045260246000fd5b602090810291909101810151825281810192909252604090810160009081206001600160a01b0380891683529352819020549051637e667f9b60e01b8152911690637e667f9b9061241490879085908b908b908a908a90600401612f84565b600060405180830381600087803b15801561242e57600080fd5b505af1158015612442573d6000803e3d6000fd5b50505050505050505050565b600054610100900460ff1680612467575060005460ff16155b6124835760405162461bcd60e51b81526004016109d1906130e7565b600054610100900460ff161580156124a5576000805461ffff19166101011790555b6124ad6127ff565b8015610dd2576000805461ff001916905550565b609780546001600160a01b038381166001600160a01b0319831681179093556040519116919082907f8be0079c531659141344cd1fd0a4f28419497f9722a3daafe3b4186f6b6457e090600090a35050565b6000612526826301ffc9a760e01b612546565b801561094b575061253f826001600160e01b0319612546565b1592915050565b604080516001600160e01b0319831660248083019190915282518083039091018152604490910182526020810180516001600160e01b03166301ffc9a760e01b179052905160009190829081906001600160a01b03871690617530906125ad908690612f08565b6000604051808303818686fa925050503d80600081146125e9576040519150601f19603f3d011682016040523d82523d6000602084013e6125ee565b606091505b50915091506020815110156126095760009350505050611f4b565b8180156126255750808060200190518101906126259190612dfe565b9695505050505050565b803b6126935760405162461bcd60e51b815260206004820152602d60248201527f455243313936373a206e657720696d706c656d656e746174696f6e206973206e60448201526c1bdd08184818dbdb9d1c9858dd609a1b60648201526084016109d1565b7f360894a13ba1a3210667c828492db98dca3e2076cc3735a920a3ca505d382bbc80546001600160a01b0319166001600160a01b0392909216919091179055565b6060823b6127335760405162461bcd60e51b815260206004820152602660248201527f416464726573733a2064656c65676174652063616c6c20746f206e6f6e2d636f6044820152651b9d1c9858dd60d21b60648201526084016109d1565b600080846001600160a01b03168460405161274e9190612f08565b600060405180830381855af49150503d8060008114612789576040519150601f19603f3d011682016040523d82523d6000602084013e61278e565b606091505b50915091506127b6828260405180606001604052806027815260200161555760279139612866565b95945050505050565b6127c88161262f565b6040516001600160a01b038216907fbc7cd75a20ee27fd9adebab32041f755214dbc6bffa90cc0225b39da2e5c2d3b90600090a250565b600054610100900460ff1680612818575060005460ff16155b6128345760405162461bcd60e51b81526004016109d1906130e7565b600054610100900460ff16158015612856576000805461ffff19166101011790555b61285e6128a6565b6124ad612910565b6060831561287557508161289f565b8251156128855782518084602001fd5b8160405162461bcd60e51b81526004016109d191906130ab565b9392505050565b600054610100900460ff16806128bf575060005460ff16155b6128db5760405162461bcd60e51b81526004016109d1906130e7565b600054610100900460ff161580156124ad576000805461ffff19166101011790558015610dd2576000805461ff001916905550565b600054610100900460ff1680612929575060005460ff16155b6129455760405162461bcd60e51b81526004016109d1906130e7565b600054610100900460ff16158015612967576000805461ffff19166101011790555b6124ad336124c1565b6122e68061327183390190565b803561094e8161324d565b600082601f830112612998578081fd5b813560206129ad6129a88361319b565b61316a565b80838252828201915082860187848660051b89010111156129cc578586fd5b855b858110156129ea578135845292840192908401906001016129ce565b5090979650505050505050565b600082601f830112612a07578081fd5b81356020612a176129a88361319b565b80838252828201915082860187848660051b8901011115612a36578586fd5b855b858110156129ea57813560ff81168114612a50578788fd5b84529284019290840190600101612a38565b600082601f830112612a72578081fd5b813567ffffffffffffffff811115612a8c57612a8c613237565b612a9f601f8201601f191660200161316a565b818152846020838601011115612ab3578283fd5b816020850160208301379081016020019190915292915050565b600060208284031215612ade578081fd5b813561289f8161324d565b6000806000806000806000806000806101408b8d031215612b08578586fd5b612b118b61297d565b9950612b1f60208c0161297d565b985060408b0135975060608b0135965060808b013567ffffffffffffffff80821115612b49578788fd5b612b558e838f01612988565b975060a08d0135965060c08d0135915080821115612b71578586fd5b612b7d8e838f01612988565b955060e08d0135915080821115612b92578485fd5b612b9e8e838f01612988565b94506101008d0135915080821115612bb4578384fd5b612bc08e838f016129f7565b93506101208d0135915080821115612bd6578283fd5b50612be38d828e01612a62565b9150509295989b9194979a5092959850565b60008060408385031215612c07578182fd5b8235612c128161324d565b9150602083013567ffffffffffffffff811115612c2d578182fd5b612c3985828601612a62565b9150509250929050565b600080600080600060a08688031215612c5a578283fd5b8535612c658161324d565b9450602086013567ffffffffffffffff811115612c80578384fd5b612c8c88828901612a62565b959895975050505060408401359360608101359360809091013592509050565b60008060408385031215612cbe578182fd5b8235612cc98161324d565b946020939093013593505050565b60006020808385031215612ce9578182fd5b823567ffffffffffffffff811115612cff578283fd5b8301601f81018513612d0f578283fd5b8035612d1d6129a88261319b565b80828252848201915084840188868560051b8701011115612d3c578687fd5b8694505b83851015612d67578035612d538161324d565b835260019490940193918501918501612d40565b50979650505050505050565b600060208284031215612d84578081fd5b813567ffffffffffffffff811115612d9a578182fd5b612da684828501612988565b949350505050565b60008060408385031215612dc0578182fd5b823567ffffffffffffffff811115612dd6578283fd5b612de285828601612988565b9250506020830135612df381613262565b809150509250929050565b600060208284031215612e0f578081fd5b815161289f81613262565b600060208284031215612e2b578081fd5b5035919050565b600060208284031215612e43578081fd5b81356001600160e01b03198116811461289f578182fd5b60008060408385031215612e6c578182fd5b823591506020830135612df38161324d565b60008060408385031215612e90578182fd5b823591506020830135612df381613262565b6000815180845260208085019450808401835b83811015612ed157815187529582019590820190600101612eb5565b509495945050505050565b60008151808452612ef48160208601602086016131d6565b601f01601f19169290920160200192915050565b60008251612f1a8184602087016131d6565b9190910192915050565b6001600160a01b03888116825287166020820152604081018690526060810185905260e060808201819052600090612f5e90830186612ea2565b8460a084015282810360c0840152612f768185612edc565b9a9950505050505050505050565b6001600160a01b03878116825286166020820152604081018590526060810184905260e060808201819052600090612fbe90830185612ea2565b60a083019390935281830360c090920191909152815260200195945050505050565b600060018060a01b0385168252836020830152606060408301526127b66060830184612edc565b6020808252825182820181905260009190848201906040850190845b818110156130485783516001600160a01b031683529284019291840191600101613023565b50909695505050505050565b600060208252611f486020830184612ea2565b600060e0825261307a60e083018a612edc565b60208301989098525060408101959095526060850193909352608084019190915260a083015260c090910152919050565b600060208252611f486020830184612edc565b6020808252600f908201526e216f6e6c79476f7665726e616e636560881b604082015260600190565b6020808252602e908201527f496e697469616c697a61626c653a20636f6e747261637420697320616c72656160408201526d191e481a5b9a5d1a585b1a5e995960921b606082015260800190565b6020808252818101527f4f776e61626c653a2063616c6c6572206973206e6f7420746865206f776e6572604082015260600190565b604051601f8201601f1916810167ffffffffffffffff8111828210171561319357613193613237565b604052919050565b600067ffffffffffffffff8211156131b5576131b5613237565b5060051b60200190565b6000828210156131d1576131d1613221565b500390565b60005b838110156131f15781810151838201526020016131d9565b83811115613200576000848401525b50505050565b600060001982141561321a5761321a613221565b5060010190565b634e487b7160e01b600052601160045260246000fd5b634e487b7160e01b600052604160045260246000fd5b6001600160a01b0381168114610dd257600080fd5b8015158114610dd257600080fdfe608060405234801561001057600080fd5b506122c6806100206000396000f3fe608060405234801561001057600080fd5b50600436106101205760003560e01c80637e667f9b116100ad578063a22cb46511610071578063a22cb4651461026c578063e985e9c51461027f578063f242432a146102bb578063f2fde38b146102ce578063f5298aca146102e157610120565b80637e667f9b1461021257806381d60956146102255780638d68fdc8146102385780638da5cb5b1461025b5780639a8a05921461026357610120565b80632eb2c2d6116100f45780632eb2c2d6146101975780634e1273f4146101ac5780636b20c454146101cc578063715018a6146101df5780637a4f7d79146101e757610120565b8062fdd58e1461012557806301ffc9a71461014b5780630ac7f5611461016e5780630e89341c14610177575b600080fd5b610138610133366004611b24565b6102f4565b6040519081526020015b60405180910390f35b61015e610159366004611cc0565b61038d565b6040519015158152602001610142565b61013860fe5481565b61018a610185366004611ca8565b6103e1565b6040516101429190611e61565b6101aa6101a53660046118d1565b610475565b005b6101bf6101ba366004611bdd565b61050c565b6040516101429190611e20565b6101aa6101da366004611a79565b61066e565b6101aa6106b6565b60fd546101fa906001600160a01b031681565b6040516001600160a01b039091168152602001610142565b6101aa610220366004611977565b6106f1565b6101aa610233366004611b4d565b610884565b61015e610246366004611ca8565b60fc6020526000908152604090205460ff1681565b6101fa61092d565b61013860fb5481565b6101aa61027a366004611aea565b61093d565b61015e61028d36600461189f565b6001600160a01b03918216600090815260666020908152604080832093909416825291909152205460ff1690565b6101aa6102c9366004611a16565b610a21565b6101aa6102dc366004611885565b610a66565b6101aa6102ef366004611bab565b610b06565b60006001600160a01b0383166103655760405162461bcd60e51b815260206004820152602b60248201527f455243313135353a2062616c616e636520717565727920666f7220746865207a60448201526a65726f206164647265737360a81b60648201526084015b60405180910390fd5b5060009081526065602090815260408083206001600160a01b03949094168352929052205490565b60006001600160e01b03198216636cdb3d1360e11b14806103be57506001600160e01b031982166303a24d0760e21b145b806103d957506301ffc9a760e01b6001600160e01b03198316145b90505b919050565b6060606780546103f090612122565b80601f016020809104026020016040519081016040528092919081815260200182805461041c90612122565b80156104695780601f1061043e57610100808354040283529160200191610469565b820191906000526020600020905b81548152906001019060200180831161044c57829003601f168201915b50505050509050919050565b6001600160a01b0385163314806104915750610491853361028d565b6104f85760405162461bcd60e51b815260206004820152603260248201527f455243313135353a207472616e736665722063616c6c6572206973206e6f74206044820152711bdddb995c881b9bdc88185c1c1c9bdd995960721b606482015260840161035c565b6105058585858585610b49565b5050505050565b606081518351146105715760405162461bcd60e51b815260206004820152602960248201527f455243313135353a206163636f756e747320616e6420696473206c656e677468604482015268040dad2e6dac2e8c6d60bb1b606482015260840161035c565b6000835167ffffffffffffffff81111561059b57634e487b7160e01b600052604160045260246000fd5b6040519080825280602002602001820160405280156105c4578160200160208202803683370190505b50905060005b84518110156106665761062b8582815181106105f657634e487b7160e01b600052603260045260246000fd5b602002602001015185838151811061061e57634e487b7160e01b600052603260045260246000fd5b60200260200101516102f4565b82828151811061064b57634e487b7160e01b600052603260045260246000fd5b602090810291909101015261065f8161218a565b90506105ca565b509392505050565b6001600160a01b03831633148061068a575061068a833361028d565b6106a65760405162461bcd60e51b815260040161035c90611f00565b6106b1838383610d04565b505050565b336106bf61092d565b6001600160a01b0316146106e55760405162461bcd60e51b815260040161035c90612069565b6106ef6000610e9f565b565b336106fa61092d565b6001600160a01b0316146107205760405162461bcd60e51b815260040161035c90612069565b825160041461076a5760405162461bcd60e51b8152602060048201526016602482015275042bec6d0c2d2dc92c8e692dcc8caf05cd8cadccee8d60531b604482015260640161035c565b60fd546001600160a01b038881169116146107bf5760405162461bcd60e51b8152602060048201526015602482015274216f726967696e616c546f6b656e4164647265737360581b604482015260640161035c565b60fb54836002815181106107e357634e487b7160e01b600052603260045260246000fd5b60200260200101511461082b5760405162461bcd60e51b815260206004820152601060248201526f085a5b9d985b1a590818da185a5b925960821b604482015260640161035c565b6001600160a01b03861661086f5760405162461bcd60e51b815260206004820152600b60248201526a21696e76616c696420746f60a81b604482015260640161035c565b61087b86868684610ef1565b50505050505050565b600054610100900460ff168061089d575060005460ff16155b6108b95760405162461bcd60e51b815260040161035c90611f8e565b600054610100900460ff161580156108db576000805461ffff19166101011790555b6108e3610ffd565b6108ec4660fb55565b6108f582611078565b60fd80546001600160a01b0319166001600160a01b03861617905560fe8390558015610927576000805461ff00191690555b50505050565b60c9546001600160a01b03165b90565b336001600160a01b03831614156109a85760405162461bcd60e51b815260206004820152602960248201527f455243313135353a2073657474696e6720617070726f76616c20737461747573604482015268103337b91039b2b63360b91b606482015260840161035c565b3360008181526066602090815260408083206001600160a01b0387168085529252909120805460ff1916841515179055906001600160a01b03167f17307eab39ab6107e8899845ad3d59bd9653f200f220920489ca2b5937696c3183604051610a15911515815260200190565b60405180910390a35050565b6001600160a01b038516331480610a3d5750610a3d853361028d565b610a595760405162461bcd60e51b815260040161035c90611f00565b61050585858585856110fe565b33610a6f61092d565b6001600160a01b031614610a955760405162461bcd60e51b815260040161035c90612069565b6001600160a01b038116610afa5760405162461bcd60e51b815260206004820152602660248201527f4f776e61626c653a206e6577206f776e657220697320746865207a65726f206160448201526564647265737360d01b606482015260840161035c565b610b0381610e9f565b50565b6001600160a01b038316331480610b225750610b22833361028d565b610b3e5760405162461bcd60e51b815260040161035c90611f00565b6106b1838383611216565b8151835114610b6a5760405162461bcd60e51b815260040161035c9061209e565b6001600160a01b038416610b905760405162461bcd60e51b815260040161035c90611f49565b3360005b8451811015610c96576000858281518110610bbf57634e487b7160e01b600052603260045260246000fd5b602002602001015190506000858381518110610beb57634e487b7160e01b600052603260045260246000fd5b60209081029190910181015160008481526065835260408082206001600160a01b038e168352909352919091205490915081811015610c3c5760405162461bcd60e51b815260040161035c9061201f565b60008381526065602090815260408083206001600160a01b038e8116855292528083208585039055908b16825281208054849290610c7b90849061210a565b9250508190555050505080610c8f9061218a565b9050610b94565b50846001600160a01b0316866001600160a01b0316826001600160a01b03167f4a39dc06d4c0dbc64b70af90fd698a233a518aa5d07e595d983b8c0526c8f7fb8787604051610ce6929190611e33565b60405180910390a4610cfc81878787878761131c565b505050505050565b6001600160a01b038316610d2a5760405162461bcd60e51b815260040161035c90611fdc565b8051825114610d4b5760405162461bcd60e51b815260040161035c9061209e565b604080516020810190915260009081905233905b8351811015610e40576000848281518110610d8a57634e487b7160e01b600052603260045260246000fd5b602002602001015190506000848381518110610db657634e487b7160e01b600052603260045260246000fd5b60209081029190910181015160008481526065835260408082206001600160a01b038c168352909352919091205490915081811015610e075760405162461bcd60e51b815260040161035c90611ebc565b60009283526065602090815260408085206001600160a01b038b1686529091529092209103905580610e388161218a565b915050610d5f565b5060006001600160a01b0316846001600160a01b0316826001600160a01b03167f4a39dc06d4c0dbc64b70af90fd698a233a518aa5d07e595d983b8c0526c8f7fb8686604051610e91929190611e33565b60405180910390a450505050565b60c980546001600160a01b038381166001600160a01b0319831681179093556040519116919082907f8be0079c531659141344cd1fd0a4f28419497f9722a3daafe3b4186f6b6457e090600090a35050565b6001600160a01b038416610f515760405162461bcd60e51b815260206004820152602160248201527f455243313135353a206d696e7420746f20746865207a65726f206164647265736044820152607360f81b606482015260840161035c565b33610f6b81600087610f6288611487565b61050588611487565b60008481526065602090815260408083206001600160a01b038916845290915281208054859290610f9d90849061210a565b909155505060408051858152602081018590526001600160a01b0380881692600092918516917fc3d58168c5ae7397731d063d5bbf3d657854427343f4c083240f7aacaa2d0f62910160405180910390a4610505816000878787876114e0565b600054610100900460ff1680611016575060005460ff16155b6110325760405162461bcd60e51b815260040161035c90611f8e565b600054610100900460ff16158015611054576000805461ffff19166101011790555b61105c6115aa565b611064611614565b8015610b03576000805461ff001916905550565b600054610100900460ff1680611091575060005460ff16155b6110ad5760405162461bcd60e51b815260040161035c90611f8e565b600054610100900460ff161580156110cf576000805461ffff19166101011790555b6110d76115aa565b6110df6115aa565b6110e882611674565b80156110fa576000805461ff00191690555b5050565b6001600160a01b0384166111245760405162461bcd60e51b815260040161035c90611f49565b33611134818787610f6288611487565b60008481526065602090815260408083206001600160a01b038a168452909152902054838110156111775760405162461bcd60e51b815260040161035c9061201f565b60008581526065602090815260408083206001600160a01b038b81168552925280832087850390559088168252812080548692906111b690849061210a565b909155505060408051868152602081018690526001600160a01b03808916928a821692918616917fc3d58168c5ae7397731d063d5bbf3d657854427343f4c083240f7aacaa2d0f62910160405180910390a461087b8288888888886114e0565b6001600160a01b03831661123c5760405162461bcd60e51b815260040161035c90611fdc565b3361126c8185600061124d87611487565b61125687611487565b5050604080516020810190915260009052505050565b60008381526065602090815260408083206001600160a01b0388168452909152902054828110156112af5760405162461bcd60e51b815260040161035c90611ebc565b60008481526065602090815260408083206001600160a01b03898116808652918452828520888703905582518981529384018890529092908616917fc3d58168c5ae7397731d063d5bbf3d657854427343f4c083240f7aacaa2d0f62910160405180910390a45050505050565b6001600160a01b0384163b15610cfc5760405163bc197c8160e01b81526001600160a01b0385169063bc197c81906113609089908990889088908890600401611d7d565b602060405180830381600087803b15801561137a57600080fd5b505af19250505080156113aa575060408051601f3d908101601f191682019092526113a791810190611cdc565b60015b611457576113b66121d1565b806308c379a014156113f057506113cb6121e8565b806113d657506113f2565b8060405162461bcd60e51b815260040161035c9190611e61565b505b60405162461bcd60e51b815260206004820152603460248201527f455243313135353a207472616e7366657220746f206e6f6e20455243313135356044820152732932b1b2b4bb32b91034b6b83632b6b2b73a32b960611b606482015260840161035c565b6001600160e01b0319811663bc197c8160e01b1461087b5760405162461bcd60e51b815260040161035c90611e74565b604080516001808252818301909252606091600091906020808301908036833701905050905082816000815181106114cf57634e487b7160e01b600052603260045260246000fd5b602090810291909101015292915050565b6001600160a01b0384163b15610cfc5760405163f23a6e6160e01b81526001600160a01b0385169063f23a6e61906115249089908990889088908890600401611ddb565b602060405180830381600087803b15801561153e57600080fd5b505af192505050801561156e575060408051601f3d908101601f1916820190925261156b91810190611cdc565b60015b61157a576113b66121d1565b6001600160e01b0319811663f23a6e6160e01b1461087b5760405162461bcd60e51b815260040161035c90611e74565b600054610100900460ff16806115c3575060005460ff16155b6115df5760405162461bcd60e51b815260040161035c90611f8e565b600054610100900460ff16158015611064576000805461ffff19166101011790558015610b03576000805461ff001916905550565b600054610100900460ff168061162d575060005460ff16155b6116495760405162461bcd60e51b815260040161035c90611f8e565b600054610100900460ff1615801561166b576000805461ffff19166101011790555b61106433610e9f565b600054610100900460ff168061168d575060005460ff16155b6116a95760405162461bcd60e51b815260040161035c90611f8e565b600054610100900460ff161580156116cb576000805461ffff19166101011790555b6110e88280516110fa9060679060208401908280546116e990612122565b90600052602060002090601f01602090048101928261170b5760008555611751565b82601f1061172457805160ff1916838001178555611751565b82800160010185558215611751579182015b82811115611751578251825591602001919060010190611736565b5061175d929150611761565b5090565b5b8082111561175d5760008155600101611762565b600067ffffffffffffffff831115611790576117906121bb565b6040516117a7601f8501601f19166020018261215d565b8091508381528484840111156117bc57600080fd5b83836020830137600060208583010152509392505050565b80356001600160a01b03811681146103dc57600080fd5b600082601f8301126117fb578081fd5b81356020611808826120e6565b604051611815828261215d565b8381528281019150858301600585901b87018401881015611834578586fd5b855b8581101561185257813584529284019290840190600101611836565b5090979650505050505050565b600082601f83011261186f578081fd5b61187e83833560208501611776565b9392505050565b600060208284031215611896578081fd5b61187e826117d4565b600080604083850312156118b1578081fd5b6118ba836117d4565b91506118c8602084016117d4565b90509250929050565b600080600080600060a086880312156118e8578081fd5b6118f1866117d4565b94506118ff602087016117d4565b9350604086013567ffffffffffffffff8082111561191b578283fd5b61192789838a016117eb565b9450606088013591508082111561193c578283fd5b61194889838a016117eb565b9350608088013591508082111561195d578283fd5b5061196a8882890161185f565b9150509295509295909350565b600080600080600080600060e0888a031215611991578182fd5b61199a886117d4565b96506119a8602089016117d4565b95506040880135945060608801359350608088013567ffffffffffffffff808211156119d2578384fd5b6119de8b838c016117eb565b945060a08a0135935060c08a01359150808211156119fa578283fd5b50611a078a828b0161185f565b91505092959891949750929550565b600080600080600060a08688031215611a2d578081fd5b611a36866117d4565b9450611a44602087016117d4565b93506040860135925060608601359150608086013567ffffffffffffffff811115611a6d578182fd5b61196a8882890161185f565b600080600060608486031215611a8d578283fd5b611a96846117d4565b9250602084013567ffffffffffffffff80821115611ab2578384fd5b611abe878388016117eb565b93506040860135915080821115611ad3578283fd5b50611ae0868287016117eb565b9150509250925092565b60008060408385031215611afc578182fd5b611b05836117d4565b915060208301358015158114611b19578182fd5b809150509250929050565b60008060408385031215611b36578182fd5b611b3f836117d4565b946020939093013593505050565b600080600060608486031215611b61578081fd5b611b6a846117d4565b925060208401359150604084013567ffffffffffffffff811115611b8c578182fd5b8401601f81018613611b9c578182fd5b611ae086823560208401611776565b600080600060608486031215611bbf578081fd5b611bc8846117d4565b95602085013595506040909401359392505050565b60008060408385031215611bef578182fd5b823567ffffffffffffffff80821115611c06578384fd5b818501915085601f830112611c19578384fd5b81356020611c26826120e6565b604051611c33828261215d565b8381528281019150858301600585901b870184018b1015611c52578889fd5b8896505b84871015611c7b57611c67816117d4565b835260019690960195918301918301611c56565b5096505086013592505080821115611c91578283fd5b50611c9e858286016117eb565b9150509250929050565b600060208284031215611cb9578081fd5b5035919050565b600060208284031215611cd1578081fd5b813561187e8161227a565b600060208284031215611ced578081fd5b815161187e8161227a565b6000815180845260208085019450808401835b83811015611d2757815187529582019590820190600101611d0b565b509495945050505050565b60008151808452815b81811015611d5757602081850181015186830182015201611d3b565b81811115611d685782602083870101525b50601f01601f19169290920160200192915050565b6001600160a01b0386811682528516602082015260a060408201819052600090611da990830186611cf8565b8281036060840152611dbb8186611cf8565b90508281036080840152611dcf8185611d32565b98975050505050505050565b6001600160a01b03868116825285166020820152604081018490526060810183905260a060808201819052600090611e1590830184611d32565b979650505050505050565b60006020825261187e6020830184611cf8565b600060408252611e466040830185611cf8565b8281036020840152611e588185611cf8565b95945050505050565b60006020825261187e6020830184611d32565b60208082526028908201527f455243313135353a204552433131353552656365697665722072656a656374656040820152676420746f6b656e7360c01b606082015260800190565b60208082526024908201527f455243313135353a206275726e20616d6f756e7420657863656564732062616c604082015263616e636560e01b606082015260800190565b60208082526029908201527f455243313135353a2063616c6c6572206973206e6f74206f776e6572206e6f7260408201526808185c1c1c9bdd995960ba1b606082015260800190565b60208082526025908201527f455243313135353a207472616e7366657220746f20746865207a65726f206164604082015264647265737360d81b606082015260800190565b6020808252602e908201527f496e697469616c697a61626c653a20636f6e747261637420697320616c72656160408201526d191e481a5b9a5d1a585b1a5e995960921b606082015260800190565b60208082526023908201527f455243313135353a206275726e2066726f6d20746865207a65726f206164647260408201526265737360e81b606082015260800190565b6020808252602a908201527f455243313135353a20696e73756666696369656e742062616c616e636520666f60408201526939103a3930b739b332b960b11b606082015260800190565b6020808252818101527f4f776e61626c653a2063616c6c6572206973206e6f7420746865206f776e6572604082015260600190565b60208082526028908201527f455243313135353a2069647320616e6420616d6f756e7473206c656e677468206040820152670dad2e6dac2e8c6d60c31b606082015260800190565b600067ffffffffffffffff821115612100576121006121bb565b5060051b60200190565b6000821982111561211d5761211d6121a5565b500190565b600181811c9082168061213657607f821691505b6020821081141561215757634e487b7160e01b600052602260045260246000fd5b50919050565b601f8201601f1916810167ffffffffffffffff81118282101715612183576121836121bb565b6040525050565b600060001982141561219e5761219e6121a5565b5060010190565b634e487b7160e01b600052601160045260246000fd5b634e487b7160e01b600052604160045260246000fd5b600060033d111561093a57600481823e5160e01c90565b600060443d10156121f85761093a565b6040516003193d81016004833e81513d67ffffffffffffffff816024840111818411171561222a57505050505061093a565b82850191508151818111156122445750505050505061093a565b843d87010160208285010111156122605750505050505061093a565b61226f6020828601018761215d565b509094505050505090565b6001600160e01b031981168114610b0357600080fdfea26469706673582212201d2fbce9471ee7a28b9fe645d7c32c2c66ceeb5ccc2dad866201b9780165d45e64736f6c63430008030033416464726573733a206c6f772d6c6576656c2064656c65676174652063616c6c206661696c6564a264697066735822122006b96a97a012a78123915857eaba32fea86915897dd8e9ee9412c59e9183e73f64736f6c63430008030033",
  "linkReferences": {},
  "deployedLinkReferences": {}
}