{
  "_format": "hh-sol-artifact-1",
  "contractName": "DTOBonding",
  "sourceName": "contracts/validator/DTOBonding.sol",
  "abi": [
    {
      "anonymous": false,
      "inputs": [
        {
          "indexed": false,
          "internalType": "address",
          "name": "previousAdmin",
          "type": "address"
        },
        {
          "indexed": false,
          "internalType": "address",
          "name": "newAdmin",
          "type": "address"
        }
      ],
      "name": "AdminChanged",
      "type": "event"
    },
    {
      "anonymous": false,
      "inputs": [
        {
          "indexed": true,
          "internalType": "address",
          "name": "beacon",
          "type": "address"
        }
      ],
      "name": "BeaconUpgraded",
      "type": "event"
    },
    {
      "anonymous": false,
      "inputs": [
        {
          "indexed": true,
          "internalType": "address",
          "name": "previousOwner",
          "type": "address"
        },
        {
          "indexed": true,
          "internalType": "address",
          "name": "newOwner",
          "type": "address"
        }
      ],
      "name": "OwnershipTransferred",
      "type": "event"
    },
    {
      "anonymous": false,
      "inputs": [
        {
          "indexed": true,
          "internalType": "address",
          "name": "implementation",
          "type": "address"
        }
      ],
      "name": "Upgraded",
      "type": "event"
    },
    {
      "anonymous": false,
      "inputs": [
        {
          "indexed": true,
          "internalType": "address",
          "name": "validator",
          "type": "address"
        },
        {
          "indexed": false,
          "internalType": "uint256",
          "name": "blockNumber",
          "type": "uint256"
        },
        {
          "indexed": false,
          "internalType": "uint256",
          "name": "timestamp",
          "type": "uint256"
        }
      ],
      "name": "ValidatorApply",
      "type": "event"
    },
    {
      "anonymous": false,
      "inputs": [
        {
          "indexed": true,
          "internalType": "address",
          "name": "validator",
          "type": "address"
        },
        {
          "indexed": false,
          "internalType": "uint256",
          "name": "blockNumber",
          "type": "uint256"
        },
        {
          "indexed": false,
          "internalType": "uint256",
          "name": "timestamp",
          "type": "uint256"
        }
      ],
      "name": "ValidatorApproval",
      "type": "event"
    },
    {
      "anonymous": false,
      "inputs": [
        {
          "indexed": true,
          "internalType": "address",
          "name": "validator",
          "type": "address"
        },
        {
          "indexed": false,
          "internalType": "uint256",
          "name": "blockNumber",
          "type": "uint256"
        },
        {
          "indexed": false,
          "internalType": "uint256",
          "name": "timestamp",
          "type": "uint256"
        }
      ],
      "name": "ValidatorResign",
      "type": "event"
    },
    {
      "inputs": [],
      "name": "APPROVE_PERCENT_THRESHOLD",
      "outputs": [
        {
          "internalType": "uint256",
          "name": "",
          "type": "uint256"
        }
      ],
      "stateMutability": "view",
      "type": "function"
    },
    {
      "inputs": [],
      "name": "BONDING_AMOUNT",
      "outputs": [
        {
          "internalType": "uint256",
          "name": "",
          "type": "uint256"
        }
      ],
      "stateMutability": "view",
      "type": "function"
    },
    {
      "inputs": [],
      "name": "MAX_LOCKING_TOKEN",
      "outputs": [
        {
          "internalType": "uint256",
          "name": "",
          "type": "uint256"
        }
      ],
      "stateMutability": "view",
      "type": "function"
    },
    {
      "inputs": [],
      "name": "MINIMUM_WAITING",
      "outputs": [
        {
          "internalType": "uint256",
          "name": "",
          "type": "uint256"
        }
      ],
      "stateMutability": "view",
      "type": "function"
    },
    {
      "inputs": [],
      "name": "POOL_LOCKED_TIME",
      "outputs": [
        {
          "internalType": "uint256",
          "name": "",
          "type": "uint256"
        }
      ],
      "stateMutability": "view",
      "type": "function"
    },
    {
      "inputs": [],
      "name": "applyValidtor",
      "outputs": [],
      "stateMutability": "nonpayable",
      "type": "function"
    },
    {
      "inputs": [
        {
          "internalType": "address",
          "name": "_validator",
          "type": "address"
        }
      ],
      "name": "approveValidator",
      "outputs": [],
      "stateMutability": "nonpayable",
      "type": "function"
    },
    {
      "inputs": [],
      "name": "cancelValidatorApplication",
      "outputs": [],
      "stateMutability": "nonpayable",
      "type": "function"
    },
    {
      "inputs": [],
      "name": "chainId",
      "outputs": [
        {
          "internalType": "uint256",
          "name": "",
          "type": "uint256"
        }
      ],
      "stateMutability": "view",
      "type": "function"
    },
    {
      "inputs": [],
      "name": "dtoToken",
      "outputs": [
        {
          "internalType": "address",
          "name": "",
          "type": "address"
        }
      ],
      "stateMutability": "view",
      "type": "function"
    },
    {
      "inputs": [
        {
          "internalType": "address",
          "name": "_validator",
          "type": "address"
        }
      ],
      "name": "foundationApproveValidator",
      "outputs": [],
      "stateMutability": "nonpayable",
      "type": "function"
    },
    {
      "inputs": [
        {
          "internalType": "address",
          "name": "_user",
          "type": "address"
        }
      ],
      "name": "getLockInfo",
      "outputs": [
        {
          "internalType": "bool[]",
          "name": "isWithdrawns",
          "type": "bool[]"
        },
        {
          "internalType": "address[]",
          "name": "tokens",
          "type": "address[]"
        },
        {
          "internalType": "uint256[]",
          "name": "unlockableAts",
          "type": "uint256[]"
        },
        {
          "internalType": "uint256[]",
          "name": "amounts",
          "type": "uint256[]"
        }
      ],
      "stateMutability": "view",
      "type": "function"
    },
    {
      "inputs": [
        {
          "internalType": "address",
          "name": "_addr",
          "type": "address"
        },
        {
          "internalType": "uint256[]",
          "name": "_indexes",
          "type": "uint256[]"
        }
      ],
      "name": "getLockInfoByIndexes",
      "outputs": [
        {
          "internalType": "bool[]",
          "name": "isWithdrawns",
          "type": "bool[]"
        },
        {
          "internalType": "address[]",
          "name": "tokens",
          "type": "address[]"
        },
        {
          "internalType": "uint256[]",
          "name": "unlockableAts",
          "type": "uint256[]"
        },
        {
          "internalType": "uint256[]",
          "name": "amounts",
          "type": "uint256[]"
        }
      ],
      "stateMutability": "view",
      "type": "function"
    },
    {
      "inputs": [
        {
          "internalType": "address",
          "name": "_addr",
          "type": "address"
        }
      ],
      "name": "getLockInfoLength",
      "outputs": [
        {
          "internalType": "uint256",
          "name": "",
          "type": "uint256"
        }
      ],
      "stateMutability": "view",
      "type": "function"
    },
    {
      "inputs": [
        {
          "internalType": "address",
          "name": "addr",
          "type": "address"
        }
      ],
      "name": "getPendingValidatorInfo",
      "outputs": [
        {
          "internalType": "address",
          "name": "",
          "type": "address"
        },
        {
          "internalType": "uint256",
          "name": "",
          "type": "uint256"
        },
        {
          "internalType": "uint256",
          "name": "",
          "type": "uint256"
        }
      ],
      "stateMutability": "view",
      "type": "function"
    },
    {
      "inputs": [
        {
          "internalType": "address",
          "name": "addr",
          "type": "address"
        }
      ],
      "name": "getValidatorInfo",
      "outputs": [
        {
          "internalType": "address",
          "name": "",
          "type": "address"
        },
        {
          "internalType": "uint256",
          "name": "",
          "type": "uint256"
        },
        {
          "internalType": "uint256",
          "name": "",
          "type": "uint256"
        }
      ],
      "stateMutability": "view",
      "type": "function"
    },
    {
      "inputs": [],
      "name": "governance",
      "outputs": [
        {
          "internalType": "address",
          "name": "",
          "type": "address"
        }
      ],
      "stateMutability": "view",
      "type": "function"
    },
    {
      "inputs": [
        {
          "internalType": "address",
          "name": "_dtoToken",
          "type": "address"
        },
        {
          "internalType": "address",
          "name": "_lockingtoken",
          "type": "address"
        },
        {
          "internalType": "uint256",
          "name": "_bondingAmount",
          "type": "uint256"
        },
        {
          "internalType": "uint256",
          "name": "_minwaiting",
          "type": "uint256"
        },
        {
          "internalType": "uint256",
          "name": "_aprovePercentThreshold",
          "type": "uint256"
        },
        {
          "internalType": "uint256",
          "name": "_maxLockingToken",
          "type": "uint256"
        },
        {
          "internalType": "uint256",
          "name": "_poolLockedTime",
          "type": "uint256"
        }
      ],
      "name": "initialize",
      "outputs": [],
      "stateMutability": "nonpayable",
      "type": "function"
    },
    {
      "inputs": [
        {
          "internalType": "address",
          "name": "addr",
          "type": "address"
        }
      ],
      "name": "isValidator",
      "outputs": [
        {
          "internalType": "bool",
          "name": "",
          "type": "bool"
        }
      ],
      "stateMutability": "view",
      "type": "function"
    },
    {
      "inputs": [
        {
          "internalType": "address",
          "name": "_token",
          "type": "address"
        },
        {
          "internalType": "address",
          "name": "_addr",
          "type": "address"
        },
        {
          "internalType": "uint256",
          "name": "_amount",
          "type": "uint256"
        },
        {
          "internalType": "uint256",
          "name": "_lockedTime",
          "type": "uint256"
        }
      ],
      "name": "lock",
      "outputs": [],
      "stateMutability": "nonpayable",
      "type": "function"
    },
    {
      "inputs": [],
      "name": "lockingtoken",
      "outputs": [
        {
          "internalType": "contract LockingTokenValidator",
          "name": "",
          "type": "address"
        }
      ],
      "stateMutability": "view",
      "type": "function"
    },
    {
      "inputs": [],
      "name": "owner",
      "outputs": [
        {
          "internalType": "address",
          "name": "",
          "type": "address"
        }
      ],
      "stateMutability": "view",
      "type": "function"
    },
    {
      "inputs": [
        {
          "internalType": "address",
          "name": "",
          "type": "address"
        }
      ],
      "name": "pendingValidators",
      "outputs": [
        {
          "internalType": "address",
          "name": "addr",
          "type": "address"
        },
        {
          "internalType": "uint256",
          "name": "blockNumber",
          "type": "uint256"
        },
        {
          "internalType": "uint256",
          "name": "timestamp",
          "type": "uint256"
        }
      ],
      "stateMutability": "view",
      "type": "function"
    },
    {
      "inputs": [],
      "name": "renounceOwnership",
      "outputs": [],
      "stateMutability": "nonpayable",
      "type": "function"
    },
    {
      "inputs": [],
      "name": "resignValidator",
      "outputs": [],
      "stateMutability": "nonpayable",
      "type": "function"
    },
    {
      "inputs": [
        {
          "internalType": "address",
          "name": "_gov",
          "type": "address"
        }
      ],
      "name": "setGovernance",
      "outputs": [],
      "stateMutability": "nonpayable",
      "type": "function"
    },
    {
      "inputs": [
        {
          "internalType": "address",
          "name": "newOwner",
          "type": "address"
        }
      ],
      "name": "transferOwnership",
      "outputs": [],
      "stateMutability": "nonpayable",
      "type": "function"
    },
    {
      "inputs": [
        {
          "internalType": "address",
          "name": "_addr",
          "type": "address"
        },
        {
          "internalType": "uint256",
          "name": "index",
          "type": "uint256"
        }
      ],
      "name": "unlock",
      "outputs": [],
      "stateMutability": "nonpayable",
      "type": "function"
    },
    {
      "inputs": [
        {
          "internalType": "address",
          "name": "newImplementation",
          "type": "address"
        }
      ],
      "name": "upgradeTo",
      "outputs": [],
      "stateMutability": "nonpayable",
      "type": "function"
    },
    {
      "inputs": [
        {
          "internalType": "address",
          "name": "newImplementation",
          "type": "address"
        },
        {
          "internalType": "bytes",
          "name": "data",
          "type": "bytes"
        }
      ],
      "name": "upgradeToAndCall",
      "outputs": [],
      "stateMutability": "payable",
      "type": "function"
    },
    {
      "inputs": [
        {
          "internalType": "uint256",
          "name": "",
          "type": "uint256"
        }
      ],
      "name": "validatorList",
      "outputs": [
        {
          "internalType": "address",
          "name": "",
          "type": "address"
        }
      ],
      "stateMutability": "view",
      "type": "function"
    },
    {
      "inputs": [
        {
          "internalType": "address",
          "name": "",
          "type": "address"
        }
      ],
      "name": "validatorMap",
      "outputs": [
        {
          "internalType": "address",
          "name": "addr",
          "type": "address"
        },
        {
          "internalType": "uint256",
          "name": "blockNumber",
          "type": "uint256"
        },
        {
          "internalType": "uint256",
          "name": "timestamp",
          "type": "uint256"
        }
      ],
      "stateMutability": "view",
      "type": "function"
    }
  ],
  "bytecode": "0x608060405234801561001057600080fd5b506127ba806100206000396000f3fe6080604052600436106101e35760003560e01c80638a11d7c911610102578063dbd9a03111610095578063edbf4ac211610064578063edbf4ac2146105f1578063f1a5854214610611578063f2fde38b14610631578063facd743b14610651576101e3565b8063dbd9a03114610585578063dcf9e59e146105a5578063e7e987a0146105c5578063ed82b9f8146105db576101e3565b8063b048e056116100d1578063b048e05614610524578063b1a2855814610544578063b85f5da21461055a578063baccbfdf1461056f576101e3565b80638a11d7c9146104875780638da5cb5b146104d05780639a8a0592146104ee578063ab033ea914610504576101e3565b80635aa6e6751161017a578063715018a611610149578063715018a61461040d5780637238ccdb146104225780637625a3a7146104525780637eee288d14610467576101e3565b80635aa6e6751461039457806364b88c87146103b45780636df17699146103c95780636f983190146103e9576101e3565b80633d994f50116101b65780633d994f50146102f85780634b86c225146103185780634f1ef28614610338578063580e93b31461034b576101e3565b8063047f48b8146101e8578063135d78271461025857806318d50d33146102905780633659cfe6146102d6575b600080fd5b3480156101f457600080fd5b5061022e61020336600461203f565b60ce602052600090815260409020805460018201546002909201546001600160a01b03909116919083565b604080516001600160a01b0390941684526020840192909252908201526060015b60405180910390f35b34801561026457600080fd5b5060cb54610278906001600160a01b031681565b6040516001600160a01b03909116815260200161024f565b34801561029c57600080fd5b5061022e6102ab36600461203f565b60cd602052600090815260409020805460018201546002909201546001600160a01b03909116919083565b3480156102e257600080fd5b506102f66102f136600461203f565b61069c565b005b34801561030457600080fd5b506102f661031336600461203f565b6106c3565b34801561032457600080fd5b506102f661033336600461205b565b610966565b6102f66103463660046121a9565b6109e1565b34801561035757600080fd5b5061022e61036636600461203f565b6001600160a01b03808216600090815260ce6020526040902080546001820154600290920154921693909250565b3480156103a057600080fd5b50606554610278906001600160a01b031681565b3480156103c057600080fd5b506102f66109fa565b3480156103d557600080fd5b5060d454610278906001600160a01b031681565b3480156103f557600080fd5b506103ff60d25481565b60405190815260200161024f565b34801561041957600080fd5b506102f6610a81565b34801561042e57600080fd5b5061044261043d36600461203f565b610ab5565b60405161024f949392919061244d565b34801561045e57600080fd5b506102f6610b4c565b34801561047357600080fd5b506102f661048236600461224b565b610cbf565b34801561049357600080fd5b5061022e6104a236600461203f565b6001600160a01b03808216600090815260cd6020526040902080546001820154600290920154921693909250565b3480156104dc57600080fd5b506033546001600160a01b0316610278565b3480156104fa57600080fd5b506103ff60665481565b34801561051057600080fd5b506102f661051f36600461203f565b610d29565b34801561053057600080fd5b5061027861053f36600461239b565b610ddc565b34801561055057600080fd5b506103ff60d35481565b34801561056657600080fd5b506102f6610e06565b34801561057b57600080fd5b506103ff60cf5481565b34801561059157600080fd5b506102f66105a036600461203f565b610f10565b3480156105b157600080fd5b506104426105c0366004612101565b61118d565b3480156105d157600080fd5b506103ff60d05481565b3480156105e757600080fd5b506103ff60d15481565b3480156105fd57600080fd5b506102f661060c3660046120a0565b61122c565b34801561061d57600080fd5b506103ff61062c36600461203f565b6112ef565b34801561063d57600080fd5b506102f661064c36600461203f565b611375565b34801561065d57600080fd5b5061068c61066c36600461203f565b6001600160a01b0316600090815260cd6020526040902060010154151590565b604051901515815260200161024f565b6106a58161140d565b6106c081604051806020016040528060008152506000611437565b50565b6065546001600160a01b031633146107145760405162461bcd60e51b815260206004820152600f60248201526e216f6e6c79476f7665726e616e636560881b60448201526064015b60405180910390fd5b6001600160a01b038116600090815260cd602052604090206001015481901561074f5760405162461bcd60e51b815260040161070b906125f3565b6001600160a01b038216600090815260ce60205260409020600101546107875760405162461bcd60e51b815260040161070b9061252d565b60cc541561082e5760d15460cc546001600160a01b038416600090815260ce60205260409020600301546107c791906107c19060646115bf565b906115d2565b101561082e5760405162461bcd60e51b815260206004820152603060248201527f44544f426f6e64696e673a206e6f7420656e6f75676820617070726f76616c7360448201526f2066726f6d2076616c696461746f727360801b606482015260840161070b565b60d0546001600160a01b038316600090815260ce60205260409020600201546108589042906115de565b10156108a65760405162461bcd60e51b815260206004820152601e60248201527f44544f426f6e64696e673a20617070726f76616c20746f6f206561726c790000604482015260640161070b565b604080516060810182526001600160a01b0380851680835243602080850191825242858701908152600084815260cd83528781209651875496166001600160a01b03199687161787559251600180880191909155905160029687015560cc80548083019091557f47197230e1e4b29fc0bd84d7d78966c0925452aff72a2a121538b102457e9ebe01805486168517905592825260ce9052938420805490921682558101839055908101829055906109606003830182611ec2565b50505050565b60d454604051634b86c22560e01b81526001600160a01b0386811660048301528581166024830152604482018590526064820184905290911690634b86c22590608401600060405180830381600087803b1580156109c357600080fd5b505af11580156109d7573d6000803e3d6000fd5b5050505050505050565b6109ea8261140d565b6109f682826001611437565b5050565b33600090815260ce6020526040902060010154610a295760405162461bcd60e51b815260040161070b9061252d565b33600090815260ce6020526040812080546001600160a01b0319168155600181018290556002810182905590610a626003830182611ec2565b505060cb5460cf54610a7f916001600160a01b03169033906115ea565b565b6033546001600160a01b03163314610aab5760405162461bcd60e51b815260040161070b906125be565b610a7f6000611881565b60d454604051637238ccdb60e01b81526001600160a01b0383811660048301526060928392839283921690637238ccdb9060240160006040518083038186803b158015610b0157600080fd5b505afa158015610b15573d6000803e3d6000fd5b505050506040513d6000823e601f3d908101601f19168201604052610b3d9190810190612276565b93509350935093509193509193565b33600081815260cd602052604090206001015415610b7c5760405162461bcd60e51b815260040161070b906125f3565b33600081815260ce602052604090206001015415610bec5760405162461bcd60e51b815260206004820152602760248201527f44544f426f6e64696e673a20416c726561647920612070656e64696e672076616044820152663634b230ba37b960c91b606482015260840161070b565b60cb5460cf54610c09916001600160a01b031690339030906118d3565b6040805160808101825233808252436020808401918252428486019081526060808601818152600095865260ce845296909420855181546001600160a01b0319166001600160a01b03909116178155925160018401555160028301559351805192949192610c7d9260038501920190611ee0565b5050604080514381524260208201523392507fddeba69b5446349d866c22a5401e3ecd3a72190460b9b23b1074d66b38aca4fa910160405180910390a2505050565b60d454604051637eee288d60e01b81526001600160a01b0384811660048301526024820184905290911690637eee288d90604401600060405180830381600087803b158015610d0d57600080fd5b505af1158015610d21573d6000803e3d6000fd5b505050505050565b6065546001600160a01b03163314610d755760405162461bcd60e51b815260206004820152600f60248201526e216f6e6c79476f7665726e616e636560881b604482015260640161070b565b6001600160a01b038116610dba5760405162461bcd60e51b815260206004820152600c60248201526b6e756c6c206164647265737360a01b604482015260640161070b565b606580546001600160a01b0319166001600160a01b0392909216919091179055565b60cc8181548110610dec57600080fd5b6000918252602090912001546001600160a01b0316905081565b33600090815260cd6020526040902060010154610e655760405162461bcd60e51b815260206004820152601b60248201527f44544f426f6e64696e673a206e6f7420612076616c696461746f720000000000604482015260640161070b565b60cb5460d45460d25460405163095ea7b360e01b81526001600160a01b039283166004820152602481019190915291169063095ea7b390604401602060405180830381600087803b158015610eb957600080fd5b505af1158015610ecd573d6000803e3d6000fd5b505050506040513d601f19601f82011682018060405250810190610ef19190612381565b5060cb5460cf5460d354610a7f926001600160a01b0316913391610966565b6001600160a01b038116600090815260cd6020526040902060010154819015610f4b5760405162461bcd60e51b815260040161070b906125f3565b33600090815260cd6020526040902060010154610fb95760405162461bcd60e51b815260206004820152602660248201527f44544f426f6e64696e673a206e6f7420612076616c696461746f7220746f20616044820152657070726f766560d01b606482015260840161070b565b6001600160a01b038216600090815260ce6020526040902060010154610ff15760405162461bcd60e51b815260040161070b9061252d565b60d0546001600160a01b038316600090815260ce602052604090206002015461101b9042906115de565b10156110695760405162461bcd60e51b815260206004820152601e60248201527f44544f426f6e64696e673a20617070726f76616c20746f6f206561726c790000604482015260640161070b565b6001600160a01b038216600090815260ce60209081526040808320600301805482518185028101850190935280835291929091908301828280156110d657602002820191906000526020600020905b81546001600160a01b031681526001909101906020018083116110b8575b505050505090506000805b825181101561114657336001600160a01b031683828151811061111457634e487b7160e01b600052603260045260246000fd5b60200260200101516001600160a01b031614156111345760019150611146565b8061113e81612701565b9150506110e1565b5080610960576001600160a01b038416600090815260ce602090815260408220600301805460018101825590835291200180546001600160a01b0319163317905550505050565b60d454604051636e7cf2cf60e11b81526060918291829182916001600160a01b039091169063dcf9e59e906111c89089908990600401612421565b60006040518083038186803b1580156111e057600080fd5b505afa1580156111f4573d6000803e3d6000fd5b505050506040513d6000823e601f3d908101601f1916820160405261121c9190810190612276565b9299919850965090945092505050565b600054610100900460ff1680611245575060005460ff16155b6112615760405162461bcd60e51b815260040161070b90612570565b600054610100900460ff16158015611283576000805461ffff19166101011790555b61128b611b74565b60cb80546001600160a01b03808b166001600160a01b03199283161790925560d48054928a169290911691909117905560cf86905560d085905560d184905560d283905560d382905580156109d7576000805461ff00191690555050505050505050565b60d4546040516378d2c2a160e11b81526001600160a01b038381166004830152600092169063f1a585429060240160206040518083038186803b15801561133557600080fd5b505afa158015611349573d6000803e3d6000fd5b505050506040513d601f19601f8201168201806040525081019061136d91906123b3565b90505b919050565b6033546001600160a01b0316331461139f5760405162461bcd60e51b815260040161070b906125be565b6001600160a01b0381166114045760405162461bcd60e51b815260206004820152602660248201527f4f776e61626c653a206e6577206f776e657220697320746865207a65726f206160448201526564647265737360d01b606482015260840161070b565b6106c081611881565b6033546001600160a01b031633146106c05760405162461bcd60e51b815260040161070b906125be565b600061146a7f360894a13ba1a3210667c828492db98dca3e2076cc3735a920a3ca505d382bbc546001600160a01b031690565b905061147584611bef565b6000835111806114825750815b15611493576114918484611c94565b505b7f4910fdfa16fed3260ed0e7147f7cc6da11a60208b5b9406d12a635614ffd9143805460ff166115b857805460ff191660011781556040516001600160a01b038316602482015261151290869060440160408051601f198184030181529190526020810180516001600160e01b0316631b2ce7f360e11b179052611c94565b50805460ff191681557f360894a13ba1a3210667c828492db98dca3e2076cc3735a920a3ca505d382bbc546001600160a01b038381169116146115af5760405162461bcd60e51b815260206004820152602f60248201527f45524331393637557067726164653a207570677261646520627265616b73206660448201526e75727468657220757067726164657360881b606482015260840161070b565b6115b885611d7f565b5050505050565b60006115cb828461269f565b9392505050565b60006115cb828461267f565b60006115cb82846126be565b6040516370a0823160e01b81523060048201526000906001600160a01b038516906370a082319060240160206040518083038186803b15801561162c57600080fd5b505afa158015611640573d6000803e3d6000fd5b505050506040513d601f19601f8201168201806040525081019061166491906123b3565b9050600080856001600160a01b031663a9059cbb868660405160240161169f9291906001600160a01b03929092168252602082015260400190565b6040516020818303038152906040529060e01b6020820180516001600160e01b0383818316178352505050506040516116d89190612405565b6000604051808303816000865af19150503d8060008114611715576040519150601f19603f3d011682016040523d82523d6000602084013e61171a565b606091505b50915091508180156117445750805115806117445750808060200190518101906117449190612381565b61179c5760405162461bcd60e51b815260206004820152602360248201527f536166655472616e7366657248656c7065723a205452414e534645525f46414960448201526213115160ea1b606482015260840161070b565b6040516370a0823160e01b81523060048201528490611820906001600160a01b038916906370a082319060240160206040518083038186803b1580156117e157600080fd5b505afa1580156117f5573d6000803e3d6000fd5b505050506040513d601f19601f8201168201806040525081019061181991906123b3565b85906115de565b1115610d215760405162461bcd60e51b815260206004820152602a60248201527f536166655472616e7366657248656c7065723a20496e76616c696420746f6b6560448201526937103a3930b739b332b960b11b606482015260840161070b565b603380546001600160a01b038381166001600160a01b0319831681179093556040519116919082907f8be0079c531659141344cd1fd0a4f28419497f9722a3daafe3b4186f6b6457e090600090a35050565b6040516370a0823160e01b81526001600160a01b038381166004830152600091908616906370a082319060240160206040518083038186803b15801561191857600080fd5b505afa15801561192c573d6000803e3d6000fd5b505050506040513d601f19601f8201168201806040525081019061195091906123b3565b604080516001600160a01b0387811660248301528681166044830152606480830187905283518084039091018152608490920183526020820180516001600160e01b03166323b872dd60e01b179052915192935060009283928916916119b591612405565b6000604051808303816000865af19150503d80600081146119f2576040519150601f19603f3d011682016040523d82523d6000602084013e6119f7565b606091505b5091509150818015611a21575080511580611a21575080806020019051810190611a219190612381565b611a7e5760405162461bcd60e51b815260206004820152602860248201527f536166655472616e7366657248656c7065723a205452414e534645525f46524f6044820152671357d1905253115160c21b606482015260840161070b565b6040516370a0823160e01b81526001600160a01b0386811660048301528591611b06918691908b16906370a082319060240160206040518083038186803b158015611ac857600080fd5b505afa158015611adc573d6000803e3d6000fd5b505050506040513d601f19601f82011682018060405250810190611b0091906123b3565b906115de565b1015611b6b5760405162461bcd60e51b815260206004820152602e60248201527f536166655472616e7366657248656c7065723a20496e76616c696420746f6b6560448201526d6e207472616e7366657246726f6d60901b606482015260840161070b565b50505050505050565b600054610100900460ff1680611b8d575060005460ff16155b611ba95760405162461bcd60e51b815260040161070b90612570565b600054610100900460ff16158015611bcb576000805461ffff19166101011790555b611bd3611dbf565b611bdb611e29565b80156106c0576000805461ff001916905550565b803b611c535760405162461bcd60e51b815260206004820152602d60248201527f455243313936373a206e657720696d706c656d656e746174696f6e206973206e60448201526c1bdd08184818dbdb9d1c9858dd609a1b606482015260840161070b565b7f360894a13ba1a3210667c828492db98dca3e2076cc3735a920a3ca505d382bbc80546001600160a01b0319166001600160a01b0392909216919091179055565b6060823b611cf35760405162461bcd60e51b815260206004820152602660248201527f416464726573733a2064656c65676174652063616c6c20746f206e6f6e2d636f6044820152651b9d1c9858dd60d21b606482015260840161070b565b600080846001600160a01b031684604051611d0e9190612405565b600060405180830381855af49150503d8060008114611d49576040519150601f19603f3d011682016040523d82523d6000602084013e611d4e565b606091505b5091509150611d76828260405180606001604052806027815260200161275e60279139611e89565b95945050505050565b611d8881611bef565b6040516001600160a01b038216907fbc7cd75a20ee27fd9adebab32041f755214dbc6bffa90cc0225b39da2e5c2d3b90600090a250565b600054610100900460ff1680611dd8575060005460ff16155b611df45760405162461bcd60e51b815260040161070b90612570565b600054610100900460ff16158015611bdb576000805461ffff191661010117905580156106c0576000805461ff001916905550565b600054610100900460ff1680611e42575060005460ff16155b611e5e5760405162461bcd60e51b815260040161070b90612570565b600054610100900460ff16158015611e80576000805461ffff19166101011790555b611bdb33611881565b60608315611e985750816115cb565b825115611ea85782518084602001fd5b8160405162461bcd60e51b815260040161070b91906124fa565b50805460008255906000526020600020908101906106c09190611f45565b828054828255906000526020600020908101928215611f35579160200282015b82811115611f3557825182546001600160a01b0319166001600160a01b03909116178255602090920191600190910190611f00565b50611f41929150611f45565b5090565b5b80821115611f415760008155600101611f46565b600082601f830112611f6a578081fd5b81516020611f7f611f7a8361265b565b61262a565b80838252828201915082860187848660051b8901011115611f9e578586fd5b855b85811015611fc5578151611fb381612748565b84529284019290840190600101611fa0565b5090979650505050505050565b600082601f830112611fe2578081fd5b81516020611ff2611f7a8361265b565b80838252828201915082860187848660051b8901011115612011578586fd5b855b85811015611fc557815184529284019290840190600101612013565b8051801515811461137057600080fd5b600060208284031215612050578081fd5b81356115cb81612748565b60008060008060808587031215612070578283fd5b843561207b81612748565b9350602085013561208b81612748565b93969395505050506040820135916060013590565b600080600080600080600060e0888a0312156120ba578283fd5b87356120c581612748565b965060208801356120d581612748565b96999698505050506040850135946060810135946080820135945060a0820135935060c0909101359150565b60008060408385031215612113578182fd5b823561211e81612748565b915060208381013567ffffffffffffffff81111561213a578283fd5b8401601f8101861361214a578283fd5b8035612158611f7a8261265b565b80828252848201915084840189868560051b8701011115612177578687fd5b8694505b8385101561219957803583526001949094019391850191850161217b565b5080955050505050509250929050565b600080604083850312156121bb578182fd5b82356121c681612748565b915060208381013567ffffffffffffffff808211156121e3578384fd5b818601915086601f8301126121f6578384fd5b81358181111561220857612208612732565b61221a601f8201601f1916850161262a565b9150808252878482850101111561222f578485fd5b8084840185840137810190920192909252919491935090915050565b6000806040838503121561225d578081fd5b823561226881612748565b946020939093013593505050565b6000806000806080858703121561228b578182fd5b845167ffffffffffffffff808211156122a2578384fd5b818701915087601f8301126122b5578384fd5b815160206122c5611f7a8361265b565b8083825282820191508286018c848660051b89010111156122e4578889fd5b8896505b8487101561230d576122f98161202f565b8352600196909601959183019183016122e8565b50918a0151919850909350505080821115612326578384fd5b61233288838901611f5a565b94506040870151915080821115612347578384fd5b61235388838901611fd2565b93506060870151915080821115612368578283fd5b5061237587828801611fd2565b91505092959194509250565b600060208284031215612392578081fd5b6115cb8261202f565b6000602082840312156123ac578081fd5b5035919050565b6000602082840312156123c4578081fd5b5051919050565b6000815180845260208085019450808401835b838110156123fa578151875295820195908201906001016123de565b509495945050505050565b600082516124178184602087016126d5565b9190910192915050565b6001600160a01b0383168152604060208201819052600090612445908301846123cb565b949350505050565b6080808252855190820181905260009060209060a0840190828901845b8281101561248857815115158452928401929084019060010161246a565b50505083810382850152865180825287830191830190845b818110156124c55783516001600160a01b0316835292840192918401916001016124a0565b505084810360408601526124d981886123cb565b9250505082810360608401526124ef81856123cb565b979650505050505050565b60006020825282518060208401526125198160408501602087016126d5565b601f01601f19169190910160400192915050565b60208082526023908201527f44544f426f6e64696e673a206e6f7420612070656e64696e672076616c6964616040820152623a37b960e91b606082015260800190565b6020808252602e908201527f496e697469616c697a61626c653a20636f6e747261637420697320616c72656160408201526d191e481a5b9a5d1a585b1a5e995960921b606082015260800190565b6020808252818101527f4f776e61626c653a2063616c6c6572206973206e6f7420746865206f776e6572604082015260600190565b6020808252601f908201527f44544f426f6e64696e673a20416c726561647920612076616c696461746f7200604082015260600190565b604051601f8201601f1916810167ffffffffffffffff8111828210171561265357612653612732565b604052919050565b600067ffffffffffffffff82111561267557612675612732565b5060051b60200190565b60008261269a57634e487b7160e01b81526012600452602481fd5b500490565b60008160001904831182151516156126b9576126b961271c565b500290565b6000828210156126d0576126d061271c565b500390565b60005b838110156126f05781810151838201526020016126d8565b838111156109605750506000910152565b60006000198214156127155761271561271c565b5060010190565b634e487b7160e01b600052601160045260246000fd5b634e487b7160e01b600052604160045260246000fd5b6001600160a01b03811681146106c057600080fdfe416464726573733a206c6f772d6c6576656c2064656c65676174652063616c6c206661696c6564a2646970667358221220dceb69094eb4cee0d41ae968760781de51e453cec2cabaaf37ae578d48cdf79f64736f6c63430008030033",
  "linkReferences": {},
  "deployedLinkReferences": {}
}