{
  "_format": "hh-sol-artifact-1",
  "contractName": "CheckNft721",
  "sourceName": "contracts/generic/CheckNft721.sol",
  "abi": [
    {
      "inputs": [],
      "name": "IID_ICHECK",
      "outputs": [
        {
          "internalType": "bytes4",
          "name": "",
          "type": "bytes4"
        }
      ],
      "stateMutability": "view",
      "type": "function"
    },
    {
      "inputs": [],
      "name": "IID_IERC165",
      "outputs": [
        {
          "internalType": "bytes4",
          "name": "",
          "type": "bytes4"
        }
      ],
      "stateMutability": "view",
      "type": "function"
    },
    {
      "inputs": [],
      "name": "IID_IERC721",
      "outputs": [
        {
          "internalType": "bytes4",
          "name": "",
          "type": "bytes4"
        }
      ],
      "stateMutability": "view",
      "type": "function"
    },
    {
      "inputs": [
        {
          "internalType": "address",
          "name": "nftAddress",
          "type": "address"
        }
      ],
      "name": "isERC721",
      "outputs": [
        {
          "internalType": "bool",
          "name": "",
          "type": "bool"
        }
      ],
      "stateMutability": "view",
      "type": "function"
    },
    {
      "inputs": [
        {
          "internalType": "bytes4",
          "name": "interfaceId",
          "type": "bytes4"
        }
      ],
      "name": "supportsInterface",
      "outputs": [
        {
          "internalType": "bool",
          "name": "",
          "type": "bool"
        }
      ],
      "stateMutability": "view",
      "type": "function"
    }
  ],
  "bytecode": "0x608060405234801561001057600080fd5b50610345806100206000396000f3fe608060405234801561001057600080fd5b50600436106100575760003560e01c806301ffc9a71461005c578063a402783814610084578063daa09e54146100ab578063e0966dad146100be578063e4b74463146100cc575b600080fd5b61006f61006a3660046102ae565b6100da565b60405190151581526020015b60405180910390f35b6100926301ffc9a760e01b81565b6040516001600160e01b0319909116815260200161007b565b61006f6100b9366004610267565b610111565b6100926380ac58cd60e01b81565b6100926336a8279560e21b81565b60006001600160e01b031982166336a8279560e21b148061010b57506001600160e01b031982166301ffc9a760e01b145b92915050565b600061010b6001600160a01b0383166380ac58cd60e01b60006101338361014b565b80156101445750610144838361017e565b9392505050565b600061015e826301ffc9a760e01b61017e565b801561010b5750610177826001600160e01b031961017e565b1592915050565b604080516001600160e01b0319831660248083019190915282518083039091018152604490910182526020810180516001600160e01b03166301ffc9a760e01b179052905160009190829081906001600160a01b03871690617530906101e59086906102d6565b6000604051808303818686fa925050503d8060008114610221576040519150601f19603f3d011682016040523d82523d6000602084013e610226565b606091505b5091509150602081511015610241576000935050505061010b565b81801561025d57508080602001905181019061025d919061028e565b9695505050505050565b600060208284031215610278578081fd5b81356001600160a01b0381168114610144578182fd5b60006020828403121561029f578081fd5b81518015158114610144578182fd5b6000602082840312156102bf578081fd5b81356001600160e01b031981168114610144578182fd5b60008251815b818110156102f657602081860181015185830152016102dc565b818111156103045782828501525b50919091019291505056fea26469706673582212207ea4c6b494613888092d9852a8542eb665c3925805e811d469f50a006fdbf4a564736f6c63430008030033",
  "linkReferences": {},
  "deployedLinkReferences": {}
}