{
  "_format": "hh-sol-artifact-1",
  "contractName": "DTOVesting2",
  "sourceName": "contracts/lib/DTOVesting2.sol",
  "abi": [
    {
      "anonymous": false,
      "inputs": [
        {
          "indexed": false,
          "internalType": "address",
          "name": "previousAdmin",
          "type": "address"
        },
        {
          "indexed": false,
          "internalType": "address",
          "name": "newAdmin",
          "type": "address"
        }
      ],
      "name": "AdminChanged",
      "type": "event"
    },
    {
      "anonymous": false,
      "inputs": [
        {
          "indexed": true,
          "internalType": "address",
          "name": "beacon",
          "type": "address"
        }
      ],
      "name": "BeaconUpgraded",
      "type": "event"
    },
    {
      "anonymous": false,
      "inputs": [
        {
          "indexed": false,
          "internalType": "address",
          "name": "user",
          "type": "address"
        },
        {
          "indexed": false,
          "internalType": "uint256",
          "name": "amount",
          "type": "uint256"
        },
        {
          "indexed": false,
          "internalType": "bool",
          "name": "isPrivateA",
          "type": "bool"
        }
      ],
      "name": "Lock",
      "type": "event"
    },
    {
      "anonymous": false,
      "inputs": [
        {
          "indexed": true,
          "internalType": "address",
          "name": "previousOwner",
          "type": "address"
        },
        {
          "indexed": true,
          "internalType": "address",
          "name": "newOwner",
          "type": "address"
        }
      ],
      "name": "OwnershipTransferred",
      "type": "event"
    },
    {
      "anonymous": false,
      "inputs": [
        {
          "indexed": false,
          "internalType": "address",
          "name": "user",
          "type": "address"
        },
        {
          "indexed": false,
          "internalType": "uint256",
          "name": "amount",
          "type": "uint256"
        }
      ],
      "name": "Unlock",
      "type": "event"
    },
    {
      "anonymous": false,
      "inputs": [
        {
          "indexed": true,
          "internalType": "address",
          "name": "implementation",
          "type": "address"
        }
      ],
      "name": "Upgraded",
      "type": "event"
    },
    {
      "anonymous": false,
      "inputs": [
        {
          "indexed": true,
          "internalType": "address",
          "name": "receiver",
          "type": "address"
        },
        {
          "indexed": true,
          "internalType": "address",
          "name": "tokenAddress",
          "type": "address"
        },
        {
          "indexed": false,
          "internalType": "uint256",
          "name": "amount",
          "type": "uint256"
        }
      ],
      "name": "WithdrawStuckERC20",
      "type": "event"
    },
    {
      "anonymous": false,
      "inputs": [
        {
          "indexed": true,
          "internalType": "address",
          "name": "receiver",
          "type": "address"
        },
        {
          "indexed": true,
          "internalType": "address",
          "name": "tokenAddress",
          "type": "address"
        },
        {
          "indexed": true,
          "internalType": "uint256",
          "name": "tokenId",
          "type": "uint256"
        }
      ],
      "name": "WithdrawStuckERC721",
      "type": "event"
    },
    {
      "anonymous": false,
      "inputs": [
        {
          "indexed": true,
          "internalType": "address",
          "name": "receiver",
          "type": "address"
        },
        {
          "indexed": false,
          "internalType": "uint256",
          "name": "amount",
          "type": "uint256"
        }
      ],
      "name": "WithdrawStuckEther",
      "type": "event"
    },
    {
      "inputs": [],
      "name": "PRIVATE_A_DURATION",
      "outputs": [
        {
          "internalType": "uint256",
          "name": "",
          "type": "uint256"
        }
      ],
      "stateMutability": "view",
      "type": "function"
    },
    {
      "inputs": [],
      "name": "PRIVATE_B_DURATION",
      "outputs": [
        {
          "internalType": "uint256",
          "name": "",
          "type": "uint256"
        }
      ],
      "stateMutability": "view",
      "type": "function"
    },
    {
      "inputs": [
        {
          "internalType": "address[]",
          "name": "_addrs",
          "type": "address[]"
        },
        {
          "internalType": "uint256[]",
          "name": "_amounts",
          "type": "uint256[]"
        },
        {
          "internalType": "bool",
          "name": "_isPrivateA",
          "type": "bool"
        }
      ],
      "name": "addVesting",
      "outputs": [],
      "stateMutability": "nonpayable",
      "type": "function"
    },
    {
      "inputs": [
        {
          "internalType": "address",
          "name": "_addr",
          "type": "address"
        }
      ],
      "name": "getLockedInfo",
      "outputs": [
        {
          "internalType": "uint256",
          "name": "_locked",
          "type": "uint256"
        },
        {
          "internalType": "uint256",
          "name": "_releasable",
          "type": "uint256"
        }
      ],
      "stateMutability": "view",
      "type": "function"
    },
    {
      "inputs": [
        {
          "internalType": "address",
          "name": "_addr",
          "type": "address"
        }
      ],
      "name": "getUnlockable",
      "outputs": [
        {
          "internalType": "uint256",
          "name": "",
          "type": "uint256"
        }
      ],
      "stateMutability": "view",
      "type": "function"
    },
    {
      "inputs": [
        {
          "internalType": "address",
          "name": "_addr",
          "type": "address"
        },
        {
          "internalType": "uint256",
          "name": "_index",
          "type": "uint256"
        }
      ],
      "name": "getUnlockableVesting",
      "outputs": [
        {
          "internalType": "uint256",
          "name": "",
          "type": "uint256"
        }
      ],
      "stateMutability": "view",
      "type": "function"
    },
    {
      "inputs": [],
      "name": "initialize",
      "outputs": [],
      "stateMutability": "nonpayable",
      "type": "function"
    },
    {
      "inputs": [],
      "name": "oldVestingContract",
      "outputs": [
        {
          "internalType": "contract IVestingInfo",
          "name": "",
          "type": "address"
        }
      ],
      "stateMutability": "view",
      "type": "function"
    },
    {
      "inputs": [],
      "name": "owner",
      "outputs": [
        {
          "internalType": "address",
          "name": "",
          "type": "address"
        }
      ],
      "stateMutability": "view",
      "type": "function"
    },
    {
      "inputs": [],
      "name": "renounceOwnership",
      "outputs": [],
      "stateMutability": "nonpayable",
      "type": "function"
    },
    {
      "inputs": [
        {
          "internalType": "address payable",
          "name": "_to",
          "type": "address"
        }
      ],
      "name": "revoke",
      "outputs": [],
      "stateMutability": "nonpayable",
      "type": "function"
    },
    {
      "inputs": [
        {
          "internalType": "uint256",
          "name": "_a",
          "type": "uint256"
        },
        {
          "internalType": "uint256",
          "name": "_b",
          "type": "uint256"
        }
      ],
      "name": "setVestingDuration",
      "outputs": [],
      "stateMutability": "nonpayable",
      "type": "function"
    },
    {
      "inputs": [],
      "name": "startVestingTime",
      "outputs": [
        {
          "internalType": "uint256",
          "name": "",
          "type": "uint256"
        }
      ],
      "stateMutability": "view",
      "type": "function"
    },
    {
      "inputs": [],
      "name": "token",
      "outputs": [
        {
          "internalType": "contract IERC20Upgradeable",
          "name": "",
          "type": "address"
        }
      ],
      "stateMutability": "view",
      "type": "function"
    },
    {
      "inputs": [
        {
          "internalType": "address",
          "name": "newOwner",
          "type": "address"
        }
      ],
      "name": "transferOwnership",
      "outputs": [],
      "stateMutability": "nonpayable",
      "type": "function"
    },
    {
      "inputs": [
        {
          "internalType": "address",
          "name": "_addr",
          "type": "address"
        }
      ],
      "name": "unlock",
      "outputs": [],
      "stateMutability": "nonpayable",
      "type": "function"
    },
    {
      "inputs": [
        {
          "internalType": "address",
          "name": "newImplementation",
          "type": "address"
        }
      ],
      "name": "upgradeTo",
      "outputs": [],
      "stateMutability": "nonpayable",
      "type": "function"
    },
    {
      "inputs": [
        {
          "internalType": "address",
          "name": "newImplementation",
          "type": "address"
        },
        {
          "internalType": "bytes",
          "name": "data",
          "type": "bytes"
        }
      ],
      "name": "upgradeToAndCall",
      "outputs": [],
      "stateMutability": "payable",
      "type": "function"
    },
    {
      "inputs": [
        {
          "internalType": "address",
          "name": "",
          "type": "address"
        },
        {
          "internalType": "uint256",
          "name": "",
          "type": "uint256"
        }
      ],
      "name": "vestings",
      "outputs": [
        {
          "internalType": "bool",
          "name": "isPrivateA",
          "type": "bool"
        },
        {
          "internalType": "uint256",
          "name": "releasedAmount",
          "type": "uint256"
        },
        {
          "internalType": "uint256",
          "name": "totalAmount",
          "type": "uint256"
        }
      ],
      "stateMutability": "view",
      "type": "function"
    },
    {
      "inputs": [
        {
          "internalType": "address payable",
          "name": "receiver",
          "type": "address"
        },
        {
          "internalType": "address",
          "name": "tokenAddress",
          "type": "address"
        },
        {
          "internalType": "uint256",
          "name": "amount",
          "type": "uint256"
        }
      ],
      "name": "withdrawERC20",
      "outputs": [],
      "stateMutability": "nonpayable",
      "type": "function"
    },
    {
      "inputs": [
        {
          "internalType": "address payable",
          "name": "receiver",
          "type": "address"
        },
        {
          "internalType": "address",
          "name": "tokenAddress",
          "type": "address"
        },
        {
          "internalType": "uint256",
          "name": "tokenId",
          "type": "uint256"
        }
      ],
      "name": "withdrawERC721",
      "outputs": [],
      "stateMutability": "nonpayable",
      "type": "function"
    },
    {
      "inputs": [
        {
          "internalType": "address payable",
          "name": "receiver",
          "type": "address"
        },
        {
          "internalType": "uint256",
          "name": "amount",
          "type": "uint256"
        }
      ],
      "name": "withdrawEther",
      "outputs": [],
      "stateMutability": "nonpayable",
      "type": "function"
    }
  ],
  "bytecode": "0x608060405234801561001057600080fd5b50600054610100900460ff168061002a575060005460ff16155b6100915760405162461bcd60e51b815260206004820152602e60248201527f496e697469616c697a61626c653a20636f6e747261637420697320616c72656160448201526d191e481a5b9a5d1a585b1a5e995960921b606482015260840160405180910390fd5b600054610100900460ff161580156100b3576000805461ffff19166101011790555b80156100c5576000805461ff00191690555b506124f080620000d66000396000f3fe6080604052600436106101355760003560e01c806366088492116100ab5780638da5cb5b1161006f5780638da5cb5b1461033b578063b1c3e69914610359578063bd84477d14610379578063c8630178146103b6578063f2fde38b146103d6578063fc0c546a146103f657610135565b806366088492146102a6578063715018a6146102bc57806374a8f103146102d15780638129fc1c146102f15780638afb22071461030657610135565b80634025feb2116100fd5780634025feb21461020757806344004cc1146102275780634f1ef28614610247578063522f68151461025a57806362ab10de1461027a57806363917bc11461029057610135565b806304bd05221461013a57806311b8db2e1461017757806324c17daf146101a55780632f6c493c146101c75780633659cfe6146101e7575b600080fd5b34801561014657600080fd5b5060ce5461015a906001600160a01b031681565b6040516001600160a01b0390911681526020015b60405180910390f35b34801561018357600080fd5b5061019761019236600461201a565b610416565b60405190815260200161016e565b3480156101b157600080fd5b506101c56101c03660046120e7565b610556565b005b3480156101d357600080fd5b506101c56101e2366004611fa2565b610767565b3480156101f357600080fd5b506101c5610202366004611fa2565b610908565b34801561021357600080fd5b506101c5610222366004611fda565b61092f565b34801561023357600080fd5b506101c5610242366004611fda565b610964565b6101c5610255366004612045565b610999565b34801561026657600080fd5b506101c561027536600461201a565b6109b2565b34801561028657600080fd5b5061019760cd5481565b34801561029c57600080fd5b5061019760cc5481565b3480156102b257600080fd5b5061019760cb5481565b3480156102c857600080fd5b506101c56109e6565b3480156102dd57600080fd5b506101c56102ec366004611fa2565b610a1c565b3480156102fd57600080fd5b506101c5610ac9565b34801561031257600080fd5b50610326610321366004611fa2565b610c12565b6040805192835260208301919091520161016e565b34801561034757600080fd5b506097546001600160a01b031661015a565b34801561036557600080fd5b506101c5610374366004612224565b610f40565b34801561038557600080fd5b5061039961039436600461201a565b610f75565b60408051931515845260208401929092529082015260600161016e565b3480156103c257600080fd5b506101976103d1366004611fa2565b610fbb565b3480156103e257600080fd5b506101c56103f1366004611fa2565b61101e565b34801561040257600080fd5b5060c95461015a906001600160a01b031681565b60004260cb54111561042a57506000610550565b6001600160a01b038316600090815260ca6020526040902054821061045157506000610550565b6001600160a01b038316600090815260ca6020526040812080548490811061048957634e487b7160e01b600052603260045260246000fd5b6000918252602091829020604080516060810182526003909302909101805460ff161515835260018101549383019390935260029092015491810182905291506104d7576000915050610550565b60006104e682600001516110b6565b905060006104ff60cb54426110cd90919063ffffffff16565b905060006105248361051e8660400151856110e090919063ffffffff16565b906110ec565b90508360400151811115610539575060408301515b60208401516105499082906110cd565b9450505050505b92915050565b6097546001600160a01b031633146105895760405162461bcd60e51b815260040161058090612305565b60405180910390fd5b81518351146105d15760405162461bcd60e51b8152602060048201526014602482015273092dcecc2d8d2c840d2dce0eae840d8cadccee8d60631b6044820152606401610580565b60005b83518110156107615760ca600085838151811061060157634e487b7160e01b600052603260045260246000fd5b60200260200101516001600160a01b03166001600160a01b03168152602001908152602001600020604051806060016040528084151581526020016000815260200185848151811061066357634e487b7160e01b600052603260045260246000fd5b6020908102919091018101519091528254600180820185556000948552938290208351600390920201805460ff191691151591909117815590820151928101929092556040015160029091015583517fb5aaf11176f7b5020892b8a131e119463931075db10e5e370c7d63292206ec63908590839081106106f457634e487b7160e01b600052603260045260246000fd5b602002602001015184838151811061071c57634e487b7160e01b600052603260045260246000fd5b602090810291909101810151604080516001600160a01b039094168452918301528415159082015260600160405180910390a18061075981612429565b9150506105d4565b50505050565b4260cb54106107ac5760405162461bcd60e51b81526020600482015260116024820152701b9bdd0818db185a5b58589b19481e595d607a1b6044820152606401610580565b6107b5816110f8565b6001600160a01b038116600090815260ca6020526040812054905b818110156109035760006107e48483610416565b905080156108f0576001600160a01b038416600090815260ca60205260409020805461084a9183918590811061082a57634e487b7160e01b600052603260045260246000fd5b90600052602060002090600302016001015461130290919063ffffffff16565b6001600160a01b038516600090815260ca6020526040902080548490811061088257634e487b7160e01b600052603260045260246000fd5b600091825260209091206001600390920201015560c9546108ad906001600160a01b0316858361130e565b604080516001600160a01b0386168152602081018390527f6381d9813cabeb57471b5a7e05078e64845ccdb563146a6911d536f24ce960f1910160405180910390a15b50806108fb81612429565b9150506107d0565b505050565b61091181611360565b61092c8160405180602001604052806000815250600061138a565b50565b6097546001600160a01b031633146109595760405162461bcd60e51b815260040161058090612305565b610903838383611512565b6097546001600160a01b0316331461098e5760405162461bcd60e51b815260040161058090612305565b61090383838361166f565b6109a282611360565b6109ae8282600161138a565b5050565b6097546001600160a01b031633146109dc5760405162461bcd60e51b815260040161058090612305565b6109ae8282611779565b6097546001600160a01b03163314610a105760405162461bcd60e51b815260040161058090612305565b610a1a60006117ff565b565b6097546001600160a01b03163314610a465760405162461bcd60e51b815260040161058090612305565b60c9546040516370a0823160e01b815230600482015261092c9183916001600160a01b039091169081906370a082319060240160206040518083038186803b158015610a9157600080fd5b505afa158015610aa5573d6000803e3d6000fd5b505050506040513d601f19601f82011682018060405250810190610242919061220c565b600054610100900460ff1680610ae2575060005460ff16155b610afe5760405162461bcd60e51b8152600401610580906122b7565b600054610100900460ff16158015610b20576000805461ffff19166101011790555b610b28611851565b60c9805473b57420fad6731b004309d5a0ec7c6c906adb8df76001600160a01b03199182161790915560ce805473aa78a345cb9814c2aaff2a702c1f7e774137132692168217905560408051633304424960e11b81529051636608849291600480820192602092909190829003018186803b158015610ba657600080fd5b505afa158015610bba573d6000803e3d6000fd5b505050506040513d601f19601f82011682018060405250810190610bde919061220c565b610beb90622835c061238f565b60cb55630232f08060cc55630119784060cd55801561092c576000805461ff001916905550565b6001600160a01b038116600090815260ca60205260408120548190610e315760005b6002811015610e1f5760ce546040516308dc6d9760e11b81526001600160a01b0386811660048301526024820184905260009216906311b8db2e9060440160206040518083038186803b158015610c8a57600080fd5b505afa158015610c9e573d6000803e3d6000fd5b505050506040513d601f19601f82011682018060405250810190610cc2919061220c565b1115610e0d5760ce5460405163bd84477d60e01b81526001600160a01b03868116600483015260248201849052600092839283929091169063bd84477d9060440160606040518083038186803b158015610d1b57600080fd5b505afa158015610d2f573d6000803e3d6000fd5b505050506040513d601f19601f82011682018060405250810190610d5391906121d6565b9250925092508215610d7d57600f610d6c82600e6123c7565b610d7691906123a7565b9050610d97565b6008610d8a8260076123c7565b610d9491906123a7565b90505b6000610da2846110b6565b90506000610dbb60cb54426110cd90919063ffffffff16565b90506000610dcd8361051e84876110e0565b905083811115610dda5750825b610de481866110cd565b610dee908961238f565b9750610dfa84866110cd565b610e04908a61238f565b98505050505050505b80610e1781612429565b915050610c34565b50610e2a81836123e6565b9150610f3b565b610e3a83610fbb565b6001600160a01b038416600090815260ca602052604081205491925090815b81811015610f2b576001600160a01b038616600090815260ca602052604090208054610f17919083908110610e9e57634e487b7160e01b600052603260045260246000fd5b90600052602060002090600302016001015460ca6000896001600160a01b03166001600160a01b031681526020019081526020016000208381548110610ef457634e487b7160e01b600052603260045260246000fd5b906000526020600020906003020160020154610f1091906123e6565b8490611302565b925080610f2381612429565b915050610e59565b50610f3682846110cd565b935050505b915091565b6097546001600160a01b03163314610f6a5760405162461bcd60e51b815260040161058090612305565b60cc9190915560cd55565b60ca6020528160005260406000208181548110610f9157600080fd5b600091825260209091206003909102018054600182015460029092015460ff909116935090915083565b60004260cb541115610fcf57506000611019565b6001600160a01b038216600090815260ca6020526040812054815b8181101561101357610fff610f108683610416565b92508061100b81612429565b915050610fea565b50909150505b919050565b6097546001600160a01b031633146110485760405162461bcd60e51b815260040161058090612305565b6001600160a01b0381166110ad5760405162461bcd60e51b815260206004820152602660248201527f4f776e61626c653a206e6577206f776e657220697320746865207a65726f206160448201526564647265737360d01b6064820152608401610580565b61092c816117ff565b6000816110c55760cd54610550565b505060cc5490565b60006110d982846123e6565b9392505050565b60006110d982846123c7565b60006110d982846123a7565b6001600160a01b038116600090815260ca60205260409020541561111b5761092c565b60005b60028110156109ae5760ce546040516308dc6d9760e11b81526001600160a01b0384811660048301526024820184905260009216906311b8db2e9060440160206040518083038186803b15801561117457600080fd5b505afa158015611188573d6000803e3d6000fd5b505050506040513d601f19601f820116820180604052508101906111ac919061220c565b11156112f05760ce5460405163bd84477d60e01b81526001600160a01b03848116600483015260248201849052600092839283929091169063bd84477d9060440160606040518083038186803b15801561120557600080fd5b505afa158015611219573d6000803e3d6000fd5b505050506040513d601f19601f8201168201806040525081019061123d91906121d6565b925092509250821561126757600f61125682600e6123c7565b61126091906123a7565b9050611281565b60086112748260076123c7565b61127e91906123a7565b90505b6001600160a01b038516600090815260ca60209081526040808320815160608101835296151587528683018481529187019485528054600180820183559185529290932095516003909202909501805460ff191691151591909117815593519084015551600290920191909155505b806112fa81612429565b91505061111e565b60006110d9828461238f565b604080516001600160a01b038416602482015260448082018490528251808303909101815260649091019091526020810180516001600160e01b031663a9059cbb60e01b1790526109039084906118c4565b6097546001600160a01b0316331461092c5760405162461bcd60e51b815260040161058090612305565b60006113bd7f360894a13ba1a3210667c828492db98dca3e2076cc3735a920a3ca505d382bbc546001600160a01b031690565b90506113c884611996565b6000835111806113d55750815b156113e6576113e48484611a3b565b505b7f4910fdfa16fed3260ed0e7147f7cc6da11a60208b5b9406d12a635614ffd9143805460ff1661150b57805460ff191660011781556040516001600160a01b038316602482015261146590869060440160408051601f198184030181529190526020810180516001600160e01b0316631b2ce7f360e11b179052611a3b565b50805460ff191681557f360894a13ba1a3210667c828492db98dca3e2076cc3735a920a3ca505d382bbc546001600160a01b038381169116146115025760405162461bcd60e51b815260206004820152602f60248201527f45524331393637557067726164653a207570677261646520627265616b73206660448201526e75727468657220757067726164657360881b6064820152608401610580565b61150b85611b26565b5050505050565b6001600160a01b0383166115385760405162461bcd60e51b815260040161058090612294565b6040516331a9108f60e11b81526004810182905230906001600160a01b03841690636352211e9060240160206040518083038186803b15801561157a57600080fd5b505afa15801561158e573d6000803e3d6000fd5b505050506040513d601f19601f820116820180604052508101906115b29190611fbe565b6001600160a01b03161415610903576040516323b872dd60e01b81523060048201526001600160a01b038481166024830152604482018390528316906323b872dd90606401600060405180830381600087803b15801561161157600080fd5b505af1158015611625573d6000803e3d6000fd5b5050505080826001600160a01b0316846001600160a01b03167ffefe036cac4ee3a4aca074a81cbcc4376e1484693289078dbec149c890101d5b60405160405180910390a4505050565b6001600160a01b0383166116955760405162461bcd60e51b815260040161058090612294565b6040516370a0823160e01b815230600482015281906001600160a01b038416906370a082319060240160206040518083038186803b1580156116d657600080fd5b505afa1580156116ea573d6000803e3d6000fd5b505050506040513d601f19601f8201168201806040525081019061170e919061220c565b10610903576117276001600160a01b038316848361130e565b816001600160a01b0316836001600160a01b03167f6c9d637297625e945b296ff73a71fcfbd0a9e062652b6491a921c4c60194176b8360405161176c91815260200190565b60405180910390a3505050565b6001600160a01b03821661179f5760405162461bcd60e51b815260040161058090612294565b8047106109ae576117b96001600160a01b03831682611b66565b816001600160a01b03167eddb683bb45cd5d0ad8a200c6fae7152b1c236ee90a4a37db692407f5cc38bd826040516117f391815260200190565b60405180910390a25050565b609780546001600160a01b038381166001600160a01b0319831681179093556040519116919082907f8be0079c531659141344cd1fd0a4f28419497f9722a3daafe3b4186f6b6457e090600090a35050565b600054610100900460ff168061186a575060005460ff16155b6118865760405162461bcd60e51b8152600401610580906122b7565b600054610100900460ff161580156118a8576000805461ffff19166101011790555b6118b0611c7f565b801561092c576000805461ff001916905550565b6000611919826040518060400160405280602081526020017f5361666545524332303a206c6f772d6c6576656c2063616c6c206661696c6564815250856001600160a01b0316611ce69092919063ffffffff16565b805190915015610903578080602001905181019061193791906121ba565b6109035760405162461bcd60e51b815260206004820152602a60248201527f5361666545524332303a204552433230206f7065726174696f6e20646964206e6044820152691bdd081cdd58d8d9595960b21b6064820152608401610580565b803b6119fa5760405162461bcd60e51b815260206004820152602d60248201527f455243313936373a206e657720696d706c656d656e746174696f6e206973206e60448201526c1bdd08184818dbdb9d1c9858dd609a1b6064820152608401610580565b7f360894a13ba1a3210667c828492db98dca3e2076cc3735a920a3ca505d382bbc80546001600160a01b0319166001600160a01b0392909216919091179055565b6060823b611a9a5760405162461bcd60e51b815260206004820152602660248201527f416464726573733a2064656c65676174652063616c6c20746f206e6f6e2d636f6044820152651b9d1c9858dd60d21b6064820152608401610580565b600080846001600160a01b031684604051611ab59190612245565b600060405180830381855af49150503d8060008114611af0576040519150601f19603f3d011682016040523d82523d6000602084013e611af5565b606091505b5091509150611b1d828260405180606001604052806027815260200161249460279139611cfd565b95945050505050565b611b2f81611996565b6040516001600160a01b038216907fbc7cd75a20ee27fd9adebab32041f755214dbc6bffa90cc0225b39da2e5c2d3b90600090a250565b80471015611bb65760405162461bcd60e51b815260206004820152601d60248201527f416464726573733a20696e73756666696369656e742062616c616e63650000006044820152606401610580565b6000826001600160a01b03168260405160006040518083038185875af1925050503d8060008114611c03576040519150601f19603f3d011682016040523d82523d6000602084013e611c08565b606091505b50509050806109035760405162461bcd60e51b815260206004820152603a60248201527f416464726573733a20756e61626c6520746f2073656e642076616c75652c207260448201527f6563697069656e74206d617920686176652072657665727465640000000000006064820152608401610580565b600054610100900460ff1680611c98575060005460ff16155b611cb45760405162461bcd60e51b8152600401610580906122b7565b600054610100900460ff16158015611cd6576000805461ffff19166101011790555b611cde611d36565b6118b0611da0565b6060611cf58484600085611e00565b949350505050565b60608315611d0c5750816110d9565b825115611d1c5782518084602001fd5b8160405162461bcd60e51b81526004016105809190612261565b600054610100900460ff1680611d4f575060005460ff16155b611d6b5760405162461bcd60e51b8152600401610580906122b7565b600054610100900460ff161580156118b0576000805461ffff1916610101179055801561092c576000805461ff001916905550565b600054610100900460ff1680611db9575060005460ff16155b611dd55760405162461bcd60e51b8152600401610580906122b7565b600054610100900460ff16158015611df7576000805461ffff19166101011790555b6118b0336117ff565b606082471015611e615760405162461bcd60e51b815260206004820152602660248201527f416464726573733a20696e73756666696369656e742062616c616e636520666f6044820152651c8818d85b1b60d21b6064820152608401610580565b843b611eaf5760405162461bcd60e51b815260206004820152601d60248201527f416464726573733a2063616c6c20746f206e6f6e2d636f6e74726163740000006044820152606401610580565b600080866001600160a01b03168587604051611ecb9190612245565b60006040518083038185875af1925050503d8060008114611f08576040519150601f19603f3d011682016040523d82523d6000602084013e611f0d565b606091505b5091509150611f1d828286611cfd565b979650505050505050565b600082601f830112611f38578081fd5b81356020611f4d611f488361236b565b61233a565b80838252828201915082860187848660051b8901011115611f6c578586fd5b855b85811015611f8a57813584529284019290840190600101611f6e565b5090979650505050505050565b803561101981612485565b600060208284031215611fb3578081fd5b81356110d981612470565b600060208284031215611fcf578081fd5b81516110d981612470565b600080600060608486031215611fee578182fd5b8335611ff981612470565b9250602084013561200981612470565b929592945050506040919091013590565b6000806040838503121561202c578182fd5b823561203781612470565b946020939093013593505050565b60008060408385031215612057578182fd5b823561206281612470565b915060208381013567ffffffffffffffff8082111561207f578384fd5b818601915086601f830112612092578384fd5b8135818111156120a4576120a461245a565b6120b6601f8201601f1916850161233a565b915080825287848285010111156120cb578485fd5b8084840185840137810190920192909252919491935090915050565b6000806000606084860312156120fb578283fd5b833567ffffffffffffffff80821115612112578485fd5b818601915086601f830112612125578485fd5b81356020612135611f488361236b565b8083825282820191508286018b848660051b890101111561215457898afd5b8996505b8487101561217f57803561216b81612470565b835260019690960195918301918301612158565b5097505087013592505080821115612195578384fd5b506121a286828701611f28565b9250506121b160408501611f97565b90509250925092565b6000602082840312156121cb578081fd5b81516110d981612485565b6000806000606084860312156121ea578283fd5b83516121f581612485565b602085015160409095015190969495509392505050565b60006020828403121561221d578081fd5b5051919050565b60008060408385031215612236578182fd5b50508035926020909101359150565b600082516122578184602087016123fd565b9190910192915050565b60006020825282518060208401526122808160408501602087016123fd565b601f01601f19169190910160400192915050565b6020808252600990820152684248503a452d34303360b81b604082015260600190565b6020808252602e908201527f496e697469616c697a61626c653a20636f6e747261637420697320616c72656160408201526d191e481a5b9a5d1a585b1a5e995960921b606082015260800190565b6020808252818101527f4f776e61626c653a2063616c6c6572206973206e6f7420746865206f776e6572604082015260600190565b604051601f8201601f1916810167ffffffffffffffff811182821017156123635761236361245a565b604052919050565b600067ffffffffffffffff8211156123855761238561245a565b5060051b60200190565b600082198211156123a2576123a2612444565b500190565b6000826123c257634e487b7160e01b81526012600452602481fd5b500490565b60008160001904831182151516156123e1576123e1612444565b500290565b6000828210156123f8576123f8612444565b500390565b60005b83811015612418578181015183820152602001612400565b838111156107615750506000910152565b600060001982141561243d5761243d612444565b5060010190565b634e487b7160e01b600052601160045260246000fd5b634e487b7160e01b600052604160045260246000fd5b6001600160a01b038116811461092c57600080fd5b801515811461092c57600080fdfe416464726573733a206c6f772d6c6576656c2064656c65676174652063616c6c206661696c6564a2646970667358221220d3520e606dc7c6a0424607f06fc5dac4f0b2c04ac2506e2f228b6ae8a289fa6164736f6c63430008030033",
  "linkReferences": {},
  "deployedLinkReferences": {}
}