{
  "_format": "hh-sol-artifact-1",
  "contractName": "ERC1155Mock",
  "sourceName": "contracts/mock/ERC1155Mock.sol",
  "abi": [
    {
      "inputs": [
        {
          "internalType": "string",
          "name": "uri",
          "type": "string"
        }
      ],
      "stateMutability": "payable",
      "type": "constructor"
    },
    {
      "anonymous": false,
      "inputs": [
        {
          "indexed": true,
          "internalType": "address",
          "name": "account",
          "type": "address"
        },
        {
          "indexed": true,
          "internalType": "address",
          "name": "operator",
          "type": "address"
        },
        {
          "indexed": false,
          "internalType": "bool",
          "name": "approved",
          "type": "bool"
        }
      ],
      "name": "ApprovalForAll",
      "type": "event"
    },
    {
      "anonymous": false,
      "inputs": [
        {
          "indexed": true,
          "internalType": "address",
          "name": "operator",
          "type": "address"
        },
        {
          "indexed": true,
          "internalType": "address",
          "name": "from",
          "type": "address"
        },
        {
          "indexed": true,
          "internalType": "address",
          "name": "to",
          "type": "address"
        },
        {
          "indexed": false,
          "internalType": "uint256[]",
          "name": "ids",
          "type": "uint256[]"
        },
        {
          "indexed": false,
          "internalType": "uint256[]",
          "name": "values",
          "type": "uint256[]"
        }
      ],
      "name": "TransferBatch",
      "type": "event"
    },
    {
      "anonymous": false,
      "inputs": [
        {
          "indexed": true,
          "internalType": "address",
          "name": "operator",
          "type": "address"
        },
        {
          "indexed": true,
          "internalType": "address",
          "name": "from",
          "type": "address"
        },
        {
          "indexed": true,
          "internalType": "address",
          "name": "to",
          "type": "address"
        },
        {
          "indexed": false,
          "internalType": "uint256",
          "name": "id",
          "type": "uint256"
        },
        {
          "indexed": false,
          "internalType": "uint256",
          "name": "value",
          "type": "uint256"
        }
      ],
      "name": "TransferSingle",
      "type": "event"
    },
    {
      "anonymous": false,
      "inputs": [
        {
          "indexed": false,
          "internalType": "string",
          "name": "value",
          "type": "string"
        },
        {
          "indexed": true,
          "internalType": "uint256",
          "name": "id",
          "type": "uint256"
        }
      ],
      "name": "URI",
      "type": "event"
    },
    {
      "inputs": [
        {
          "internalType": "address",
          "name": "account",
          "type": "address"
        },
        {
          "internalType": "uint256",
          "name": "id",
          "type": "uint256"
        }
      ],
      "name": "balanceOf",
      "outputs": [
        {
          "internalType": "uint256",
          "name": "",
          "type": "uint256"
        }
      ],
      "stateMutability": "view",
      "type": "function"
    },
    {
      "inputs": [
        {
          "internalType": "address[]",
          "name": "accounts",
          "type": "address[]"
        },
        {
          "internalType": "uint256[]",
          "name": "ids",
          "type": "uint256[]"
        }
      ],
      "name": "balanceOfBatch",
      "outputs": [
        {
          "internalType": "uint256[]",
          "name": "",
          "type": "uint256[]"
        }
      ],
      "stateMutability": "view",
      "type": "function"
    },
    {
      "inputs": [
        {
          "internalType": "uint256",
          "name": "id",
          "type": "uint256"
        },
        {
          "internalType": "uint256",
          "name": "amount",
          "type": "uint256"
        }
      ],
      "name": "burn",
      "outputs": [],
      "stateMutability": "nonpayable",
      "type": "function"
    },
    {
      "inputs": [
        {
          "internalType": "address",
          "name": "account",
          "type": "address"
        },
        {
          "internalType": "address",
          "name": "operator",
          "type": "address"
        }
      ],
      "name": "isApprovedForAll",
      "outputs": [
        {
          "internalType": "bool",
          "name": "",
          "type": "bool"
        }
      ],
      "stateMutability": "view",
      "type": "function"
    },
    {
      "inputs": [
        {
          "internalType": "address",
          "name": "account",
          "type": "address"
        },
        {
          "internalType": "uint256",
          "name": "id",
          "type": "uint256"
        },
        {
          "internalType": "uint256",
          "name": "amount",
          "type": "uint256"
        }
      ],
      "name": "mint",
      "outputs": [],
      "stateMutability": "nonpayable",
      "type": "function"
    },
    {
      "inputs": [
        {
          "internalType": "address",
          "name": "from",
          "type": "address"
        },
        {
          "internalType": "address",
          "name": "to",
          "type": "address"
        },
        {
          "internalType": "uint256[]",
          "name": "ids",
          "type": "uint256[]"
        },
        {
          "internalType": "uint256[]",
          "name": "amounts",
          "type": "uint256[]"
        },
        {
          "internalType": "bytes",
          "name": "data",
          "type": "bytes"
        }
      ],
      "name": "safeBatchTransferFrom",
      "outputs": [],
      "stateMutability": "nonpayable",
      "type": "function"
    },
    {
      "inputs": [
        {
          "internalType": "address",
          "name": "from",
          "type": "address"
        },
        {
          "internalType": "address",
          "name": "to",
          "type": "address"
        },
        {
          "internalType": "uint256",
          "name": "id",
          "type": "uint256"
        },
        {
          "internalType": "uint256",
          "name": "amount",
          "type": "uint256"
        },
        {
          "internalType": "bytes",
          "name": "data",
          "type": "bytes"
        }
      ],
      "name": "safeTransferFrom",
      "outputs": [],
      "stateMutability": "nonpayable",
      "type": "function"
    },
    {
      "inputs": [
        {
          "internalType": "address",
          "name": "operator",
          "type": "address"
        },
        {
          "internalType": "bool",
          "name": "approved",
          "type": "bool"
        }
      ],
      "name": "setApprovalForAll",
      "outputs": [],
      "stateMutability": "nonpayable",
      "type": "function"
    },
    {
      "inputs": [
        {
          "internalType": "bytes4",
          "name": "interfaceId",
          "type": "bytes4"
        }
      ],
      "name": "supportsInterface",
      "outputs": [
        {
          "internalType": "bool",
          "name": "",
          "type": "bool"
        }
      ],
      "stateMutability": "view",
      "type": "function"
    },
    {
      "inputs": [
        {
          "internalType": "uint256",
          "name": "",
          "type": "uint256"
        }
      ],
      "name": "uri",
      "outputs": [
        {
          "internalType": "string",
          "name": "",
          "type": "string"
        }
      ],
      "stateMutability": "view",
      "type": "function"
    }
  ],
  "bytecode": "0x6080604052604051620019fc380380620019fc8339810160408190526200002691620000f9565b8062000032816200003a565b505062000222565b80516200004f90600290602084019062000053565b5050565b8280546200006190620001cf565b90600052602060002090601f016020900481019282620000855760008555620000d0565b82601f10620000a057805160ff1916838001178555620000d0565b82800160010185558215620000d0579182015b82811115620000d0578251825591602001919060010190620000b3565b50620000de929150620000e2565b5090565b5b80821115620000de5760008155600101620000e3565b600060208083850312156200010c578182fd5b82516001600160401b038082111562000123578384fd5b818501915085601f83011262000137578384fd5b8151818111156200014c576200014c6200020c565b604051601f8201601f19908116603f011681019083821181831017156200017757620001776200020c565b8160405282815288868487010111156200018f578687fd5b8693505b82841015620001b2578484018601518185018701529285019262000193565b82841115620001c357868684830101525b98975050505050505050565b600181811c90821680620001e457607f821691505b602082108114156200020657634e487b7160e01b600052602260045260246000fd5b50919050565b634e487b7160e01b600052604160045260246000fd5b6117ca80620002326000396000f3fe608060405234801561001057600080fd5b506004361061009d5760003560e01c80634e1273f4116100665780634e1273f414610133578063a22cb46514610153578063b390c0ab14610166578063e985e9c514610179578063f242432a146101b55761009d565b8062fdd58e146100a257806301ffc9a7146100c85780630e89341c146100eb578063156e29f61461010b5780632eb2c2d614610120575b600080fd5b6100b56100b03660046111f6565b6101c8565b6040519081526020015b60405180910390f35b6100db6100d636600461131c565b61025f565b60405190151581526020016100bf565b6100fe6100f936600461135b565b6102b3565b6040516100bf91906114fd565b61011e61011936600461121f565b610347565b005b61011e61012e3660046110b3565b610367565b610146610141366004611251565b610410565b6040516100bf91906114bc565b61011e6101613660046111bc565b610572565b61011e610174366004611373565b610686565b6100db610187366004611081565b6001600160a01b03918216600090815260016020908152604080832093909416825291909152205460ff1690565b61011e6101c3366004611159565b610695565b60006001600160a01b0383166102395760405162461bcd60e51b815260206004820152602b60248201527f455243313135353a2062616c616e636520717565727920666f7220746865207a60448201526a65726f206164647265737360a81b60648201526084015b60405180910390fd5b506000908152602081815260408083206001600160a01b03949094168352929052205490565b60006001600160e01b03198216636cdb3d1360e11b148061029057506001600160e01b031982166303a24d0760e21b145b806102ab57506301ffc9a760e01b6001600160e01b03198316145b90505b919050565b6060600280546102c290611623565b80601f01602080910402602001604051908101604052809291908181526020018280546102ee90611623565b801561033b5780601f106103105761010080835404028352916020019161033b565b820191906000526020600020905b81548152906001019060200180831161031e57829003601f168201915b50505050509050919050565b6103628383836040518060200160405280600081525061072e565b505050565b61036f610843565b6001600160a01b0316856001600160a01b03161480610395575061039585610187610843565b6103fc5760405162461bcd60e51b815260206004820152603260248201527f455243313135353a207472616e736665722063616c6c6572206973206e6f74206044820152711bdddb995c881b9bdc88185c1c1c9bdd995960721b6064820152608401610230565b6104098585858585610848565b5050505050565b606081518351146104755760405162461bcd60e51b815260206004820152602960248201527f455243313135353a206163636f756e747320616e6420696473206c656e677468604482015268040dad2e6dac2e8c6d60bb1b6064820152608401610230565b6000835167ffffffffffffffff81111561049f57634e487b7160e01b600052604160045260246000fd5b6040519080825280602002602001820160405280156104c8578160200160208202803683370190505b50905060005b845181101561056a5761052f8582815181106104fa57634e487b7160e01b600052603260045260246000fd5b602002602001015185838151811061052257634e487b7160e01b600052603260045260246000fd5b60200260200101516101c8565b82828151811061054f57634e487b7160e01b600052603260045260246000fd5b60209081029190910101526105638161168b565b90506104ce565b509392505050565b816001600160a01b0316610584610843565b6001600160a01b031614156105ed5760405162461bcd60e51b815260206004820152602960248201527f455243313135353a2073657474696e6720617070726f76616c20737461747573604482015268103337b91039b2b63360b91b6064820152608401610230565b80600160006105fa610843565b6001600160a01b03908116825260208083019390935260409182016000908120918716808252919093529120805460ff19169215159290921790915561063e610843565b6001600160a01b03167f17307eab39ab6107e8899845ad3d59bd9653f200f220920489ca2b5937696c318360405161067a911515815260200190565b60405180910390a35050565b610691338383610a4c565b5050565b61069d610843565b6001600160a01b0316856001600160a01b031614806106c357506106c385610187610843565b6107215760405162461bcd60e51b815260206004820152602960248201527f455243313135353a2063616c6c6572206973206e6f74206f776e6572206e6f7260448201526808185c1c1c9bdd995960ba1b6064820152608401610230565b6104098585858585610bd1565b6001600160a01b03841661078e5760405162461bcd60e51b815260206004820152602160248201527f455243313135353a206d696e7420746f20746865207a65726f206164647265736044820152607360f81b6064820152608401610230565b6000610798610843565b90506107b3816000876107aa88610cf9565b61040988610cf9565b6000848152602081815260408083206001600160a01b0389168452909152812080548592906107e390849061160b565b909155505060408051858152602081018590526001600160a01b0380881692600092918516917fc3d58168c5ae7397731d063d5bbf3d657854427343f4c083240f7aacaa2d0f62910160405180910390a461040981600087878787610d52565b335b90565b81518351146108aa5760405162461bcd60e51b815260206004820152602860248201527f455243313135353a2069647320616e6420616d6f756e7473206c656e677468206044820152670dad2e6dac2e8c6d60c31b6064820152608401610230565b6001600160a01b0384166108d05760405162461bcd60e51b815260040161023090611558565b60006108da610843565b905060005b84518110156109de57600085828151811061090a57634e487b7160e01b600052603260045260246000fd5b60200260200101519050600085838151811061093657634e487b7160e01b600052603260045260246000fd5b602090810291909101810151600084815280835260408082206001600160a01b038e1683529093529190912054909150818110156109865760405162461bcd60e51b81526004016102309061159d565b6000838152602081815260408083206001600160a01b038e8116855292528083208585039055908b168252812080548492906109c390849061160b565b92505081905550505050806109d79061168b565b90506108df565b50846001600160a01b0316866001600160a01b0316826001600160a01b03167f4a39dc06d4c0dbc64b70af90fd698a233a518aa5d07e595d983b8c0526c8f7fb8787604051610a2e9291906114cf565b60405180910390a4610a44818787878787610ebd565b505050505050565b6001600160a01b038316610aae5760405162461bcd60e51b815260206004820152602360248201527f455243313135353a206275726e2066726f6d20746865207a65726f206164647260448201526265737360e81b6064820152608401610230565b6000610ab8610843565b9050610ae981856000610aca87610cf9565b610ad387610cf9565b5050604080516020810190915260009052505050565b6000838152602081815260408083206001600160a01b038816845290915290205482811015610b665760405162461bcd60e51b8152602060048201526024808201527f455243313135353a206275726e20616d6f756e7420657863656564732062616c604482015263616e636560e01b6064820152608401610230565b6000848152602081815260408083206001600160a01b03898116808652918452828520888703905582518981529384018890529092908616917fc3d58168c5ae7397731d063d5bbf3d657854427343f4c083240f7aacaa2d0f62910160405180910390a45050505050565b6001600160a01b038416610bf75760405162461bcd60e51b815260040161023090611558565b6000610c01610843565b9050610c128187876107aa88610cf9565b6000848152602081815260408083206001600160a01b038a16845290915290205483811015610c535760405162461bcd60e51b81526004016102309061159d565b6000858152602081815260408083206001600160a01b038b8116855292528083208785039055908816825281208054869290610c9090849061160b565b909155505060408051868152602081018690526001600160a01b03808916928a821692918616917fc3d58168c5ae7397731d063d5bbf3d657854427343f4c083240f7aacaa2d0f62910160405180910390a4610cf0828888888888610d52565b50505050505050565b60408051600180825281830190925260609160009190602080830190803683370190505090508281600081518110610d4157634e487b7160e01b600052603260045260246000fd5b602090810291909101015292915050565b6001600160a01b0384163b15610a445760405163f23a6e6160e01b81526001600160a01b0385169063f23a6e6190610d969089908990889088908890600401611477565b602060405180830381600087803b158015610db057600080fd5b505af1925050508015610de0575060408051601f3d908101601f19168201909252610ddd9181019061133f565b60015b610e8d57610dec6116d2565b806308c379a01415610e265750610e016116e9565b80610e0c5750610e28565b8060405162461bcd60e51b815260040161023091906114fd565b505b60405162461bcd60e51b815260206004820152603460248201527f455243313135353a207472616e7366657220746f206e6f6e20455243313135356044820152732932b1b2b4bb32b91034b6b83632b6b2b73a32b960611b6064820152608401610230565b6001600160e01b0319811663f23a6e6160e01b14610cf05760405162461bcd60e51b815260040161023090611510565b6001600160a01b0384163b15610a445760405163bc197c8160e01b81526001600160a01b0385169063bc197c8190610f019089908990889088908890600401611419565b602060405180830381600087803b158015610f1b57600080fd5b505af1925050508015610f4b575060408051601f3d908101601f19168201909252610f489181019061133f565b60015b610f5757610dec6116d2565b6001600160e01b0319811663bc197c8160e01b14610cf05760405162461bcd60e51b815260040161023090611510565b80356001600160a01b03811681146102ae57600080fd5b600082601f830112610fae578081fd5b81356020610fbb826115e7565b604051610fc8828261165e565b8381528281019150858301600585901b87018401881015610fe7578586fd5b855b8581101561100557813584529284019290840190600101610fe9565b5090979650505050505050565b600082601f830112611022578081fd5b813567ffffffffffffffff81111561103c5761103c6116bc565b604051611053601f8301601f19166020018261165e565b818152846020838601011115611067578283fd5b816020850160208301379081016020019190915292915050565b60008060408385031215611093578182fd5b61109c83610f87565b91506110aa60208401610f87565b90509250929050565b600080600080600060a086880312156110ca578081fd5b6110d386610f87565b94506110e160208701610f87565b9350604086013567ffffffffffffffff808211156110fd578283fd5b61110989838a01610f9e565b9450606088013591508082111561111e578283fd5b61112a89838a01610f9e565b9350608088013591508082111561113f578283fd5b5061114c88828901611012565b9150509295509295909350565b600080600080600060a08688031215611170578081fd5b61117986610f87565b945061118760208701610f87565b93506040860135925060608601359150608086013567ffffffffffffffff8111156111b0578182fd5b61114c88828901611012565b600080604083850312156111ce578182fd5b6111d783610f87565b9150602083013580151581146111eb578182fd5b809150509250929050565b60008060408385031215611208578182fd5b61121183610f87565b946020939093013593505050565b600080600060608486031215611233578283fd5b61123c84610f87565b95602085013595506040909401359392505050565b60008060408385031215611263578182fd5b823567ffffffffffffffff8082111561127a578384fd5b818501915085601f83011261128d578384fd5b8135602061129a826115e7565b6040516112a7828261165e565b8381528281019150858301600585901b870184018b10156112c6578889fd5b8896505b848710156112ef576112db81610f87565b8352600196909601959183019183016112ca565b5096505086013592505080821115611305578283fd5b5061131285828601610f9e565b9150509250929050565b60006020828403121561132d578081fd5b81356113388161177b565b9392505050565b600060208284031215611350578081fd5b81516113388161177b565b60006020828403121561136c578081fd5b5035919050565b60008060408385031215611385578182fd5b50508035926020909101359150565b6000815180845260208085019450808401835b838110156113c3578151875295820195908201906001016113a7565b509495945050505050565b60008151808452815b818110156113f3576020818501810151868301820152016113d7565b818111156114045782602083870101525b50601f01601f19169290920160200192915050565b6001600160a01b0386811682528516602082015260a06040820181905260009061144590830186611394565b82810360608401526114578186611394565b9050828103608084015261146b81856113ce565b98975050505050505050565b6001600160a01b03868116825285166020820152604081018490526060810183905260a0608082018190526000906114b1908301846113ce565b979650505050505050565b6000602082526113386020830184611394565b6000604082526114e26040830185611394565b82810360208401526114f48185611394565b95945050505050565b60006020825261133860208301846113ce565b60208082526028908201527f455243313135353a204552433131353552656365697665722072656a656374656040820152676420746f6b656e7360c01b606082015260800190565b60208082526025908201527f455243313135353a207472616e7366657220746f20746865207a65726f206164604082015264647265737360d81b606082015260800190565b6020808252602a908201527f455243313135353a20696e73756666696369656e742062616c616e636520666f60408201526939103a3930b739b332b960b11b606082015260800190565b600067ffffffffffffffff821115611601576116016116bc565b5060051b60200190565b6000821982111561161e5761161e6116a6565b500190565b600181811c9082168061163757607f821691505b6020821081141561165857634e487b7160e01b600052602260045260246000fd5b50919050565b601f8201601f1916810167ffffffffffffffff81118282101715611684576116846116bc565b6040525050565b600060001982141561169f5761169f6116a6565b5060010190565b634e487b7160e01b600052601160045260246000fd5b634e487b7160e01b600052604160045260246000fd5b600060033d111561084557600481823e5160e01c90565b600060443d10156116f957610845565b6040516003193d81016004833e81513d67ffffffffffffffff816024840111818411171561172b575050505050610845565b828501915081518181111561174557505050505050610845565b843d870101602082850101111561176157505050505050610845565b6117706020828601018761165e565b509094505050505090565b6001600160e01b03198116811461179157600080fd5b5056fea2646970667358221220bd7e85548e3757b8249194ffd0a517eb2d9c7723c656743ace321381111c303f64736f6c63430008030033",
  "linkReferences": {},
  "deployedLinkReferences": {}
}