{
  "_format": "hh-sol-artifact-1",
  "contractName": "DTOUpgradeableBase",
  "sourceName": "contracts/lib/DTOUpgradeableBase.sol",
  "abi": [
    {
      "inputs": [],
      "stateMutability": "nonpayable",
      "type": "constructor"
    },
    {
      "anonymous": false,
      "inputs": [
        {
          "indexed": false,
          "internalType": "address",
          "name": "previousAdmin",
          "type": "address"
        },
        {
          "indexed": false,
          "internalType": "address",
          "name": "newAdmin",
          "type": "address"
        }
      ],
      "name": "AdminChanged",
      "type": "event"
    },
    {
      "anonymous": false,
      "inputs": [
        {
          "indexed": true,
          "internalType": "address",
          "name": "beacon",
          "type": "address"
        }
      ],
      "name": "BeaconUpgraded",
      "type": "event"
    },
    {
      "anonymous": false,
      "inputs": [
        {
          "indexed": true,
          "internalType": "address",
          "name": "previousOwner",
          "type": "address"
        },
        {
          "indexed": true,
          "internalType": "address",
          "name": "newOwner",
          "type": "address"
        }
      ],
      "name": "OwnershipTransferred",
      "type": "event"
    },
    {
      "anonymous": false,
      "inputs": [
        {
          "indexed": true,
          "internalType": "address",
          "name": "implementation",
          "type": "address"
        }
      ],
      "name": "Upgraded",
      "type": "event"
    },
    {
      "inputs": [],
      "name": "owner",
      "outputs": [
        {
          "internalType": "address",
          "name": "",
          "type": "address"
        }
      ],
      "stateMutability": "view",
      "type": "function"
    },
    {
      "inputs": [],
      "name": "renounceOwnership",
      "outputs": [],
      "stateMutability": "nonpayable",
      "type": "function"
    },
    {
      "inputs": [
        {
          "internalType": "address",
          "name": "newOwner",
          "type": "address"
        }
      ],
      "name": "transferOwnership",
      "outputs": [],
      "stateMutability": "nonpayable",
      "type": "function"
    },
    {
      "inputs": [
        {
          "internalType": "address",
          "name": "newImplementation",
          "type": "address"
        }
      ],
      "name": "upgradeTo",
      "outputs": [],
      "stateMutability": "nonpayable",
      "type": "function"
    },
    {
      "inputs": [
        {
          "internalType": "address",
          "name": "newImplementation",
          "type": "address"
        },
        {
          "internalType": "bytes",
          "name": "data",
          "type": "bytes"
        }
      ],
      "name": "upgradeToAndCall",
      "outputs": [],
      "stateMutability": "payable",
      "type": "function"
    }
  ],
  "bytecode": "0x608060405234801561001057600080fd5b50600054610100900460ff168061002a575060005460ff16155b6100915760405162461bcd60e51b815260206004820152602e60248201527f496e697469616c697a61626c653a20636f6e747261637420697320616c72656160448201526d191e481a5b9a5d1a585b1a5e995960921b606482015260840160405180910390fd5b600054610100900460ff161580156100b3576000805461ffff19166101011790555b80156100c5576000805461ff00191690555b5061083d806100d56000396000f3fe60806040526004361061004a5760003560e01c80633659cfe61461004f5780634f1ef28614610071578063715018a6146100845780638da5cb5b14610099578063f2fde38b146100c5575b600080fd5b34801561005b57600080fd5b5061006f61006a36600461063f565b6100e5565b005b61006f61007f366004610659565b61010c565b34801561009057600080fd5b5061006f610125565b3480156100a557600080fd5b50609754604080516001600160a01b039092168252519081900360200190f35b3480156100d157600080fd5b5061006f6100e036600461063f565b610164565b6100ee816101fc565b61010981604051806020016040528060008152506000610226565b50565b610115826101fc565b61012182826001610226565b5050565b6097546001600160a01b031633146101585760405162461bcd60e51b815260040161014f90610765565b60405180910390fd5b61016260006103ae565b565b6097546001600160a01b0316331461018e5760405162461bcd60e51b815260040161014f90610765565b6001600160a01b0381166101f35760405162461bcd60e51b815260206004820152602660248201527f4f776e61626c653a206e6577206f776e657220697320746865207a65726f206160448201526564647265737360d01b606482015260840161014f565b610109816103ae565b6097546001600160a01b031633146101095760405162461bcd60e51b815260040161014f90610765565b60006102597f360894a13ba1a3210667c828492db98dca3e2076cc3735a920a3ca505d382bbc546001600160a01b031690565b905061026484610400565b6000835111806102715750815b156102825761028084846104ac565b505b7f4910fdfa16fed3260ed0e7147f7cc6da11a60208b5b9406d12a635614ffd9143805460ff166103a757805460ff191660011781556040516001600160a01b038316602482015261030190869060440160408051601f198184030181529190526020810180516001600160e01b0316631b2ce7f360e11b1790526104ac565b50805460ff191681557f360894a13ba1a3210667c828492db98dca3e2076cc3735a920a3ca505d382bbc546001600160a01b0383811691161461039e5760405162461bcd60e51b815260206004820152602f60248201527f45524331393637557067726164653a207570677261646520627265616b73206660448201526e75727468657220757067726164657360881b606482015260840161014f565b6103a78561059e565b5050505050565b609780546001600160a01b038381166001600160a01b0319831681179093556040519116919082907f8be0079c531659141344cd1fd0a4f28419497f9722a3daafe3b4186f6b6457e090600090a35050565b610409816105de565b61046b5760405162461bcd60e51b815260206004820152602d60248201527f455243313936373a206e657720696d706c656d656e746174696f6e206973206e60448201526c1bdd08184818dbdb9d1c9858dd609a1b606482015260840161014f565b7f360894a13ba1a3210667c828492db98dca3e2076cc3735a920a3ca505d382bbc80546001600160a01b0319166001600160a01b0392909216919091179055565b60606104b7836105de565b6105125760405162461bcd60e51b815260206004820152602660248201527f416464726573733a2064656c65676174652063616c6c20746f206e6f6e2d636f6044820152651b9d1c9858dd60d21b606482015260840161014f565b600080846001600160a01b03168460405161052d9190610716565b600060405180830381855af49150503d8060008114610568576040519150601f19603f3d011682016040523d82523d6000602084013e61056d565b606091505b509150915061059582826040518060600160405280602781526020016107e1602791396105e8565b95945050505050565b6105a781610400565b6040516001600160a01b038216907fbc7cd75a20ee27fd9adebab32041f755214dbc6bffa90cc0225b39da2e5c2d3b90600090a250565b803b15155b919050565b606083156105f7575081610621565b8251156106075782518084602001fd5b8160405162461bcd60e51b815260040161014f9190610732565b9392505050565b80356001600160a01b03811681146105e357600080fd5b600060208284031215610650578081fd5b61062182610628565b6000806040838503121561066b578081fd5b61067483610628565b9150602083013567ffffffffffffffff80821115610690578283fd5b818501915085601f8301126106a3578283fd5b8135818111156106b5576106b56107ca565b604051601f8201601f19908116603f011681019083821181831017156106dd576106dd6107ca565b816040528281528860208487010111156106f5578586fd5b82602086016020830137856020848301015280955050505050509250929050565b6000825161072881846020870161079a565b9190910192915050565b600060208252825180602084015261075181604085016020870161079a565b601f01601f19169190910160400192915050565b6020808252818101527f4f776e61626c653a2063616c6c6572206973206e6f7420746865206f776e6572604082015260600190565b60005b838110156107b557818101518382015260200161079d565b838111156107c4576000848401525b50505050565b634e487b7160e01b600052604160045260246000fdfe416464726573733a206c6f772d6c6576656c2064656c65676174652063616c6c206661696c6564a26469706673582212206072925ddb8a211cdb68d5c23f590f5bc5b314d7f13c8e268281d4f4bc073cd564736f6c63430008030033",
  "linkReferences": {},
  "deployedLinkReferences": {}
}