{
  "_format": "hh-sol-artifact-1",
  "contractName": "DTOBondingUpgradeable",
  "sourceName": "contracts/validator/DTOBondingUpgradeable.sol",
  "abi": [
    {
      "anonymous": false,
      "inputs": [
        {
          "indexed": false,
          "internalType": "address",
          "name": "previousAdmin",
          "type": "address"
        },
        {
          "indexed": false,
          "internalType": "address",
          "name": "newAdmin",
          "type": "address"
        }
      ],
      "name": "AdminChanged",
      "type": "event"
    },
    {
      "anonymous": false,
      "inputs": [
        {
          "indexed": true,
          "internalType": "address",
          "name": "beacon",
          "type": "address"
        }
      ],
      "name": "BeaconUpgraded",
      "type": "event"
    },
    {
      "anonymous": false,
      "inputs": [
        {
          "indexed": true,
          "internalType": "address",
          "name": "previousOwner",
          "type": "address"
        },
        {
          "indexed": true,
          "internalType": "address",
          "name": "newOwner",
          "type": "address"
        }
      ],
      "name": "OwnershipTransferred",
      "type": "event"
    },
    {
      "anonymous": false,
      "inputs": [
        {
          "indexed": true,
          "internalType": "address",
          "name": "implementation",
          "type": "address"
        }
      ],
      "name": "Upgraded",
      "type": "event"
    },
    {
      "anonymous": false,
      "inputs": [
        {
          "indexed": true,
          "internalType": "address",
          "name": "validator",
          "type": "address"
        },
        {
          "indexed": false,
          "internalType": "uint256",
          "name": "blockNumber",
          "type": "uint256"
        },
        {
          "indexed": false,
          "internalType": "uint256",
          "name": "timestamp",
          "type": "uint256"
        }
      ],
      "name": "ValidatorApply",
      "type": "event"
    },
    {
      "anonymous": false,
      "inputs": [
        {
          "indexed": true,
          "internalType": "address",
          "name": "validator",
          "type": "address"
        },
        {
          "indexed": false,
          "internalType": "uint256",
          "name": "blockNumber",
          "type": "uint256"
        },
        {
          "indexed": false,
          "internalType": "uint256",
          "name": "timestamp",
          "type": "uint256"
        }
      ],
      "name": "ValidatorApproval",
      "type": "event"
    },
    {
      "anonymous": false,
      "inputs": [
        {
          "indexed": true,
          "internalType": "address",
          "name": "validator",
          "type": "address"
        },
        {
          "indexed": false,
          "internalType": "uint256",
          "name": "blockNumber",
          "type": "uint256"
        },
        {
          "indexed": false,
          "internalType": "uint256",
          "name": "timestamp",
          "type": "uint256"
        }
      ],
      "name": "ValidatorResign",
      "type": "event"
    },
    {
      "inputs": [],
      "name": "APPROVE_PERCENT_THRESHOLD",
      "outputs": [
        {
          "internalType": "uint256",
          "name": "",
          "type": "uint256"
        }
      ],
      "stateMutability": "view",
      "type": "function"
    },
    {
      "inputs": [],
      "name": "BONDING_AMOUNT",
      "outputs": [
        {
          "internalType": "uint256",
          "name": "",
          "type": "uint256"
        }
      ],
      "stateMutability": "view",
      "type": "function"
    },
    {
      "inputs": [],
      "name": "MAX_LOCKING_TOKEN",
      "outputs": [
        {
          "internalType": "uint256",
          "name": "",
          "type": "uint256"
        }
      ],
      "stateMutability": "view",
      "type": "function"
    },
    {
      "inputs": [],
      "name": "MINIMUM_WAITING",
      "outputs": [
        {
          "internalType": "uint256",
          "name": "",
          "type": "uint256"
        }
      ],
      "stateMutability": "view",
      "type": "function"
    },
    {
      "inputs": [],
      "name": "POOL_LOCKED_TIME",
      "outputs": [
        {
          "internalType": "uint256",
          "name": "",
          "type": "uint256"
        }
      ],
      "stateMutability": "view",
      "type": "function"
    },
    {
      "inputs": [],
      "name": "applyValidtor",
      "outputs": [],
      "stateMutability": "nonpayable",
      "type": "function"
    },
    {
      "inputs": [
        {
          "internalType": "address",
          "name": "_validator",
          "type": "address"
        }
      ],
      "name": "approveValidator",
      "outputs": [],
      "stateMutability": "nonpayable",
      "type": "function"
    },
    {
      "inputs": [],
      "name": "cancelValidatorApplication",
      "outputs": [],
      "stateMutability": "nonpayable",
      "type": "function"
    },
    {
      "inputs": [],
      "name": "chainId",
      "outputs": [
        {
          "internalType": "uint256",
          "name": "",
          "type": "uint256"
        }
      ],
      "stateMutability": "view",
      "type": "function"
    },
    {
      "inputs": [],
      "name": "dtoToken",
      "outputs": [
        {
          "internalType": "address",
          "name": "",
          "type": "address"
        }
      ],
      "stateMutability": "view",
      "type": "function"
    },
    {
      "inputs": [
        {
          "internalType": "address",
          "name": "_validator",
          "type": "address"
        }
      ],
      "name": "foundationApproveValidator",
      "outputs": [],
      "stateMutability": "nonpayable",
      "type": "function"
    },
    {
      "inputs": [
        {
          "internalType": "address",
          "name": "_user",
          "type": "address"
        }
      ],
      "name": "getLockInfo",
      "outputs": [
        {
          "internalType": "bool[]",
          "name": "isWithdrawns",
          "type": "bool[]"
        },
        {
          "internalType": "address[]",
          "name": "tokens",
          "type": "address[]"
        },
        {
          "internalType": "uint256[]",
          "name": "unlockableAts",
          "type": "uint256[]"
        },
        {
          "internalType": "uint256[]",
          "name": "amounts",
          "type": "uint256[]"
        }
      ],
      "stateMutability": "view",
      "type": "function"
    },
    {
      "inputs": [
        {
          "internalType": "address",
          "name": "_addr",
          "type": "address"
        },
        {
          "internalType": "uint256[]",
          "name": "_indexes",
          "type": "uint256[]"
        }
      ],
      "name": "getLockInfoByIndexes",
      "outputs": [
        {
          "internalType": "bool[]",
          "name": "isWithdrawns",
          "type": "bool[]"
        },
        {
          "internalType": "address[]",
          "name": "tokens",
          "type": "address[]"
        },
        {
          "internalType": "uint256[]",
          "name": "unlockableAts",
          "type": "uint256[]"
        },
        {
          "internalType": "uint256[]",
          "name": "amounts",
          "type": "uint256[]"
        }
      ],
      "stateMutability": "view",
      "type": "function"
    },
    {
      "inputs": [
        {
          "internalType": "address",
          "name": "_addr",
          "type": "address"
        }
      ],
      "name": "getLockInfoLength",
      "outputs": [
        {
          "internalType": "uint256",
          "name": "",
          "type": "uint256"
        }
      ],
      "stateMutability": "view",
      "type": "function"
    },
    {
      "inputs": [],
      "name": "getMaxLockingToken",
      "outputs": [
        {
          "internalType": "uint256",
          "name": "",
          "type": "uint256"
        }
      ],
      "stateMutability": "view",
      "type": "function"
    },
    {
      "inputs": [
        {
          "internalType": "address",
          "name": "addr",
          "type": "address"
        }
      ],
      "name": "getPendingValidatorInfo",
      "outputs": [
        {
          "internalType": "address",
          "name": "",
          "type": "address"
        },
        {
          "internalType": "uint256",
          "name": "",
          "type": "uint256"
        },
        {
          "internalType": "uint256",
          "name": "",
          "type": "uint256"
        }
      ],
      "stateMutability": "view",
      "type": "function"
    },
    {
      "inputs": [
        {
          "internalType": "address",
          "name": "addr",
          "type": "address"
        }
      ],
      "name": "getValidatorInfo",
      "outputs": [
        {
          "internalType": "address",
          "name": "",
          "type": "address"
        },
        {
          "internalType": "uint256",
          "name": "",
          "type": "uint256"
        },
        {
          "internalType": "uint256",
          "name": "",
          "type": "uint256"
        }
      ],
      "stateMutability": "view",
      "type": "function"
    },
    {
      "inputs": [],
      "name": "governance",
      "outputs": [
        {
          "internalType": "address",
          "name": "",
          "type": "address"
        }
      ],
      "stateMutability": "view",
      "type": "function"
    },
    {
      "inputs": [
        {
          "internalType": "address",
          "name": "addr",
          "type": "address"
        }
      ],
      "name": "isValidator",
      "outputs": [
        {
          "internalType": "bool",
          "name": "",
          "type": "bool"
        }
      ],
      "stateMutability": "view",
      "type": "function"
    },
    {
      "inputs": [
        {
          "internalType": "address",
          "name": "_token",
          "type": "address"
        },
        {
          "internalType": "address",
          "name": "_addr",
          "type": "address"
        },
        {
          "internalType": "uint256",
          "name": "_amount",
          "type": "uint256"
        },
        {
          "internalType": "uint256",
          "name": "_lockedTime",
          "type": "uint256"
        }
      ],
      "name": "lock",
      "outputs": [],
      "stateMutability": "nonpayable",
      "type": "function"
    },
    {
      "inputs": [],
      "name": "lockingtoken",
      "outputs": [
        {
          "internalType": "contract LockingTokenValidator",
          "name": "",
          "type": "address"
        }
      ],
      "stateMutability": "view",
      "type": "function"
    },
    {
      "inputs": [],
      "name": "owner",
      "outputs": [
        {
          "internalType": "address",
          "name": "",
          "type": "address"
        }
      ],
      "stateMutability": "view",
      "type": "function"
    },
    {
      "inputs": [
        {
          "internalType": "address",
          "name": "",
          "type": "address"
        }
      ],
      "name": "pendingValidators",
      "outputs": [
        {
          "internalType": "address",
          "name": "addr",
          "type": "address"
        },
        {
          "internalType": "uint256",
          "name": "blockNumber",
          "type": "uint256"
        },
        {
          "internalType": "uint256",
          "name": "timestamp",
          "type": "uint256"
        }
      ],
      "stateMutability": "view",
      "type": "function"
    },
    {
      "inputs": [],
      "name": "renounceOwnership",
      "outputs": [],
      "stateMutability": "nonpayable",
      "type": "function"
    },
    {
      "inputs": [],
      "name": "resignValidator",
      "outputs": [],
      "stateMutability": "nonpayable",
      "type": "function"
    },
    {
      "inputs": [
        {
          "internalType": "address",
          "name": "_gov",
          "type": "address"
        }
      ],
      "name": "setGovernance",
      "outputs": [],
      "stateMutability": "nonpayable",
      "type": "function"
    },
    {
      "inputs": [
        {
          "internalType": "uint256",
          "name": "_maxlockingtoken",
          "type": "uint256"
        }
      ],
      "name": "setMaxLockingToken",
      "outputs": [],
      "stateMutability": "nonpayable",
      "type": "function"
    },
    {
      "inputs": [
        {
          "internalType": "address",
          "name": "newOwner",
          "type": "address"
        }
      ],
      "name": "transferOwnership",
      "outputs": [],
      "stateMutability": "nonpayable",
      "type": "function"
    },
    {
      "inputs": [
        {
          "internalType": "address",
          "name": "_addr",
          "type": "address"
        },
        {
          "internalType": "uint256",
          "name": "index",
          "type": "uint256"
        }
      ],
      "name": "unlock",
      "outputs": [],
      "stateMutability": "nonpayable",
      "type": "function"
    },
    {
      "inputs": [
        {
          "internalType": "address",
          "name": "newImplementation",
          "type": "address"
        }
      ],
      "name": "upgradeTo",
      "outputs": [],
      "stateMutability": "nonpayable",
      "type": "function"
    },
    {
      "inputs": [
        {
          "internalType": "address",
          "name": "newImplementation",
          "type": "address"
        },
        {
          "internalType": "bytes",
          "name": "data",
          "type": "bytes"
        }
      ],
      "name": "upgradeToAndCall",
      "outputs": [],
      "stateMutability": "payable",
      "type": "function"
    },
    {
      "inputs": [
        {
          "internalType": "uint256",
          "name": "",
          "type": "uint256"
        }
      ],
      "name": "validatorList",
      "outputs": [
        {
          "internalType": "address",
          "name": "",
          "type": "address"
        }
      ],
      "stateMutability": "view",
      "type": "function"
    },
    {
      "inputs": [
        {
          "internalType": "address",
          "name": "",
          "type": "address"
        }
      ],
      "name": "validatorMap",
      "outputs": [
        {
          "internalType": "address",
          "name": "addr",
          "type": "address"
        },
        {
          "internalType": "uint256",
          "name": "blockNumber",
          "type": "uint256"
        },
        {
          "internalType": "uint256",
          "name": "timestamp",
          "type": "uint256"
        }
      ],
      "stateMutability": "view",
      "type": "function"
    }
  ],
  "bytecode": "0x608060405234801561001057600080fd5b5061251f806100206000396000f3fe6080604052600436106101ee5760003560e01c80637625a3a71161010d578063b85f5da2116100a0578063e7e987a01161006f578063e7e987a014610601578063ed82b9f814610617578063f1a585421461062d578063f2fde38b1461064d578063facd743b1461066d576101ee565b8063b85f5da214610596578063baccbfdf146105ab578063dbd9a031146105c1578063dcf9e59e146105e1576101ee565b80639a8a0592116100dc5780639a8a05921461052a578063ab033ea914610540578063b048e05614610560578063b1a2855814610580576101ee565b80637625a3a71461048e5780637eee288d146104a35780638a11d7c9146104c35780638da5cb5b1461050c576101ee565b80634f1ef286116101855780636df17699116101545780636df17699146104135780636f98319014610433578063715018a6146104495780637238ccdb1461045e576101ee565b80634f1ef28614610382578063580e93b3146103955780635aa6e675146103de57806364b88c87146103fe576101ee565b80632a9623d2116101c15780632a9623d2146103035780633659cfe6146103225780633d994f50146103425780634b86c22514610362576101ee565b8063047f48b8146101f3578063135d782714610263578063171ecf601461029b57806318d50d33146102bd575b600080fd5b3480156101ff57600080fd5b5061023961020e366004611e53565b60ce602052600090815260409020805460018201546002909201546001600160a01b03909116919083565b604080516001600160a01b0390941684526020840192909252908201526060015b60405180910390f35b34801561026f57600080fd5b5060cb54610283906001600160a01b031681565b6040516001600160a01b03909116815260200161025a565b3480156102a757600080fd5b506102bb6102b636600461214e565b60d255565b005b3480156102c957600080fd5b506102396102d8366004611e53565b60cd602052600090815260409020805460018201546002909201546001600160a01b03909116919083565b34801561030f57600080fd5b5060d2545b60405190815260200161025a565b34801561032e57600080fd5b506102bb61033d366004611e53565b6106b8565b34801561034e57600080fd5b506102bb61035d366004611e53565b6106df565b34801561036e57600080fd5b506102bb61037d366004611e6f565b610982565b6102bb610390366004611f5c565b6109fd565b3480156103a157600080fd5b506102396103b0366004611e53565b6001600160a01b03808216600090815260ce6020526040902080546001820154600290920154921693909250565b3480156103ea57600080fd5b50606554610283906001600160a01b031681565b34801561040a57600080fd5b506102bb610a16565b34801561041f57600080fd5b5060d454610283906001600160a01b031681565b34801561043f57600080fd5b5061031460d25481565b34801561045557600080fd5b506102bb610a9d565b34801561046a57600080fd5b5061047e610479366004611e53565b610ad1565b60405161025a9493929190612200565b34801561049a57600080fd5b506102bb610b68565b3480156104af57600080fd5b506102bb6104be366004611ffe565b610cdb565b3480156104cf57600080fd5b506102396104de366004611e53565b6001600160a01b03808216600090815260cd6020526040902080546001820154600290920154921693909250565b34801561051857600080fd5b506033546001600160a01b0316610283565b34801561053657600080fd5b5061031460665481565b34801561054c57600080fd5b506102bb61055b366004611e53565b610d45565b34801561056c57600080fd5b5061028361057b36600461214e565b610df8565b34801561058c57600080fd5b5061031460d35481565b3480156105a257600080fd5b506102bb610e22565b3480156105b757600080fd5b5061031460cf5481565b3480156105cd57600080fd5b506102bb6105dc366004611e53565b610f2c565b3480156105ed57600080fd5b5061047e6105fc366004611eb4565b6111a9565b34801561060d57600080fd5b5061031460d05481565b34801561062357600080fd5b5061031460d15481565b34801561063957600080fd5b50610314610648366004611e53565b611248565b34801561065957600080fd5b506102bb610668366004611e53565b6112ce565b34801561067957600080fd5b506106a8610688366004611e53565b6001600160a01b0316600090815260cd6020526040902060010154151590565b604051901515815260200161025a565b6106c181611366565b6106dc81604051806020016040528060008152506000611390565b50565b6065546001600160a01b031633146107305760405162461bcd60e51b815260206004820152600f60248201526e216f6e6c79476f7665726e616e636560881b60448201526064015b60405180910390fd5b6001600160a01b038116600090815260cd602052604090206001015481901561076b5760405162461bcd60e51b815260040161072790612358565b6001600160a01b038216600090815260ce60205260409020600101546107a35760405162461bcd60e51b8152600401610727906122e0565b60cc541561084a5760d15460cc546001600160a01b038416600090815260ce60205260409020600301546107e391906107dd906064611518565b9061152b565b101561084a5760405162461bcd60e51b815260206004820152603060248201527f44544f426f6e64696e673a206e6f7420656e6f75676820617070726f76616c7360448201526f2066726f6d2076616c696461746f727360801b6064820152608401610727565b60d0546001600160a01b038316600090815260ce6020526040902060020154610874904290611537565b10156108c25760405162461bcd60e51b815260206004820152601e60248201527f44544f426f6e64696e673a20617070726f76616c20746f6f206561726c7900006044820152606401610727565b604080516060810182526001600160a01b0380851680835243602080850191825242858701908152600084815260cd83528781209651875496166001600160a01b03199687161787559251600180880191909155905160029687015560cc80548083019091557f47197230e1e4b29fc0bd84d7d78966c0925452aff72a2a121538b102457e9ebe01805486168517905592825260ce90529384208054909216825581018390559081018290559061097c6003830182611cd6565b50505050565b60d454604051634b86c22560e01b81526001600160a01b0386811660048301528581166024830152604482018590526064820184905290911690634b86c22590608401600060405180830381600087803b1580156109df57600080fd5b505af11580156109f3573d6000803e3d6000fd5b5050505050505050565b610a0682611366565b610a1282826001611390565b5050565b33600090815260ce6020526040902060010154610a455760405162461bcd60e51b8152600401610727906122e0565b33600090815260ce6020526040812080546001600160a01b0319168155600181018290556002810182905590610a7e6003830182611cd6565b505060cb5460cf54610a9b916001600160a01b0316903390611543565b565b6033546001600160a01b03163314610ac75760405162461bcd60e51b815260040161072790612323565b610a9b60006117da565b60d454604051637238ccdb60e01b81526001600160a01b0383811660048301526060928392839283921690637238ccdb9060240160006040518083038186803b158015610b1d57600080fd5b505afa158015610b31573d6000803e3d6000fd5b505050506040513d6000823e601f3d908101601f19168201604052610b599190810190612029565b93509350935093509193509193565b33600081815260cd602052604090206001015415610b985760405162461bcd60e51b815260040161072790612358565b33600081815260ce602052604090206001015415610c085760405162461bcd60e51b815260206004820152602760248201527f44544f426f6e64696e673a20416c726561647920612070656e64696e672076616044820152663634b230ba37b960c91b6064820152608401610727565b60cb5460cf54610c25916001600160a01b0316903390309061182c565b6040805160808101825233808252436020808401918252428486019081526060808601818152600095865260ce845296909420855181546001600160a01b0319166001600160a01b03909116178155925160018401555160028301559351805192949192610c999260038501920190611cf4565b5050604080514381524260208201523392507fddeba69b5446349d866c22a5401e3ecd3a72190460b9b23b1074d66b38aca4fa910160405180910390a2505050565b60d454604051637eee288d60e01b81526001600160a01b0384811660048301526024820184905290911690637eee288d90604401600060405180830381600087803b158015610d2957600080fd5b505af1158015610d3d573d6000803e3d6000fd5b505050505050565b6065546001600160a01b03163314610d915760405162461bcd60e51b815260206004820152600f60248201526e216f6e6c79476f7665726e616e636560881b6044820152606401610727565b6001600160a01b038116610dd65760405162461bcd60e51b815260206004820152600c60248201526b6e756c6c206164647265737360a01b6044820152606401610727565b606580546001600160a01b0319166001600160a01b0392909216919091179055565b60cc8181548110610e0857600080fd5b6000918252602090912001546001600160a01b0316905081565b33600090815260cd6020526040902060010154610e815760405162461bcd60e51b815260206004820152601b60248201527f44544f426f6e64696e673a206e6f7420612076616c696461746f7200000000006044820152606401610727565b60cb5460d45460d25460405163095ea7b360e01b81526001600160a01b039283166004820152602481019190915291169063095ea7b390604401602060405180830381600087803b158015610ed557600080fd5b505af1158015610ee9573d6000803e3d6000fd5b505050506040513d601f19601f82011682018060405250810190610f0d9190612134565b5060cb5460cf5460d354610a9b926001600160a01b0316913391610982565b6001600160a01b038116600090815260cd6020526040902060010154819015610f675760405162461bcd60e51b815260040161072790612358565b33600090815260cd6020526040902060010154610fd55760405162461bcd60e51b815260206004820152602660248201527f44544f426f6e64696e673a206e6f7420612076616c696461746f7220746f20616044820152657070726f766560d01b6064820152608401610727565b6001600160a01b038216600090815260ce602052604090206001015461100d5760405162461bcd60e51b8152600401610727906122e0565b60d0546001600160a01b038316600090815260ce6020526040902060020154611037904290611537565b10156110855760405162461bcd60e51b815260206004820152601e60248201527f44544f426f6e64696e673a20617070726f76616c20746f6f206561726c7900006044820152606401610727565b6001600160a01b038216600090815260ce60209081526040808320600301805482518185028101850190935280835291929091908301828280156110f257602002820191906000526020600020905b81546001600160a01b031681526001909101906020018083116110d4575b505050505090506000805b825181101561116257336001600160a01b031683828151811061113057634e487b7160e01b600052603260045260246000fd5b60200260200101516001600160a01b031614156111505760019150611162565b8061115a81612466565b9150506110fd565b508061097c576001600160a01b038416600090815260ce602090815260408220600301805460018101825590835291200180546001600160a01b0319163317905550505050565b60d454604051636e7cf2cf60e11b81526060918291829182916001600160a01b039091169063dcf9e59e906111e490899089906004016121d4565b60006040518083038186803b1580156111fc57600080fd5b505afa158015611210573d6000803e3d6000fd5b505050506040513d6000823e601f3d908101601f191682016040526112389190810190612029565b9299919850965090945092505050565b60d4546040516378d2c2a160e11b81526001600160a01b038381166004830152600092169063f1a585429060240160206040518083038186803b15801561128e57600080fd5b505afa1580156112a2573d6000803e3d6000fd5b505050506040513d601f19601f820116820180604052508101906112c69190612166565b90505b919050565b6033546001600160a01b031633146112f85760405162461bcd60e51b815260040161072790612323565b6001600160a01b03811661135d5760405162461bcd60e51b815260206004820152602660248201527f4f776e61626c653a206e6577206f776e657220697320746865207a65726f206160448201526564647265737360d01b6064820152608401610727565b6106dc816117da565b6033546001600160a01b031633146106dc5760405162461bcd60e51b815260040161072790612323565b60006113c37f360894a13ba1a3210667c828492db98dca3e2076cc3735a920a3ca505d382bbc546001600160a01b031690565b90506113ce84611acd565b6000835111806113db5750815b156113ec576113ea8484611b72565b505b7f4910fdfa16fed3260ed0e7147f7cc6da11a60208b5b9406d12a635614ffd9143805460ff1661151157805460ff191660011781556040516001600160a01b038316602482015261146b90869060440160408051601f198184030181529190526020810180516001600160e01b0316631b2ce7f360e11b179052611b72565b50805460ff191681557f360894a13ba1a3210667c828492db98dca3e2076cc3735a920a3ca505d382bbc546001600160a01b038381169116146115085760405162461bcd60e51b815260206004820152602f60248201527f45524331393637557067726164653a207570677261646520627265616b73206660448201526e75727468657220757067726164657360881b6064820152608401610727565b61151185611c5d565b5050505050565b60006115248284612404565b9392505050565b600061152482846123e4565b60006115248284612423565b6040516370a0823160e01b81523060048201526000906001600160a01b038516906370a082319060240160206040518083038186803b15801561158557600080fd5b505afa158015611599573d6000803e3d6000fd5b505050506040513d601f19601f820116820180604052508101906115bd9190612166565b9050600080856001600160a01b031663a9059cbb86866040516024016115f89291906001600160a01b03929092168252602082015260400190565b6040516020818303038152906040529060e01b6020820180516001600160e01b03838183161783525050505060405161163191906121b8565b6000604051808303816000865af19150503d806000811461166e576040519150601f19603f3d011682016040523d82523d6000602084013e611673565b606091505b509150915081801561169d57508051158061169d57508080602001905181019061169d9190612134565b6116f55760405162461bcd60e51b815260206004820152602360248201527f536166655472616e7366657248656c7065723a205452414e534645525f46414960448201526213115160ea1b6064820152608401610727565b6040516370a0823160e01b81523060048201528490611779906001600160a01b038916906370a082319060240160206040518083038186803b15801561173a57600080fd5b505afa15801561174e573d6000803e3d6000fd5b505050506040513d601f19601f820116820180604052508101906117729190612166565b8590611537565b1115610d3d5760405162461bcd60e51b815260206004820152602a60248201527f536166655472616e7366657248656c7065723a20496e76616c696420746f6b6560448201526937103a3930b739b332b960b11b6064820152608401610727565b603380546001600160a01b038381166001600160a01b0319831681179093556040519116919082907f8be0079c531659141344cd1fd0a4f28419497f9722a3daafe3b4186f6b6457e090600090a35050565b6040516370a0823160e01b81526001600160a01b038381166004830152600091908616906370a082319060240160206040518083038186803b15801561187157600080fd5b505afa158015611885573d6000803e3d6000fd5b505050506040513d601f19601f820116820180604052508101906118a99190612166565b604080516001600160a01b0387811660248301528681166044830152606480830187905283518084039091018152608490920183526020820180516001600160e01b03166323b872dd60e01b1790529151929350600092839289169161190e916121b8565b6000604051808303816000865af19150503d806000811461194b576040519150601f19603f3d011682016040523d82523d6000602084013e611950565b606091505b509150915081801561197a57508051158061197a57508080602001905181019061197a9190612134565b6119d75760405162461bcd60e51b815260206004820152602860248201527f536166655472616e7366657248656c7065723a205452414e534645525f46524f6044820152671357d1905253115160c21b6064820152608401610727565b6040516370a0823160e01b81526001600160a01b0386811660048301528591611a5f918691908b16906370a082319060240160206040518083038186803b158015611a2157600080fd5b505afa158015611a35573d6000803e3d6000fd5b505050506040513d601f19601f82011682018060405250810190611a599190612166565b90611537565b1015611ac45760405162461bcd60e51b815260206004820152602e60248201527f536166655472616e7366657248656c7065723a20496e76616c696420746f6b6560448201526d6e207472616e7366657246726f6d60901b6064820152608401610727565b50505050505050565b803b611b315760405162461bcd60e51b815260206004820152602d60248201527f455243313936373a206e657720696d706c656d656e746174696f6e206973206e60448201526c1bdd08184818dbdb9d1c9858dd609a1b6064820152608401610727565b7f360894a13ba1a3210667c828492db98dca3e2076cc3735a920a3ca505d382bbc80546001600160a01b0319166001600160a01b0392909216919091179055565b6060823b611bd15760405162461bcd60e51b815260206004820152602660248201527f416464726573733a2064656c65676174652063616c6c20746f206e6f6e2d636f6044820152651b9d1c9858dd60d21b6064820152608401610727565b600080846001600160a01b031684604051611bec91906121b8565b600060405180830381855af49150503d8060008114611c27576040519150601f19603f3d011682016040523d82523d6000602084013e611c2c565b606091505b5091509150611c5482826040518060600160405280602781526020016124c360279139611c9d565b95945050505050565b611c6681611acd565b6040516001600160a01b038216907fbc7cd75a20ee27fd9adebab32041f755214dbc6bffa90cc0225b39da2e5c2d3b90600090a250565b60608315611cac575081611524565b825115611cbc5782518084602001fd5b8160405162461bcd60e51b815260040161072791906122ad565b50805460008255906000526020600020908101906106dc9190611d59565b828054828255906000526020600020908101928215611d49579160200282015b82811115611d4957825182546001600160a01b0319166001600160a01b03909116178255602090920191600190910190611d14565b50611d55929150611d59565b5090565b5b80821115611d555760008155600101611d5a565b600082601f830112611d7e578081fd5b81516020611d93611d8e836123c0565b61238f565b80838252828201915082860187848660051b8901011115611db2578586fd5b855b85811015611dd9578151611dc7816124ad565b84529284019290840190600101611db4565b5090979650505050505050565b600082601f830112611df6578081fd5b81516020611e06611d8e836123c0565b80838252828201915082860187848660051b8901011115611e25578586fd5b855b85811015611dd957815184529284019290840190600101611e27565b805180151581146112c957600080fd5b600060208284031215611e64578081fd5b8135611524816124ad565b60008060008060808587031215611e84578283fd5b8435611e8f816124ad565b93506020850135611e9f816124ad565b93969395505050506040820135916060013590565b60008060408385031215611ec6578182fd5b8235611ed1816124ad565b915060208381013567ffffffffffffffff811115611eed578283fd5b8401601f81018613611efd578283fd5b8035611f0b611d8e826123c0565b80828252848201915084840189868560051b8701011115611f2a578687fd5b8694505b83851015611f4c578035835260019490940193918501918501611f2e565b5080955050505050509250929050565b60008060408385031215611f6e578182fd5b8235611f79816124ad565b915060208381013567ffffffffffffffff80821115611f96578384fd5b818601915086601f830112611fa9578384fd5b813581811115611fbb57611fbb612497565b611fcd601f8201601f1916850161238f565b91508082528784828501011115611fe2578485fd5b8084840185840137810190920192909252919491935090915050565b60008060408385031215612010578182fd5b823561201b816124ad565b946020939093013593505050565b6000806000806080858703121561203e578384fd5b845167ffffffffffffffff80821115612055578586fd5b818701915087601f830112612068578586fd5b81516020612078611d8e836123c0565b8083825282820191508286018c848660051b8901011115612097578a8bfd5b8a96505b848710156120c0576120ac81611e43565b83526001969096019591830191830161209b565b50918a01519198509093505050808211156120d9578485fd5b6120e588838901611d6e565b945060408701519150808211156120fa578384fd5b61210688838901611de6565b9350606087015191508082111561211b578283fd5b5061212887828801611de6565b91505092959194509250565b600060208284031215612145578081fd5b61152482611e43565b60006020828403121561215f578081fd5b5035919050565b600060208284031215612177578081fd5b5051919050565b6000815180845260208085019450808401835b838110156121ad57815187529582019590820190600101612191565b509495945050505050565b600082516121ca81846020870161243a565b9190910192915050565b6001600160a01b03831681526040602082018190526000906121f89083018461217e565b949350505050565b6080808252855190820181905260009060209060a0840190828901845b8281101561223b57815115158452928401929084019060010161221d565b50505083810382850152865180825287830191830190845b818110156122785783516001600160a01b031683529284019291840191600101612253565b5050848103604086015261228c818861217e565b9250505082810360608401526122a2818561217e565b979650505050505050565b60006020825282518060208401526122cc81604085016020870161243a565b601f01601f19169190910160400192915050565b60208082526023908201527f44544f426f6e64696e673a206e6f7420612070656e64696e672076616c6964616040820152623a37b960e91b606082015260800190565b6020808252818101527f4f776e61626c653a2063616c6c6572206973206e6f7420746865206f776e6572604082015260600190565b6020808252601f908201527f44544f426f6e64696e673a20416c726561647920612076616c696461746f7200604082015260600190565b604051601f8201601f1916810167ffffffffffffffff811182821017156123b8576123b8612497565b604052919050565b600067ffffffffffffffff8211156123da576123da612497565b5060051b60200190565b6000826123ff57634e487b7160e01b81526012600452602481fd5b500490565b600081600019048311821515161561241e5761241e612481565b500290565b60008282101561243557612435612481565b500390565b60005b8381101561245557818101518382015260200161243d565b8381111561097c5750506000910152565b600060001982141561247a5761247a612481565b5060010190565b634e487b7160e01b600052601160045260246000fd5b634e487b7160e01b600052604160045260246000fd5b6001600160a01b03811681146106dc57600080fdfe416464726573733a206c6f772d6c6576656c2064656c65676174652063616c6c206661696c6564a2646970667358221220969dfcde56e58887e615684a866448abb499b5f901ea8a497acbc41dd9d21d9f64736f6c63430008030033",
  "linkReferences": {},
  "deployedLinkReferences": {}
}