{
  "_format": "hh-sol-artifact-1",
  "contractName": "GenericBridge",
  "sourceName": "contracts/generic/GenericBridge.sol",
  "abi": [
    {
      "anonymous": false,
      "inputs": [
        {
          "indexed": false,
          "internalType": "address",
          "name": "previousAdmin",
          "type": "address"
        },
        {
          "indexed": false,
          "internalType": "address",
          "name": "newAdmin",
          "type": "address"
        }
      ],
      "name": "AdminChanged",
      "type": "event"
    },
    {
      "anonymous": false,
      "inputs": [
        {
          "indexed": true,
          "internalType": "address",
          "name": "beacon",
          "type": "address"
        }
      ],
      "name": "BeaconUpgraded",
      "type": "event"
    },
    {
      "anonymous": false,
      "inputs": [
        {
          "indexed": true,
          "internalType": "address",
          "name": "_token",
          "type": "address"
        },
        {
          "indexed": true,
          "internalType": "address",
          "name": "_toAddr",
          "type": "address"
        },
        {
          "indexed": false,
          "internalType": "uint256",
          "name": "_amount",
          "type": "uint256"
        },
        {
          "indexed": false,
          "internalType": "uint256",
          "name": "_originChainId",
          "type": "uint256"
        },
        {
          "indexed": false,
          "internalType": "uint256",
          "name": "_fromChainId",
          "type": "uint256"
        },
        {
          "indexed": false,
          "internalType": "uint256",
          "name": "_toChainId",
          "type": "uint256"
        },
        {
          "indexed": false,
          "internalType": "uint256",
          "name": "_index",
          "type": "uint256"
        },
        {
          "indexed": false,
          "internalType": "bytes32",
          "name": "_claimId",
          "type": "bytes32"
        }
      ],
      "name": "ClaimToken",
      "type": "event"
    },
    {
      "anonymous": false,
      "inputs": [
        {
          "indexed": true,
          "internalType": "address",
          "name": "previousOwner",
          "type": "address"
        },
        {
          "indexed": true,
          "internalType": "address",
          "name": "newOwner",
          "type": "address"
        }
      ],
      "name": "OwnershipTransferred",
      "type": "event"
    },
    {
      "anonymous": false,
      "inputs": [
        {
          "indexed": true,
          "internalType": "address",
          "name": "_token",
          "type": "address"
        },
        {
          "indexed": false,
          "internalType": "bytes",
          "name": "_toAddr",
          "type": "bytes"
        },
        {
          "indexed": false,
          "internalType": "uint256",
          "name": "_amount",
          "type": "uint256"
        },
        {
          "indexed": false,
          "internalType": "uint256",
          "name": "_originChainId",
          "type": "uint256"
        },
        {
          "indexed": false,
          "internalType": "uint256",
          "name": "_fromChainId",
          "type": "uint256"
        },
        {
          "indexed": false,
          "internalType": "uint256",
          "name": "_toChainId",
          "type": "uint256"
        },
        {
          "indexed": false,
          "internalType": "uint256",
          "name": "_index",
          "type": "uint256"
        }
      ],
      "name": "RequestBridge",
      "type": "event"
    },
    {
      "anonymous": false,
      "inputs": [
        {
          "indexed": false,
          "internalType": "uint256",
          "name": "chainId",
          "type": "uint256"
        },
        {
          "indexed": false,
          "internalType": "address",
          "name": "token",
          "type": "address"
        },
        {
          "indexed": false,
          "internalType": "uint256",
          "name": "fee",
          "type": "uint256"
        },
        {
          "indexed": false,
          "internalType": "uint256",
          "name": "timestamp",
          "type": "uint256"
        }
      ],
      "name": "SetFeeToken",
      "type": "event"
    },
    {
      "anonymous": false,
      "inputs": [
        {
          "indexed": true,
          "internalType": "address",
          "name": "implementation",
          "type": "address"
        }
      ],
      "name": "Upgraded",
      "type": "event"
    },
    {
      "anonymous": false,
      "inputs": [
        {
          "indexed": false,
          "internalType": "address",
          "name": "_validator",
          "type": "address"
        },
        {
          "indexed": false,
          "internalType": "bytes32",
          "name": "_claimId",
          "type": "bytes32"
        },
        {
          "indexed": false,
          "internalType": "uint256",
          "name": "_timestamp",
          "type": "uint256"
        }
      ],
      "name": "ValidatorSign",
      "type": "event"
    },
    {
      "anonymous": false,
      "inputs": [
        {
          "indexed": true,
          "internalType": "address",
          "name": "receiver",
          "type": "address"
        },
        {
          "indexed": true,
          "internalType": "address",
          "name": "tokenAddress",
          "type": "address"
        },
        {
          "indexed": true,
          "internalType": "uint256",
          "name": "id",
          "type": "uint256"
        },
        {
          "indexed": false,
          "internalType": "uint256",
          "name": "amount",
          "type": "uint256"
        }
      ],
      "name": "WithdrawStuckERC1155",
      "type": "event"
    },
    {
      "anonymous": false,
      "inputs": [
        {
          "indexed": true,
          "internalType": "address",
          "name": "receiver",
          "type": "address"
        },
        {
          "indexed": true,
          "internalType": "address",
          "name": "tokenAddress",
          "type": "address"
        },
        {
          "indexed": false,
          "internalType": "uint256",
          "name": "amount",
          "type": "uint256"
        }
      ],
      "name": "WithdrawStuckERC20",
      "type": "event"
    },
    {
      "anonymous": false,
      "inputs": [
        {
          "indexed": true,
          "internalType": "address",
          "name": "receiver",
          "type": "address"
        },
        {
          "indexed": true,
          "internalType": "address",
          "name": "tokenAddress",
          "type": "address"
        },
        {
          "indexed": true,
          "internalType": "uint256",
          "name": "tokenId",
          "type": "uint256"
        }
      ],
      "name": "WithdrawStuckERC721",
      "type": "event"
    },
    {
      "anonymous": false,
      "inputs": [
        {
          "indexed": true,
          "internalType": "address",
          "name": "receiver",
          "type": "address"
        },
        {
          "indexed": false,
          "internalType": "uint256",
          "name": "amount",
          "type": "uint256"
        }
      ],
      "name": "WithdrawStuckEther",
      "type": "event"
    },
    {
      "inputs": [],
      "name": "DEFAULT_FEE_DIVISOR",
      "outputs": [
        {
          "internalType": "uint256",
          "name": "",
          "type": "uint256"
        }
      ],
      "stateMutability": "view",
      "type": "function"
    },
    {
      "inputs": [],
      "name": "DEFAULT_FEE_PERCENTAGE",
      "outputs": [
        {
          "internalType": "uint256",
          "name": "",
          "type": "uint256"
        }
      ],
      "stateMutability": "view",
      "type": "function"
    },
    {
      "inputs": [],
      "name": "NATIVE_TOKEN_ADDRESS",
      "outputs": [
        {
          "internalType": "address",
          "name": "",
          "type": "address"
        }
      ],
      "stateMutability": "view",
      "type": "function"
    },
    {
      "inputs": [
        {
          "internalType": "address",
          "name": "_addr",
          "type": "address"
        }
      ],
      "name": "addApprover",
      "outputs": [],
      "stateMutability": "nonpayable",
      "type": "function"
    },
    {
      "inputs": [
        {
          "internalType": "address[]",
          "name": "_addrs",
          "type": "address[]"
        }
      ],
      "name": "addApprovers",
      "outputs": [],
      "stateMutability": "nonpayable",
      "type": "function"
    },
    {
      "inputs": [
        {
          "internalType": "bytes32",
          "name": "",
          "type": "bytes32"
        }
      ],
      "name": "alreadyClaims",
      "outputs": [
        {
          "internalType": "bool",
          "name": "",
          "type": "bool"
        }
      ],
      "stateMutability": "view",
      "type": "function"
    },
    {
      "inputs": [
        {
          "internalType": "address",
          "name": "",
          "type": "address"
        }
      ],
      "name": "approverMap",
      "outputs": [
        {
          "internalType": "bool",
          "name": "",
          "type": "bool"
        }
      ],
      "stateMutability": "view",
      "type": "function"
    },
    {
      "inputs": [
        {
          "internalType": "uint256",
          "name": "",
          "type": "uint256"
        }
      ],
      "name": "bridgeApprovers",
      "outputs": [
        {
          "internalType": "address",
          "name": "",
          "type": "address"
        }
      ],
      "stateMutability": "view",
      "type": "function"
    },
    {
      "inputs": [
        {
          "internalType": "address",
          "name": "",
          "type": "address"
        }
      ],
      "name": "bridgeTokens",
      "outputs": [
        {
          "internalType": "bool",
          "name": "",
          "type": "bool"
        }
      ],
      "stateMutability": "view",
      "type": "function"
    },
    {
      "inputs": [],
      "name": "chainId",
      "outputs": [
        {
          "internalType": "uint256",
          "name": "",
          "type": "uint256"
        }
      ],
      "stateMutability": "view",
      "type": "function"
    },
    {
      "inputs": [],
      "name": "claimFee",
      "outputs": [
        {
          "internalType": "uint256",
          "name": "",
          "type": "uint256"
        }
      ],
      "stateMutability": "view",
      "type": "function"
    },
    {
      "inputs": [
        {
          "internalType": "address",
          "name": "_originToken",
          "type": "address"
        },
        {
          "internalType": "address",
          "name": "_toAddr",
          "type": "address"
        },
        {
          "internalType": "uint256",
          "name": "_amount",
          "type": "uint256"
        },
        {
          "internalType": "uint256[]",
          "name": "_chainIdsIndex",
          "type": "uint256[]"
        },
        {
          "internalType": "bytes32",
          "name": "_txHash",
          "type": "bytes32"
        },
        {
          "internalType": "bytes32[]",
          "name": "r",
          "type": "bytes32[]"
        },
        {
          "internalType": "bytes32[]",
          "name": "s",
          "type": "bytes32[]"
        },
        {
          "internalType": "uint8[]",
          "name": "v",
          "type": "uint8[]"
        },
        {
          "internalType": "string",
          "name": "_name",
          "type": "string"
        },
        {
          "internalType": "string",
          "name": "_symbol",
          "type": "string"
        },
        {
          "internalType": "uint8",
          "name": "_decimals",
          "type": "uint8"
        }
      ],
      "name": "claimToken",
      "outputs": [],
      "stateMutability": "payable",
      "type": "function"
    },
    {
      "inputs": [],
      "name": "defaultFeePercentage",
      "outputs": [
        {
          "internalType": "uint256",
          "name": "",
          "type": "uint256"
        }
      ],
      "stateMutability": "view",
      "type": "function"
    },
    {
      "inputs": [
        {
          "internalType": "uint256",
          "name": "",
          "type": "uint256"
        },
        {
          "internalType": "address",
          "name": "",
          "type": "address"
        }
      ],
      "name": "feeForTokens",
      "outputs": [
        {
          "internalType": "uint256",
          "name": "",
          "type": "uint256"
        }
      ],
      "stateMutability": "view",
      "type": "function"
    },
    {
      "inputs": [],
      "name": "feeReceiver",
      "outputs": [
        {
          "internalType": "address payable",
          "name": "",
          "type": "address"
        }
      ],
      "stateMutability": "view",
      "type": "function"
    },
    {
      "inputs": [
        {
          "internalType": "address",
          "name": "originTokenAddress",
          "type": "address"
        },
        {
          "internalType": "uint256",
          "name": "_amount",
          "type": "uint256"
        }
      ],
      "name": "getBridgeAmounts",
      "outputs": [
        {
          "internalType": "uint256",
          "name": "forUser",
          "type": "uint256"
        },
        {
          "internalType": "uint256",
          "name": "forFee",
          "type": "uint256"
        }
      ],
      "stateMutability": "view",
      "type": "function"
    },
    {
      "inputs": [],
      "name": "getBridgeApprovers",
      "outputs": [
        {
          "internalType": "address[]",
          "name": "",
          "type": "address[]"
        }
      ],
      "stateMutability": "view",
      "type": "function"
    },
    {
      "inputs": [],
      "name": "getFeePercent",
      "outputs": [
        {
          "internalType": "uint256",
          "name": "",
          "type": "uint256"
        }
      ],
      "stateMutability": "view",
      "type": "function"
    },
    {
      "inputs": [
        {
          "internalType": "address",
          "name": "_token",
          "type": "address"
        }
      ],
      "name": "getSupportedChainsForToken",
      "outputs": [
        {
          "internalType": "uint256[]",
          "name": "",
          "type": "uint256[]"
        }
      ],
      "stateMutability": "view",
      "type": "function"
    },
    {
      "inputs": [],
      "name": "governance",
      "outputs": [
        {
          "internalType": "address",
          "name": "",
          "type": "address"
        }
      ],
      "stateMutability": "view",
      "type": "function"
    },
    {
      "inputs": [],
      "name": "index",
      "outputs": [
        {
          "internalType": "uint256",
          "name": "",
          "type": "uint256"
        }
      ],
      "stateMutability": "view",
      "type": "function"
    },
    {
      "inputs": [
        {
          "internalType": "uint256[]",
          "name": "_chainIds",
          "type": "uint256[]"
        }
      ],
      "name": "initialize",
      "outputs": [],
      "stateMutability": "nonpayable",
      "type": "function"
    },
    {
      "inputs": [
        {
          "internalType": "address",
          "name": "_token",
          "type": "address"
        }
      ],
      "name": "isBridgeToken",
      "outputs": [
        {
          "internalType": "bool",
          "name": "",
          "type": "bool"
        }
      ],
      "stateMutability": "view",
      "type": "function"
    },
    {
      "inputs": [],
      "name": "minApprovers",
      "outputs": [
        {
          "internalType": "uint256",
          "name": "",
          "type": "uint256"
        }
      ],
      "stateMutability": "view",
      "type": "function"
    },
    {
      "inputs": [],
      "name": "owner",
      "outputs": [
        {
          "internalType": "address",
          "name": "",
          "type": "address"
        }
      ],
      "stateMutability": "view",
      "type": "function"
    },
    {
      "inputs": [
        {
          "internalType": "address",
          "name": "_addr",
          "type": "address"
        }
      ],
      "name": "removeApprover",
      "outputs": [],
      "stateMutability": "nonpayable",
      "type": "function"
    },
    {
      "inputs": [],
      "name": "renounceOwnership",
      "outputs": [],
      "stateMutability": "nonpayable",
      "type": "function"
    },
    {
      "inputs": [
        {
          "internalType": "address",
          "name": "_tokenAddress",
          "type": "address"
        },
        {
          "internalType": "bytes",
          "name": "_toAddr",
          "type": "bytes"
        },
        {
          "internalType": "uint256",
          "name": "_amount",
          "type": "uint256"
        },
        {
          "internalType": "uint256",
          "name": "_toChainId",
          "type": "uint256"
        }
      ],
      "name": "requestBridge",
      "outputs": [],
      "stateMutability": "payable",
      "type": "function"
    },
    {
      "inputs": [
        {
          "internalType": "uint256",
          "name": "_val",
          "type": "uint256"
        }
      ],
      "name": "setDefaultFeePercentage",
      "outputs": [],
      "stateMutability": "nonpayable",
      "type": "function"
    },
    {
      "inputs": [
        {
          "internalType": "uint256[]",
          "name": "chainIds",
          "type": "uint256[]"
        },
        {
          "internalType": "address[]",
          "name": "originTokens",
          "type": "address[]"
        },
        {
          "internalType": "uint256[]",
          "name": "fees",
          "type": "uint256[]"
        }
      ],
      "name": "setFeeForTokens",
      "outputs": [],
      "stateMutability": "nonpayable",
      "type": "function"
    },
    {
      "inputs": [
        {
          "internalType": "address payable",
          "name": "_feeReceiver",
          "type": "address"
        }
      ],
      "name": "setFeeReceiver",
      "outputs": [],
      "stateMutability": "nonpayable",
      "type": "function"
    },
    {
      "inputs": [
        {
          "internalType": "address",
          "name": "_gov",
          "type": "address"
        }
      ],
      "name": "setGovernance",
      "outputs": [],
      "stateMutability": "nonpayable",
      "type": "function"
    },
    {
      "inputs": [
        {
          "internalType": "uint256",
          "name": "_fee",
          "type": "uint256"
        }
      ],
      "name": "setGovernanceFee",
      "outputs": [],
      "stateMutability": "nonpayable",
      "type": "function"
    },
    {
      "inputs": [
        {
          "internalType": "uint256",
          "name": "_val",
          "type": "uint256"
        }
      ],
      "name": "setMinApprovers",
      "outputs": [],
      "stateMutability": "nonpayable",
      "type": "function"
    },
    {
      "inputs": [
        {
          "internalType": "uint256",
          "name": "_chainId",
          "type": "uint256"
        },
        {
          "internalType": "bool",
          "name": "_val",
          "type": "bool"
        }
      ],
      "name": "setSupportedChainId",
      "outputs": [],
      "stateMutability": "nonpayable",
      "type": "function"
    },
    {
      "inputs": [
        {
          "internalType": "uint256[]",
          "name": "_chainIds",
          "type": "uint256[]"
        },
        {
          "internalType": "bool",
          "name": "_val",
          "type": "bool"
        }
      ],
      "name": "setSupportedChainIds",
      "outputs": [],
      "stateMutability": "nonpayable",
      "type": "function"
    },
    {
      "inputs": [
        {
          "internalType": "uint256",
          "name": "",
          "type": "uint256"
        }
      ],
      "name": "supportedChainIds",
      "outputs": [
        {
          "internalType": "bool",
          "name": "",
          "type": "bool"
        }
      ],
      "stateMutability": "view",
      "type": "function"
    },
    {
      "inputs": [
        {
          "internalType": "uint256",
          "name": "",
          "type": "uint256"
        },
        {
          "internalType": "address",
          "name": "",
          "type": "address"
        }
      ],
      "name": "tokenMap",
      "outputs": [
        {
          "internalType": "address",
          "name": "",
          "type": "address"
        }
      ],
      "stateMutability": "view",
      "type": "function"
    },
    {
      "inputs": [
        {
          "internalType": "address",
          "name": "",
          "type": "address"
        },
        {
          "internalType": "uint256",
          "name": "",
          "type": "uint256"
        }
      ],
      "name": "tokenMapList",
      "outputs": [
        {
          "internalType": "uint256",
          "name": "",
          "type": "uint256"
        }
      ],
      "stateMutability": "view",
      "type": "function"
    },
    {
      "inputs": [
        {
          "internalType": "address",
          "name": "",
          "type": "address"
        }
      ],
      "name": "tokenMapReverse",
      "outputs": [
        {
          "internalType": "address",
          "name": "addr",
          "type": "address"
        },
        {
          "internalType": "uint256",
          "name": "chainId",
          "type": "uint256"
        }
      ],
      "stateMutability": "view",
      "type": "function"
    },
    {
      "inputs": [
        {
          "internalType": "address",
          "name": "",
          "type": "address"
        },
        {
          "internalType": "uint256",
          "name": "",
          "type": "uint256"
        }
      ],
      "name": "tokenMapSupportCheck",
      "outputs": [
        {
          "internalType": "bool",
          "name": "",
          "type": "bool"
        }
      ],
      "stateMutability": "view",
      "type": "function"
    },
    {
      "inputs": [
        {
          "internalType": "address",
          "name": "newOwner",
          "type": "address"
        }
      ],
      "name": "transferOwnership",
      "outputs": [],
      "stateMutability": "nonpayable",
      "type": "function"
    },
    {
      "inputs": [
        {
          "internalType": "address",
          "name": "newImplementation",
          "type": "address"
        }
      ],
      "name": "upgradeTo",
      "outputs": [],
      "stateMutability": "nonpayable",
      "type": "function"
    },
    {
      "inputs": [
        {
          "internalType": "address",
          "name": "newImplementation",
          "type": "address"
        },
        {
          "internalType": "bytes",
          "name": "data",
          "type": "bytes"
        }
      ],
      "name": "upgradeToAndCall",
      "outputs": [],
      "stateMutability": "payable",
      "type": "function"
    },
    {
      "inputs": [
        {
          "internalType": "address",
          "name": "originTokenAddress",
          "type": "address"
        },
        {
          "internalType": "uint256",
          "name": "amount",
          "type": "uint256"
        },
        {
          "internalType": "uint256",
          "name": "_forFee",
          "type": "uint256"
        },
        {
          "internalType": "bool",
          "name": "isRequesting",
          "type": "bool"
        }
      ],
      "name": "validateMinFee",
      "outputs": [
        {
          "internalType": "uint256",
          "name": "forUser",
          "type": "uint256"
        },
        {
          "internalType": "uint256",
          "name": "forFee",
          "type": "uint256"
        }
      ],
      "stateMutability": "view",
      "type": "function"
    }
  ],
  "bytecode": "0x60806040523480156200001157600080fd5b50600054610100900460ff16806200002c575060005460ff16155b620000945760405162461bcd60e51b815260206004820152602e60248201527f496e697469616c697a61626c653a20636f6e747261637420697320616c72656160448201526d191e481a5b9a5d1a585b1a5e995960921b606482015260840160405180910390fd5b600054610100900460ff16158015620000b7576000805461ffff19166101011790555b8015620000ca576000805461ff00191690555b50615a0780620000db6000396000f3fe6080604052600436106102725760003560e01c806399d32fc41161014f578063c60c9a54116100c1578063df2ebdbb1161007a578063df2ebdbb1461081c578063e72460421461083c578063e9008d5b14610851578063efdcd9741461088b578063f2fde38b146108ab578063ffb2efb8146108cb57610272565b8063c60c9a541461072b578063d4638d4e14610767578063d641e91614610787578063d7465f61146107b8578063d9bdd659146107d8578063dee157ca1461080557610272565b8063b482403411610113578063b482403414610671578063b4c530ad14610688578063b646c1941461069b578063b754577d146106bb578063be74264d146106f4578063bfa411f81461070957610272565b806399d32fc4146105e35780639a8a0592146105fa5780639f92b71514610610578063ab033ea914610630578063b3f006741461065057610272565b80635aa6e675116101e85780636fe0e559116101ac5780636fe0e559146104cb578063715018a6146104eb5780638cdaa6bd146105005780638d68fdc8146105355780638da5cb5b1461056557806394c9d29b1461058357610272565b80635aa6e6751461041a578063678446341461043a5780636a882d511461045a5780636cf4c88f1461047a5780636d1ac36a1461049a57610272565b806336db95fb1161023a57806336db95fb1461035057806345923dfb146103705780634cf2ab32146103905780634f1ef286146103d15780635260136c146103e457806354f7088f1461040457610272565b806313ac7898146102775780632986c0e5146102d65780632db34b27146102fb57806332a69330146103105780633659cfe614610330575b600080fd5b34801561028357600080fd5b506102b9610292366004613d60565b6101046020908152600092835260408084209091529082529020546001600160a01b031681565b6040516001600160a01b0390911681526020015b60405180910390f35b3480156102e257600080fd5b506102ed6101085481565b6040519081526020016102cd565b61030e610309366004613b08565b6108eb565b005b34801561031c57600080fd5b5061030e61032b366004613d30565b610c85565b34801561033c57600080fd5b5061030e61034b36600461395d565b610cb5565b34801561035c57600080fd5b506102ed61036b366004613b66565b610cdc565b34801561037c57600080fd5b506102b961038b366004613d30565b610d0e565b34801561039c57600080fd5b506103c16103ab366004613d30565b6101016020526000908152604090205460ff1681565b60405190151581526020016102cd565b61030e6103df366004613aba565b610d38565b3480156103f057600080fd5b5061030e6103ff366004613c40565b610d51565b34801561041057600080fd5b506102ed61271081565b34801561042657600080fd5b5060fb546102b9906001600160a01b031681565b34801561044657600080fd5b5061030e610455366004613cc4565b610f68565b34801561046657600080fd5b5061030e610475366004613bda565b611009565b34801561048657600080fd5b5061030e61049536600461395d565b61116a565b3480156104a657600080fd5b506103c16104b536600461395d565b6101066020526000908152604090205460ff1681565b3480156104d757600080fd5b5061030e6104e6366004613c0d565b611350565b3480156104f757600080fd5b5061030e6114ce565b34801561050c57600080fd5b5061052061051b366004613b91565b611504565b604080519283526020830191909152016102cd565b34801561054157600080fd5b506103c1610550366004613d30565b60fe6020526000908152604090205460ff1681565b34801561057157600080fd5b506097546001600160a01b03166102b9565b34801561058f57600080fd5b506105c461059e36600461395d565b61010560205260009081526040902080546001909101546001600160a01b039091169082565b604080516001600160a01b0390931683526020830191909152016102cd565b3480156105ef57600080fd5b506102ed6101075481565b34801561060657600080fd5b506102ed60fc5481565b34801561061c57600080fd5b5061030e61062b366004613d30565b6115cb565b34801561063c57600080fd5b5061030e61064b36600461395d565b6115fb565b34801561065c57600080fd5b5061010a546102b9906001600160a01b031681565b34801561067d57600080fd5b506102ed61010c5481565b61030e610696366004613979565b61168c565b3480156106a757600080fd5b5061030e6106b636600461395d565b612088565b3480156106c757600080fd5b506102ed6106d6366004613d60565b61010b60209081526000928352604080842090915290825290205481565b34801561070057600080fd5b506102ed6121c0565b34801561071557600080fd5b5061071e6121de565b6040516102cd9190613f39565b34801561073757600080fd5b506103c1610746366004613b66565b61010360209081526000928352604080842090915290825290205460ff1681565b34801561077357600080fd5b5061030e610782366004613d30565b612240565b34801561079357600080fd5b506103c16107a236600461395d565b6101006020526000908152604090205460ff1681565b3480156107c457600080fd5b506105206107d3366004613b66565b6122b5565b3480156107e457600080fd5b506107f86107f336600461395d565b61230c565b6040516102cd9190613f86565b34801561081157600080fd5b506102ed6101095481565b34801561082857600080fd5b5060fd546102b9906001600160a01b031681565b34801561084857600080fd5b506102ed600a81565b34801561085d57600080fd5b506103c161086c36600461395d565b6001600160a01b03166000908152610106602052604090205460ff1690565b34801561089757600080fd5b5061030e6108a636600461395d565b61237a565b3480156108b757600080fd5b5061030e6108c636600461395d565b61240c565b3480156108d757600080fd5b5061030e6108e6366004613d84565b6124a4565b600260c95414156109435760405162461bcd60e51b815260206004820152601f60248201527f5265656e7472616e637947756172643a207265656e7472616e742063616c6c0060448201526064015b60405180910390fd5b600260c95560fc548114156109b05760405162461bcd60e51b815260206004820152602d60248201527f736f7572636520616e642074617267657420636861696e20696473206d75737460448201526c08189948191a5999995c995b9d609a1b606482015260840161093a565b6000818152610101602052604090205460ff16610a055760405162461bcd60e51b81526020600482015260136024820152721d5b9cdd5c1c1bdc9d19590818da185a5b9259606a1b604482015260640161093a565b6001600160a01b0384166000908152610106602052604090205460ff16610b77576000610a306121c0565b90506000612710610a418382614140565b610a4b9086614121565b610a559190614101565b90506000610a638286614140565b9050610a728786836001611504565b9092509050610a828733876124ef565b610a8f87336000846126a7565b866001600160a01b03167fc210de9a5a98ab6c6b579b8d4b8003cce89c8ec3ff669ff2481d63172e00779b878460fc5460fc548961010854604051610ad996959493929190613f99565b60405180910390a261010860008154610af190614183565b909155506001600160a01b03871660009081526101036020908152604080832087845290915290205460ff16610b6f576001600160a01b0387166000818152610102602090815260408083208054600181810183559185528385200189905593835261010382528083208884529091529020805460ff191690911790555b505050610c7a565b6001600160a01b03848116600081815261010560205260409081902054905163079cc67960e41b8152336004820152602481018690529216916379cc679090604401600060405180830381600087803b158015610bd357600080fd5b505af1158015610be7573d6000803e3d6000fd5b50505050806001600160a01b03167fc210de9a5a98ab6c6b579b8d4b8003cce89c8ec3ff669ff2481d63172e00779b858561010560008a6001600160a01b03166001600160a01b031681526020019081526020016000206001015460fc548761010854604051610c5c96959493929190613f99565b60405180910390a261010860008154610c7490614183565b90915550505b5050600160c9555050565b60fb546001600160a01b03163314610caf5760405162461bcd60e51b815260040161093a90613fe8565b61010755565b610cbe8161287a565b610cd9816040518060200160405280600081525060006128a4565b50565b6101026020528160005260406000208181548110610cf957600080fd5b90600052602060002001600091509150505481565b60ff8181548110610d1e57600080fd5b6000918252602090912001546001600160a01b0316905081565b610d418261287a565b610d4d828260016128a4565b5050565b60fb546001600160a01b03163314610d7b5760405162461bcd60e51b815260040161093a90613fe8565b81518351148015610d8d575080518251145b610dc25760405162461bcd60e51b8152602060048201526006602482015265085a5b9c1d5d60d21b604482015260640161093a565b815160005b81811015610f6157828181518110610def57634e487b7160e01b600052603260045260246000fd5b602002602001015161010b6000878481518110610e1c57634e487b7160e01b600052603260045260246000fd5b602002602001015181526020019081526020016000206000868481518110610e5457634e487b7160e01b600052603260045260246000fd5b60200260200101516001600160a01b03166001600160a01b03168152602001908152602001600020819055507fdf597e00478ce70575315b7d3a631155dd44024ed3cb828ecac3cb83c28ffe04858281518110610ec157634e487b7160e01b600052603260045260246000fd5b6020026020010151858381518110610ee957634e487b7160e01b600052603260045260246000fd5b6020026020010151858481518110610f1157634e487b7160e01b600052603260045260246000fd5b602002602001015142604051610f4994939291909384526001600160a01b039290921660208401526040830152606082015260800190565b60405180910390a1610f5a81614183565b9050610dc7565b5050505050565b60fb546001600160a01b03163314610f925760405162461bcd60e51b815260040161093a90613fe8565b815160005b8181101561100357826101016000868481518110610fc557634e487b7160e01b600052603260045260246000fd5b6020026020010151815260200190815260200160002060006101000a81548160ff02191690831515021790555080610ffc90614183565b9050610f97565b50505050565b60fb546001600160a01b031633146110335760405162461bcd60e51b815260040161093a90613fe8565b805160005b8181101561116557610100600084838151811061106557634e487b7160e01b600052603260045260246000fd5b6020908102919091018101516001600160a01b031682528101919091526040016000205460ff166111555760ff8382815181106110b257634e487b7160e01b600052603260045260246000fd5b60209081029190910181015182546001808201855560009485529284200180546001600160a01b0319166001600160a01b03909216919091179055845190916101009186908590811061111557634e487b7160e01b600052603260045260246000fd5b60200260200101516001600160a01b03166001600160a01b0316815260200190815260200160002060006101000a81548160ff0219169083151502179055505b61115e81614183565b9050611038565b505050565b60fb546001600160a01b031633146111945760405162461bcd60e51b815260040161093a90613fe8565b6001600160a01b0381166000908152610100602052604090205460ff166111ec5760405162461bcd60e51b815260206004820152600c60248201526b3737ba1030b8383937bb32b960a11b604482015260640161093a565b60ff5460005b8181101561116557826001600160a01b031660ff828154811061122557634e487b7160e01b600052603260045260246000fd5b6000918252602090912001546001600160a01b031614156113405760ff805461125090600190614140565b8154811061126e57634e487b7160e01b600052603260045260246000fd5b60009182526020909120015460ff80546001600160a01b0390921691839081106112a857634e487b7160e01b600052603260045260246000fd5b9060005260206000200160006101000a8154816001600160a01b0302191690836001600160a01b0316021790555060ff8054806112f557634e487b7160e01b600052603160045260246000fd5b60008281526020808220830160001990810180546001600160a01b03191690559092019092556001600160a01b0385168252610100905260409020805460ff1916905550610cd99050565b61134981614183565b90506111f2565b600054610100900460ff1680611369575060005460ff16155b6113855760405162461bcd60e51b815260040161093a90614011565b600054610100900460ff161580156113a7576000805461ffff19166101011790555b6113af612a25565b6113b7612a25565b6113c04660fc55565b60fd80546001600160a01b03191673111111111111111111111111111111111111111117905560fc54600090815261010160205260408120805460ff191660011790556002610109556101075561141f6097546001600160a01b031690565b60fb80546001600160a01b0319166001600160a01b0392909216919091179055815160005b818110156114b1576001610101600086848151811061147357634e487b7160e01b600052603260045260246000fd5b6020026020010151815260200190815260200160002060006101000a81548160ff021916908315150217905550806114aa90614183565b9050611444565b5050600a61010c558015610d4d576000805461ff00191690555050565b6097546001600160a01b031633146114f85760405162461bcd60e51b815260040161093a9061405f565b6115026000612a98565b565b60fc54600090815261010b602090815260408083206001600160a01b038816845290915281205483908110156115a5575060fc54600090815261010b602090815260408083206001600160a01b038916845290915290205482158061156857508085115b6115a55760405162461bcd60e51b815260206004820152600e60248201526d616d6f756e7420746f6f206c6f7760901b604482015260640161093a565b8085116115b257846115b4565b805b90506115c08186614140565b915094509492505050565b60fb546001600160a01b031633146115f55760405162461bcd60e51b815260040161093a90613fe8565b61010c55565b60fb546001600160a01b031633146116255760405162461bcd60e51b815260040161093a90613fe8565b6001600160a01b03811661166a5760405162461bcd60e51b815260206004820152600c60248201526b6e756c6c206164647265737360a01b604482015260640161093a565b60fb80546001600160a01b0319166001600160a01b0392909216919091179055565b600260c95414156116df5760405162461bcd60e51b815260206004820152601f60248201527f5265656e7472616e637947756172643a207265656e7472616e742063616c6c00604482015260640161093a565b600260c9558751600414801561171e57508760028151811061171157634e487b7160e01b600052603260045260246000fd5b602002602001015160fc54145b61175c5760405162461bcd60e51b815260206004820152600f60248201526e21636861696e20696420636c61696d60881b604482015260640161093a565b60008b8b8b8b8b88888860405160200161177d989796959493929190613e6f565b60408051601f198184030181529181528151602092830120600081815260fe90935291205490915060ff16156117e55760405162461bcd60e51b815260206004820152600d60248201526c616c726561647920636c61696d60981b604482015260640161093a565b600081815260fe60205260409020805460ff1916600117905561180a87878784612aea565b61184b5760405162461bcd60e51b8152602060048201526012602482015271696e76616c6964207369676e61747572657360701b604482015260640161093a565b61185434612e79565b60fd546001600160a01b038d811691161415611cf25760fc548960008151811061188e57634e487b7160e01b600052603260045260246000fd5b602002602001015114611bf85760006001600160a01b031661010460008b6000815181106118cc57634e487b7160e01b600052603260045260246000fd5b6020026020010151815260200190815260200160002060008e6001600160a01b03166001600160a01b0316815260200190815260200160002060009054906101000a90046001600160a01b03166001600160a01b03161415611afe57600060405161193690613790565b604051809103906000f080158015611952573d6000803e3d6000fd5b509050806001600160a01b031663be88368d8e8c60008151811061198657634e487b7160e01b600052603260045260246000fd5b60200260200101518888886040518663ffffffff1660e01b81526004016119b1959493929190613eea565b600060405180830381600087803b1580156119cb57600080fd5b505af11580156119df573d6000803e3d6000fd5b505050508061010460008c600081518110611a0a57634e487b7160e01b600052603260045260246000fd5b6020026020010151815260200190815260200160002060008f6001600160a01b03166001600160a01b0316815260200190815260200160002060006101000a8154816001600160a01b0302191690836001600160a01b0316021790555060405180604001604052808e6001600160a01b031681526020018b600081518110611aa257634e487b7160e01b600052603260045260246000fd5b6020908102919091018101519091526001600160a01b03928316600090815261010582526040808220845181546001600160a01b03191696169590951785559282015160019485015561010690915220805460ff191690911790555b611b0b8a8d8b8b8f612edc565b8a6001600160a01b03168c6001600160a01b03167f91e6edd0a13d88402389ca421cdea8b8c5e72d7b05706b6488c7d0008f853a0d8c8c600081518110611b6257634e487b7160e01b600052603260045260246000fd5b60200260200101518d600181518110611b8b57634e487b7160e01b600052603260045260246000fd5b602002602001015160fc548f600381518110611bb757634e487b7160e01b600052603260045260246000fd5b60209081029190910181015160408051968752918601949094528401919091526060830152608082015260a0810185905260c00160405180910390a3611ced565b611c048a8d8b8e612f98565b8a6001600160a01b03168c6001600160a01b03167f91e6edd0a13d88402389ca421cdea8b8c5e72d7b05706b6488c7d0008f853a0d8c8c600081518110611c5b57634e487b7160e01b600052603260045260246000fd5b60200260200101518d600181518110611c8457634e487b7160e01b600052603260045260246000fd5b602002602001015160fc548f600381518110611cb057634e487b7160e01b600052603260045260246000fd5b60209081029190910181015160408051968752918601949094528401919091526060830152608082015260a0810185905260c00160405180910390a35b612075565b6001600160a01b038c1660009081526101026020526040902054611f805760006001600160a01b031661010460008b600081518110611d4157634e487b7160e01b600052603260045260246000fd5b6020026020010151815260200190815260200160002060008e6001600160a01b03166001600160a01b0316815260200190815260200160002060009054906101000a90046001600160a01b03166001600160a01b03161415611f73576000604051611dab90613790565b604051809103906000f080158015611dc7573d6000803e3d6000fd5b509050806001600160a01b031663be88368d8e8c600081518110611dfb57634e487b7160e01b600052603260045260246000fd5b60200260200101518888886040518663ffffffff1660e01b8152600401611e26959493929190613eea565b600060405180830381600087803b158015611e4057600080fd5b505af1158015611e54573d6000803e3d6000fd5b505050508061010460008c600081518110611e7f57634e487b7160e01b600052603260045260246000fd5b6020026020010151815260200190815260200160002060008f6001600160a01b03166001600160a01b0316815260200190815260200160002060006101000a8154816001600160a01b0302191690836001600160a01b0316021790555060405180604001604052808e6001600160a01b031681526020018b600081518110611f1757634e487b7160e01b600052603260045260246000fd5b6020908102919091018101519091526001600160a01b03928316600090815261010582526040808220845181546001600160a01b03191696169590951785559282015160019485015561010690915220805460ff191690911790555b611c048a8d8b8b8f612edc565b611f8c8a8d8b8e612f98565b8a6001600160a01b03168c6001600160a01b03167f91e6edd0a13d88402389ca421cdea8b8c5e72d7b05706b6488c7d0008f853a0d8c8c600081518110611fe357634e487b7160e01b600052603260045260246000fd5b60200260200101518d60018151811061200c57634e487b7160e01b600052603260045260246000fd5b602002602001015160fc548f60038151811061203857634e487b7160e01b600052603260045260246000fd5b60209081029190910181015160408051968752918601949094528401919091526060830152608082015260a0810185905260c00160405180910390a35b5050600160c95550505050505050505050565b60fb546001600160a01b031633146120b25760405162461bcd60e51b815260040161093a90613fe8565b6001600160a01b0381166000908152610100602052604090205460ff161561210f5760405162461bcd60e51b815260206004820152601060248201526f30b63932b0b23c9030b8383937bb32b960811b604482015260640161093a565b6001600160a01b0381166121585760405162461bcd60e51b815260206004820152601060248201526f6e6f6e207a65726f206164647265737360801b604482015260640161093a565b60ff805460018181019092557fe08ec2af2cfc251225e1968fd6ca21e4044f129bffa95bac3503be8bdb30a3670180546001600160a01b039093166001600160a01b03199093168317905560009182526101006020526040909120805460ff19169091179055565b600061010c546000146121d65761010c546121d9565b600a5b905090565b606060ff80548060200260200160405190810160405280929190818152602001828054801561223657602002820191906000526020600020905b81546001600160a01b03168152600190910190602001808311612218575b5050505050905090565b60fb546001600160a01b0316331461226a5760405162461bcd60e51b815260040161093a90613fe8565b60028110156122af5760405162461bcd60e51b815260206004820152601160248201527010b6b4b71039b2ba1030b8383937bb32b960791b604482015260640161093a565b61010955565b60008060006122c26121c0565b90506127106122d18282614140565b6122db9086614121565b6122e59190614101565b92506122f18385614140565b91506123008585846001611504565b90969095509350505050565b6001600160a01b0381166000908152610102602090815260409182902080548351818402810184019094528084526060939283018282801561236d57602002820191906000526020600020905b815481526020019060010190808311612359575b505050505090505b919050565b60fb546001600160a01b031633146123a45760405162461bcd60e51b815260040161093a90613fe8565b6001600160a01b0381166123e95760405162461bcd60e51b815260206004820152600c60248201526b6e756c6c206164647265737360a01b604482015260640161093a565b61010a80546001600160a01b0319166001600160a01b0392909216919091179055565b6097546001600160a01b031633146124365760405162461bcd60e51b815260040161093a9061405f565b6001600160a01b03811661249b5760405162461bcd60e51b815260206004820152602660248201527f4f776e61626c653a206e6577206f776e657220697320746865207a65726f206160448201526564647265737360d01b606482015260840161093a565b610cd981612a98565b60fb546001600160a01b031633146124ce5760405162461bcd60e51b815260040161093a90613fe8565b60009182526101016020526040909120805460ff1916911515919091179055565b60fd546001600160a01b03848116911614156125515780341461254c5760405162461bcd60e51b81526020600482015260156024820152741a5b9d985b1a5908189c9a5919d948185b5bdd5b9d605a1b604482015260640161093a565b611165565b6040516370a0823160e01b815230600482015283906000906001600160a01b038316906370a082319060240160206040518083038186803b15801561259557600080fd5b505afa1580156125a9573d6000803e3d6000fd5b505050506040513d601f19601f820116820180604052508101906125cd9190613d48565b90506125e46001600160a01b038316853086612ff0565b6040516370a0823160e01b815230600482015283906126699083906001600160a01b038616906370a082319060240160206040518083038186803b15801561262b57600080fd5b505afa15801561263f573d6000803e3d6000fd5b505050506040513d601f19601f820116820180604052508101906126639190613d48565b9061305b565b14610f615760405162461bcd60e51b815260206004820152600e60248201526d217472616e736665722066726f6d60901b604482015260640161093a565b60fd546001600160a01b03858116911614156126f0576126d06001600160a01b0384168361306e565b6126eb816126dc613187565b6001600160a01b03169061306e565b611003565b6040516370a0823160e01b815230600482015284906000906001600160a01b038316906370a082319060240160206040518083038186803b15801561273457600080fd5b505afa158015612748573d6000803e3d6000fd5b505050506040513d601f19601f8201168201806040525081019061276c9190613d48565b90508315612788576127886001600160a01b03831686866131bf565b82156127aa576127aa612799613187565b6001600160a01b03841690856131bf565b6127b483856140e9565b6040516370a0823160e01b8152306004820152612836906001600160a01b038516906370a082319060240160206040518083038186803b1580156127f757600080fd5b505afa15801561280b573d6000803e3d6000fd5b505050506040513d601f19601f8201168201806040525081019061282f9190613d48565b839061305b565b146128725760405162461bcd60e51b815260206004820152600c60248201526b217472616e7366657220746f60a01b604482015260640161093a565b505050505050565b6097546001600160a01b03163314610cd95760405162461bcd60e51b815260040161093a9061405f565b60006128d77f360894a13ba1a3210667c828492db98dca3e2076cc3735a920a3ca505d382bbc546001600160a01b031690565b90506128e2846131ef565b6000835111806128ef5750815b15612900576128fe8484613294565b505b7f4910fdfa16fed3260ed0e7147f7cc6da11a60208b5b9406d12a635614ffd9143805460ff16610f6157805460ff191660011781556040516001600160a01b038316602482015261297f90869060440160408051601f198184030181529190526020810180516001600160e01b0316631b2ce7f360e11b179052613294565b50805460ff191681557f360894a13ba1a3210667c828492db98dca3e2076cc3735a920a3ca505d382bbc546001600160a01b03838116911614612a1c5760405162461bcd60e51b815260206004820152602f60248201527f45524331393637557067726164653a207570677261646520627265616b73206660448201526e75727468657220757067726164657360881b606482015260840161093a565b610f618561337f565b600054610100900460ff1680612a3e575060005460ff16155b612a5a5760405162461bcd60e51b815260040161093a90614011565b600054610100900460ff16158015612a7c576000805461ffff19166101011790555b612a846133bf565b8015610cd9576000805461ff001916905550565b609780546001600160a01b038381166001600160a01b0319831681179093556040519116919082907f8be0079c531659141344cd1fd0a4f28419497f9722a3daafe3b4186f6b6457e090600090a35050565b60006002610109541015612b315760405162461bcd60e51b815260206004820152600e60248201526d216d696e20617070726f7665727360901b604482015260640161093a565b6101095460ff541015612b775760405162461bcd60e51b815260206004820152600e60248201526d216d696e20617070726f7665727360901b604482015260640161093a565b6000855167ffffffffffffffff811115612ba157634e487b7160e01b600052604160045260246000fd5b604051908082528060200260200182016040528015612bca578160200160208202803683370190505b509050600085518751148015612be1575084518651145b8015612bf1575061010954855110155b15612e6957865160005b81811015612e66576040517f19457468657265756d205369676e6564204d6573736167653a0a3332000000006020820152603c8101879052600090600190605c0160405160208183030381529060405280519060200120898481518110612c7257634e487b7160e01b600052603260045260246000fd5b60200260200101518c8581518110612c9a57634e487b7160e01b600052603260045260246000fd5b60200260200101518c8681518110612cc257634e487b7160e01b600052603260045260246000fd5b602002602001015160405160008152602001604052604051612d00949392919093845260ff9290921660208401526040830152606082015260800190565b6020604051602081039080840390855afa158015612d22573d6000803e3d6000fd5b505060408051601f1901516001600160a01b0381166000908152610100602052919091205490925060ff16159050612e5557600160005b85811015612dbd57826001600160a01b0316878281518110612d8b57634e487b7160e01b600052603260045260246000fd5b60200260200101516001600160a01b03161415612dab5760009150612dbd565b80612db581614183565b915050612d59565b508015612e0b5781868681518110612de557634e487b7160e01b600052603260045260246000fd5b6001600160a01b039092166020928302919091019091015284612e0781614183565b9550505b604080516001600160a01b0384168152602081018a9052428183015290517fa1164cf36cb74b65282452422c4a4b867b03edb7007d123f7546f35ea3bf762b9181900360600190a1505b50612e5f81614183565b9050612bfb565b50505b6101095411159695505050505050565b6101075415610cd95761010754811015612ec65760405162461bcd60e51b815260206004820152600e60248201526d216d696e20636c61696d2066656560901b604482015260640161093a565b60fb54610cd9906001600160a01b03168261306e565b610104600084600081518110612f0257634e487b7160e01b600052603260045260246000fd5b602090810291909101810151825281810192909252604090810160009081206001600160a01b0380891683529352819020549051633c03168160e11b81529116906378062d0290612f5f90879085908a9089908990600401613e2a565b600060405180830381600087803b158015612f7957600080fd5b505af1158015612f8d573d6000803e3d6000fd5b505050505050505050565b600080612fce868686600081518110612fc157634e487b7160e01b600052603260045260246000fd5b6020026020010151613426565b91509150612fdf8587836000611504565b9092509050612872858484846126a7565b6040516001600160a01b03808516602483015283166044820152606481018290526110039085906323b872dd60e01b906084015b60408051601f198184030181529190526020810180516001600160e01b03166001600160e01b03199093169290921790915261347c565b60006130678284614140565b9392505050565b804710156130be5760405162461bcd60e51b815260206004820152601d60248201527f416464726573733a20696e73756666696369656e742062616c616e6365000000604482015260640161093a565b6000826001600160a01b03168260405160006040518083038185875af1925050503d806000811461310b576040519150601f19603f3d011682016040523d82523d6000602084013e613110565b606091505b50509050806111655760405162461bcd60e51b815260206004820152603a60248201527f416464726573733a20756e61626c6520746f2073656e642076616c75652c207260448201527f6563697069656e74206d61792068617665207265766572746564000000000000606482015260840161093a565b61010a546000906001600160a01b0316156131ae5761010a546001600160a01b03166121d9565b6097546001600160a01b03166121d9565b6040516001600160a01b03831660248201526044810182905261116590849063a9059cbb60e01b90606401613024565b803b6132535760405162461bcd60e51b815260206004820152602d60248201527f455243313936373a206e657720696d706c656d656e746174696f6e206973206e60448201526c1bdd08184818dbdb9d1c9858dd609a1b606482015260840161093a565b7f360894a13ba1a3210667c828492db98dca3e2076cc3735a920a3ca505d382bbc80546001600160a01b0319166001600160a01b0392909216919091179055565b6060823b6132f35760405162461bcd60e51b815260206004820152602660248201527f416464726573733a2064656c65676174652063616c6c20746f206e6f6e2d636f6044820152651b9d1c9858dd60d21b606482015260840161093a565b600080846001600160a01b03168460405161330e9190613e0e565b600060405180830381855af49150503d8060008114613349576040519150601f19603f3d011682016040523d82523d6000602084013e61334e565b606091505b509150915061337682826040518060600160405280602781526020016159ab6027913961354e565b95945050505050565b613388816131ef565b6040516001600160a01b038216907fbc7cd75a20ee27fd9adebab32041f755214dbc6bffa90cc0225b39da2e5c2d3b90600090a250565b600054610100900460ff16806133d8575060005460ff16155b6133f45760405162461bcd60e51b815260040161093a90614011565b600054610100900460ff16158015613416576000805461ffff19166101011790555b61341e613587565b612a846135f1565b600080600061010c5460001461343f5761010c54613442565b600a5b90506127106134518282614140565b61345b9088614121565b6134659190614101565b92506134718387614140565b915050935093915050565b60006134d1826040518060400160405280602081526020017f5361666545524332303a206c6f772d6c6576656c2063616c6c206661696c6564815250856001600160a01b03166136519092919063ffffffff16565b80519091501561116557808060200190518101906134ef9190613d14565b6111655760405162461bcd60e51b815260206004820152602a60248201527f5361666545524332303a204552433230206f7065726174696f6e20646964206e6044820152691bdd081cdd58d8d9595960b21b606482015260840161093a565b6060831561355d575081613067565b82511561356d5782518084602001fd5b8160405162461bcd60e51b815260040161093a9190613fd5565b600054610100900460ff16806135a0575060005460ff16155b6135bc5760405162461bcd60e51b815260040161093a90614011565b600054610100900460ff16158015612a84576000805461ffff19166101011790558015610cd9576000805461ff001916905550565b600054610100900460ff168061360a575060005460ff16155b6136265760405162461bcd60e51b815260040161093a90614011565b600054610100900460ff16158015613648576000805461ffff19166101011790555b612a8433612a98565b60606136608484600085613668565b949350505050565b6060824710156136c95760405162461bcd60e51b815260206004820152602660248201527f416464726573733a20696e73756666696369656e742062616c616e636520666f6044820152651c8818d85b1b60d21b606482015260840161093a565b843b6137175760405162461bcd60e51b815260206004820152601d60248201527f416464726573733a2063616c6c20746f206e6f6e2d636f6e7472616374000000604482015260640161093a565b600080866001600160a01b031685876040516137339190613e0e565b60006040518083038185875af1925050503d8060008114613770576040519150601f19603f3d011682016040523d82523d6000602084013e613775565b606091505b509150915061378582828661354e565b979650505050505050565b6117bd806141ee83390190565b8035612375816141ca565b600082601f8301126137b8578081fd5b813560206137cd6137c8836140c5565b614094565b80838252828201915082860187848660051b89010111156137ec578586fd5b855b85811015613813578135613801816141ca565b845292840192908401906001016137ee565b5090979650505050505050565b600082601f830112613830578081fd5b813560206138406137c8836140c5565b80838252828201915082860187848660051b890101111561385f578586fd5b855b8581101561381357813584529284019290840190600101613861565b600082601f83011261388d578081fd5b8135602061389d6137c8836140c5565b80838252828201915082860187848660051b89010111156138bc578586fd5b855b85811015613813576138cf8261394c565b845292840192908401906001016138be565b600082601f8301126138f1578081fd5b813567ffffffffffffffff81111561390b5761390b6141b4565b61391e601f8201601f1916602001614094565b818152846020838601011115613932578283fd5b816020850160208301379081016020019190915292915050565b803560ff8116811461237557600080fd5b60006020828403121561396e578081fd5b8135613067816141ca565b60008060008060008060008060008060006101608c8e03121561399a578687fd5b6139a38c61379d565b9a506139b160208d0161379d565b995060408c0135985067ffffffffffffffff8060608e013511156139d3578788fd5b6139e38e60608f01358f01613820565b985060808d013597508060a08e013511156139fc578687fd5b613a0c8e60a08f01358f01613820565b96508060c08e01351115613a1e578586fd5b613a2e8e60c08f01358f01613820565b95508060e08e01351115613a40578485fd5b613a508e60e08f01358f0161387d565b9450806101008e01351115613a63578384fd5b613a748e6101008f01358f016138e1565b9350806101208e01351115613a87578283fd5b50613a998d6101208e01358e016138e1565b9150613aa86101408d0161394c565b90509295989b509295989b9093969950565b60008060408385031215613acc578182fd5b8235613ad7816141ca565b9150602083013567ffffffffffffffff811115613af2578182fd5b613afe858286016138e1565b9150509250929050565b60008060008060808587031215613b1d578182fd5b8435613b28816141ca565b9350602085013567ffffffffffffffff811115613b43578283fd5b613b4f878288016138e1565b949794965050505060408301359260600135919050565b60008060408385031215613b78578182fd5b8235613b83816141ca565b946020939093013593505050565b60008060008060808587031215613ba6578182fd5b8435613bb1816141ca565b935060208501359250604085013591506060850135613bcf816141df565b939692955090935050565b600060208284031215613beb578081fd5b813567ffffffffffffffff811115613c01578182fd5b613660848285016137a8565b600060208284031215613c1e578081fd5b813567ffffffffffffffff811115613c34578182fd5b61366084828501613820565b600080600060608486031215613c54578081fd5b833567ffffffffffffffff80821115613c6b578283fd5b613c7787838801613820565b94506020860135915080821115613c8c578283fd5b613c98878388016137a8565b93506040860135915080821115613cad578283fd5b50613cba86828701613820565b9150509250925092565b60008060408385031215613cd6578182fd5b823567ffffffffffffffff811115613cec578283fd5b613cf885828601613820565b9250506020830135613d09816141df565b809150509250929050565b600060208284031215613d25578081fd5b8151613067816141df565b600060208284031215613d41578081fd5b5035919050565b600060208284031215613d59578081fd5b5051919050565b60008060408385031215613d72578182fd5b823591506020830135613d09816141ca565b60008060408385031215613d96578182fd5b823591506020830135613d09816141df565b6000815180845260208085019450808401835b83811015613dd757815187529582019590820190600101613dbb565b509495945050505050565b60008151808452613dfa816020860160208601614157565b601f01601f19169290920160200192915050565b60008251613e20818460208701614157565b9190910192915050565b6001600160a01b038681168252851660208201526040810184905260a060608201819052600090613e5d90830185613da8565b90508260808301529695505050505050565b6001600160a01b038981168252881660208201526040810187905261010060608201819052600090613ea383820189613da8565b905086608084015282810360a0840152613ebd8187613de2565b905082810360c0840152613ed18186613de2565b91505060ff831660e08301529998505050505050505050565b600060018060a01b038716825285602083015260a06040830152613f1160a0830186613de2565b8281036060840152613f238186613de2565b91505060ff831660808301529695505050505050565b6020808252825182820181905260009190848201906040850190845b81811015613f7a5783516001600160a01b031683529284019291840191600101613f55565b50909695505050505050565b6000602082526130676020830184613da8565b600060c08252613fac60c0830189613de2565b60208301979097525060408101949094526060840192909252608083015260a090910152919050565b6000602082526130676020830184613de2565b6020808252600f908201526e216f6e6c79476f7665726e616e636560881b604082015260600190565b6020808252602e908201527f496e697469616c697a61626c653a20636f6e747261637420697320616c72656160408201526d191e481a5b9a5d1a585b1a5e995960921b606082015260800190565b6020808252818101527f4f776e61626c653a2063616c6c6572206973206e6f7420746865206f776e6572604082015260600190565b604051601f8201601f1916810167ffffffffffffffff811182821017156140bd576140bd6141b4565b604052919050565b600067ffffffffffffffff8211156140df576140df6141b4565b5060051b60200190565b600082198211156140fc576140fc61419e565b500190565b60008261411c57634e487b7160e01b81526012600452602481fd5b500490565b600081600019048311821515161561413b5761413b61419e565b500290565b6000828210156141525761415261419e565b500390565b60005b8381101561417257818101518382015260200161415a565b838111156110035750506000910152565b60006000198214156141975761419761419e565b5060010190565b634e487b7160e01b600052601160045260246000fd5b634e487b7160e01b600052604160045260246000fd5b6001600160a01b0381168114610cd957600080fd5b8015158114610cd957600080fdfe608060405234801561001057600080fd5b5061179d806100206000396000f3fe608060405234801561001057600080fd5b50600436106101425760003560e01c806379cc6790116100b85780639a8a05921161007c5780639a8a05921461029f578063a457c2d7146102a8578063a9059cbb146102bb578063be88368d146102ce578063dd62ed3e146102e1578063f2fde38b1461031a57610142565b806379cc6790146102255780637a4f7d79146102385780638d68fdc8146102635780638da5cb5b1461028657806395d89b411461029757610142565b8063313ce5671161010a578063313ce567146101ba57806339509351146101cf57806342966c68146101e257806370a08231146101f7578063715018a61461020a57806378062d021461021257610142565b806306fdde0314610147578063095ea7b3146101655780630ac7f5611461018857806318160ddd1461019f57806323b872dd146101a7575b600080fd5b61014f61032d565b60405161015c919061160a565b60405180910390f35b61017861017336600461143e565b6103bf565b604051901515815260200161015c565b61019160cc5481565b60405190815260200161015c565b603554610191565b6101786101b5366004611328565b6103d5565b60cd5460405160ff909116815260200161015c565b6101786101dd36600461143e565b610484565b6101f56101f03660046114fc565b6104c0565b005b6101916102053660046112d5565b6104cd565b6101f56104ec565b6101f5610220366004611363565b610522565b6101f561023336600461143e565b610762565b60cb5461024b906001600160a01b031681565b6040516001600160a01b03909116815260200161015c565b6101786102713660046114fc565b60ca6020526000908152604090205460ff1681565b6097546001600160a01b031661024b565b61014f6107e8565b61019160c95481565b6101786102b636600461143e565b6107f7565b6101786102c936600461143e565b610890565b6101f56102dc366004611467565b61089d565b6101916102ef3660046112f6565b6001600160a01b03918216600090815260346020908152604080832093909416825291909152205490565b6101f56103283660046112d5565b610957565b60606036805461033c90611700565b80601f016020809104026020016040519081016040528092919081815260200182805461036890611700565b80156103b55780601f1061038a576101008083540402835291602001916103b5565b820191906000526020600020905b81548152906001019060200180831161039857829003601f168201915b5050505050905090565b60006103cc3384846109ef565b50600192915050565b60006103e2848484610b13565b6001600160a01b03841660009081526034602090815260408083203384529091529020548281101561046c5760405162461bcd60e51b815260206004820152602860248201527f45524332303a207472616e7366657220616d6f756e74206578636565647320616044820152676c6c6f77616e636560c01b60648201526084015b60405180910390fd5b61047985338584036109ef565b506001949350505050565b3360008181526034602090815260408083206001600160a01b038716845290915281205490916103cc9185906104bb9086906116d1565b6109ef565b6104ca3382610ce2565b50565b6001600160a01b0381166000908152603360205260409020545b919050565b6097546001600160a01b031633146105165760405162461bcd60e51b81526004016104639061166b565b6105206000610e30565b565b6097546001600160a01b0316331461054c5760405162461bcd60e51b81526004016104639061166b565b81516004146105965760405162461bcd60e51b8152602060048201526016602482015275042bec6d0c2d2dc92c8e692dcc8caf05cd8cadccee8d60531b6044820152606401610463565b60cb546001600160a01b038681169116146105eb5760405162461bcd60e51b8152602060048201526015602482015274216f726967696e616c546f6b656e4164647265737360581b6044820152606401610463565b60c9548260028151811061060f57634e487b7160e01b600052603260045260246000fd5b6020026020010151146106575760405162461bcd60e51b815260206004820152601060248201526f085a5b9d985b1a590818da185a5b925960821b6044820152606401610463565b6001600160a01b03841661069b5760405162461bcd60e51b815260206004820152600b60248201526a21696e76616c696420746f60a81b6044820152606401610463565b600085858585856106aa61032d565b6106b26107e8565b60cd5460ff166040516020016106cf98979695949392919061155f565b60408051601f198184030181529181528151602092830120600081815260ca90935291205490915060ff16156107375760405162461bcd60e51b815260206004820152600d60248201526c616c726561647920636c61696d60981b6044820152606401610463565b600081815260ca60205260409020805460ff1916600117905561075a8585610e82565b505050505050565b600061076e83336102ef565b9050818110156107cc5760405162461bcd60e51b8152602060048201526024808201527f45524332303a206275726e20616d6f756e74206578636565647320616c6c6f77604482015263616e636560e01b6064820152608401610463565b6107d983338484036109ef565b6107e38383610ce2565b505050565b60606037805461033c90611700565b3360009081526034602090815260408083206001600160a01b0386168452909152812054828110156108795760405162461bcd60e51b815260206004820152602560248201527f45524332303a2064656372656173656420616c6c6f77616e63652062656c6f77604482015264207a65726f60d81b6064820152608401610463565b61088633858584036109ef565b5060019392505050565b60006103cc338484610b13565b600054610100900460ff16806108b6575060005460ff16155b6108d25760405162461bcd60e51b81526004016104639061161d565b600054610100900460ff161580156108f4576000805461ffff19166101011790555b6108fc610f61565b6109054660c955565b61090f8484610fdc565b60cd805460ff191660ff841617905560cb80546001600160a01b0319166001600160a01b03881617905560cc859055801561075a576000805461ff0019169055505050505050565b6097546001600160a01b031633146109815760405162461bcd60e51b81526004016104639061166b565b6001600160a01b0381166109e65760405162461bcd60e51b815260206004820152602660248201527f4f776e61626c653a206e6577206f776e657220697320746865207a65726f206160448201526564647265737360d01b6064820152608401610463565b6104ca81610e30565b6001600160a01b038316610a515760405162461bcd60e51b8152602060048201526024808201527f45524332303a20617070726f76652066726f6d20746865207a65726f206164646044820152637265737360e01b6064820152608401610463565b6001600160a01b038216610ab25760405162461bcd60e51b815260206004820152602260248201527f45524332303a20617070726f766520746f20746865207a65726f206164647265604482015261737360f01b6064820152608401610463565b6001600160a01b0383811660008181526034602090815260408083209487168084529482529182902085905590518481527f8c5be1e5ebec7d5bd14f71427d1e84f3dd0314c0f7b2291e5b200ac8c7c3b925910160405180910390a3505050565b6001600160a01b038316610b775760405162461bcd60e51b815260206004820152602560248201527f45524332303a207472616e736665722066726f6d20746865207a65726f206164604482015264647265737360d81b6064820152608401610463565b6001600160a01b038216610bd95760405162461bcd60e51b815260206004820152602360248201527f45524332303a207472616e7366657220746f20746865207a65726f206164647260448201526265737360e81b6064820152608401610463565b6001600160a01b03831660009081526033602052604090205481811015610c515760405162461bcd60e51b815260206004820152602660248201527f45524332303a207472616e7366657220616d6f756e7420657863656564732062604482015265616c616e636560d01b6064820152608401610463565b6001600160a01b03808516600090815260336020526040808220858503905591851681529081208054849290610c889084906116d1565b92505081905550826001600160a01b0316846001600160a01b03167fddf252ad1be2c89b69c2b068fc378daa952ba7f163c4a11628f55a4df523b3ef84604051610cd491815260200190565b60405180910390a350505050565b6001600160a01b038216610d425760405162461bcd60e51b815260206004820152602160248201527f45524332303a206275726e2066726f6d20746865207a65726f206164647265736044820152607360f81b6064820152608401610463565b6001600160a01b03821660009081526033602052604090205481811015610db65760405162461bcd60e51b815260206004820152602260248201527f45524332303a206275726e20616d6f756e7420657863656564732062616c616e604482015261636560f01b6064820152608401610463565b6001600160a01b0383166000908152603360205260408120838303905560358054849290610de59084906116e9565b90915550506040518281526000906001600160a01b038516907fddf252ad1be2c89b69c2b068fc378daa952ba7f163c4a11628f55a4df523b3ef9060200160405180910390a36107e3565b609780546001600160a01b038381166001600160a01b0319831681179093556040519116919082907f8be0079c531659141344cd1fd0a4f28419497f9722a3daafe3b4186f6b6457e090600090a35050565b6001600160a01b038216610ed85760405162461bcd60e51b815260206004820152601f60248201527f45524332303a206d696e7420746f20746865207a65726f2061646472657373006044820152606401610463565b8060356000828254610eea91906116d1565b90915550506001600160a01b03821660009081526033602052604081208054839290610f179084906116d1565b90915550506040518181526001600160a01b038316906000907fddf252ad1be2c89b69c2b068fc378daa952ba7f163c4a11628f55a4df523b3ef9060200160405180910390a35050565b600054610100900460ff1680610f7a575060005460ff16155b610f965760405162461bcd60e51b81526004016104639061161d565b600054610100900460ff16158015610fb8576000805461ffff19166101011790555b610fc061105b565b610fc86110c5565b80156104ca576000805461ff001916905550565b600054610100900460ff1680610ff5575060005460ff16155b6110115760405162461bcd60e51b81526004016104639061161d565b600054610100900460ff16158015611033576000805461ffff19166101011790555b61103b61105b565b6110458383611125565b80156107e3576000805461ff0019169055505050565b600054610100900460ff1680611074575060005460ff16155b6110905760405162461bcd60e51b81526004016104639061161d565b600054610100900460ff16158015610fc8576000805461ffff191661010117905580156104ca576000805461ff001916905550565b600054610100900460ff16806110de575060005460ff16155b6110fa5760405162461bcd60e51b81526004016104639061161d565b600054610100900460ff1615801561111c576000805461ffff19166101011790555b610fc833610e30565b600054610100900460ff168061113e575060005460ff16155b61115a5760405162461bcd60e51b81526004016104639061161d565b600054610100900460ff1615801561117c576000805461ffff19166101011790555b825161118f9060369060208601906111ba565b5081516111a39060379060208501906111ba565b5080156107e3576000805461ff0019169055505050565b8280546111c690611700565b90600052602060002090601f0160209004810192826111e8576000855561122e565b82601f1061120157805160ff191683800117855561122e565b8280016001018555821561122e579182015b8281111561122e578251825591602001919060010190611213565b5061123a92915061123e565b5090565b5b8082111561123a576000815560010161123f565b80356001600160a01b03811681146104e757600080fd5b600082601f83011261127a578081fd5b813567ffffffffffffffff81111561129457611294611751565b6112a7601f8201601f19166020016116a0565b8181528460208386010111156112bb578283fd5b816020850160208301379081016020019190915292915050565b6000602082840312156112e6578081fd5b6112ef82611253565b9392505050565b60008060408385031215611308578081fd5b61131183611253565b915061131f60208401611253565b90509250929050565b60008060006060848603121561133c578081fd5b61134584611253565b925061135360208501611253565b9150604084013590509250925092565b600080600080600060a0868803121561137a578081fd5b61138386611253565b94506020611392818801611253565b945060408701359350606087013567ffffffffffffffff808211156113b5578384fd5b818901915089601f8301126113c8578384fd5b8135818111156113da576113da611751565b8060051b91506113eb8483016116a0565b8181528481019084860184860187018e1015611405578788fd5b8795505b83861015611427578035835260019590950194918601918601611409565b50999c989b50969960800135979650505050505050565b60008060408385031215611450578182fd5b61145983611253565b946020939093013593505050565b600080600080600060a0868803121561147e578081fd5b61148786611253565b945060208601359350604086013567ffffffffffffffff808211156114aa578283fd5b6114b689838a0161126a565b945060608801359150808211156114cb578283fd5b506114d88882890161126a565b925050608086013560ff811681146114ee578182fd5b809150509295509295909350565b60006020828403121561150d578081fd5b5035919050565b60008151808452815b818110156115395760208185018101518683018201520161151d565b8181111561154a5782602083870101525b50601f01601f19169290920160200192915050565b6001600160a01b03898116825288166020808301919091526040820188905261010060608301819052875190830181905260009161012084019189820191845b828110156115bb5783518552938101939281019260010161159f565b5050505086608084015282810360a08401526115d78187611514565b905082810360c08401526115eb8186611514565b9150506115fd60e083018460ff169052565b9998505050505050505050565b6000602082526112ef6020830184611514565b6020808252602e908201527f496e697469616c697a61626c653a20636f6e747261637420697320616c72656160408201526d191e481a5b9a5d1a585b1a5e995960921b606082015260800190565b6020808252818101527f4f776e61626c653a2063616c6c6572206973206e6f7420746865206f776e6572604082015260600190565b604051601f8201601f1916810167ffffffffffffffff811182821017156116c9576116c9611751565b604052919050565b600082198211156116e4576116e461173b565b500190565b6000828210156116fb576116fb61173b565b500390565b600181811c9082168061171457607f821691505b6020821081141561173557634e487b7160e01b600052602260045260246000fd5b50919050565b634e487b7160e01b600052601160045260246000fd5b634e487b7160e01b600052604160045260246000fdfea26469706673582212204deebe3745eac6b53560cc3ab70a7437b66c5f002975c712cbaf1cbfefc1da7864736f6c63430008030033416464726573733a206c6f772d6c6576656c2064656c65676174652063616c6c206661696c6564a2646970667358221220307d20ff66338000a41f62d04e28e8305d467c042ee49880dec7ed663283b5e864736f6c63430008030033",
  "linkReferences": {},
  "deployedLinkReferences": {}
}