{
  "_format": "hh-sol-artifact-1",
  "contractName": "GenericBridge",
  "sourceName": "contracts/generic/GenericBridge.sol",
  "abi": [
    {
      "anonymous": false,
      "inputs": [
        {
          "indexed": false,
          "internalType": "address",
          "name": "previousAdmin",
          "type": "address"
        },
        {
          "indexed": false,
          "internalType": "address",
          "name": "newAdmin",
          "type": "address"
        }
      ],
      "name": "AdminChanged",
      "type": "event"
    },
    {
      "anonymous": false,
      "inputs": [
        {
          "indexed": true,
          "internalType": "address",
          "name": "beacon",
          "type": "address"
        }
      ],
      "name": "BeaconUpgraded",
      "type": "event"
    },
    {
      "anonymous": false,
      "inputs": [
        {
          "indexed": true,
          "internalType": "address",
          "name": "_token",
          "type": "address"
        },
        {
          "indexed": true,
          "internalType": "address",
          "name": "_toAddr",
          "type": "address"
        },
        {
          "indexed": false,
          "internalType": "uint256",
          "name": "_amount",
          "type": "uint256"
        },
        {
          "indexed": false,
          "internalType": "uint256",
          "name": "_originChainId",
          "type": "uint256"
        },
        {
          "indexed": false,
          "internalType": "uint256",
          "name": "_fromChainId",
          "type": "uint256"
        },
        {
          "indexed": false,
          "internalType": "uint256",
          "name": "_toChainId",
          "type": "uint256"
        },
        {
          "indexed": false,
          "internalType": "uint256",
          "name": "_index",
          "type": "uint256"
        },
        {
          "indexed": false,
          "internalType": "bytes32",
          "name": "_claimId",
          "type": "bytes32"
        }
      ],
      "name": "ClaimToken",
      "type": "event"
    },
    {
      "anonymous": false,
      "inputs": [
        {
          "indexed": true,
          "internalType": "address",
          "name": "previousOwner",
          "type": "address"
        },
        {
          "indexed": true,
          "internalType": "address",
          "name": "newOwner",
          "type": "address"
        }
      ],
      "name": "OwnershipTransferred",
      "type": "event"
    },
    {
      "anonymous": false,
      "inputs": [
        {
          "indexed": true,
          "internalType": "address",
          "name": "_token",
          "type": "address"
        },
        {
          "indexed": false,
          "internalType": "bytes",
          "name": "_toAddr",
          "type": "bytes"
        },
        {
          "indexed": false,
          "internalType": "uint256",
          "name": "_amount",
          "type": "uint256"
        },
        {
          "indexed": false,
          "internalType": "uint256",
          "name": "_originChainId",
          "type": "uint256"
        },
        {
          "indexed": false,
          "internalType": "uint256",
          "name": "_fromChainId",
          "type": "uint256"
        },
        {
          "indexed": false,
          "internalType": "uint256",
          "name": "_toChainId",
          "type": "uint256"
        },
        {
          "indexed": false,
          "internalType": "uint256",
          "name": "_index",
          "type": "uint256"
        }
      ],
      "name": "RequestBridge",
      "type": "event"
    },
    {
      "anonymous": false,
      "inputs": [
        {
          "indexed": false,
          "internalType": "uint256",
          "name": "chainId",
          "type": "uint256"
        },
        {
          "indexed": false,
          "internalType": "address",
          "name": "token",
          "type": "address"
        },
        {
          "indexed": false,
          "internalType": "uint256",
          "name": "fee",
          "type": "uint256"
        },
        {
          "indexed": false,
          "internalType": "uint256",
          "name": "timestamp",
          "type": "uint256"
        }
      ],
      "name": "SetFeeToken",
      "type": "event"
    },
    {
      "anonymous": false,
      "inputs": [
        {
          "indexed": true,
          "internalType": "address",
          "name": "implementation",
          "type": "address"
        }
      ],
      "name": "Upgraded",
      "type": "event"
    },
    {
      "anonymous": false,
      "inputs": [
        {
          "indexed": false,
          "internalType": "address",
          "name": "_validator",
          "type": "address"
        },
        {
          "indexed": false,
          "internalType": "bytes32",
          "name": "_claimId",
          "type": "bytes32"
        },
        {
          "indexed": false,
          "internalType": "uint256",
          "name": "_timestamp",
          "type": "uint256"
        }
      ],
      "name": "ValidatorSign",
      "type": "event"
    },
    {
      "anonymous": false,
      "inputs": [
        {
          "indexed": true,
          "internalType": "address",
          "name": "receiver",
          "type": "address"
        },
        {
          "indexed": true,
          "internalType": "address",
          "name": "tokenAddress",
          "type": "address"
        },
        {
          "indexed": true,
          "internalType": "uint256",
          "name": "id",
          "type": "uint256"
        },
        {
          "indexed": false,
          "internalType": "uint256",
          "name": "amount",
          "type": "uint256"
        }
      ],
      "name": "WithdrawStuckERC1155",
      "type": "event"
    },
    {
      "anonymous": false,
      "inputs": [
        {
          "indexed": true,
          "internalType": "address",
          "name": "receiver",
          "type": "address"
        },
        {
          "indexed": true,
          "internalType": "address",
          "name": "tokenAddress",
          "type": "address"
        },
        {
          "indexed": false,
          "internalType": "uint256",
          "name": "amount",
          "type": "uint256"
        }
      ],
      "name": "WithdrawStuckERC20",
      "type": "event"
    },
    {
      "anonymous": false,
      "inputs": [
        {
          "indexed": true,
          "internalType": "address",
          "name": "receiver",
          "type": "address"
        },
        {
          "indexed": true,
          "internalType": "address",
          "name": "tokenAddress",
          "type": "address"
        },
        {
          "indexed": true,
          "internalType": "uint256",
          "name": "tokenId",
          "type": "uint256"
        }
      ],
      "name": "WithdrawStuckERC721",
      "type": "event"
    },
    {
      "anonymous": false,
      "inputs": [
        {
          "indexed": true,
          "internalType": "address",
          "name": "receiver",
          "type": "address"
        },
        {
          "indexed": false,
          "internalType": "uint256",
          "name": "amount",
          "type": "uint256"
        }
      ],
      "name": "WithdrawStuckEther",
      "type": "event"
    },
    {
      "inputs": [],
      "name": "DEFAULT_FEE_DIVISOR",
      "outputs": [
        {
          "internalType": "uint256",
          "name": "",
          "type": "uint256"
        }
      ],
      "stateMutability": "view",
      "type": "function"
    },
    {
      "inputs": [],
      "name": "DEFAULT_FEE_PERCENTAGE",
      "outputs": [
        {
          "internalType": "uint256",
          "name": "",
          "type": "uint256"
        }
      ],
      "stateMutability": "view",
      "type": "function"
    },
    {
      "inputs": [],
      "name": "NATIVE_TOKEN_ADDRESS",
      "outputs": [
        {
          "internalType": "address",
          "name": "",
          "type": "address"
        }
      ],
      "stateMutability": "view",
      "type": "function"
    },
    {
      "inputs": [
        {
          "internalType": "address",
          "name": "_addr",
          "type": "address"
        }
      ],
      "name": "addApprover",
      "outputs": [],
      "stateMutability": "nonpayable",
      "type": "function"
    },
    {
      "inputs": [
        {
          "internalType": "address[]",
          "name": "_addrs",
          "type": "address[]"
        }
      ],
      "name": "addApprovers",
      "outputs": [],
      "stateMutability": "nonpayable",
      "type": "function"
    },
    {
      "inputs": [
        {
          "internalType": "bytes32",
          "name": "",
          "type": "bytes32"
        }
      ],
      "name": "alreadyClaims",
      "outputs": [
        {
          "internalType": "bool",
          "name": "",
          "type": "bool"
        }
      ],
      "stateMutability": "view",
      "type": "function"
    },
    {
      "inputs": [
        {
          "internalType": "address",
          "name": "",
          "type": "address"
        }
      ],
      "name": "approverMap",
      "outputs": [
        {
          "internalType": "bool",
          "name": "",
          "type": "bool"
        }
      ],
      "stateMutability": "view",
      "type": "function"
    },
    {
      "inputs": [
        {
          "internalType": "uint256",
          "name": "",
          "type": "uint256"
        }
      ],
      "name": "bridgeApprovers",
      "outputs": [
        {
          "internalType": "address",
          "name": "",
          "type": "address"
        }
      ],
      "stateMutability": "view",
      "type": "function"
    },
    {
      "inputs": [
        {
          "internalType": "address",
          "name": "",
          "type": "address"
        }
      ],
      "name": "bridgeTokens",
      "outputs": [
        {
          "internalType": "bool",
          "name": "",
          "type": "bool"
        }
      ],
      "stateMutability": "view",
      "type": "function"
    },
    {
      "inputs": [],
      "name": "chainId",
      "outputs": [
        {
          "internalType": "uint256",
          "name": "",
          "type": "uint256"
        }
      ],
      "stateMutability": "view",
      "type": "function"
    },
    {
      "inputs": [],
      "name": "claimFee",
      "outputs": [
        {
          "internalType": "uint256",
          "name": "",
          "type": "uint256"
        }
      ],
      "stateMutability": "view",
      "type": "function"
    },
    {
      "inputs": [
        {
          "internalType": "address",
          "name": "_originToken",
          "type": "address"
        },
        {
          "internalType": "address",
          "name": "_toAddr",
          "type": "address"
        },
        {
          "internalType": "uint256",
          "name": "_amount",
          "type": "uint256"
        },
        {
          "internalType": "uint256[]",
          "name": "_chainIdsIndex",
          "type": "uint256[]"
        },
        {
          "internalType": "bytes32",
          "name": "_txHash",
          "type": "bytes32"
        },
        {
          "internalType": "bytes32[]",
          "name": "r",
          "type": "bytes32[]"
        },
        {
          "internalType": "bytes32[]",
          "name": "s",
          "type": "bytes32[]"
        },
        {
          "internalType": "uint8[]",
          "name": "v",
          "type": "uint8[]"
        },
        {
          "internalType": "string",
          "name": "_name",
          "type": "string"
        },
        {
          "internalType": "string",
          "name": "_symbol",
          "type": "string"
        },
        {
          "internalType": "uint8",
          "name": "_decimals",
          "type": "uint8"
        }
      ],
      "name": "claimToken",
      "outputs": [],
      "stateMutability": "payable",
      "type": "function"
    },
    {
      "inputs": [],
      "name": "defaultFeePercentage",
      "outputs": [
        {
          "internalType": "uint256",
          "name": "",
          "type": "uint256"
        }
      ],
      "stateMutability": "view",
      "type": "function"
    },
    {
      "inputs": [
        {
          "internalType": "uint256",
          "name": "",
          "type": "uint256"
        },
        {
          "internalType": "address",
          "name": "",
          "type": "address"
        }
      ],
      "name": "feeForTokens",
      "outputs": [
        {
          "internalType": "uint256",
          "name": "",
          "type": "uint256"
        }
      ],
      "stateMutability": "view",
      "type": "function"
    },
    {
      "inputs": [],
      "name": "feeReceiver",
      "outputs": [
        {
          "internalType": "address payable",
          "name": "",
          "type": "address"
        }
      ],
      "stateMutability": "view",
      "type": "function"
    },
    {
      "inputs": [],
      "name": "getBridgeApprovers",
      "outputs": [
        {
          "internalType": "address[]",
          "name": "",
          "type": "address[]"
        }
      ],
      "stateMutability": "view",
      "type": "function"
    },
    {
      "inputs": [
        {
          "internalType": "address",
          "name": "_token",
          "type": "address"
        }
      ],
      "name": "getSupportedChainsForToken",
      "outputs": [
        {
          "internalType": "uint256[]",
          "name": "",
          "type": "uint256[]"
        }
      ],
      "stateMutability": "view",
      "type": "function"
    },
    {
      "inputs": [],
      "name": "governance",
      "outputs": [
        {
          "internalType": "address",
          "name": "",
          "type": "address"
        }
      ],
      "stateMutability": "view",
      "type": "function"
    },
    {
      "inputs": [],
      "name": "index",
      "outputs": [
        {
          "internalType": "uint256",
          "name": "",
          "type": "uint256"
        }
      ],
      "stateMutability": "view",
      "type": "function"
    },
    {
      "inputs": [
        {
          "internalType": "uint256[]",
          "name": "_chainIds",
          "type": "uint256[]"
        }
      ],
      "name": "initialize",
      "outputs": [],
      "stateMutability": "nonpayable",
      "type": "function"
    },
    {
      "inputs": [
        {
          "internalType": "address",
          "name": "_token",
          "type": "address"
        }
      ],
      "name": "isBridgeToken",
      "outputs": [
        {
          "internalType": "bool",
          "name": "",
          "type": "bool"
        }
      ],
      "stateMutability": "view",
      "type": "function"
    },
    {
      "inputs": [],
      "name": "minApprovers",
      "outputs": [
        {
          "internalType": "uint256",
          "name": "",
          "type": "uint256"
        }
      ],
      "stateMutability": "view",
      "type": "function"
    },
    {
      "inputs": [],
      "name": "owner",
      "outputs": [
        {
          "internalType": "address",
          "name": "",
          "type": "address"
        }
      ],
      "stateMutability": "view",
      "type": "function"
    },
    {
      "inputs": [
        {
          "internalType": "address",
          "name": "_addr",
          "type": "address"
        }
      ],
      "name": "removeApprover",
      "outputs": [],
      "stateMutability": "nonpayable",
      "type": "function"
    },
    {
      "inputs": [],
      "name": "renounceOwnership",
      "outputs": [],
      "stateMutability": "nonpayable",
      "type": "function"
    },
    {
      "inputs": [
        {
          "internalType": "address",
          "name": "_tokenAddress",
          "type": "address"
        },
        {
          "internalType": "bytes",
          "name": "_toAddr",
          "type": "bytes"
        },
        {
          "internalType": "uint256",
          "name": "_amount",
          "type": "uint256"
        },
        {
          "internalType": "uint256",
          "name": "_toChainId",
          "type": "uint256"
        }
      ],
      "name": "requestBridge",
      "outputs": [],
      "stateMutability": "payable",
      "type": "function"
    },
    {
      "inputs": [
        {
          "internalType": "uint256",
          "name": "_val",
          "type": "uint256"
        }
      ],
      "name": "setDefaultFeePercentage",
      "outputs": [],
      "stateMutability": "nonpayable",
      "type": "function"
    },
    {
      "inputs": [
        {
          "internalType": "uint256[]",
          "name": "chainIds",
          "type": "uint256[]"
        },
        {
          "internalType": "address[]",
          "name": "originTokens",
          "type": "address[]"
        },
        {
          "internalType": "uint256[]",
          "name": "fees",
          "type": "uint256[]"
        }
      ],
      "name": "setFeeForTokens",
      "outputs": [],
      "stateMutability": "nonpayable",
      "type": "function"
    },
    {
      "inputs": [
        {
          "internalType": "address payable",
          "name": "_feeReceiver",
          "type": "address"
        }
      ],
      "name": "setFeeReceiver",
      "outputs": [],
      "stateMutability": "nonpayable",
      "type": "function"
    },
    {
      "inputs": [
        {
          "internalType": "address",
          "name": "_gov",
          "type": "address"
        }
      ],
      "name": "setGovernance",
      "outputs": [],
      "stateMutability": "nonpayable",
      "type": "function"
    },
    {
      "inputs": [
        {
          "internalType": "uint256",
          "name": "_fee",
          "type": "uint256"
        }
      ],
      "name": "setGovernanceFee",
      "outputs": [],
      "stateMutability": "nonpayable",
      "type": "function"
    },
    {
      "inputs": [
        {
          "internalType": "uint256",
          "name": "_val",
          "type": "uint256"
        }
      ],
      "name": "setMinApprovers",
      "outputs": [],
      "stateMutability": "nonpayable",
      "type": "function"
    },
    {
      "inputs": [
        {
          "internalType": "uint256",
          "name": "_chainId",
          "type": "uint256"
        },
        {
          "internalType": "bool",
          "name": "_val",
          "type": "bool"
        }
      ],
      "name": "setSupportedChainId",
      "outputs": [],
      "stateMutability": "nonpayable",
      "type": "function"
    },
    {
      "inputs": [
        {
          "internalType": "uint256[]",
          "name": "_chainIds",
          "type": "uint256[]"
        },
        {
          "internalType": "bool",
          "name": "_val",
          "type": "bool"
        }
      ],
      "name": "setSupportedChainIds",
      "outputs": [],
      "stateMutability": "nonpayable",
      "type": "function"
    },
    {
      "inputs": [
        {
          "internalType": "uint256",
          "name": "",
          "type": "uint256"
        }
      ],
      "name": "supportedChainIds",
      "outputs": [
        {
          "internalType": "bool",
          "name": "",
          "type": "bool"
        }
      ],
      "stateMutability": "view",
      "type": "function"
    },
    {
      "inputs": [
        {
          "internalType": "uint256",
          "name": "",
          "type": "uint256"
        },
        {
          "internalType": "address",
          "name": "",
          "type": "address"
        }
      ],
      "name": "tokenMap",
      "outputs": [
        {
          "internalType": "address",
          "name": "",
          "type": "address"
        }
      ],
      "stateMutability": "view",
      "type": "function"
    },
    {
      "inputs": [
        {
          "internalType": "address",
          "name": "",
          "type": "address"
        },
        {
          "internalType": "uint256",
          "name": "",
          "type": "uint256"
        }
      ],
      "name": "tokenMapList",
      "outputs": [
        {
          "internalType": "uint256",
          "name": "",
          "type": "uint256"
        }
      ],
      "stateMutability": "view",
      "type": "function"
    },
    {
      "inputs": [
        {
          "internalType": "address",
          "name": "",
          "type": "address"
        }
      ],
      "name": "tokenMapReverse",
      "outputs": [
        {
          "internalType": "address",
          "name": "addr",
          "type": "address"
        },
        {
          "internalType": "uint256",
          "name": "chainId",
          "type": "uint256"
        }
      ],
      "stateMutability": "view",
      "type": "function"
    },
    {
      "inputs": [
        {
          "internalType": "address",
          "name": "",
          "type": "address"
        },
        {
          "internalType": "uint256",
          "name": "",
          "type": "uint256"
        }
      ],
      "name": "tokenMapSupportCheck",
      "outputs": [
        {
          "internalType": "bool",
          "name": "",
          "type": "bool"
        }
      ],
      "stateMutability": "view",
      "type": "function"
    },
    {
      "inputs": [
        {
          "internalType": "address",
          "name": "newOwner",
          "type": "address"
        }
      ],
      "name": "transferOwnership",
      "outputs": [],
      "stateMutability": "nonpayable",
      "type": "function"
    },
    {
      "inputs": [
        {
          "internalType": "address",
          "name": "newImplementation",
          "type": "address"
        }
      ],
      "name": "upgradeTo",
      "outputs": [],
      "stateMutability": "nonpayable",
      "type": "function"
    },
    {
      "inputs": [
        {
          "internalType": "address",
          "name": "newImplementation",
          "type": "address"
        },
        {
          "internalType": "bytes",
          "name": "data",
          "type": "bytes"
        }
      ],
      "name": "upgradeToAndCall",
      "outputs": [],
      "stateMutability": "payable",
      "type": "function"
    }
  ],
  "bytecode": "0x60806040523480156200001157600080fd5b50600054610100900460ff16806200002c575060005460ff16155b620000945760405162461bcd60e51b815260206004820152602e60248201527f496e697469616c697a61626c653a20636f6e747261637420697320616c72656160448201526d191e481a5b9a5d1a585b1a5e995960921b606482015260840160405180910390fd5b600054610100900460ff16158015620000b7576000805461ffff19166101011790555b8015620000ca576000805461ff00191690555b506157e380620000db6000396000f3fe6080604052600436106102515760003560e01c806399d32fc411610139578063c60c9a54116100b6578063df2ebdbb1161007a578063df2ebdbb14610791578063e7246042146107b1578063e9008d5b146107c6578063efdcd97414610800578063f2fde38b14610820578063ffb2efb81461084057610251565b8063c60c9a54146106c0578063d4638d4e146106fc578063d641e9161461071c578063d9bdd6591461074d578063dee157ca1461077a57610251565b8063b4824034116100fd578063b48240341461061b578063b4c530ad14610632578063b646c19414610645578063b754577d14610665578063bfa411f81461069e57610251565b806399d32fc41461058d5780639a8a0592146105a45780639f92b715146105ba578063ab033ea9146105da578063b3f00674146105fa57610251565b806354f7088f116101d25780636d1ac36a116101965780636d1ac36a146104795780636fe0e559146104aa578063715018a6146104ca5780638d68fdc8146104df5780638da5cb5b1461050f57806394c9d29b1461052d57610251565b806354f7088f146103e35780635aa6e675146103f957806367844634146104195780636a882d51146104395780636cf4c88f1461045957610251565b806336db95fb1161021957806336db95fb1461032f57806345923dfb1461034f5780634cf2ab321461036f5780634f1ef286146103b05780635260136c146103c357610251565b806313ac7898146102565780632986c0e5146102b55780632db34b27146102da57806332a69330146102ef5780633659cfe61461030f575b600080fd5b34801561026257600080fd5b50610298610271366004613b3c565b6101046020908152600092835260408084209091529082529020546001600160a01b031681565b6040516001600160a01b0390911681526020015b60405180910390f35b3480156102c157600080fd5b506102cc6101085481565b6040519081526020016102ac565b6102ed6102e836600461392d565b610860565b005b3480156102fb57600080fd5b506102ed61030a366004613b0c565b610bf7565b34801561031b57600080fd5b506102ed61032a366004613782565b610c27565b34801561033b57600080fd5b506102cc61034a36600461398b565b610c4e565b34801561035b57600080fd5b5061029861036a366004613b0c565b610c80565b34801561037b57600080fd5b506103a061038a366004613b0c565b6101016020526000908152604090205460ff1681565b60405190151581526020016102ac565b6102ed6103be3660046138df565b610caa565b3480156103cf57600080fd5b506102ed6103de366004613a1c565b610cc3565b3480156103ef57600080fd5b506102cc61271081565b34801561040557600080fd5b5060fb54610298906001600160a01b031681565b34801561042557600080fd5b506102ed610434366004613aa0565b610eda565b34801561044557600080fd5b506102ed6104543660046139b6565b610f7b565b34801561046557600080fd5b506102ed610474366004613782565b6110dc565b34801561048557600080fd5b506103a0610494366004613782565b6101066020526000908152604090205460ff1681565b3480156104b657600080fd5b506102ed6104c53660046139e9565b6112c2565b3480156104d657600080fd5b506102ed611440565b3480156104eb57600080fd5b506103a06104fa366004613b0c565b60fe6020526000908152604090205460ff1681565b34801561051b57600080fd5b506097546001600160a01b0316610298565b34801561053957600080fd5b5061056e610548366004613782565b61010560205260009081526040902080546001909101546001600160a01b039091169082565b604080516001600160a01b0390931683526020830191909152016102ac565b34801561059957600080fd5b506102cc6101075481565b3480156105b057600080fd5b506102cc60fc5481565b3480156105c657600080fd5b506102ed6105d5366004613b0c565b611476565b3480156105e657600080fd5b506102ed6105f5366004613782565b6114a6565b34801561060657600080fd5b5061010a54610298906001600160a01b031681565b34801561062757600080fd5b506102cc61010c5481565b6102ed61064036600461379e565b611537565b34801561065157600080fd5b506102ed610660366004613782565b611f33565b34801561067157600080fd5b506102cc610680366004613b3c565b61010b60209081526000928352604080842090915290825290205481565b3480156106aa57600080fd5b506106b361206b565b6040516102ac9190613d15565b3480156106cc57600080fd5b506103a06106db36600461398b565b61010360209081526000928352604080842090915290825290205460ff1681565b34801561070857600080fd5b506102ed610717366004613b0c565b6120cd565b34801561072857600080fd5b506103a0610737366004613782565b6101006020526000908152604090205460ff1681565b34801561075957600080fd5b5061076d610768366004613782565b612142565b6040516102ac9190613d62565b34801561078657600080fd5b506102cc6101095481565b34801561079d57600080fd5b5060fd54610298906001600160a01b031681565b3480156107bd57600080fd5b506102cc600a81565b3480156107d257600080fd5b506103a06107e1366004613782565b6001600160a01b03166000908152610106602052604090205460ff1690565b34801561080c57600080fd5b506102ed61081b366004613782565b6121b0565b34801561082c57600080fd5b506102ed61083b366004613782565b612242565b34801561084c57600080fd5b506102ed61085b366004613b60565b6122da565b600260c95414156108b85760405162461bcd60e51b815260206004820152601f60248201527f5265656e7472616e637947756172643a207265656e7472616e742063616c6c0060448201526064015b60405180910390fd5b600260c95560fc548114156109255760405162461bcd60e51b815260206004820152602d60248201527f736f7572636520616e642074617267657420636861696e20696473206d75737460448201526c08189948191a5999995c995b9d609a1b60648201526084016108af565b6000818152610101602052604090205460ff1661097a5760405162461bcd60e51b81526020600482015260136024820152721d5b9cdd5c1c1bdc9d19590818da185a5b9259606a1b60448201526064016108af565b6001600160a01b0384166000908152610106602052604090205460ff16610ae957600061010c546000146109b15761010c546109b4565b600a5b905060006127106109c58382613f1c565b6109cf9086613efd565b6109d99190613edd565b905060006109e78286613f1c565b90506109f4873387612325565b610a0187336000846124dd565b866001600160a01b03167fc210de9a5a98ab6c6b579b8d4b8003cce89c8ec3ff669ff2481d63172e00779b878460fc5460fc548961010854604051610a4b96959493929190613d75565b60405180910390a261010860008154610a6390613f5f565b909155506001600160a01b03871660009081526101036020908152604080832087845290915290205460ff16610ae1576001600160a01b0387166000818152610102602090815260408083208054600181810183559185528385200189905593835261010382528083208884529091529020805460ff191690911790555b505050610bec565b6001600160a01b03848116600081815261010560205260409081902054905163079cc67960e41b8152336004820152602481018690529216916379cc679090604401600060405180830381600087803b158015610b4557600080fd5b505af1158015610b59573d6000803e3d6000fd5b50505050806001600160a01b03167fc210de9a5a98ab6c6b579b8d4b8003cce89c8ec3ff669ff2481d63172e00779b858561010560008a6001600160a01b03166001600160a01b031681526020019081526020016000206001015460fc548761010854604051610bce96959493929190613d75565b60405180910390a261010860008154610be690613f5f565b90915550505b5050600160c9555050565b60fb546001600160a01b03163314610c215760405162461bcd60e51b81526004016108af90613dc4565b61010755565b610c30816126b0565b610c4b816040518060200160405280600081525060006126da565b50565b6101026020528160005260406000208181548110610c6b57600080fd5b90600052602060002001600091509150505481565b60ff8181548110610c9057600080fd5b6000918252602090912001546001600160a01b0316905081565b610cb3826126b0565b610cbf828260016126da565b5050565b60fb546001600160a01b03163314610ced5760405162461bcd60e51b81526004016108af90613dc4565b81518351148015610cff575080518251145b610d345760405162461bcd60e51b8152602060048201526006602482015265085a5b9c1d5d60d21b60448201526064016108af565b815160005b81811015610ed357828181518110610d6157634e487b7160e01b600052603260045260246000fd5b602002602001015161010b6000878481518110610d8e57634e487b7160e01b600052603260045260246000fd5b602002602001015181526020019081526020016000206000868481518110610dc657634e487b7160e01b600052603260045260246000fd5b60200260200101516001600160a01b03166001600160a01b03168152602001908152602001600020819055507fdf597e00478ce70575315b7d3a631155dd44024ed3cb828ecac3cb83c28ffe04858281518110610e3357634e487b7160e01b600052603260045260246000fd5b6020026020010151858381518110610e5b57634e487b7160e01b600052603260045260246000fd5b6020026020010151858481518110610e8357634e487b7160e01b600052603260045260246000fd5b602002602001015142604051610ebb94939291909384526001600160a01b039290921660208401526040830152606082015260800190565b60405180910390a1610ecc81613f5f565b9050610d39565b5050505050565b60fb546001600160a01b03163314610f045760405162461bcd60e51b81526004016108af90613dc4565b815160005b81811015610f7557826101016000868481518110610f3757634e487b7160e01b600052603260045260246000fd5b6020026020010151815260200190815260200160002060006101000a81548160ff02191690831515021790555080610f6e90613f5f565b9050610f09565b50505050565b60fb546001600160a01b03163314610fa55760405162461bcd60e51b81526004016108af90613dc4565b805160005b818110156110d7576101006000848381518110610fd757634e487b7160e01b600052603260045260246000fd5b6020908102919091018101516001600160a01b031682528101919091526040016000205460ff166110c75760ff83828151811061102457634e487b7160e01b600052603260045260246000fd5b60209081029190910181015182546001808201855560009485529284200180546001600160a01b0319166001600160a01b03909216919091179055845190916101009186908590811061108757634e487b7160e01b600052603260045260246000fd5b60200260200101516001600160a01b03166001600160a01b0316815260200190815260200160002060006101000a81548160ff0219169083151502179055505b6110d081613f5f565b9050610faa565b505050565b60fb546001600160a01b031633146111065760405162461bcd60e51b81526004016108af90613dc4565b6001600160a01b0381166000908152610100602052604090205460ff1661115e5760405162461bcd60e51b815260206004820152600c60248201526b3737ba1030b8383937bb32b960a11b60448201526064016108af565b60ff5460005b818110156110d757826001600160a01b031660ff828154811061119757634e487b7160e01b600052603260045260246000fd5b6000918252602090912001546001600160a01b031614156112b25760ff80546111c290600190613f1c565b815481106111e057634e487b7160e01b600052603260045260246000fd5b60009182526020909120015460ff80546001600160a01b03909216918390811061121a57634e487b7160e01b600052603260045260246000fd5b9060005260206000200160006101000a8154816001600160a01b0302191690836001600160a01b0316021790555060ff80548061126757634e487b7160e01b600052603160045260246000fd5b60008281526020808220830160001990810180546001600160a01b03191690559092019092556001600160a01b0385168252610100905260409020805460ff1916905550610c4b9050565b6112bb81613f5f565b9050611164565b600054610100900460ff16806112db575060005460ff16155b6112f75760405162461bcd60e51b81526004016108af90613ded565b600054610100900460ff16158015611319576000805461ffff19166101011790555b61132161285b565b61132961285b565b6113324660fc55565b60fd80546001600160a01b03191673111111111111111111111111111111111111111117905560fc54600090815261010160205260408120805460ff19166001179055600261010955610107556113916097546001600160a01b031690565b60fb80546001600160a01b0319166001600160a01b0392909216919091179055815160005b8181101561142357600161010160008684815181106113e557634e487b7160e01b600052603260045260246000fd5b6020026020010151815260200190815260200160002060006101000a81548160ff0219169083151502179055508061141c90613f5f565b90506113b6565b5050600a61010c558015610cbf576000805461ff00191690555050565b6097546001600160a01b0316331461146a5760405162461bcd60e51b81526004016108af90613e3b565b61147460006128ce565b565b60fb546001600160a01b031633146114a05760405162461bcd60e51b81526004016108af90613dc4565b61010c55565b60fb546001600160a01b031633146114d05760405162461bcd60e51b81526004016108af90613dc4565b6001600160a01b0381166115155760405162461bcd60e51b815260206004820152600c60248201526b6e756c6c206164647265737360a01b60448201526064016108af565b60fb80546001600160a01b0319166001600160a01b0392909216919091179055565b600260c954141561158a5760405162461bcd60e51b815260206004820152601f60248201527f5265656e7472616e637947756172643a207265656e7472616e742063616c6c0060448201526064016108af565b600260c955875160041480156115c95750876002815181106115bc57634e487b7160e01b600052603260045260246000fd5b602002602001015160fc54145b6116075760405162461bcd60e51b815260206004820152600f60248201526e21636861696e20696420636c61696d60881b60448201526064016108af565b60008b8b8b8b8b888888604051602001611628989796959493929190613c4b565b60408051601f198184030181529181528151602092830120600081815260fe90935291205490915060ff16156116905760405162461bcd60e51b815260206004820152600d60248201526c616c726561647920636c61696d60981b60448201526064016108af565b600081815260fe60205260409020805460ff191660011790556116b587878784612920565b6116f65760405162461bcd60e51b8152602060048201526012602482015271696e76616c6964207369676e61747572657360701b60448201526064016108af565b6116ff34612caf565b60fd546001600160a01b038d811691161415611b9d5760fc548960008151811061173957634e487b7160e01b600052603260045260246000fd5b602002602001015114611aa35760006001600160a01b031661010460008b60008151811061177757634e487b7160e01b600052603260045260246000fd5b6020026020010151815260200190815260200160002060008e6001600160a01b03166001600160a01b0316815260200190815260200160002060009054906101000a90046001600160a01b03166001600160a01b031614156119a95760006040516117e1906135b5565b604051809103906000f0801580156117fd573d6000803e3d6000fd5b509050806001600160a01b031663be88368d8e8c60008151811061183157634e487b7160e01b600052603260045260246000fd5b60200260200101518888886040518663ffffffff1660e01b815260040161185c959493929190613cc6565b600060405180830381600087803b15801561187657600080fd5b505af115801561188a573d6000803e3d6000fd5b505050508061010460008c6000815181106118b557634e487b7160e01b600052603260045260246000fd5b6020026020010151815260200190815260200160002060008f6001600160a01b03166001600160a01b0316815260200190815260200160002060006101000a8154816001600160a01b0302191690836001600160a01b0316021790555060405180604001604052808e6001600160a01b031681526020018b60008151811061194d57634e487b7160e01b600052603260045260246000fd5b6020908102919091018101519091526001600160a01b03928316600090815261010582526040808220845181546001600160a01b03191696169590951785559282015160019485015561010690915220805460ff191690911790555b6119b68a8d8b8b8f612d12565b8a6001600160a01b03168c6001600160a01b03167f91e6edd0a13d88402389ca421cdea8b8c5e72d7b05706b6488c7d0008f853a0d8c8c600081518110611a0d57634e487b7160e01b600052603260045260246000fd5b60200260200101518d600181518110611a3657634e487b7160e01b600052603260045260246000fd5b602002602001015160fc548f600381518110611a6257634e487b7160e01b600052603260045260246000fd5b60209081029190910181015160408051968752918601949094528401919091526060830152608082015260a0810185905260c00160405180910390a3611b98565b611aaf8a8d8b8e612dce565b8a6001600160a01b03168c6001600160a01b03167f91e6edd0a13d88402389ca421cdea8b8c5e72d7b05706b6488c7d0008f853a0d8c8c600081518110611b0657634e487b7160e01b600052603260045260246000fd5b60200260200101518d600181518110611b2f57634e487b7160e01b600052603260045260246000fd5b602002602001015160fc548f600381518110611b5b57634e487b7160e01b600052603260045260246000fd5b60209081029190910181015160408051968752918601949094528401919091526060830152608082015260a0810185905260c00160405180910390a35b611f20565b6001600160a01b038c1660009081526101026020526040902054611e2b5760006001600160a01b031661010460008b600081518110611bec57634e487b7160e01b600052603260045260246000fd5b6020026020010151815260200190815260200160002060008e6001600160a01b03166001600160a01b0316815260200190815260200160002060009054906101000a90046001600160a01b03166001600160a01b03161415611e1e576000604051611c56906135b5565b604051809103906000f080158015611c72573d6000803e3d6000fd5b509050806001600160a01b031663be88368d8e8c600081518110611ca657634e487b7160e01b600052603260045260246000fd5b60200260200101518888886040518663ffffffff1660e01b8152600401611cd1959493929190613cc6565b600060405180830381600087803b158015611ceb57600080fd5b505af1158015611cff573d6000803e3d6000fd5b505050508061010460008c600081518110611d2a57634e487b7160e01b600052603260045260246000fd5b6020026020010151815260200190815260200160002060008f6001600160a01b03166001600160a01b0316815260200190815260200160002060006101000a8154816001600160a01b0302191690836001600160a01b0316021790555060405180604001604052808e6001600160a01b031681526020018b600081518110611dc257634e487b7160e01b600052603260045260246000fd5b6020908102919091018101519091526001600160a01b03928316600090815261010582526040808220845181546001600160a01b03191696169590951785559282015160019485015561010690915220805460ff191690911790555b611aaf8a8d8b8b8f612d12565b611e378a8d8b8e612dce565b8a6001600160a01b03168c6001600160a01b03167f91e6edd0a13d88402389ca421cdea8b8c5e72d7b05706b6488c7d0008f853a0d8c8c600081518110611e8e57634e487b7160e01b600052603260045260246000fd5b60200260200101518d600181518110611eb757634e487b7160e01b600052603260045260246000fd5b602002602001015160fc548f600381518110611ee357634e487b7160e01b600052603260045260246000fd5b60209081029190910181015160408051968752918601949094528401919091526060830152608082015260a0810185905260c00160405180910390a35b5050600160c95550505050505050505050565b60fb546001600160a01b03163314611f5d5760405162461bcd60e51b81526004016108af90613dc4565b6001600160a01b0381166000908152610100602052604090205460ff1615611fba5760405162461bcd60e51b815260206004820152601060248201526f30b63932b0b23c9030b8383937bb32b960811b60448201526064016108af565b6001600160a01b0381166120035760405162461bcd60e51b815260206004820152601060248201526f6e6f6e207a65726f206164647265737360801b60448201526064016108af565b60ff805460018181019092557fe08ec2af2cfc251225e1968fd6ca21e4044f129bffa95bac3503be8bdb30a3670180546001600160a01b039093166001600160a01b03199093168317905560009182526101006020526040909120805460ff19169091179055565b606060ff8054806020026020016040519081016040528092919081815260200182805480156120c357602002820191906000526020600020905b81546001600160a01b031681526001909101906020018083116120a5575b5050505050905090565b60fb546001600160a01b031633146120f75760405162461bcd60e51b81526004016108af90613dc4565b600281101561213c5760405162461bcd60e51b815260206004820152601160248201527010b6b4b71039b2ba1030b8383937bb32b960791b60448201526064016108af565b61010955565b6001600160a01b038116600090815261010260209081526040918290208054835181840281018401909452808452606093928301828280156121a357602002820191906000526020600020905b81548152602001906001019080831161218f575b505050505090505b919050565b60fb546001600160a01b031633146121da5760405162461bcd60e51b81526004016108af90613dc4565b6001600160a01b03811661221f5760405162461bcd60e51b815260206004820152600c60248201526b6e756c6c206164647265737360a01b60448201526064016108af565b61010a80546001600160a01b0319166001600160a01b0392909216919091179055565b6097546001600160a01b0316331461226c5760405162461bcd60e51b81526004016108af90613e3b565b6001600160a01b0381166122d15760405162461bcd60e51b815260206004820152602660248201527f4f776e61626c653a206e6577206f776e657220697320746865207a65726f206160448201526564647265737360d01b60648201526084016108af565b610c4b816128ce565b60fb546001600160a01b031633146123045760405162461bcd60e51b81526004016108af90613dc4565b60009182526101016020526040909120805460ff1916911515919091179055565b60fd546001600160a01b0384811691161415612387578034146123825760405162461bcd60e51b81526020600482015260156024820152741a5b9d985b1a5908189c9a5919d948185b5bdd5b9d605a1b60448201526064016108af565b6110d7565b6040516370a0823160e01b815230600482015283906000906001600160a01b038316906370a082319060240160206040518083038186803b1580156123cb57600080fd5b505afa1580156123df573d6000803e3d6000fd5b505050506040513d601f19601f820116820180604052508101906124039190613b24565b905061241a6001600160a01b038316853086612e14565b6040516370a0823160e01b8152306004820152839061249f9083906001600160a01b038616906370a082319060240160206040518083038186803b15801561246157600080fd5b505afa158015612475573d6000803e3d6000fd5b505050506040513d601f19601f820116820180604052508101906124999190613b24565b90612e7f565b14610ed35760405162461bcd60e51b815260206004820152600e60248201526d217472616e736665722066726f6d60901b60448201526064016108af565b60fd546001600160a01b0385811691161415612526576125066001600160a01b03841683612e92565b61252181612512612fab565b6001600160a01b031690612e92565b610f75565b6040516370a0823160e01b815230600482015284906000906001600160a01b038316906370a082319060240160206040518083038186803b15801561256a57600080fd5b505afa15801561257e573d6000803e3d6000fd5b505050506040513d601f19601f820116820180604052508101906125a29190613b24565b905083156125be576125be6001600160a01b0383168686612fe4565b82156125e0576125e06125cf612fab565b6001600160a01b0384169085612fe4565b6125ea8385613ec5565b6040516370a0823160e01b815230600482015261266c906001600160a01b038516906370a082319060240160206040518083038186803b15801561262d57600080fd5b505afa158015612641573d6000803e3d6000fd5b505050506040513d601f19601f820116820180604052508101906126659190613b24565b8390612e7f565b146126a85760405162461bcd60e51b815260206004820152600c60248201526b217472616e7366657220746f60a01b60448201526064016108af565b505050505050565b6097546001600160a01b03163314610c4b5760405162461bcd60e51b81526004016108af90613e3b565b600061270d7f360894a13ba1a3210667c828492db98dca3e2076cc3735a920a3ca505d382bbc546001600160a01b031690565b905061271884613014565b6000835111806127255750815b156127365761273484846130b9565b505b7f4910fdfa16fed3260ed0e7147f7cc6da11a60208b5b9406d12a635614ffd9143805460ff16610ed357805460ff191660011781556040516001600160a01b03831660248201526127b590869060440160408051601f198184030181529190526020810180516001600160e01b0316631b2ce7f360e11b1790526130b9565b50805460ff191681557f360894a13ba1a3210667c828492db98dca3e2076cc3735a920a3ca505d382bbc546001600160a01b038381169116146128525760405162461bcd60e51b815260206004820152602f60248201527f45524331393637557067726164653a207570677261646520627265616b73206660448201526e75727468657220757067726164657360881b60648201526084016108af565b610ed3856131a4565b600054610100900460ff1680612874575060005460ff16155b6128905760405162461bcd60e51b81526004016108af90613ded565b600054610100900460ff161580156128b2576000805461ffff19166101011790555b6128ba6131e4565b8015610c4b576000805461ff001916905550565b609780546001600160a01b038381166001600160a01b0319831681179093556040519116919082907f8be0079c531659141344cd1fd0a4f28419497f9722a3daafe3b4186f6b6457e090600090a35050565b600060026101095410156129675760405162461bcd60e51b815260206004820152600e60248201526d216d696e20617070726f7665727360901b60448201526064016108af565b6101095460ff5410156129ad5760405162461bcd60e51b815260206004820152600e60248201526d216d696e20617070726f7665727360901b60448201526064016108af565b6000855167ffffffffffffffff8111156129d757634e487b7160e01b600052604160045260246000fd5b604051908082528060200260200182016040528015612a00578160200160208202803683370190505b509050600085518751148015612a17575084518651145b8015612a27575061010954855110155b15612c9f57865160005b81811015612c9c576040517f19457468657265756d205369676e6564204d6573736167653a0a3332000000006020820152603c8101879052600090600190605c0160405160208183030381529060405280519060200120898481518110612aa857634e487b7160e01b600052603260045260246000fd5b60200260200101518c8581518110612ad057634e487b7160e01b600052603260045260246000fd5b60200260200101518c8681518110612af857634e487b7160e01b600052603260045260246000fd5b602002602001015160405160008152602001604052604051612b36949392919093845260ff9290921660208401526040830152606082015260800190565b6020604051602081039080840390855afa158015612b58573d6000803e3d6000fd5b505060408051601f1901516001600160a01b0381166000908152610100602052919091205490925060ff16159050612c8b57600160005b85811015612bf357826001600160a01b0316878281518110612bc157634e487b7160e01b600052603260045260246000fd5b60200260200101516001600160a01b03161415612be15760009150612bf3565b80612beb81613f5f565b915050612b8f565b508015612c415781868681518110612c1b57634e487b7160e01b600052603260045260246000fd5b6001600160a01b039092166020928302919091019091015284612c3d81613f5f565b9550505b604080516001600160a01b0384168152602081018a9052428183015290517fa1164cf36cb74b65282452422c4a4b867b03edb7007d123f7546f35ea3bf762b9181900360600190a1505b50612c9581613f5f565b9050612a31565b50505b6101095411159695505050505050565b6101075415610c4b5761010754811015612cfc5760405162461bcd60e51b815260206004820152600e60248201526d216d696e20636c61696d2066656560901b60448201526064016108af565b60fb54610c4b906001600160a01b031682612e92565b610104600084600081518110612d3857634e487b7160e01b600052603260045260246000fd5b602090810291909101810151825281810192909252604090810160009081206001600160a01b0380891683529352819020549051633c03168160e11b81529116906378062d0290612d9590879085908a9089908990600401613c06565b600060405180830381600087803b158015612daf57600080fd5b505af1158015612dc3573d6000803e3d6000fd5b505050505050505050565b600080612e04868686600081518110612df757634e487b7160e01b600052603260045260246000fd5b602002602001015161324b565b915091506126a8858484846124dd565b6040516001600160a01b0380851660248301528316604482015260648101829052610f759085906323b872dd60e01b906084015b60408051601f198184030181529190526020810180516001600160e01b03166001600160e01b0319909316929092179091526132a1565b6000612e8b8284613f1c565b9392505050565b80471015612ee25760405162461bcd60e51b815260206004820152601d60248201527f416464726573733a20696e73756666696369656e742062616c616e636500000060448201526064016108af565b6000826001600160a01b03168260405160006040518083038185875af1925050503d8060008114612f2f576040519150601f19603f3d011682016040523d82523d6000602084013e612f34565b606091505b50509050806110d75760405162461bcd60e51b815260206004820152603a60248201527f416464726573733a20756e61626c6520746f2073656e642076616c75652c207260448201527f6563697069656e74206d6179206861766520726576657274656400000000000060648201526084016108af565b61010a546000906001600160a01b031615612fd25761010a546001600160a01b0316612fdf565b6097546001600160a01b03165b905090565b6040516001600160a01b0383166024820152604481018290526110d790849063a9059cbb60e01b90606401612e48565b803b6130785760405162461bcd60e51b815260206004820152602d60248201527f455243313936373a206e657720696d706c656d656e746174696f6e206973206e60448201526c1bdd08184818dbdb9d1c9858dd609a1b60648201526084016108af565b7f360894a13ba1a3210667c828492db98dca3e2076cc3735a920a3ca505d382bbc80546001600160a01b0319166001600160a01b0392909216919091179055565b6060823b6131185760405162461bcd60e51b815260206004820152602660248201527f416464726573733a2064656c65676174652063616c6c20746f206e6f6e2d636f6044820152651b9d1c9858dd60d21b60648201526084016108af565b600080846001600160a01b0316846040516131339190613bea565b600060405180830381855af49150503d806000811461316e576040519150601f19603f3d011682016040523d82523d6000602084013e613173565b606091505b509150915061319b828260405180606001604052806027815260200161578760279139613373565b95945050505050565b6131ad81613014565b6040516001600160a01b038216907fbc7cd75a20ee27fd9adebab32041f755214dbc6bffa90cc0225b39da2e5c2d3b90600090a250565b600054610100900460ff16806131fd575060005460ff16155b6132195760405162461bcd60e51b81526004016108af90613ded565b600054610100900460ff1615801561323b576000805461ffff19166101011790555b6132436133ac565b6128ba613416565b600080600061010c546000146132645761010c54613267565b600a5b90506127106132768282613f1c565b6132809088613efd565b61328a9190613edd565b92506132968387613f1c565b915050935093915050565b60006132f6826040518060400160405280602081526020017f5361666545524332303a206c6f772d6c6576656c2063616c6c206661696c6564815250856001600160a01b03166134769092919063ffffffff16565b8051909150156110d757808060200190518101906133149190613af0565b6110d75760405162461bcd60e51b815260206004820152602a60248201527f5361666545524332303a204552433230206f7065726174696f6e20646964206e6044820152691bdd081cdd58d8d9595960b21b60648201526084016108af565b60608315613382575081612e8b565b8251156133925782518084602001fd5b8160405162461bcd60e51b81526004016108af9190613db1565b600054610100900460ff16806133c5575060005460ff16155b6133e15760405162461bcd60e51b81526004016108af90613ded565b600054610100900460ff161580156128ba576000805461ffff19166101011790558015610c4b576000805461ff001916905550565b600054610100900460ff168061342f575060005460ff16155b61344b5760405162461bcd60e51b81526004016108af90613ded565b600054610100900460ff1615801561346d576000805461ffff19166101011790555b6128ba336128ce565b6060613485848460008561348d565b949350505050565b6060824710156134ee5760405162461bcd60e51b815260206004820152602660248201527f416464726573733a20696e73756666696369656e742062616c616e636520666f6044820152651c8818d85b1b60d21b60648201526084016108af565b843b61353c5760405162461bcd60e51b815260206004820152601d60248201527f416464726573733a2063616c6c20746f206e6f6e2d636f6e747261637400000060448201526064016108af565b600080866001600160a01b031685876040516135589190613bea565b60006040518083038185875af1925050503d8060008114613595576040519150601f19603f3d011682016040523d82523d6000602084013e61359a565b606091505b50915091506135aa828286613373565b979650505050505050565b6117bd80613fca83390190565b80356121ab81613fa6565b600082601f8301126135dd578081fd5b813560206135f26135ed83613ea1565b613e70565b80838252828201915082860187848660051b8901011115613611578586fd5b855b8581101561363857813561362681613fa6565b84529284019290840190600101613613565b5090979650505050505050565b600082601f830112613655578081fd5b813560206136656135ed83613ea1565b80838252828201915082860187848660051b8901011115613684578586fd5b855b8581101561363857813584529284019290840190600101613686565b600082601f8301126136b2578081fd5b813560206136c26135ed83613ea1565b80838252828201915082860187848660051b89010111156136e1578586fd5b855b85811015613638576136f482613771565b845292840192908401906001016136e3565b600082601f830112613716578081fd5b813567ffffffffffffffff81111561373057613730613f90565b613743601f8201601f1916602001613e70565b818152846020838601011115613757578283fd5b816020850160208301379081016020019190915292915050565b803560ff811681146121ab57600080fd5b600060208284031215613793578081fd5b8135612e8b81613fa6565b60008060008060008060008060008060006101608c8e0312156137bf578687fd5b6137c88c6135c2565b9a506137d660208d016135c2565b995060408c0135985067ffffffffffffffff8060608e013511156137f8578788fd5b6138088e60608f01358f01613645565b985060808d013597508060a08e01351115613821578687fd5b6138318e60a08f01358f01613645565b96508060c08e01351115613843578586fd5b6138538e60c08f01358f01613645565b95508060e08e01351115613865578485fd5b6138758e60e08f01358f016136a2565b9450806101008e01351115613888578384fd5b6138998e6101008f01358f01613706565b9350806101208e013511156138ac578283fd5b506138be8d6101208e01358e01613706565b91506138cd6101408d01613771565b90509295989b509295989b9093969950565b600080604083850312156138f1578182fd5b82356138fc81613fa6565b9150602083013567ffffffffffffffff811115613917578182fd5b61392385828601613706565b9150509250929050565b60008060008060808587031215613942578182fd5b843561394d81613fa6565b9350602085013567ffffffffffffffff811115613968578283fd5b61397487828801613706565b949794965050505060408301359260600135919050565b6000806040838503121561399d578182fd5b82356139a881613fa6565b946020939093013593505050565b6000602082840312156139c7578081fd5b813567ffffffffffffffff8111156139dd578182fd5b613485848285016135cd565b6000602082840312156139fa578081fd5b813567ffffffffffffffff811115613a10578182fd5b61348584828501613645565b600080600060608486031215613a30578081fd5b833567ffffffffffffffff80821115613a47578283fd5b613a5387838801613645565b94506020860135915080821115613a68578283fd5b613a74878388016135cd565b93506040860135915080821115613a89578283fd5b50613a9686828701613645565b9150509250925092565b60008060408385031215613ab2578182fd5b823567ffffffffffffffff811115613ac8578283fd5b613ad485828601613645565b9250506020830135613ae581613fbb565b809150509250929050565b600060208284031215613b01578081fd5b8151612e8b81613fbb565b600060208284031215613b1d578081fd5b5035919050565b600060208284031215613b35578081fd5b5051919050565b60008060408385031215613b4e578182fd5b823591506020830135613ae581613fa6565b60008060408385031215613b72578182fd5b823591506020830135613ae581613fbb565b6000815180845260208085019450808401835b83811015613bb357815187529582019590820190600101613b97565b509495945050505050565b60008151808452613bd6816020860160208601613f33565b601f01601f19169290920160200192915050565b60008251613bfc818460208701613f33565b9190910192915050565b6001600160a01b038681168252851660208201526040810184905260a060608201819052600090613c3990830185613b84565b90508260808301529695505050505050565b6001600160a01b038981168252881660208201526040810187905261010060608201819052600090613c7f83820189613b84565b905086608084015282810360a0840152613c998187613bbe565b905082810360c0840152613cad8186613bbe565b91505060ff831660e08301529998505050505050505050565b600060018060a01b038716825285602083015260a06040830152613ced60a0830186613bbe565b8281036060840152613cff8186613bbe565b91505060ff831660808301529695505050505050565b6020808252825182820181905260009190848201906040850190845b81811015613d565783516001600160a01b031683529284019291840191600101613d31565b50909695505050505050565b600060208252612e8b6020830184613b84565b600060c08252613d8860c0830189613bbe565b60208301979097525060408101949094526060840192909252608083015260a090910152919050565b600060208252612e8b6020830184613bbe565b6020808252600f908201526e216f6e6c79476f7665726e616e636560881b604082015260600190565b6020808252602e908201527f496e697469616c697a61626c653a20636f6e747261637420697320616c72656160408201526d191e481a5b9a5d1a585b1a5e995960921b606082015260800190565b6020808252818101527f4f776e61626c653a2063616c6c6572206973206e6f7420746865206f776e6572604082015260600190565b604051601f8201601f1916810167ffffffffffffffff81118282101715613e9957613e99613f90565b604052919050565b600067ffffffffffffffff821115613ebb57613ebb613f90565b5060051b60200190565b60008219821115613ed857613ed8613f7a565b500190565b600082613ef857634e487b7160e01b81526012600452602481fd5b500490565b6000816000190483118215151615613f1757613f17613f7a565b500290565b600082821015613f2e57613f2e613f7a565b500390565b60005b83811015613f4e578181015183820152602001613f36565b83811115610f755750506000910152565b6000600019821415613f7357613f73613f7a565b5060010190565b634e487b7160e01b600052601160045260246000fd5b634e487b7160e01b600052604160045260246000fd5b6001600160a01b0381168114610c4b57600080fd5b8015158114610c4b57600080fdfe608060405234801561001057600080fd5b5061179d806100206000396000f3fe608060405234801561001057600080fd5b50600436106101425760003560e01c806379cc6790116100b85780639a8a05921161007c5780639a8a05921461029f578063a457c2d7146102a8578063a9059cbb146102bb578063be88368d146102ce578063dd62ed3e146102e1578063f2fde38b1461031a57610142565b806379cc6790146102255780637a4f7d79146102385780638d68fdc8146102635780638da5cb5b1461028657806395d89b411461029757610142565b8063313ce5671161010a578063313ce567146101ba57806339509351146101cf57806342966c68146101e257806370a08231146101f7578063715018a61461020a57806378062d021461021257610142565b806306fdde0314610147578063095ea7b3146101655780630ac7f5611461018857806318160ddd1461019f57806323b872dd146101a7575b600080fd5b61014f61032d565b60405161015c919061160a565b60405180910390f35b61017861017336600461143e565b6103bf565b604051901515815260200161015c565b61019160cc5481565b60405190815260200161015c565b603554610191565b6101786101b5366004611328565b6103d5565b60cd5460405160ff909116815260200161015c565b6101786101dd36600461143e565b610484565b6101f56101f03660046114fc565b6104c0565b005b6101916102053660046112d5565b6104cd565b6101f56104ec565b6101f5610220366004611363565b610522565b6101f561023336600461143e565b610762565b60cb5461024b906001600160a01b031681565b6040516001600160a01b03909116815260200161015c565b6101786102713660046114fc565b60ca6020526000908152604090205460ff1681565b6097546001600160a01b031661024b565b61014f6107e8565b61019160c95481565b6101786102b636600461143e565b6107f7565b6101786102c936600461143e565b610890565b6101f56102dc366004611467565b61089d565b6101916102ef3660046112f6565b6001600160a01b03918216600090815260346020908152604080832093909416825291909152205490565b6101f56103283660046112d5565b610957565b60606036805461033c90611700565b80601f016020809104026020016040519081016040528092919081815260200182805461036890611700565b80156103b55780601f1061038a576101008083540402835291602001916103b5565b820191906000526020600020905b81548152906001019060200180831161039857829003601f168201915b5050505050905090565b60006103cc3384846109ef565b50600192915050565b60006103e2848484610b13565b6001600160a01b03841660009081526034602090815260408083203384529091529020548281101561046c5760405162461bcd60e51b815260206004820152602860248201527f45524332303a207472616e7366657220616d6f756e74206578636565647320616044820152676c6c6f77616e636560c01b60648201526084015b60405180910390fd5b61047985338584036109ef565b506001949350505050565b3360008181526034602090815260408083206001600160a01b038716845290915281205490916103cc9185906104bb9086906116d1565b6109ef565b6104ca3382610ce2565b50565b6001600160a01b0381166000908152603360205260409020545b919050565b6097546001600160a01b031633146105165760405162461bcd60e51b81526004016104639061166b565b6105206000610e30565b565b6097546001600160a01b0316331461054c5760405162461bcd60e51b81526004016104639061166b565b81516004146105965760405162461bcd60e51b8152602060048201526016602482015275042bec6d0c2d2dc92c8e692dcc8caf05cd8cadccee8d60531b6044820152606401610463565b60cb546001600160a01b038681169116146105eb5760405162461bcd60e51b8152602060048201526015602482015274216f726967696e616c546f6b656e4164647265737360581b6044820152606401610463565b60c9548260028151811061060f57634e487b7160e01b600052603260045260246000fd5b6020026020010151146106575760405162461bcd60e51b815260206004820152601060248201526f085a5b9d985b1a590818da185a5b925960821b6044820152606401610463565b6001600160a01b03841661069b5760405162461bcd60e51b815260206004820152600b60248201526a21696e76616c696420746f60a81b6044820152606401610463565b600085858585856106aa61032d565b6106b26107e8565b60cd5460ff166040516020016106cf98979695949392919061155f565b60408051601f198184030181529181528151602092830120600081815260ca90935291205490915060ff16156107375760405162461bcd60e51b815260206004820152600d60248201526c616c726561647920636c61696d60981b6044820152606401610463565b600081815260ca60205260409020805460ff1916600117905561075a8585610e82565b505050505050565b600061076e83336102ef565b9050818110156107cc5760405162461bcd60e51b8152602060048201526024808201527f45524332303a206275726e20616d6f756e74206578636565647320616c6c6f77604482015263616e636560e01b6064820152608401610463565b6107d983338484036109ef565b6107e38383610ce2565b505050565b60606037805461033c90611700565b3360009081526034602090815260408083206001600160a01b0386168452909152812054828110156108795760405162461bcd60e51b815260206004820152602560248201527f45524332303a2064656372656173656420616c6c6f77616e63652062656c6f77604482015264207a65726f60d81b6064820152608401610463565b61088633858584036109ef565b5060019392505050565b60006103cc338484610b13565b600054610100900460ff16806108b6575060005460ff16155b6108d25760405162461bcd60e51b81526004016104639061161d565b600054610100900460ff161580156108f4576000805461ffff19166101011790555b6108fc610f61565b6109054660c955565b61090f8484610fdc565b60cd805460ff191660ff841617905560cb80546001600160a01b0319166001600160a01b03881617905560cc859055801561075a576000805461ff0019169055505050505050565b6097546001600160a01b031633146109815760405162461bcd60e51b81526004016104639061166b565b6001600160a01b0381166109e65760405162461bcd60e51b815260206004820152602660248201527f4f776e61626c653a206e6577206f776e657220697320746865207a65726f206160448201526564647265737360d01b6064820152608401610463565b6104ca81610e30565b6001600160a01b038316610a515760405162461bcd60e51b8152602060048201526024808201527f45524332303a20617070726f76652066726f6d20746865207a65726f206164646044820152637265737360e01b6064820152608401610463565b6001600160a01b038216610ab25760405162461bcd60e51b815260206004820152602260248201527f45524332303a20617070726f766520746f20746865207a65726f206164647265604482015261737360f01b6064820152608401610463565b6001600160a01b0383811660008181526034602090815260408083209487168084529482529182902085905590518481527f8c5be1e5ebec7d5bd14f71427d1e84f3dd0314c0f7b2291e5b200ac8c7c3b925910160405180910390a3505050565b6001600160a01b038316610b775760405162461bcd60e51b815260206004820152602560248201527f45524332303a207472616e736665722066726f6d20746865207a65726f206164604482015264647265737360d81b6064820152608401610463565b6001600160a01b038216610bd95760405162461bcd60e51b815260206004820152602360248201527f45524332303a207472616e7366657220746f20746865207a65726f206164647260448201526265737360e81b6064820152608401610463565b6001600160a01b03831660009081526033602052604090205481811015610c515760405162461bcd60e51b815260206004820152602660248201527f45524332303a207472616e7366657220616d6f756e7420657863656564732062604482015265616c616e636560d01b6064820152608401610463565b6001600160a01b03808516600090815260336020526040808220858503905591851681529081208054849290610c889084906116d1565b92505081905550826001600160a01b0316846001600160a01b03167fddf252ad1be2c89b69c2b068fc378daa952ba7f163c4a11628f55a4df523b3ef84604051610cd491815260200190565b60405180910390a350505050565b6001600160a01b038216610d425760405162461bcd60e51b815260206004820152602160248201527f45524332303a206275726e2066726f6d20746865207a65726f206164647265736044820152607360f81b6064820152608401610463565b6001600160a01b03821660009081526033602052604090205481811015610db65760405162461bcd60e51b815260206004820152602260248201527f45524332303a206275726e20616d6f756e7420657863656564732062616c616e604482015261636560f01b6064820152608401610463565b6001600160a01b0383166000908152603360205260408120838303905560358054849290610de59084906116e9565b90915550506040518281526000906001600160a01b038516907fddf252ad1be2c89b69c2b068fc378daa952ba7f163c4a11628f55a4df523b3ef9060200160405180910390a36107e3565b609780546001600160a01b038381166001600160a01b0319831681179093556040519116919082907f8be0079c531659141344cd1fd0a4f28419497f9722a3daafe3b4186f6b6457e090600090a35050565b6001600160a01b038216610ed85760405162461bcd60e51b815260206004820152601f60248201527f45524332303a206d696e7420746f20746865207a65726f2061646472657373006044820152606401610463565b8060356000828254610eea91906116d1565b90915550506001600160a01b03821660009081526033602052604081208054839290610f179084906116d1565b90915550506040518181526001600160a01b038316906000907fddf252ad1be2c89b69c2b068fc378daa952ba7f163c4a11628f55a4df523b3ef9060200160405180910390a35050565b600054610100900460ff1680610f7a575060005460ff16155b610f965760405162461bcd60e51b81526004016104639061161d565b600054610100900460ff16158015610fb8576000805461ffff19166101011790555b610fc061105b565b610fc86110c5565b80156104ca576000805461ff001916905550565b600054610100900460ff1680610ff5575060005460ff16155b6110115760405162461bcd60e51b81526004016104639061161d565b600054610100900460ff16158015611033576000805461ffff19166101011790555b61103b61105b565b6110458383611125565b80156107e3576000805461ff0019169055505050565b600054610100900460ff1680611074575060005460ff16155b6110905760405162461bcd60e51b81526004016104639061161d565b600054610100900460ff16158015610fc8576000805461ffff191661010117905580156104ca576000805461ff001916905550565b600054610100900460ff16806110de575060005460ff16155b6110fa5760405162461bcd60e51b81526004016104639061161d565b600054610100900460ff1615801561111c576000805461ffff19166101011790555b610fc833610e30565b600054610100900460ff168061113e575060005460ff16155b61115a5760405162461bcd60e51b81526004016104639061161d565b600054610100900460ff1615801561117c576000805461ffff19166101011790555b825161118f9060369060208601906111ba565b5081516111a39060379060208501906111ba565b5080156107e3576000805461ff0019169055505050565b8280546111c690611700565b90600052602060002090601f0160209004810192826111e8576000855561122e565b82601f1061120157805160ff191683800117855561122e565b8280016001018555821561122e579182015b8281111561122e578251825591602001919060010190611213565b5061123a92915061123e565b5090565b5b8082111561123a576000815560010161123f565b80356001600160a01b03811681146104e757600080fd5b600082601f83011261127a578081fd5b813567ffffffffffffffff81111561129457611294611751565b6112a7601f8201601f19166020016116a0565b8181528460208386010111156112bb578283fd5b816020850160208301379081016020019190915292915050565b6000602082840312156112e6578081fd5b6112ef82611253565b9392505050565b60008060408385031215611308578081fd5b61131183611253565b915061131f60208401611253565b90509250929050565b60008060006060848603121561133c578081fd5b61134584611253565b925061135360208501611253565b9150604084013590509250925092565b600080600080600060a0868803121561137a578081fd5b61138386611253565b94506020611392818801611253565b945060408701359350606087013567ffffffffffffffff808211156113b5578384fd5b818901915089601f8301126113c8578384fd5b8135818111156113da576113da611751565b8060051b91506113eb8483016116a0565b8181528481019084860184860187018e1015611405578788fd5b8795505b83861015611427578035835260019590950194918601918601611409565b50999c989b50969960800135979650505050505050565b60008060408385031215611450578182fd5b61145983611253565b946020939093013593505050565b600080600080600060a0868803121561147e578081fd5b61148786611253565b945060208601359350604086013567ffffffffffffffff808211156114aa578283fd5b6114b689838a0161126a565b945060608801359150808211156114cb578283fd5b506114d88882890161126a565b925050608086013560ff811681146114ee578182fd5b809150509295509295909350565b60006020828403121561150d578081fd5b5035919050565b60008151808452815b818110156115395760208185018101518683018201520161151d565b8181111561154a5782602083870101525b50601f01601f19169290920160200192915050565b6001600160a01b03898116825288166020808301919091526040820188905261010060608301819052875190830181905260009161012084019189820191845b828110156115bb5783518552938101939281019260010161159f565b5050505086608084015282810360a08401526115d78187611514565b905082810360c08401526115eb8186611514565b9150506115fd60e083018460ff169052565b9998505050505050505050565b6000602082526112ef6020830184611514565b6020808252602e908201527f496e697469616c697a61626c653a20636f6e747261637420697320616c72656160408201526d191e481a5b9a5d1a585b1a5e995960921b606082015260800190565b6020808252818101527f4f776e61626c653a2063616c6c6572206973206e6f7420746865206f776e6572604082015260600190565b604051601f8201601f1916810167ffffffffffffffff811182821017156116c9576116c9611751565b604052919050565b600082198211156116e4576116e461173b565b500190565b6000828210156116fb576116fb61173b565b500390565b600181811c9082168061171457607f821691505b6020821081141561173557634e487b7160e01b600052602260045260246000fd5b50919050565b634e487b7160e01b600052601160045260246000fd5b634e487b7160e01b600052604160045260246000fdfea2646970667358221220f1baad48d499ee8930d1919fc8390944bf4f0f021dc612b67a9bad4a069750a364736f6c63430008030033416464726573733a206c6f772d6c6576656c2064656c65676174652063616c6c206661696c6564a26469706673582212207db269a2337e9d3ae7a469a3d87f505b9fcc8121f90289def086608677363a2664736f6c63430008030033",
  "linkReferences": {},
  "deployedLinkReferences": {}
}