{
  "_format": "hh-sol-artifact-1",
  "contractName": "CheckNftType",
  "sourceName": "contracts/generic/CheckNftType.sol",
  "abi": [
    {
      "inputs": [],
      "name": "IID_ICHECK",
      "outputs": [
        {
          "internalType": "bytes4",
          "name": "",
          "type": "bytes4"
        }
      ],
      "stateMutability": "view",
      "type": "function"
    },
    {
      "inputs": [],
      "name": "IID_IERC1155",
      "outputs": [
        {
          "internalType": "bytes4",
          "name": "",
          "type": "bytes4"
        }
      ],
      "stateMutability": "view",
      "type": "function"
    },
    {
      "inputs": [],
      "name": "IID_IERC165",
      "outputs": [
        {
          "internalType": "bytes4",
          "name": "",
          "type": "bytes4"
        }
      ],
      "stateMutability": "view",
      "type": "function"
    },
    {
      "inputs": [],
      "name": "IID_IERC721",
      "outputs": [
        {
          "internalType": "bytes4",
          "name": "",
          "type": "bytes4"
        }
      ],
      "stateMutability": "view",
      "type": "function"
    },
    {
      "inputs": [
        {
          "internalType": "address",
          "name": "nftAddress",
          "type": "address"
        }
      ],
      "name": "isERC1155",
      "outputs": [
        {
          "internalType": "bool",
          "name": "",
          "type": "bool"
        }
      ],
      "stateMutability": "view",
      "type": "function"
    },
    {
      "inputs": [
        {
          "internalType": "address",
          "name": "nftAddress",
          "type": "address"
        }
      ],
      "name": "isERC721",
      "outputs": [
        {
          "internalType": "bool",
          "name": "",
          "type": "bool"
        }
      ],
      "stateMutability": "view",
      "type": "function"
    },
    {
      "inputs": [
        {
          "internalType": "bytes4",
          "name": "interfaceId",
          "type": "bytes4"
        }
      ],
      "name": "supportsInterface",
      "outputs": [
        {
          "internalType": "bool",
          "name": "",
          "type": "bool"
        }
      ],
      "stateMutability": "view",
      "type": "function"
    }
  ],
  "bytecode": "0x608060405234801561001057600080fd5b506103a9806100206000396000f3fe608060405234801561001057600080fd5b506004361061007d5760003560e01c8063a40278381161005b578063a4027838146100e4578063daa09e54146100f2578063e0966dad14610105578063e4b74463146101135761007d565b806301ffc9a714610082578063282e460a146100aa5780639b8cfe52146100bd575b600080fd5b610095610090366004610312565b610121565b60405190151581526020015b60405180910390f35b6100956100b83660046102cb565b610158565b6100cb636cdb3d1360e11b81565b6040516001600160e01b031990911681526020016100a1565b6100cb6301ffc9a760e01b81565b6100956101003660046102cb565b610174565b6100cb6380ac58cd60e01b81565b6100cb6379476c2f60e11b81565b60006001600160e01b031982166379476c2f60e11b148061015257506001600160e01b031982166301ffc9a760e01b145b92915050565b60006101526001600160a01b038316636cdb3d1360e11b61018c565b60006101526001600160a01b0383166380ac58cd60e01b5b6000610197836101af565b80156101a857506101a883836101e2565b9392505050565b60006101c2826301ffc9a760e01b6101e2565b801561015257506101db826001600160e01b03196101e2565b1592915050565b604080516001600160e01b0319831660248083019190915282518083039091018152604490910182526020810180516001600160e01b03166301ffc9a760e01b179052905160009190829081906001600160a01b038716906175309061024990869061033a565b6000604051808303818686fa925050503d8060008114610285576040519150601f19603f3d011682016040523d82523d6000602084013e61028a565b606091505b50915091506020815110156102a55760009350505050610152565b8180156102c15750808060200190518101906102c191906102f2565b9695505050505050565b6000602082840312156102dc578081fd5b81356001600160a01b03811681146101a8578182fd5b600060208284031215610303578081fd5b815180151581146101a8578182fd5b600060208284031215610323578081fd5b81356001600160e01b0319811681146101a8578182fd5b60008251815b8181101561035a5760208186018101518583015201610340565b818111156103685782828501525b50919091019291505056fea264697066735822122044b09e14b808b3ceae7b8c5298b618c21199b2b666b22b7ef235de59165f317d64736f6c63430008030033",
  "linkReferences": {},
  "deployedLinkReferences": {}
}