{
  "_format": "hh-sol-artifact-1",
  "contractName": "Bridge",
  "sourceName": "contracts/dto/Bridge.sol",
  "abi": [
    {
      "inputs": [
        {
          "internalType": "address",
          "name": "_bridgeApprover",
          "type": "address"
        },
        {
          "internalType": "address",
          "name": "_tokenAddress",
          "type": "address"
        }
      ],
      "stateMutability": "nonpayable",
      "type": "constructor"
    },
    {
      "anonymous": false,
      "inputs": [
        {
          "indexed": true,
          "internalType": "address",
          "name": "previousOwner",
          "type": "address"
        },
        {
          "indexed": true,
          "internalType": "address",
          "name": "newOwner",
          "type": "address"
        }
      ],
      "name": "OwnershipTransferred",
      "type": "event"
    },
    {
      "anonymous": false,
      "inputs": [
        {
          "indexed": true,
          "internalType": "address",
          "name": "_addr",
          "type": "address"
        },
        {
          "indexed": true,
          "internalType": "uint256",
          "name": "_amount",
          "type": "uint256"
        },
        {
          "indexed": false,
          "internalType": "uint256",
          "name": "_fromChainId",
          "type": "uint256"
        },
        {
          "indexed": false,
          "internalType": "uint256",
          "name": "_toChainId",
          "type": "uint256"
        }
      ],
      "name": "RequestBridge",
      "type": "event"
    },
    {
      "inputs": [],
      "name": "bridgeApprover",
      "outputs": [
        {
          "internalType": "address",
          "name": "",
          "type": "address"
        }
      ],
      "stateMutability": "view",
      "type": "function"
    },
    {
      "inputs": [],
      "name": "chainId",
      "outputs": [
        {
          "internalType": "uint256",
          "name": "",
          "type": "uint256"
        }
      ],
      "stateMutability": "view",
      "type": "function"
    },
    {
      "inputs": [
        {
          "internalType": "address",
          "name": "_to",
          "type": "address"
        },
        {
          "internalType": "uint256",
          "name": "_amount",
          "type": "uint256"
        },
        {
          "internalType": "uint256",
          "name": "_chainId",
          "type": "uint256"
        },
        {
          "internalType": "bytes32",
          "name": "_claimData",
          "type": "bytes32"
        },
        {
          "internalType": "bytes32",
          "name": "r",
          "type": "bytes32"
        },
        {
          "internalType": "bytes32",
          "name": "s",
          "type": "bytes32"
        },
        {
          "internalType": "uint8",
          "name": "v",
          "type": "uint8"
        }
      ],
      "name": "claimToken",
      "outputs": [],
      "stateMutability": "nonpayable",
      "type": "function"
    },
    {
      "inputs": [],
      "name": "owner",
      "outputs": [
        {
          "internalType": "address",
          "name": "",
          "type": "address"
        }
      ],
      "stateMutability": "view",
      "type": "function"
    },
    {
      "inputs": [],
      "name": "renounceOwnership",
      "outputs": [],
      "stateMutability": "nonpayable",
      "type": "function"
    },
    {
      "inputs": [
        {
          "internalType": "uint256",
          "name": "_amount",
          "type": "uint256"
        },
        {
          "internalType": "uint256",
          "name": "_toChainId",
          "type": "uint256"
        }
      ],
      "name": "requestBridge",
      "outputs": [],
      "stateMutability": "nonpayable",
      "type": "function"
    },
    {
      "inputs": [
        {
          "internalType": "address",
          "name": "_addr",
          "type": "address"
        }
      ],
      "name": "setApprover",
      "outputs": [],
      "stateMutability": "nonpayable",
      "type": "function"
    },
    {
      "inputs": [
        {
          "internalType": "uint256",
          "name": "_chainId",
          "type": "uint256"
        },
        {
          "internalType": "bool",
          "name": "_val",
          "type": "bool"
        }
      ],
      "name": "setSupportedChainId",
      "outputs": [],
      "stateMutability": "nonpayable",
      "type": "function"
    },
    {
      "inputs": [
        {
          "internalType": "address",
          "name": "_addr",
          "type": "address"
        }
      ],
      "name": "setTokenAddress",
      "outputs": [],
      "stateMutability": "nonpayable",
      "type": "function"
    },
    {
      "inputs": [
        {
          "internalType": "uint256",
          "name": "",
          "type": "uint256"
        }
      ],
      "name": "supportedChainIds",
      "outputs": [
        {
          "internalType": "bool",
          "name": "",
          "type": "bool"
        }
      ],
      "stateMutability": "view",
      "type": "function"
    },
    {
      "inputs": [],
      "name": "tokenAddress",
      "outputs": [
        {
          "internalType": "address",
          "name": "",
          "type": "address"
        }
      ],
      "stateMutability": "view",
      "type": "function"
    },
    {
      "inputs": [
        {
          "internalType": "address",
          "name": "newOwner",
          "type": "address"
        }
      ],
      "name": "transferOwnership",
      "outputs": [],
      "stateMutability": "nonpayable",
      "type": "function"
    }
  ],
  "bytecode": "0x608060405234801561001057600080fd5b506040516109b23803806109b283398101604081905261002f916100f9565b6100383361008d565b600180546001600160a01b039384166001600160a01b0319918216178255466002819055600480549490951693909116929092179092556000908152600360205260409020805460ff1916909117905561012b565b600080546001600160a01b038381166001600160a01b0319831681178455604051919092169283917f8be0079c531659141344cd1fd0a4f28419497f9722a3daafe3b4186f6b6457e09190a35050565b80516001600160a01b03811681146100f457600080fd5b919050565b6000806040838503121561010b578182fd5b610114836100dd565b9150610122602084016100dd565b90509250929050565b6108788061013a6000396000f3fe608060405234801561001057600080fd5b50600436106100b45760003560e01c80638da5cb5b116100715780638da5cb5b1461014757806398cddf721461016c5780639a8a05921461017f5780639d76ea5814610196578063f2fde38b146101a9578063ffb2efb8146101bc576100b4565b80631efc1b12146100b957806326a4e8d2146100ce5780633156560e146100e15780634c537846146100f45780634cf2ab3214610107578063715018a61461013f575b600080fd5b6100cc6100c73660046107ec565b6101cf565b005b6100cc6100dc366004610715565b610339565b6100cc6100ef366004610715565b610385565b6100cc610102366004610736565b6103d1565b61012a6101153660046107a1565b60036020526000908152604090205460ff1681565b60405190151581526020015b60405180910390f35b6100cc61058e565b6000546001600160a01b03165b6040516001600160a01b039091168152602001610136565b600154610154906001600160a01b031681565b61018860025481565b604051908152602001610136565b600454610154906001600160a01b031681565b6100cc6101b7366004610715565b6105c4565b6100cc6101ca3660046107b9565b61065f565b80600254141561023c5760405162461bcd60e51b815260206004820152602d60248201527f736f7572636520616e642074617267657420636861696e20696473206d75737460448201526c08189948191a5999995c995b9d609a1b60648201526084015b60405180910390fd5b60008181526003602052604090205460ff166102905760405162461bcd60e51b81526020600482015260136024820152721d5b9cdd5c1c1bdc9d19590818da185a5b9259606a1b6044820152606401610233565b60048054604051639b07c11760e01b81523392810192909252602482018490526001600160a01b031690639b07c11790604401600060405180830381600087803b1580156102dd57600080fd5b505af11580156102f1573d6000803e3d6000fd5b505060025460408051918252602082018590528593503392507f62ebfda6e395c4235cc1b8d5bf149dffe3545c248deb5e1c1c48eb8026387bb2910160405180910390a35050565b6000546001600160a01b031633146103635760405162461bcd60e51b81526004016102339061080d565b600480546001600160a01b0319166001600160a01b0392909216919091179055565b6000546001600160a01b031633146103af5760405162461bcd60e51b81526004016102339061080d565b600180546001600160a01b0319166001600160a01b0392909216919091179055565b604080516001600160a01b0389166020820152908101879052606081018690526080810185905260009060a00160408051808303601f19018152908290528051602091820120600180547f19457468657265756d205369676e6564204d6573736167653a0a33320000000093850193909352603c84018290529093506001600160a01b0390911691605c0160408051601f198184030181528282528051602091820120600084529083018083525260ff861690820152606081018790526080810186905260a0016020604051602081039080840390855afa1580156104ba573d6000803e3d6000fd5b505050602060405103516001600160a01b03161461050e5760405162461bcd60e51b8152602060048201526011602482015270696e76616c6964207369676e617475726560781b6044820152606401610233565b6004805460405163c605a7bd60e01b81526001600160a01b038b811693820193909352602481018a9052604481018990526064810184905291169063c605a7bd90608401600060405180830381600087803b15801561056c57600080fd5b505af1158015610580573d6000803e3d6000fd5b505050505050505050505050565b6000546001600160a01b031633146105b85760405162461bcd60e51b81526004016102339061080d565b6105c260006106a9565b565b6000546001600160a01b031633146105ee5760405162461bcd60e51b81526004016102339061080d565b6001600160a01b0381166106535760405162461bcd60e51b815260206004820152602660248201527f4f776e61626c653a206e6577206f776e657220697320746865207a65726f206160448201526564647265737360d01b6064820152608401610233565b61065c816106a9565b50565b6000546001600160a01b031633146106895760405162461bcd60e51b81526004016102339061080d565b600091825260036020526040909120805460ff1916911515919091179055565b600080546001600160a01b038381166001600160a01b0319831681178455604051919092169283917f8be0079c531659141344cd1fd0a4f28419497f9722a3daafe3b4186f6b6457e09190a35050565b80356001600160a01b038116811461071057600080fd5b919050565b600060208284031215610726578081fd5b61072f826106f9565b9392505050565b600080600080600080600060e0888a031215610750578283fd5b610759886106f9565b96506020880135955060408801359450606088013593506080880135925060a0880135915060c088013560ff81168114610791578182fd5b8091505092959891949750929550565b6000602082840312156107b2578081fd5b5035919050565b600080604083850312156107cb578182fd5b82359150602083013580151581146107e1578182fd5b809150509250929050565b600080604083850312156107fe578182fd5b50508035926020909101359150565b6020808252818101527f4f776e61626c653a2063616c6c6572206973206e6f7420746865206f776e657260408201526060019056fea264697066735822122064358aea47d8e6bc1cfdaf4c635ef52d4ec34a908b963406ee601db0e8a2767f64736f6c63430008030033",
  "linkReferences": {},
  "deployedLinkReferences": {}
}