{
  "_format": "hh-sol-artifact-1",
  "contractName": "DTOBridgeNFT1155",
  "sourceName": "contracts/generic/DTOBridgeNFT1155.sol",
  "abi": [
    {
      "anonymous": false,
      "inputs": [
        {
          "indexed": true,
          "internalType": "address",
          "name": "account",
          "type": "address"
        },
        {
          "indexed": true,
          "internalType": "address",
          "name": "operator",
          "type": "address"
        },
        {
          "indexed": false,
          "internalType": "bool",
          "name": "approved",
          "type": "bool"
        }
      ],
      "name": "ApprovalForAll",
      "type": "event"
    },
    {
      "anonymous": false,
      "inputs": [
        {
          "indexed": true,
          "internalType": "address",
          "name": "previousOwner",
          "type": "address"
        },
        {
          "indexed": true,
          "internalType": "address",
          "name": "newOwner",
          "type": "address"
        }
      ],
      "name": "OwnershipTransferred",
      "type": "event"
    },
    {
      "anonymous": false,
      "inputs": [
        {
          "indexed": true,
          "internalType": "address",
          "name": "operator",
          "type": "address"
        },
        {
          "indexed": true,
          "internalType": "address",
          "name": "from",
          "type": "address"
        },
        {
          "indexed": true,
          "internalType": "address",
          "name": "to",
          "type": "address"
        },
        {
          "indexed": false,
          "internalType": "uint256[]",
          "name": "ids",
          "type": "uint256[]"
        },
        {
          "indexed": false,
          "internalType": "uint256[]",
          "name": "values",
          "type": "uint256[]"
        }
      ],
      "name": "TransferBatch",
      "type": "event"
    },
    {
      "anonymous": false,
      "inputs": [
        {
          "indexed": true,
          "internalType": "address",
          "name": "operator",
          "type": "address"
        },
        {
          "indexed": true,
          "internalType": "address",
          "name": "from",
          "type": "address"
        },
        {
          "indexed": true,
          "internalType": "address",
          "name": "to",
          "type": "address"
        },
        {
          "indexed": false,
          "internalType": "uint256",
          "name": "id",
          "type": "uint256"
        },
        {
          "indexed": false,
          "internalType": "uint256",
          "name": "value",
          "type": "uint256"
        }
      ],
      "name": "TransferSingle",
      "type": "event"
    },
    {
      "anonymous": false,
      "inputs": [
        {
          "indexed": false,
          "internalType": "string",
          "name": "value",
          "type": "string"
        },
        {
          "indexed": true,
          "internalType": "uint256",
          "name": "id",
          "type": "uint256"
        }
      ],
      "name": "URI",
      "type": "event"
    },
    {
      "inputs": [
        {
          "internalType": "bytes32",
          "name": "",
          "type": "bytes32"
        }
      ],
      "name": "alreadyClaims",
      "outputs": [
        {
          "internalType": "bool",
          "name": "",
          "type": "bool"
        }
      ],
      "stateMutability": "view",
      "type": "function"
    },
    {
      "inputs": [
        {
          "internalType": "address",
          "name": "account",
          "type": "address"
        },
        {
          "internalType": "uint256",
          "name": "id",
          "type": "uint256"
        }
      ],
      "name": "balanceOf",
      "outputs": [
        {
          "internalType": "uint256",
          "name": "",
          "type": "uint256"
        }
      ],
      "stateMutability": "view",
      "type": "function"
    },
    {
      "inputs": [
        {
          "internalType": "address[]",
          "name": "accounts",
          "type": "address[]"
        },
        {
          "internalType": "uint256[]",
          "name": "ids",
          "type": "uint256[]"
        }
      ],
      "name": "balanceOfBatch",
      "outputs": [
        {
          "internalType": "uint256[]",
          "name": "",
          "type": "uint256[]"
        }
      ],
      "stateMutability": "view",
      "type": "function"
    },
    {
      "inputs": [
        {
          "internalType": "address",
          "name": "account",
          "type": "address"
        },
        {
          "internalType": "uint256",
          "name": "id",
          "type": "uint256"
        },
        {
          "internalType": "uint256",
          "name": "value",
          "type": "uint256"
        }
      ],
      "name": "burn",
      "outputs": [],
      "stateMutability": "nonpayable",
      "type": "function"
    },
    {
      "inputs": [
        {
          "internalType": "address",
          "name": "account",
          "type": "address"
        },
        {
          "internalType": "uint256[]",
          "name": "ids",
          "type": "uint256[]"
        },
        {
          "internalType": "uint256[]",
          "name": "values",
          "type": "uint256[]"
        }
      ],
      "name": "burnBatch",
      "outputs": [],
      "stateMutability": "nonpayable",
      "type": "function"
    },
    {
      "inputs": [],
      "name": "chainId",
      "outputs": [
        {
          "internalType": "uint256",
          "name": "",
          "type": "uint256"
        }
      ],
      "stateMutability": "view",
      "type": "function"
    },
    {
      "inputs": [
        {
          "internalType": "address",
          "name": "_originToken",
          "type": "address"
        },
        {
          "internalType": "address",
          "name": "_to",
          "type": "address"
        },
        {
          "internalType": "uint256",
          "name": "_id",
          "type": "uint256"
        },
        {
          "internalType": "uint256",
          "name": "_amount",
          "type": "uint256"
        },
        {
          "internalType": "uint256[]",
          "name": "_chainIdsIndex",
          "type": "uint256[]"
        },
        {
          "internalType": "bytes32",
          "name": "_txHash",
          "type": "bytes32"
        },
        {
          "internalType": "bytes",
          "name": "_data",
          "type": "bytes"
        }
      ],
      "name": "claimBridgeToken",
      "outputs": [],
      "stateMutability": "nonpayable",
      "type": "function"
    },
    {
      "inputs": [
        {
          "internalType": "address",
          "name": "_originalTokenAddress",
          "type": "address"
        },
        {
          "internalType": "uint256",
          "name": "_originChainId",
          "type": "uint256"
        },
        {
          "internalType": "string",
          "name": "_tokenURI",
          "type": "string"
        }
      ],
      "name": "initialize",
      "outputs": [],
      "stateMutability": "nonpayable",
      "type": "function"
    },
    {
      "inputs": [
        {
          "internalType": "address",
          "name": "account",
          "type": "address"
        },
        {
          "internalType": "address",
          "name": "operator",
          "type": "address"
        }
      ],
      "name": "isApprovedForAll",
      "outputs": [
        {
          "internalType": "bool",
          "name": "",
          "type": "bool"
        }
      ],
      "stateMutability": "view",
      "type": "function"
    },
    {
      "inputs": [],
      "name": "originChainId",
      "outputs": [
        {
          "internalType": "uint256",
          "name": "",
          "type": "uint256"
        }
      ],
      "stateMutability": "view",
      "type": "function"
    },
    {
      "inputs": [],
      "name": "originalTokenAddress",
      "outputs": [
        {
          "internalType": "address",
          "name": "",
          "type": "address"
        }
      ],
      "stateMutability": "view",
      "type": "function"
    },
    {
      "inputs": [],
      "name": "owner",
      "outputs": [
        {
          "internalType": "address",
          "name": "",
          "type": "address"
        }
      ],
      "stateMutability": "view",
      "type": "function"
    },
    {
      "inputs": [],
      "name": "renounceOwnership",
      "outputs": [],
      "stateMutability": "nonpayable",
      "type": "function"
    },
    {
      "inputs": [
        {
          "internalType": "address",
          "name": "from",
          "type": "address"
        },
        {
          "internalType": "address",
          "name": "to",
          "type": "address"
        },
        {
          "internalType": "uint256[]",
          "name": "ids",
          "type": "uint256[]"
        },
        {
          "internalType": "uint256[]",
          "name": "amounts",
          "type": "uint256[]"
        },
        {
          "internalType": "bytes",
          "name": "data",
          "type": "bytes"
        }
      ],
      "name": "safeBatchTransferFrom",
      "outputs": [],
      "stateMutability": "nonpayable",
      "type": "function"
    },
    {
      "inputs": [
        {
          "internalType": "address",
          "name": "from",
          "type": "address"
        },
        {
          "internalType": "address",
          "name": "to",
          "type": "address"
        },
        {
          "internalType": "uint256",
          "name": "id",
          "type": "uint256"
        },
        {
          "internalType": "uint256",
          "name": "amount",
          "type": "uint256"
        },
        {
          "internalType": "bytes",
          "name": "data",
          "type": "bytes"
        }
      ],
      "name": "safeTransferFrom",
      "outputs": [],
      "stateMutability": "nonpayable",
      "type": "function"
    },
    {
      "inputs": [
        {
          "internalType": "address",
          "name": "operator",
          "type": "address"
        },
        {
          "internalType": "bool",
          "name": "approved",
          "type": "bool"
        }
      ],
      "name": "setApprovalForAll",
      "outputs": [],
      "stateMutability": "nonpayable",
      "type": "function"
    },
    {
      "inputs": [
        {
          "internalType": "bytes4",
          "name": "interfaceId",
          "type": "bytes4"
        }
      ],
      "name": "supportsInterface",
      "outputs": [
        {
          "internalType": "bool",
          "name": "",
          "type": "bool"
        }
      ],
      "stateMutability": "view",
      "type": "function"
    },
    {
      "inputs": [
        {
          "internalType": "address",
          "name": "newOwner",
          "type": "address"
        }
      ],
      "name": "transferOwnership",
      "outputs": [],
      "stateMutability": "nonpayable",
      "type": "function"
    },
    {
      "inputs": [
        {
          "internalType": "uint256",
          "name": "",
          "type": "uint256"
        }
      ],
      "name": "uri",
      "outputs": [
        {
          "internalType": "string",
          "name": "",
          "type": "string"
        }
      ],
      "stateMutability": "view",
      "type": "function"
    }
  ],
  "bytecode": "0x608060405234801561001057600080fd5b506122c6806100206000396000f3fe608060405234801561001057600080fd5b50600436106101205760003560e01c80637e667f9b116100ad578063a22cb46511610071578063a22cb4651461026c578063e985e9c51461027f578063f242432a146102bb578063f2fde38b146102ce578063f5298aca146102e157610120565b80637e667f9b1461021257806381d60956146102255780638d68fdc8146102385780638da5cb5b1461025b5780639a8a05921461026357610120565b80632eb2c2d6116100f45780632eb2c2d6146101975780634e1273f4146101ac5780636b20c454146101cc578063715018a6146101df5780637a4f7d79146101e757610120565b8062fdd58e1461012557806301ffc9a71461014b5780630ac7f5611461016e5780630e89341c14610177575b600080fd5b610138610133366004611b24565b6102f4565b6040519081526020015b60405180910390f35b61015e610159366004611cc0565b61038d565b6040519015158152602001610142565b61013860fe5481565b61018a610185366004611ca8565b6103e1565b6040516101429190611e61565b6101aa6101a53660046118d1565b610475565b005b6101bf6101ba366004611bdd565b61050c565b6040516101429190611e20565b6101aa6101da366004611a79565b61066e565b6101aa6106b6565b60fd546101fa906001600160a01b031681565b6040516001600160a01b039091168152602001610142565b6101aa610220366004611977565b6106f1565b6101aa610233366004611b4d565b610884565b61015e610246366004611ca8565b60fc6020526000908152604090205460ff1681565b6101fa61092d565b61013860fb5481565b6101aa61027a366004611aea565b61093d565b61015e61028d36600461189f565b6001600160a01b03918216600090815260666020908152604080832093909416825291909152205460ff1690565b6101aa6102c9366004611a16565b610a21565b6101aa6102dc366004611885565b610a66565b6101aa6102ef366004611bab565b610b06565b60006001600160a01b0383166103655760405162461bcd60e51b815260206004820152602b60248201527f455243313135353a2062616c616e636520717565727920666f7220746865207a60448201526a65726f206164647265737360a81b60648201526084015b60405180910390fd5b5060009081526065602090815260408083206001600160a01b03949094168352929052205490565b60006001600160e01b03198216636cdb3d1360e11b14806103be57506001600160e01b031982166303a24d0760e21b145b806103d957506301ffc9a760e01b6001600160e01b03198316145b90505b919050565b6060606780546103f090612122565b80601f016020809104026020016040519081016040528092919081815260200182805461041c90612122565b80156104695780601f1061043e57610100808354040283529160200191610469565b820191906000526020600020905b81548152906001019060200180831161044c57829003601f168201915b50505050509050919050565b6001600160a01b0385163314806104915750610491853361028d565b6104f85760405162461bcd60e51b815260206004820152603260248201527f455243313135353a207472616e736665722063616c6c6572206973206e6f74206044820152711bdddb995c881b9bdc88185c1c1c9bdd995960721b606482015260840161035c565b6105058585858585610b49565b5050505050565b606081518351146105715760405162461bcd60e51b815260206004820152602960248201527f455243313135353a206163636f756e747320616e6420696473206c656e677468604482015268040dad2e6dac2e8c6d60bb1b606482015260840161035c565b6000835167ffffffffffffffff81111561059b57634e487b7160e01b600052604160045260246000fd5b6040519080825280602002602001820160405280156105c4578160200160208202803683370190505b50905060005b84518110156106665761062b8582815181106105f657634e487b7160e01b600052603260045260246000fd5b602002602001015185838151811061061e57634e487b7160e01b600052603260045260246000fd5b60200260200101516102f4565b82828151811061064b57634e487b7160e01b600052603260045260246000fd5b602090810291909101015261065f8161218a565b90506105ca565b509392505050565b6001600160a01b03831633148061068a575061068a833361028d565b6106a65760405162461bcd60e51b815260040161035c90611f00565b6106b1838383610d04565b505050565b336106bf61092d565b6001600160a01b0316146106e55760405162461bcd60e51b815260040161035c90612069565b6106ef6000610e9f565b565b336106fa61092d565b6001600160a01b0316146107205760405162461bcd60e51b815260040161035c90612069565b825160041461076a5760405162461bcd60e51b8152602060048201526016602482015275042bec6d0c2d2dc92c8e692dcc8caf05cd8cadccee8d60531b604482015260640161035c565b60fd546001600160a01b038881169116146107bf5760405162461bcd60e51b8152602060048201526015602482015274216f726967696e616c546f6b656e4164647265737360581b604482015260640161035c565b60fb54836002815181106107e357634e487b7160e01b600052603260045260246000fd5b60200260200101511461082b5760405162461bcd60e51b815260206004820152601060248201526f085a5b9d985b1a590818da185a5b925960821b604482015260640161035c565b6001600160a01b03861661086f5760405162461bcd60e51b815260206004820152600b60248201526a21696e76616c696420746f60a81b604482015260640161035c565b61087b86868684610ef1565b50505050505050565b600054610100900460ff168061089d575060005460ff16155b6108b95760405162461bcd60e51b815260040161035c90611f8e565b600054610100900460ff161580156108db576000805461ffff19166101011790555b6108e3610ffd565b6108ec4660fb55565b6108f582611078565b60fd80546001600160a01b0319166001600160a01b03861617905560fe8390558015610927576000805461ff00191690555b50505050565b60c9546001600160a01b03165b90565b336001600160a01b03831614156109a85760405162461bcd60e51b815260206004820152602960248201527f455243313135353a2073657474696e6720617070726f76616c20737461747573604482015268103337b91039b2b63360b91b606482015260840161035c565b3360008181526066602090815260408083206001600160a01b0387168085529252909120805460ff1916841515179055906001600160a01b03167f17307eab39ab6107e8899845ad3d59bd9653f200f220920489ca2b5937696c3183604051610a15911515815260200190565b60405180910390a35050565b6001600160a01b038516331480610a3d5750610a3d853361028d565b610a595760405162461bcd60e51b815260040161035c90611f00565b61050585858585856110fe565b33610a6f61092d565b6001600160a01b031614610a955760405162461bcd60e51b815260040161035c90612069565b6001600160a01b038116610afa5760405162461bcd60e51b815260206004820152602660248201527f4f776e61626c653a206e6577206f776e657220697320746865207a65726f206160448201526564647265737360d01b606482015260840161035c565b610b0381610e9f565b50565b6001600160a01b038316331480610b225750610b22833361028d565b610b3e5760405162461bcd60e51b815260040161035c90611f00565b6106b1838383611216565b8151835114610b6a5760405162461bcd60e51b815260040161035c9061209e565b6001600160a01b038416610b905760405162461bcd60e51b815260040161035c90611f49565b3360005b8451811015610c96576000858281518110610bbf57634e487b7160e01b600052603260045260246000fd5b602002602001015190506000858381518110610beb57634e487b7160e01b600052603260045260246000fd5b60209081029190910181015160008481526065835260408082206001600160a01b038e168352909352919091205490915081811015610c3c5760405162461bcd60e51b815260040161035c9061201f565b60008381526065602090815260408083206001600160a01b038e8116855292528083208585039055908b16825281208054849290610c7b90849061210a565b9250508190555050505080610c8f9061218a565b9050610b94565b50846001600160a01b0316866001600160a01b0316826001600160a01b03167f4a39dc06d4c0dbc64b70af90fd698a233a518aa5d07e595d983b8c0526c8f7fb8787604051610ce6929190611e33565b60405180910390a4610cfc81878787878761131c565b505050505050565b6001600160a01b038316610d2a5760405162461bcd60e51b815260040161035c90611fdc565b8051825114610d4b5760405162461bcd60e51b815260040161035c9061209e565b604080516020810190915260009081905233905b8351811015610e40576000848281518110610d8a57634e487b7160e01b600052603260045260246000fd5b602002602001015190506000848381518110610db657634e487b7160e01b600052603260045260246000fd5b60209081029190910181015160008481526065835260408082206001600160a01b038c168352909352919091205490915081811015610e075760405162461bcd60e51b815260040161035c90611ebc565b60009283526065602090815260408085206001600160a01b038b1686529091529092209103905580610e388161218a565b915050610d5f565b5060006001600160a01b0316846001600160a01b0316826001600160a01b03167f4a39dc06d4c0dbc64b70af90fd698a233a518aa5d07e595d983b8c0526c8f7fb8686604051610e91929190611e33565b60405180910390a450505050565b60c980546001600160a01b038381166001600160a01b0319831681179093556040519116919082907f8be0079c531659141344cd1fd0a4f28419497f9722a3daafe3b4186f6b6457e090600090a35050565b6001600160a01b038416610f515760405162461bcd60e51b815260206004820152602160248201527f455243313135353a206d696e7420746f20746865207a65726f206164647265736044820152607360f81b606482015260840161035c565b33610f6b81600087610f6288611487565b61050588611487565b60008481526065602090815260408083206001600160a01b038916845290915281208054859290610f9d90849061210a565b909155505060408051858152602081018590526001600160a01b0380881692600092918516917fc3d58168c5ae7397731d063d5bbf3d657854427343f4c083240f7aacaa2d0f62910160405180910390a4610505816000878787876114e0565b600054610100900460ff1680611016575060005460ff16155b6110325760405162461bcd60e51b815260040161035c90611f8e565b600054610100900460ff16158015611054576000805461ffff19166101011790555b61105c6115aa565b611064611614565b8015610b03576000805461ff001916905550565b600054610100900460ff1680611091575060005460ff16155b6110ad5760405162461bcd60e51b815260040161035c90611f8e565b600054610100900460ff161580156110cf576000805461ffff19166101011790555b6110d76115aa565b6110df6115aa565b6110e882611674565b80156110fa576000805461ff00191690555b5050565b6001600160a01b0384166111245760405162461bcd60e51b815260040161035c90611f49565b33611134818787610f6288611487565b60008481526065602090815260408083206001600160a01b038a168452909152902054838110156111775760405162461bcd60e51b815260040161035c9061201f565b60008581526065602090815260408083206001600160a01b038b81168552925280832087850390559088168252812080548692906111b690849061210a565b909155505060408051868152602081018690526001600160a01b03808916928a821692918616917fc3d58168c5ae7397731d063d5bbf3d657854427343f4c083240f7aacaa2d0f62910160405180910390a461087b8288888888886114e0565b6001600160a01b03831661123c5760405162461bcd60e51b815260040161035c90611fdc565b3361126c8185600061124d87611487565b61125687611487565b5050604080516020810190915260009052505050565b60008381526065602090815260408083206001600160a01b0388168452909152902054828110156112af5760405162461bcd60e51b815260040161035c90611ebc565b60008481526065602090815260408083206001600160a01b03898116808652918452828520888703905582518981529384018890529092908616917fc3d58168c5ae7397731d063d5bbf3d657854427343f4c083240f7aacaa2d0f62910160405180910390a45050505050565b6001600160a01b0384163b15610cfc5760405163bc197c8160e01b81526001600160a01b0385169063bc197c81906113609089908990889088908890600401611d7d565b602060405180830381600087803b15801561137a57600080fd5b505af19250505080156113aa575060408051601f3d908101601f191682019092526113a791810190611cdc565b60015b611457576113b66121d1565b806308c379a014156113f057506113cb6121e8565b806113d657506113f2565b8060405162461bcd60e51b815260040161035c9190611e61565b505b60405162461bcd60e51b815260206004820152603460248201527f455243313135353a207472616e7366657220746f206e6f6e20455243313135356044820152732932b1b2b4bb32b91034b6b83632b6b2b73a32b960611b606482015260840161035c565b6001600160e01b0319811663bc197c8160e01b1461087b5760405162461bcd60e51b815260040161035c90611e74565b604080516001808252818301909252606091600091906020808301908036833701905050905082816000815181106114cf57634e487b7160e01b600052603260045260246000fd5b602090810291909101015292915050565b6001600160a01b0384163b15610cfc5760405163f23a6e6160e01b81526001600160a01b0385169063f23a6e61906115249089908990889088908890600401611ddb565b602060405180830381600087803b15801561153e57600080fd5b505af192505050801561156e575060408051601f3d908101601f1916820190925261156b91810190611cdc565b60015b61157a576113b66121d1565b6001600160e01b0319811663f23a6e6160e01b1461087b5760405162461bcd60e51b815260040161035c90611e74565b600054610100900460ff16806115c3575060005460ff16155b6115df5760405162461bcd60e51b815260040161035c90611f8e565b600054610100900460ff16158015611064576000805461ffff19166101011790558015610b03576000805461ff001916905550565b600054610100900460ff168061162d575060005460ff16155b6116495760405162461bcd60e51b815260040161035c90611f8e565b600054610100900460ff1615801561166b576000805461ffff19166101011790555b61106433610e9f565b600054610100900460ff168061168d575060005460ff16155b6116a95760405162461bcd60e51b815260040161035c90611f8e565b600054610100900460ff161580156116cb576000805461ffff19166101011790555b6110e88280516110fa9060679060208401908280546116e990612122565b90600052602060002090601f01602090048101928261170b5760008555611751565b82601f1061172457805160ff1916838001178555611751565b82800160010185558215611751579182015b82811115611751578251825591602001919060010190611736565b5061175d929150611761565b5090565b5b8082111561175d5760008155600101611762565b600067ffffffffffffffff831115611790576117906121bb565b6040516117a7601f8501601f19166020018261215d565b8091508381528484840111156117bc57600080fd5b83836020830137600060208583010152509392505050565b80356001600160a01b03811681146103dc57600080fd5b600082601f8301126117fb578081fd5b81356020611808826120e6565b604051611815828261215d565b8381528281019150858301600585901b87018401881015611834578586fd5b855b8581101561185257813584529284019290840190600101611836565b5090979650505050505050565b600082601f83011261186f578081fd5b61187e83833560208501611776565b9392505050565b600060208284031215611896578081fd5b61187e826117d4565b600080604083850312156118b1578081fd5b6118ba836117d4565b91506118c8602084016117d4565b90509250929050565b600080600080600060a086880312156118e8578081fd5b6118f1866117d4565b94506118ff602087016117d4565b9350604086013567ffffffffffffffff8082111561191b578283fd5b61192789838a016117eb565b9450606088013591508082111561193c578283fd5b61194889838a016117eb565b9350608088013591508082111561195d578283fd5b5061196a8882890161185f565b9150509295509295909350565b600080600080600080600060e0888a031215611991578182fd5b61199a886117d4565b96506119a8602089016117d4565b95506040880135945060608801359350608088013567ffffffffffffffff808211156119d2578384fd5b6119de8b838c016117eb565b945060a08a0135935060c08a01359150808211156119fa578283fd5b50611a078a828b0161185f565b91505092959891949750929550565b600080600080600060a08688031215611a2d578081fd5b611a36866117d4565b9450611a44602087016117d4565b93506040860135925060608601359150608086013567ffffffffffffffff811115611a6d578182fd5b61196a8882890161185f565b600080600060608486031215611a8d578283fd5b611a96846117d4565b9250602084013567ffffffffffffffff80821115611ab2578384fd5b611abe878388016117eb565b93506040860135915080821115611ad3578283fd5b50611ae0868287016117eb565b9150509250925092565b60008060408385031215611afc578182fd5b611b05836117d4565b915060208301358015158114611b19578182fd5b809150509250929050565b60008060408385031215611b36578182fd5b611b3f836117d4565b946020939093013593505050565b600080600060608486031215611b61578081fd5b611b6a846117d4565b925060208401359150604084013567ffffffffffffffff811115611b8c578182fd5b8401601f81018613611b9c578182fd5b611ae086823560208401611776565b600080600060608486031215611bbf578081fd5b611bc8846117d4565b95602085013595506040909401359392505050565b60008060408385031215611bef578182fd5b823567ffffffffffffffff80821115611c06578384fd5b818501915085601f830112611c19578384fd5b81356020611c26826120e6565b604051611c33828261215d565b8381528281019150858301600585901b870184018b1015611c52578889fd5b8896505b84871015611c7b57611c67816117d4565b835260019690960195918301918301611c56565b5096505086013592505080821115611c91578283fd5b50611c9e858286016117eb565b9150509250929050565b600060208284031215611cb9578081fd5b5035919050565b600060208284031215611cd1578081fd5b813561187e8161227a565b600060208284031215611ced578081fd5b815161187e8161227a565b6000815180845260208085019450808401835b83811015611d2757815187529582019590820190600101611d0b565b509495945050505050565b60008151808452815b81811015611d5757602081850181015186830182015201611d3b565b81811115611d685782602083870101525b50601f01601f19169290920160200192915050565b6001600160a01b0386811682528516602082015260a060408201819052600090611da990830186611cf8565b8281036060840152611dbb8186611cf8565b90508281036080840152611dcf8185611d32565b98975050505050505050565b6001600160a01b03868116825285166020820152604081018490526060810183905260a060808201819052600090611e1590830184611d32565b979650505050505050565b60006020825261187e6020830184611cf8565b600060408252611e466040830185611cf8565b8281036020840152611e588185611cf8565b95945050505050565b60006020825261187e6020830184611d32565b60208082526028908201527f455243313135353a204552433131353552656365697665722072656a656374656040820152676420746f6b656e7360c01b606082015260800190565b60208082526024908201527f455243313135353a206275726e20616d6f756e7420657863656564732062616c604082015263616e636560e01b606082015260800190565b60208082526029908201527f455243313135353a2063616c6c6572206973206e6f74206f776e6572206e6f7260408201526808185c1c1c9bdd995960ba1b606082015260800190565b60208082526025908201527f455243313135353a207472616e7366657220746f20746865207a65726f206164604082015264647265737360d81b606082015260800190565b6020808252602e908201527f496e697469616c697a61626c653a20636f6e747261637420697320616c72656160408201526d191e481a5b9a5d1a585b1a5e995960921b606082015260800190565b60208082526023908201527f455243313135353a206275726e2066726f6d20746865207a65726f206164647260408201526265737360e81b606082015260800190565b6020808252602a908201527f455243313135353a20696e73756666696369656e742062616c616e636520666f60408201526939103a3930b739b332b960b11b606082015260800190565b6020808252818101527f4f776e61626c653a2063616c6c6572206973206e6f7420746865206f776e6572604082015260600190565b60208082526028908201527f455243313135353a2069647320616e6420616d6f756e7473206c656e677468206040820152670dad2e6dac2e8c6d60c31b606082015260800190565b600067ffffffffffffffff821115612100576121006121bb565b5060051b60200190565b6000821982111561211d5761211d6121a5565b500190565b600181811c9082168061213657607f821691505b6020821081141561215757634e487b7160e01b600052602260045260246000fd5b50919050565b601f8201601f1916810167ffffffffffffffff81118282101715612183576121836121bb565b6040525050565b600060001982141561219e5761219e6121a5565b5060010190565b634e487b7160e01b600052601160045260246000fd5b634e487b7160e01b600052604160045260246000fd5b600060033d111561093a57600481823e5160e01c90565b600060443d10156121f85761093a565b6040516003193d81016004833e81513d67ffffffffffffffff816024840111818411171561222a57505050505061093a565b82850191508151818111156122445750505050505061093a565b843d87010160208285010111156122605750505050505061093a565b61226f6020828601018761215d565b509094505050505090565b6001600160e01b031981168114610b0357600080fdfea26469706673582212201d2fbce9471ee7a28b9fe645d7c32c2c66ceeb5ccc2dad866201b9780165d45e64736f6c63430008030033",
  "linkReferences": {},
  "deployedLinkReferences": {}
}