{
  "_format": "hh-sol-artifact-1",
  "contractName": "DTOBridgeNFT721",
  "sourceName": "contracts/generic/DTOBridgeNFT721.sol",
  "abi": [
    {
      "anonymous": false,
      "inputs": [
        {
          "indexed": true,
          "internalType": "address",
          "name": "owner",
          "type": "address"
        },
        {
          "indexed": true,
          "internalType": "address",
          "name": "approved",
          "type": "address"
        },
        {
          "indexed": true,
          "internalType": "uint256",
          "name": "tokenId",
          "type": "uint256"
        }
      ],
      "name": "Approval",
      "type": "event"
    },
    {
      "anonymous": false,
      "inputs": [
        {
          "indexed": true,
          "internalType": "address",
          "name": "owner",
          "type": "address"
        },
        {
          "indexed": true,
          "internalType": "address",
          "name": "operator",
          "type": "address"
        },
        {
          "indexed": false,
          "internalType": "bool",
          "name": "approved",
          "type": "bool"
        }
      ],
      "name": "ApprovalForAll",
      "type": "event"
    },
    {
      "anonymous": false,
      "inputs": [
        {
          "indexed": true,
          "internalType": "address",
          "name": "previousOwner",
          "type": "address"
        },
        {
          "indexed": true,
          "internalType": "address",
          "name": "newOwner",
          "type": "address"
        }
      ],
      "name": "OwnershipTransferred",
      "type": "event"
    },
    {
      "anonymous": false,
      "inputs": [
        {
          "indexed": true,
          "internalType": "address",
          "name": "from",
          "type": "address"
        },
        {
          "indexed": true,
          "internalType": "address",
          "name": "to",
          "type": "address"
        },
        {
          "indexed": true,
          "internalType": "uint256",
          "name": "tokenId",
          "type": "uint256"
        }
      ],
      "name": "Transfer",
      "type": "event"
    },
    {
      "inputs": [
        {
          "internalType": "bytes32",
          "name": "",
          "type": "bytes32"
        }
      ],
      "name": "alreadyClaims",
      "outputs": [
        {
          "internalType": "bool",
          "name": "",
          "type": "bool"
        }
      ],
      "stateMutability": "view",
      "type": "function"
    },
    {
      "inputs": [
        {
          "internalType": "address",
          "name": "to",
          "type": "address"
        },
        {
          "internalType": "uint256",
          "name": "tokenId",
          "type": "uint256"
        }
      ],
      "name": "approve",
      "outputs": [],
      "stateMutability": "nonpayable",
      "type": "function"
    },
    {
      "inputs": [
        {
          "internalType": "address",
          "name": "owner",
          "type": "address"
        }
      ],
      "name": "balanceOf",
      "outputs": [
        {
          "internalType": "uint256",
          "name": "",
          "type": "uint256"
        }
      ],
      "stateMutability": "view",
      "type": "function"
    },
    {
      "inputs": [],
      "name": "baseURI",
      "outputs": [
        {
          "internalType": "string",
          "name": "",
          "type": "string"
        }
      ],
      "stateMutability": "view",
      "type": "function"
    },
    {
      "inputs": [
        {
          "internalType": "uint256",
          "name": "tokenId",
          "type": "uint256"
        }
      ],
      "name": "burn",
      "outputs": [],
      "stateMutability": "nonpayable",
      "type": "function"
    },
    {
      "inputs": [
        {
          "internalType": "bytes",
          "name": "_originToken",
          "type": "bytes"
        },
        {
          "internalType": "address",
          "name": "_to",
          "type": "address"
        },
        {
          "internalType": "uint256",
          "name": "_tokenId",
          "type": "uint256"
        },
        {
          "internalType": "string",
          "name": "_originTokenId",
          "type": "string"
        },
        {
          "internalType": "string",
          "name": "_tokenUri",
          "type": "string"
        }
      ],
      "name": "claimBridgeToken",
      "outputs": [],
      "stateMutability": "nonpayable",
      "type": "function"
    },
    {
      "inputs": [
        {
          "internalType": "uint256",
          "name": "tokenId",
          "type": "uint256"
        }
      ],
      "name": "getApproved",
      "outputs": [
        {
          "internalType": "address",
          "name": "",
          "type": "address"
        }
      ],
      "stateMutability": "view",
      "type": "function"
    },
    {
      "inputs": [
        {
          "internalType": "bytes",
          "name": "_originalTokenAddress",
          "type": "bytes"
        },
        {
          "internalType": "uint256",
          "name": "_originChainId",
          "type": "uint256"
        },
        {
          "internalType": "string",
          "name": "_tokenName",
          "type": "string"
        },
        {
          "internalType": "string",
          "name": "_tokenSymbol",
          "type": "string"
        }
      ],
      "name": "initialize",
      "outputs": [],
      "stateMutability": "nonpayable",
      "type": "function"
    },
    {
      "inputs": [
        {
          "internalType": "address",
          "name": "owner",
          "type": "address"
        },
        {
          "internalType": "address",
          "name": "operator",
          "type": "address"
        }
      ],
      "name": "isApprovedForAll",
      "outputs": [
        {
          "internalType": "bool",
          "name": "",
          "type": "bool"
        }
      ],
      "stateMutability": "view",
      "type": "function"
    },
    {
      "inputs": [
        {
          "internalType": "uint256",
          "name": "",
          "type": "uint256"
        }
      ],
      "name": "mappedOriginTokenIds",
      "outputs": [
        {
          "internalType": "string",
          "name": "",
          "type": "string"
        }
      ],
      "stateMutability": "view",
      "type": "function"
    },
    {
      "inputs": [
        {
          "internalType": "uint256",
          "name": "",
          "type": "uint256"
        }
      ],
      "name": "mappedTokenURIs",
      "outputs": [
        {
          "internalType": "string",
          "name": "",
          "type": "string"
        }
      ],
      "stateMutability": "view",
      "type": "function"
    },
    {
      "inputs": [],
      "name": "name",
      "outputs": [
        {
          "internalType": "string",
          "name": "",
          "type": "string"
        }
      ],
      "stateMutability": "view",
      "type": "function"
    },
    {
      "inputs": [],
      "name": "originChainId",
      "outputs": [
        {
          "internalType": "uint256",
          "name": "",
          "type": "uint256"
        }
      ],
      "stateMutability": "view",
      "type": "function"
    },
    {
      "inputs": [],
      "name": "originalTokenAddress",
      "outputs": [
        {
          "internalType": "bytes",
          "name": "",
          "type": "bytes"
        }
      ],
      "stateMutability": "view",
      "type": "function"
    },
    {
      "inputs": [],
      "name": "owner",
      "outputs": [
        {
          "internalType": "address",
          "name": "",
          "type": "address"
        }
      ],
      "stateMutability": "view",
      "type": "function"
    },
    {
      "inputs": [
        {
          "internalType": "uint256",
          "name": "tokenId",
          "type": "uint256"
        }
      ],
      "name": "ownerOf",
      "outputs": [
        {
          "internalType": "address",
          "name": "",
          "type": "address"
        }
      ],
      "stateMutability": "view",
      "type": "function"
    },
    {
      "inputs": [],
      "name": "renounceOwnership",
      "outputs": [],
      "stateMutability": "nonpayable",
      "type": "function"
    },
    {
      "inputs": [
        {
          "internalType": "address",
          "name": "from",
          "type": "address"
        },
        {
          "internalType": "address",
          "name": "to",
          "type": "address"
        },
        {
          "internalType": "uint256",
          "name": "tokenId",
          "type": "uint256"
        }
      ],
      "name": "safeTransferFrom",
      "outputs": [],
      "stateMutability": "nonpayable",
      "type": "function"
    },
    {
      "inputs": [
        {
          "internalType": "address",
          "name": "from",
          "type": "address"
        },
        {
          "internalType": "address",
          "name": "to",
          "type": "address"
        },
        {
          "internalType": "uint256",
          "name": "tokenId",
          "type": "uint256"
        },
        {
          "internalType": "bytes",
          "name": "_data",
          "type": "bytes"
        }
      ],
      "name": "safeTransferFrom",
      "outputs": [],
      "stateMutability": "nonpayable",
      "type": "function"
    },
    {
      "inputs": [
        {
          "internalType": "address",
          "name": "operator",
          "type": "address"
        },
        {
          "internalType": "bool",
          "name": "approved",
          "type": "bool"
        }
      ],
      "name": "setApprovalForAll",
      "outputs": [],
      "stateMutability": "nonpayable",
      "type": "function"
    },
    {
      "inputs": [
        {
          "internalType": "bytes4",
          "name": "interfaceId",
          "type": "bytes4"
        }
      ],
      "name": "supportsInterface",
      "outputs": [
        {
          "internalType": "bool",
          "name": "",
          "type": "bool"
        }
      ],
      "stateMutability": "view",
      "type": "function"
    },
    {
      "inputs": [],
      "name": "symbol",
      "outputs": [
        {
          "internalType": "string",
          "name": "",
          "type": "string"
        }
      ],
      "stateMutability": "view",
      "type": "function"
    },
    {
      "inputs": [
        {
          "internalType": "uint256",
          "name": "index",
          "type": "uint256"
        }
      ],
      "name": "tokenByIndex",
      "outputs": [
        {
          "internalType": "uint256",
          "name": "",
          "type": "uint256"
        }
      ],
      "stateMutability": "view",
      "type": "function"
    },
    {
      "inputs": [
        {
          "internalType": "address",
          "name": "owner",
          "type": "address"
        },
        {
          "internalType": "uint256",
          "name": "index",
          "type": "uint256"
        }
      ],
      "name": "tokenOfOwnerByIndex",
      "outputs": [
        {
          "internalType": "uint256",
          "name": "",
          "type": "uint256"
        }
      ],
      "stateMutability": "view",
      "type": "function"
    },
    {
      "inputs": [
        {
          "internalType": "uint256",
          "name": "tokenId",
          "type": "uint256"
        }
      ],
      "name": "tokenURI",
      "outputs": [
        {
          "internalType": "string",
          "name": "",
          "type": "string"
        }
      ],
      "stateMutability": "view",
      "type": "function"
    },
    {
      "inputs": [],
      "name": "totalSupply",
      "outputs": [
        {
          "internalType": "uint256",
          "name": "",
          "type": "uint256"
        }
      ],
      "stateMutability": "view",
      "type": "function"
    },
    {
      "inputs": [
        {
          "internalType": "address",
          "name": "from",
          "type": "address"
        },
        {
          "internalType": "address",
          "name": "to",
          "type": "address"
        },
        {
          "internalType": "uint256",
          "name": "tokenId",
          "type": "uint256"
        }
      ],
      "name": "transferFrom",
      "outputs": [],
      "stateMutability": "nonpayable",
      "type": "function"
    },
    {
      "inputs": [
        {
          "internalType": "address",
          "name": "newOwner",
          "type": "address"
        }
      ],
      "name": "transferOwnership",
      "outputs": [],
      "stateMutability": "nonpayable",
      "type": "function"
    },
    {
      "inputs": [
        {
          "internalType": "string",
          "name": "_newURI",
          "type": "string"
        }
      ],
      "name": "updateBaseURI",
      "outputs": [],
      "stateMutability": "nonpayable",
      "type": "function"
    },
    {
      "inputs": [
        {
          "internalType": "uint256",
          "name": "_tokenId",
          "type": "uint256"
        },
        {
          "internalType": "string",
          "name": "_newURI",
          "type": "string"
        }
      ],
      "name": "updateTokenURIIfDifferent",
      "outputs": [],
      "stateMutability": "nonpayable",
      "type": "function"
    }
  ],
  "bytecode": "0x608060405234801561001057600080fd5b50612578806100206000396000f3fe608060405234801561001057600080fd5b50600436106101da5760003560e01c806370a0823111610104578063a22cb465116100a2578063e985e9c511610071578063e985e9c5146103d9578063f00040ee14610415578063f2fde38b14610428578063f92ebf0a1461043b576101da565b8063a22cb4651461038d578063b88d4fde146103a0578063c87b56dd146103b3578063de5a49f0146103c6576101da565b80638d68fdc8116100de5780638d68fdc81461033e5780638da5cb5b14610361578063931688cb1461037257806395d89b4114610385576101da565b806370a082311461031b578063715018a61461032e5780637a4f7d7914610336576101da565b80632f745c591161017c57806342966c681161014b57806342966c68146102da5780634f6ccce7146102ed5780636352211e146103005780636c0360eb14610313576101da565b80632f745c591461028e5780633eed7770146102a157806340bb0ddc146102b457806342842e0e146102c7576101da565b8063095ea7b3116101b8578063095ea7b3146102475780630ac7f5611461025c57806318160ddd1461027357806323b872dd1461027b576101da565b806301ffc9a7146101df57806306fdde0314610207578063081812fc1461021c575b600080fd5b6101f26101ed366004611faf565b61044e565b60405190151581526020015b60405180910390f35b61020f61047b565b6040516101fe91906122d8565b61022f61022a366004611f97565b61050d565b6040516001600160a01b0390911681526020016101fe565b61025a610255366004611f6e565b6105a7565b005b61026560fd5481565b6040519081526020016101fe565b609954610265565b61025a610289366004611e93565b6106bd565b61026561029c366004611f6e565b6106ef565b61020f6102af366004611f97565b610785565b61025a6102c2366004611fe7565b610820565b61025a6102d5366004611e93565b610944565b61025a6102e8366004611f97565b61095f565b6102656102fb366004611f97565b6109d9565b61022f61030e366004611f97565b610a7a565b61020f610af1565b610265610329366004611e40565b610afe565b61025a610b85565b61020f610bbb565b6101f261034c366004611f97565b60fb6020526000908152604090205460ff1681565b60c9546001600160a01b031661022f565b61025a610380366004612108565b610bc8565b61020f610c09565b61025a61039b366004611f34565b610c18565b61025a6103ae366004611ece565b610cea565b61020f6103c1366004611f97565b610d22565b61025a6103d4366004612086565b610e85565b6101f26103e7366004611e61565b6001600160a01b039182166000908152606a6020908152604080832093909416825291909152205460ff1690565b61025a61042336600461213b565b610f20565b61025a610436366004611e40565b610f7e565b61020f610449366004611f97565b611016565b60006001600160e01b0319821663780e9d6360e01b148061047357506104738261102f565b90505b919050565b60606065805461048a90612480565b80601f01602080910402602001604051908101604052809291908181526020018280546104b690612480565b80156105035780601f106104d857610100808354040283529160200191610503565b820191906000526020600020905b8154815290600101906020018083116104e657829003601f168201915b5050505050905090565b6000818152606760205260408120546001600160a01b031661058b5760405162461bcd60e51b815260206004820152602c60248201527f4552433732313a20617070726f76656420717565727920666f72206e6f6e657860448201526b34b9ba32b73a103a37b5b2b760a11b60648201526084015b60405180910390fd5b506000908152606960205260409020546001600160a01b031690565b60006105b282610a7a565b9050806001600160a01b0316836001600160a01b031614156106205760405162461bcd60e51b815260206004820152602160248201527f4552433732313a20617070726f76616c20746f2063757272656e74206f776e656044820152603960f91b6064820152608401610582565b336001600160a01b038216148061063c575061063c81336103e7565b6106ae5760405162461bcd60e51b815260206004820152603860248201527f4552433732313a20617070726f76652063616c6c6572206973206e6f74206f7760448201527f6e6572206e6f7220617070726f76656420666f7220616c6c00000000000000006064820152608401610582565b6106b8838361107f565b505050565b6106c8335b826110ed565b6106e45760405162461bcd60e51b8152600401610582906123c0565b6106b88383836111e4565b60006106fa83610afe565b821061075c5760405162461bcd60e51b815260206004820152602b60248201527f455243373231456e756d657261626c653a206f776e657220696e646578206f7560448201526a74206f6620626f756e647360a81b6064820152608401610582565b506001600160a01b03919091166000908152609760209081526040808320938352929052205490565b610100602052600090815260409020805461079f90612480565b80601f01602080910402602001604051908101604052809291908181526020018280546107cb90612480565b80156108185780601f106107ed57610100808354040283529160200191610818565b820191906000526020600020905b8154815290600101906020018083116107fb57829003601f168201915b505050505081565b60c9546001600160a01b0316331461084a5760405162461bcd60e51b81526004016105829061238b565b60fc60405161085991906121ac565b60405180910390208580519060200120146108ae5760405162461bcd60e51b8152602060048201526015602482015274216f726967696e616c546f6b656e4164647265737360581b6044820152606401610582565b6001600160a01b0384166108f25760405162461bcd60e51b815260206004820152600b60248201526a21696e76616c696420746f60a81b6044820152606401610582565b6108fc848461138f565b600083815260ff60209081526040909120825161091b92840190611d09565b50600083815261010060209081526040909120835161093c92850190611d09565b505050505050565b6106b883838360405180602001604052806000815250610cea565b610968336106c2565b6109cd5760405162461bcd60e51b815260206004820152603060248201527f4552433732314275726e61626c653a2063616c6c6572206973206e6f74206f7760448201526f1b995c881b9bdc88185c1c1c9bdd995960821b6064820152608401610582565b6109d6816114dd565b50565b60006109e460995490565b8210610a475760405162461bcd60e51b815260206004820152602c60248201527f455243373231456e756d657261626c653a20676c6f62616c20696e646578206f60448201526b7574206f6620626f756e647360a01b6064820152608401610582565b60998281548110610a6857634e487b7160e01b600052603260045260246000fd5b90600052602060002001549050919050565b6000818152606760205260408120546001600160a01b0316806104735760405162461bcd60e51b815260206004820152602960248201527f4552433732313a206f776e657220717565727920666f72206e6f6e657869737460448201526832b73a103a37b5b2b760b91b6064820152608401610582565b60fe805461079f90612480565b60006001600160a01b038216610b695760405162461bcd60e51b815260206004820152602a60248201527f4552433732313a2062616c616e636520717565727920666f7220746865207a65604482015269726f206164647265737360b01b6064820152608401610582565b506001600160a01b031660009081526068602052604090205490565b60c9546001600160a01b03163314610baf5760405162461bcd60e51b81526004016105829061238b565b610bb96000611584565b565b60fc805461079f90612480565b60c9546001600160a01b03163314610bf25760405162461bcd60e51b81526004016105829061238b565b8051610c059060fe906020840190611d09565b5050565b60606066805461048a90612480565b6001600160a01b038216331415610c715760405162461bcd60e51b815260206004820152601960248201527f4552433732313a20617070726f766520746f2063616c6c6572000000000000006044820152606401610582565b336000818152606a602090815260408083206001600160a01b0387168085529252909120805460ff1916841515179055906001600160a01b03167f17307eab39ab6107e8899845ad3d59bd9653f200f220920489ca2b5937696c3183604051610cde911515815260200190565b60405180910390a35050565b610cf433836110ed565b610d105760405162461bcd60e51b8152600401610582906123c0565b610d1c848484846115d6565b50505050565b6000818152606760205260409020546060906001600160a01b0316610da15760405162461bcd60e51b815260206004820152602f60248201527f4552433732314d657461646174613a2055524920717565727920666f72206e6f60448201526e3732bc34b9ba32b73a103a37b5b2b760891b6064820152608401610582565b600060fe8054610db090612480565b905011610e5357600082815260ff602052604090208054610dd090612480565b80601f0160208091040260200160405190810160405280929190818152602001828054610dfc90612480565b8015610e495780601f10610e1e57610100808354040283529160200191610e49565b820191906000526020600020905b815481529060010190602001808311610e2c57829003601f168201915b5050505050610473565b60fe610e5e83611609565b604051602001610e6f92919061221b565b6040516020818303038152906040529050919050565b600054610100900460ff1680610e9e575060005460ff16155b610eba5760405162461bcd60e51b81526004016105829061233d565b600054610100900460ff16158015610edc576000805461ffff19166101011790555b610ee4611724565b610eee838361179f565b8451610f019060fc906020880190611d09565b5060fd8490558015610f19576000805461ff00191690555b5050505050565b60c9546001600160a01b03163314610f4a5760405162461bcd60e51b81526004016105829061238b565b60fe8054610f5790612480565b15159050610c0557600082815260ff6020908152604090912082516106b892840190611d09565b60c9546001600160a01b03163314610fa85760405162461bcd60e51b81526004016105829061238b565b6001600160a01b03811661100d5760405162461bcd60e51b815260206004820152602660248201527f4f776e61626c653a206e6577206f776e657220697320746865207a65726f206160448201526564647265737360d01b6064820152608401610582565b6109d681611584565b60ff602052600090815260409020805461079f90612480565b60006001600160e01b031982166380ac58cd60e01b148061106057506001600160e01b03198216635b5e139f60e01b145b8061047357506301ffc9a760e01b6001600160e01b0319831614610473565b600081815260696020526040902080546001600160a01b0319166001600160a01b03841690811790915581906110b482610a7a565b6001600160a01b03167f8c5be1e5ebec7d5bd14f71427d1e84f3dd0314c0f7b2291e5b200ac8c7c3b92560405160405180910390a45050565b6000818152606760205260408120546001600160a01b03166111665760405162461bcd60e51b815260206004820152602c60248201527f4552433732313a206f70657261746f7220717565727920666f72206e6f6e657860448201526b34b9ba32b73a103a37b5b2b760a11b6064820152608401610582565b600061117183610a7a565b9050806001600160a01b0316846001600160a01b031614806111ac5750836001600160a01b03166111a18461050d565b6001600160a01b0316145b806111dc57506001600160a01b038082166000908152606a602090815260408083209388168352929052205460ff165b949350505050565b826001600160a01b03166111f782610a7a565b6001600160a01b03161461125f5760405162461bcd60e51b815260206004820152602960248201527f4552433732313a207472616e73666572206f6620746f6b656e2074686174206960448201526839903737ba1037bbb760b91b6064820152608401610582565b6001600160a01b0382166112c15760405162461bcd60e51b8152602060048201526024808201527f4552433732313a207472616e7366657220746f20746865207a65726f206164646044820152637265737360e01b6064820152608401610582565b6112cc838383611826565b6112d760008261107f565b6001600160a01b038316600090815260686020526040812080546001929061130090849061243d565b90915550506001600160a01b038216600090815260686020526040812080546001929061132e908490612411565b909155505060008181526067602052604080822080546001600160a01b0319166001600160a01b0386811691821790925591518493918716917fddf252ad1be2c89b69c2b068fc378daa952ba7f163c4a11628f55a4df523b3ef91a4505050565b6001600160a01b0382166113e55760405162461bcd60e51b815260206004820181905260248201527f4552433732313a206d696e7420746f20746865207a65726f20616464726573736044820152606401610582565b6000818152606760205260409020546001600160a01b03161561144a5760405162461bcd60e51b815260206004820152601c60248201527f4552433732313a20746f6b656e20616c7265616479206d696e746564000000006044820152606401610582565b61145660008383611826565b6001600160a01b038216600090815260686020526040812080546001929061147f908490612411565b909155505060008181526067602052604080822080546001600160a01b0319166001600160a01b03861690811790915590518392907fddf252ad1be2c89b69c2b068fc378daa952ba7f163c4a11628f55a4df523b3ef908290a45050565b60006114e882610a7a565b90506114f681600084611826565b61150160008361107f565b6001600160a01b038116600090815260686020526040812080546001929061152a90849061243d565b909155505060008281526067602052604080822080546001600160a01b0319169055518391906001600160a01b038416907fddf252ad1be2c89b69c2b068fc378daa952ba7f163c4a11628f55a4df523b3ef908390a45050565b60c980546001600160a01b038381166001600160a01b0319831681179093556040519116919082907f8be0079c531659141344cd1fd0a4f28419497f9722a3daafe3b4186f6b6457e090600090a35050565b6115e18484846111e4565b6115ed848484846118e3565b610d1c5760405162461bcd60e51b8152600401610582906122eb565b60608161162e57506040805180820190915260018152600360fc1b6020820152610476565b8160005b81156116585780611642816124bb565b91506116519050600a83612429565b9150611632565b60008167ffffffffffffffff81111561168157634e487b7160e01b600052604160045260246000fd5b6040519080825280601f01601f1916602001820160405280156116ab576020820181803683370190505b5090505b84156111dc576116c060018361243d565b91506116cd600a866124d6565b6116d8906030612411565b60f81b8183815181106116fb57634e487b7160e01b600052603260045260246000fd5b60200101906001600160f81b031916908160001a90535061171d600a86612429565b94506116af565b600054610100900460ff168061173d575060005460ff16155b6117595760405162461bcd60e51b81526004016105829061233d565b600054610100900460ff1615801561177b576000805461ffff19166101011790555b6117836119f0565b61178b611a5a565b80156109d6576000805461ff001916905550565b600054610100900460ff16806117b8575060005460ff16155b6117d45760405162461bcd60e51b81526004016105829061233d565b600054610100900460ff161580156117f6576000805461ffff19166101011790555b6117fe6119f0565b6118066119f0565b6118108383611aba565b80156106b8576000805461ff0019169055505050565b6001600160a01b0383166118815761187c81609980546000838152609a60205260408120829055600182018355919091527f72a152ddfb8e864297c917af52ea6c1c68aead0fee1a62673fcc7e0c94979d000155565b6118a4565b816001600160a01b0316836001600160a01b0316146118a4576118a48382611b4f565b6001600160a01b0382166118c0576118bb81611bec565b6106b8565b826001600160a01b0316826001600160a01b0316146106b8576106b88282611cc5565b60006001600160a01b0384163b156119e557604051630a85bd0160e11b81526001600160a01b0385169063150b7a029061192790339089908890889060040161229b565b602060405180830381600087803b15801561194157600080fd5b505af1925050508015611971575060408051601f3d908101601f1916820190925261196e91810190611fcb565b60015b6119cb573d80801561199f576040519150601f19603f3d011682016040523d82523d6000602084013e6119a4565b606091505b5080516119c35760405162461bcd60e51b8152600401610582906122eb565b805181602001fd5b6001600160e01b031916630a85bd0160e11b1490506111dc565b506001949350505050565b600054610100900460ff1680611a09575060005460ff16155b611a255760405162461bcd60e51b81526004016105829061233d565b600054610100900460ff1615801561178b576000805461ffff191661010117905580156109d6576000805461ff001916905550565b600054610100900460ff1680611a73575060005460ff16155b611a8f5760405162461bcd60e51b81526004016105829061233d565b600054610100900460ff16158015611ab1576000805461ffff19166101011790555b61178b33611584565b600054610100900460ff1680611ad3575060005460ff16155b611aef5760405162461bcd60e51b81526004016105829061233d565b600054610100900460ff16158015611b11576000805461ffff19166101011790555b8251611b24906065906020860190611d09565b508151611b38906066906020850190611d09565b5080156106b8576000805461ff0019169055505050565b60006001611b5c84610afe565b611b66919061243d565b600083815260986020526040902054909150808214611bb9576001600160a01b03841660009081526097602090815260408083208584528252808320548484528184208190558352609890915290208190555b5060009182526098602090815260408084208490556001600160a01b039094168352609781528383209183525290812055565b609954600090611bfe9060019061243d565b6000838152609a602052604081205460998054939450909284908110611c3457634e487b7160e01b600052603260045260246000fd5b906000526020600020015490508060998381548110611c6357634e487b7160e01b600052603260045260246000fd5b6000918252602080832090910192909255828152609a90915260408082208490558582528120556099805480611ca957634e487b7160e01b600052603160045260246000fd5b6001900381819060005260206000200160009055905550505050565b6000611cd083610afe565b6001600160a01b039093166000908152609760209081526040808320868452825280832085905593825260989052919091209190915550565b828054611d1590612480565b90600052602060002090601f016020900481019282611d375760008555611d7d565b82601f10611d5057805160ff1916838001178555611d7d565b82800160010185558215611d7d579182015b82811115611d7d578251825591602001919060010190611d62565b50611d89929150611d8d565b5090565b5b80821115611d895760008155600101611d8e565b80356001600160a01b038116811461047657600080fd5b600082601f830112611dc9578081fd5b813567ffffffffffffffff80821115611de457611de4612516565b604051601f8301601f19908116603f01168101908282118183101715611e0c57611e0c612516565b81604052838152866020858801011115611e24578485fd5b8360208701602083013792830160200193909352509392505050565b600060208284031215611e51578081fd5b611e5a82611da2565b9392505050565b60008060408385031215611e73578081fd5b611e7c83611da2565b9150611e8a60208401611da2565b90509250929050565b600080600060608486031215611ea7578081fd5b611eb084611da2565b9250611ebe60208501611da2565b9150604084013590509250925092565b60008060008060808587031215611ee3578081fd5b611eec85611da2565b9350611efa60208601611da2565b925060408501359150606085013567ffffffffffffffff811115611f1c578182fd5b611f2887828801611db9565b91505092959194509250565b60008060408385031215611f46578182fd5b611f4f83611da2565b915060208301358015158114611f63578182fd5b809150509250929050565b60008060408385031215611f80578182fd5b611f8983611da2565b946020939093013593505050565b600060208284031215611fa8578081fd5b5035919050565b600060208284031215611fc0578081fd5b8135611e5a8161252c565b600060208284031215611fdc578081fd5b8151611e5a8161252c565b600080600080600060a08688031215611ffe578081fd5b853567ffffffffffffffff80821115612015578283fd5b61202189838a01611db9565b965061202f60208901611da2565b955060408801359450606088013591508082111561204b578283fd5b61205789838a01611db9565b9350608088013591508082111561206c578283fd5b5061207988828901611db9565b9150509295509295909350565b6000806000806080858703121561209b578384fd5b843567ffffffffffffffff808211156120b2578586fd5b6120be88838901611db9565b95506020870135945060408701359150808211156120da578384fd5b6120e688838901611db9565b935060608701359150808211156120fb578283fd5b50611f2887828801611db9565b600060208284031215612119578081fd5b813567ffffffffffffffff81111561212f578182fd5b6111dc84828501611db9565b6000806040838503121561214d578182fd5b82359150602083013567ffffffffffffffff81111561216a578182fd5b61217685828601611db9565b9150509250929050565b60008151808452612198816020860160208601612454565b601f01601f19169290920160200192915050565b60008083546121ba81612480565b600182811680156121d257600181146121e35761220f565b60ff1984168752828701945061220f565b8786526020808720875b858110156122065781548a8201529084019082016121ed565b50505082870194505b50929695505050505050565b600080845461222981612480565b6001828116801561224157600181146122525761227e565b60ff1984168752828701945061227e565b8886526020808720875b858110156122755781548a82015290840190820161225c565b50505082870194505b505050508351612292818360208801612454565b01949350505050565b6001600160a01b03858116825284166020820152604081018390526080606082018190526000906122ce90830184612180565b9695505050505050565b600060208252611e5a6020830184612180565b60208082526032908201527f4552433732313a207472616e7366657220746f206e6f6e20455243373231526560408201527131b2b4bb32b91034b6b83632b6b2b73a32b960711b606082015260800190565b6020808252602e908201527f496e697469616c697a61626c653a20636f6e747261637420697320616c72656160408201526d191e481a5b9a5d1a585b1a5e995960921b606082015260800190565b6020808252818101527f4f776e61626c653a2063616c6c6572206973206e6f7420746865206f776e6572604082015260600190565b60208082526031908201527f4552433732313a207472616e736665722063616c6c6572206973206e6f74206f6040820152701ddb995c881b9bdc88185c1c1c9bdd9959607a1b606082015260800190565b60008219821115612424576124246124ea565b500190565b60008261243857612438612500565b500490565b60008282101561244f5761244f6124ea565b500390565b60005b8381101561246f578181015183820152602001612457565b83811115610d1c5750506000910152565b600181811c9082168061249457607f821691505b602082108114156124b557634e487b7160e01b600052602260045260246000fd5b50919050565b60006000198214156124cf576124cf6124ea565b5060010190565b6000826124e5576124e5612500565b500690565b634e487b7160e01b600052601160045260246000fd5b634e487b7160e01b600052601260045260246000fd5b634e487b7160e01b600052604160045260246000fd5b6001600160e01b0319811681146109d657600080fdfea26469706673582212209487783faab0a86e78744de1799f45bb3ffcf127e02fe2af205eb3c3833d1eec64736f6c63430008030033",
  "linkReferences": {},
  "deployedLinkReferences": {}
}