{
  "_format": "hh-sol-artifact-1",
  "contractName": "LockingTokenValidator",
  "sourceName": "contracts/validator/LockingTokenValidator.sol",
  "abi": [
    {
      "anonymous": false,
      "inputs": [
        {
          "indexed": false,
          "internalType": "address",
          "name": "token",
          "type": "address"
        },
        {
          "indexed": false,
          "internalType": "address",
          "name": "user",
          "type": "address"
        },
        {
          "indexed": false,
          "internalType": "uint256",
          "name": "amount",
          "type": "uint256"
        }
      ],
      "name": "Lock",
      "type": "event"
    },
    {
      "anonymous": false,
      "inputs": [
        {
          "indexed": true,
          "internalType": "address",
          "name": "previousOwner",
          "type": "address"
        },
        {
          "indexed": true,
          "internalType": "address",
          "name": "newOwner",
          "type": "address"
        }
      ],
      "name": "OwnershipTransferred",
      "type": "event"
    },
    {
      "anonymous": false,
      "inputs": [
        {
          "indexed": false,
          "internalType": "address",
          "name": "locker",
          "type": "address"
        },
        {
          "indexed": false,
          "internalType": "bool",
          "name": "val",
          "type": "bool"
        }
      ],
      "name": "SetLocker",
      "type": "event"
    },
    {
      "anonymous": false,
      "inputs": [
        {
          "indexed": false,
          "internalType": "address",
          "name": "token",
          "type": "address"
        },
        {
          "indexed": false,
          "internalType": "address",
          "name": "user",
          "type": "address"
        },
        {
          "indexed": false,
          "internalType": "uint256",
          "name": "amount",
          "type": "uint256"
        }
      ],
      "name": "Unlock",
      "type": "event"
    },
    {
      "inputs": [
        {
          "internalType": "address",
          "name": "_user",
          "type": "address"
        }
      ],
      "name": "getLockInfo",
      "outputs": [
        {
          "internalType": "bool[]",
          "name": "isWithdrawns",
          "type": "bool[]"
        },
        {
          "internalType": "address[]",
          "name": "tokens",
          "type": "address[]"
        },
        {
          "internalType": "uint256[]",
          "name": "unlockableAts",
          "type": "uint256[]"
        },
        {
          "internalType": "uint256[]",
          "name": "amounts",
          "type": "uint256[]"
        }
      ],
      "stateMutability": "view",
      "type": "function"
    },
    {
      "inputs": [
        {
          "internalType": "address",
          "name": "_addr",
          "type": "address"
        },
        {
          "internalType": "uint256[]",
          "name": "_indexes",
          "type": "uint256[]"
        }
      ],
      "name": "getLockInfoByIndexes",
      "outputs": [
        {
          "internalType": "bool[]",
          "name": "isWithdrawns",
          "type": "bool[]"
        },
        {
          "internalType": "address[]",
          "name": "tokens",
          "type": "address[]"
        },
        {
          "internalType": "uint256[]",
          "name": "unlockableAts",
          "type": "uint256[]"
        },
        {
          "internalType": "uint256[]",
          "name": "amounts",
          "type": "uint256[]"
        }
      ],
      "stateMutability": "view",
      "type": "function"
    },
    {
      "inputs": [
        {
          "internalType": "address",
          "name": "_addr",
          "type": "address"
        }
      ],
      "name": "getLockInfoLength",
      "outputs": [
        {
          "internalType": "uint256",
          "name": "",
          "type": "uint256"
        }
      ],
      "stateMutability": "view",
      "type": "function"
    },
    {
      "inputs": [
        {
          "internalType": "address",
          "name": "_locker",
          "type": "address"
        }
      ],
      "name": "initialize",
      "outputs": [],
      "stateMutability": "nonpayable",
      "type": "function"
    },
    {
      "inputs": [
        {
          "internalType": "address",
          "name": "_token",
          "type": "address"
        },
        {
          "internalType": "address",
          "name": "_addr",
          "type": "address"
        },
        {
          "internalType": "uint256",
          "name": "_amount",
          "type": "uint256"
        },
        {
          "internalType": "uint256",
          "name": "_lockedTime",
          "type": "uint256"
        }
      ],
      "name": "lock",
      "outputs": [],
      "stateMutability": "nonpayable",
      "type": "function"
    },
    {
      "inputs": [
        {
          "internalType": "address",
          "name": "",
          "type": "address"
        },
        {
          "internalType": "uint256",
          "name": "",
          "type": "uint256"
        }
      ],
      "name": "lockInfo",
      "outputs": [
        {
          "internalType": "bool",
          "name": "isWithdrawn",
          "type": "bool"
        },
        {
          "internalType": "address",
          "name": "token",
          "type": "address"
        },
        {
          "internalType": "uint256",
          "name": "unlockableAt",
          "type": "uint256"
        },
        {
          "internalType": "uint256",
          "name": "amount",
          "type": "uint256"
        }
      ],
      "stateMutability": "view",
      "type": "function"
    },
    {
      "inputs": [
        {
          "internalType": "address",
          "name": "",
          "type": "address"
        }
      ],
      "name": "lockers",
      "outputs": [
        {
          "internalType": "bool",
          "name": "",
          "type": "bool"
        }
      ],
      "stateMutability": "view",
      "type": "function"
    },
    {
      "inputs": [],
      "name": "owner",
      "outputs": [
        {
          "internalType": "address",
          "name": "",
          "type": "address"
        }
      ],
      "stateMutability": "view",
      "type": "function"
    },
    {
      "inputs": [],
      "name": "renounceOwnership",
      "outputs": [],
      "stateMutability": "nonpayable",
      "type": "function"
    },
    {
      "inputs": [
        {
          "internalType": "address[]",
          "name": "_lockers",
          "type": "address[]"
        },
        {
          "internalType": "bool",
          "name": "val",
          "type": "bool"
        }
      ],
      "name": "setLockers",
      "outputs": [],
      "stateMutability": "nonpayable",
      "type": "function"
    },
    {
      "inputs": [
        {
          "internalType": "address",
          "name": "newOwner",
          "type": "address"
        }
      ],
      "name": "transferOwnership",
      "outputs": [],
      "stateMutability": "nonpayable",
      "type": "function"
    },
    {
      "inputs": [
        {
          "internalType": "address",
          "name": "_addr",
          "type": "address"
        },
        {
          "internalType": "uint256",
          "name": "index",
          "type": "uint256"
        }
      ],
      "name": "unlock",
      "outputs": [],
      "stateMutability": "nonpayable",
      "type": "function"
    }
  ],
  "bytecode": "0x608060405234801561001057600080fd5b50611a11806100206000396000f3fe608060405234801561001057600080fd5b50600436106100b45760003560e01c80638da5cb5b116100715780638da5cb5b14610157578063b2520a7c14610172578063c4d66de8146101af578063dcf9e59e146101c2578063f1a58542146101d5578063f2fde38b146101f6576100b4565b8063299e0b16146100b95780632c8e7a21146100ce5780634b86c22514610106578063715018a6146101195780637238ccdb146101215780637eee288d14610144575b600080fd5b6100cc6100c73660046116ae565b610209565b005b6100f16100dc36600461157f565b60666020526000908152604090205460ff1681565b60405190151581526020015b60405180910390f35b6100cc610114366004611599565b610339565b6100cc6104a3565b61013461012f36600461157f565b6104d9565b6040516100fd94939291906117cc565b6100cc610152366004611685565b610865565b6033546040516001600160a01b0390911681526020016100fd565b610185610180366004611685565b610bff565b6040805194151585526001600160a01b0390931660208501529183015260608201526080016100fd565b6100cc6101bd36600461157f565b610c52565b6101346101d03660046115da565b610d64565b6101e86101e336600461157f565b61116a565b6040519081526020016100fd565b6100cc61020436600461157f565b611189565b6033546001600160a01b0316331461023c5760405162461bcd60e51b8152600401610233906118a1565b60405180910390fd5b60005b825181101561033457816066600085848151811061026d57634e487b7160e01b600052603260045260246000fd5b60200260200101516001600160a01b03166001600160a01b0316815260200190815260200160002060006101000a81548160ff0219169083151502179055507f09afde9b2272e34d6b954273fb4f053b4ec24ecb6800778d479d1194b13f2f6f8382815181106102ed57634e487b7160e01b600052603260045260246000fd5b60200260200101518360405161031a9291906001600160a01b039290921682521515602082015260400190565b60405180910390a18061032c81611986565b91505061023f565b505050565b3360009081526066602052604090205460ff1661038f5760405162461bcd60e51b81526020600482015260146024820152736f6e6c79206c6f636b65722063616e206c6f636b60601b6044820152606401610233565b811561049d576103aa6001600160a01b038516333085611224565b6001600160a01b03808416600090815260656020908152604080832081516080810183529384529388169183019190915281016103e7844261192b565b8152602090810185905282546001808201855560009485529382902083516003909202018054848401516001600160a81b0319909116921515610100600160a81b031916929092176101006001600160a01b03938416021781556040808501519582019590955560609384015160029091015583518882168152908716918101919091529182018490527fec36c0364d931187a76cf66d7eee08fad0ec2e8b7458a8d8b26b36769d4d13f3910160405180910390a15b50505050565b6033546001600160a01b031633146104cd5760405162461bcd60e51b8152600401610233906118a1565b6104d7600061128f565b565b6001600160a01b0381166000908152606560209081526040808320805482518185028101850190935280835260609485948594859490918490849084015b8282101561057a5760008481526020908190206040805160808101825260038602909201805460ff81161515845261010090046001600160a01b031683850152600180820154928401929092526002015460608301529083529092019101610517565b5050505090508167ffffffffffffffff8111156105a757634e487b7160e01b600052604160045260246000fd5b6040519080825280602002602001820160405280156105d0578160200160208202803683370190505b5095508167ffffffffffffffff8111156105fa57634e487b7160e01b600052604160045260246000fd5b604051908082528060200260200182016040528015610623578160200160208202803683370190505b5093508167ffffffffffffffff81111561064d57634e487b7160e01b600052604160045260246000fd5b604051908082528060200260200182016040528015610676578160200160208202803683370190505b5092508167ffffffffffffffff8111156106a057634e487b7160e01b600052604160045260246000fd5b6040519080825280602002602001820160405280156106c9578160200160208202803683370190505b50945060005b8281101561085b578181815181106106f757634e487b7160e01b600052603260045260246000fd5b60200260200101516000015187828151811061072357634e487b7160e01b600052603260045260246000fd5b60200260200101901515908115158152505081818151811061075557634e487b7160e01b600052603260045260246000fd5b60200260200101516040015185828151811061078157634e487b7160e01b600052603260045260246000fd5b6020026020010181815250508181815181106107ad57634e487b7160e01b600052603260045260246000fd5b6020026020010151606001518482815181106107d957634e487b7160e01b600052603260045260246000fd5b60200260200101818152505081818151811061080557634e487b7160e01b600052603260045260246000fd5b60200260200101516020015186828151811061083157634e487b7160e01b600052603260045260246000fd5b6001600160a01b03909216602092830291909101909101528061085381611986565b9150506106cf565b5050509193509193565b6001600160a01b0382166000908152606560205260409020805481908390811061089f57634e487b7160e01b600052603260045260246000fd5b600091825260209091206003909102015460ff161580156108f15750428183815481106108dc57634e487b7160e01b600052603260045260246000fd5b90600052602060002090600302016001015411155b61094d5760405162461bcd60e51b815260206004820152602760248201527f416c72656164792077697468647261776e206f72206e6f7420756e6c6f636b61604482015266189b19481e595d60ca1b6064820152608401610233565b600181838154811061096f57634e487b7160e01b600052603260045260246000fd5b906000526020600020906003020160000160006101000a81548160ff021916908315150217905550610a13838284815481106109bb57634e487b7160e01b600052603260045260246000fd5b9060005260206000209060030201600201548385815481106109ed57634e487b7160e01b600052603260045260246000fd5b600091825260209091206003909102015461010090046001600160a01b031691906112e1565b7fc1c90b8e0705b212262c0dbd7580efe1862c2f185bf96899226f7596beb2db09818381548110610a5457634e487b7160e01b600052603260045260246000fd5b906000526020600020906003020160000160019054906101000a90046001600160a01b031684838581548110610a9a57634e487b7160e01b600052603260045260246000fd5b906000526020600020906003020160020154604051610ada939291906001600160a01b039384168152919092166020820152604081019190915260600190565b60405180910390a180548190610af290600190611943565b81548110610b1057634e487b7160e01b600052603260045260246000fd5b9060005260206000209060030201818381548110610b3e57634e487b7160e01b600052603260045260246000fd5b600091825260209091208254600390920201805460ff909216151560ff1983168117825583546001600160a01b03610100918290041602610100600160a81b03199091166001600160a81b031990931692909217919091178155600180830154908201556002918201549101558054819080610bca57634e487b7160e01b600052603160045260246000fd5b60008281526020812060036000199093019283020180546001600160a81b031916815560018101829055600201559055505050565b60656020528160005260406000208181548110610c1b57600080fd5b600091825260209091206003909102018054600182015460029092015460ff821694506101009091046001600160a01b0316925084565b600054610100900460ff1680610c6b575060005460ff16155b610cce5760405162461bcd60e51b815260206004820152602e60248201527f496e697469616c697a61626c653a20636f6e747261637420697320616c72656160448201526d191e481a5b9a5d1a585b1a5e995960921b6064820152608401610233565b600054610100900460ff16158015610cf0576000805461ffff19166101011790555b6001600160a01b038216600081815260666020908152604091829020805460ff191660019081179091558251938452908301527f09afde9b2272e34d6b954273fb4f053b4ec24ecb6800778d479d1194b13f2f6f910160405180910390a18015610d60576000805461ff00191690555b5050565b80516001600160a01b038316600090815260656020908152604080832080548251818502810185019093528083526060958695869586959294919390849084015b82821015610e085760008481526020908190206040805160808101825260038602909201805460ff81161515845261010090046001600160a01b031683850152600180820154928401929092526002015460608301529083529092019101610da5565b5050505090508167ffffffffffffffff811115610e3557634e487b7160e01b600052604160045260246000fd5b604051908082528060200260200182016040528015610e5e578160200160208202803683370190505b5095508167ffffffffffffffff811115610e8857634e487b7160e01b600052604160045260246000fd5b604051908082528060200260200182016040528015610eb1578160200160208202803683370190505b5093508167ffffffffffffffff811115610edb57634e487b7160e01b600052604160045260246000fd5b604051908082528060200260200182016040528015610f04578160200160208202803683370190505b5092508167ffffffffffffffff811115610f2e57634e487b7160e01b600052604160045260246000fd5b604051908082528060200260200182016040528015610f57578160200160208202803683370190505b50945060005b8281101561115e5781888281518110610f8657634e487b7160e01b600052603260045260246000fd5b602002602001015181518110610fac57634e487b7160e01b600052603260045260246000fd5b602002602001015160000151878281518110610fd857634e487b7160e01b600052603260045260246000fd5b6020026020010190151590811515815250508188828151811061100b57634e487b7160e01b600052603260045260246000fd5b60200260200101518151811061103157634e487b7160e01b600052603260045260246000fd5b60200260200101516040015185828151811061105d57634e487b7160e01b600052603260045260246000fd5b6020026020010181815250508188828151811061108a57634e487b7160e01b600052603260045260246000fd5b6020026020010151815181106110b057634e487b7160e01b600052603260045260246000fd5b6020026020010151606001518482815181106110dc57634e487b7160e01b600052603260045260246000fd5b60200260200101818152505081818151811061110857634e487b7160e01b600052603260045260246000fd5b60200260200101516020015186828151811061113457634e487b7160e01b600052603260045260246000fd5b6001600160a01b03909216602092830291909101909101528061115681611986565b915050610f5d565b50505092959194509250565b6001600160a01b0381166000908152606560205260409020545b919050565b6033546001600160a01b031633146111b35760405162461bcd60e51b8152600401610233906118a1565b6001600160a01b0381166112185760405162461bcd60e51b815260206004820152602660248201527f4f776e61626c653a206e6577206f776e657220697320746865207a65726f206160448201526564647265737360d01b6064820152608401610233565b6112218161128f565b50565b6040516001600160a01b038085166024830152831660448201526064810182905261049d9085906323b872dd60e01b906084015b60408051601f198184030181529190526020810180516001600160e01b03166001600160e01b031990931692909217909152611311565b603380546001600160a01b038381166001600160a01b0319831681179093556040519116919082907f8be0079c531659141344cd1fd0a4f28419497f9722a3daafe3b4186f6b6457e090600090a35050565b6040516001600160a01b03831660248201526044810182905261033490849063a9059cbb60e01b90606401611258565b6000611366826040518060400160405280602081526020017f5361666545524332303a206c6f772d6c6576656c2063616c6c206661696c6564815250856001600160a01b03166113e39092919063ffffffff16565b8051909150156103345780806020019051810190611384919061175a565b6103345760405162461bcd60e51b815260206004820152602a60248201527f5361666545524332303a204552433230206f7065726174696f6e20646964206e6044820152691bdd081cdd58d8d9595960b21b6064820152608401610233565b60606113f284846000856113fc565b90505b9392505050565b60608247101561145d5760405162461bcd60e51b815260206004820152602660248201527f416464726573733a20696e73756666696369656e742062616c616e636520666f6044820152651c8818d85b1b60d21b6064820152608401610233565b843b6114ab5760405162461bcd60e51b815260206004820152601d60248201527f416464726573733a2063616c6c20746f206e6f6e2d636f6e74726163740000006044820152606401610233565b600080866001600160a01b031685876040516114c791906117b0565b60006040518083038185875af1925050503d8060008114611504576040519150601f19603f3d011682016040523d82523d6000602084013e611509565b606091505b5091509150611519828286611524565b979650505050505050565b606083156115335750816113f5565b8251156115435782518084602001fd5b8160405162461bcd60e51b8152600401610233919061186e565b80356001600160a01b038116811461118457600080fd5b8035611184816119cd565b600060208284031215611590578081fd5b6113f58261155d565b600080600080608085870312156115ae578283fd5b6115b78561155d565b93506115c56020860161155d565b93969395505050506040820135916060013590565b600080604083850312156115ec578182fd5b6115f58361155d565b915060208084013567ffffffffffffffff811115611611578283fd5b8401601f81018613611621578283fd5b803561163461162f82611907565b6118d6565b80828252848201915084840189868560051b8701011115611653578687fd5b8694505b83851015611675578035835260019490940193918501918501611657565b5080955050505050509250929050565b60008060408385031215611697578182fd5b6116a08361155d565b946020939093013593505050565b600080604083850312156116c0578182fd5b823567ffffffffffffffff8111156116d6578283fd5b8301601f810185136116e6578283fd5b803560206116f661162f83611907565b80838252828201915082850189848660051b8801011115611715578788fd5b8795505b8486101561173e5761172a8161155d565b835260019590950194918301918301611719565b50955061174e9050868201611574565b93505050509250929050565b60006020828403121561176b578081fd5b81516113f5816119cd565b6000815180845260208085019450808401835b838110156117a557815187529582019590820190600101611789565b509495945050505050565b600082516117c281846020870161195a565b9190910192915050565b6080808252855190820181905260009060209060a0840190828901845b828110156118075781511515845292840192908401906001016117e9565b50505083810382850152865180825287830191830190845b818110156118445783516001600160a01b03168352928401929184019160010161181f565b505084810360408601526118588188611776565b9250505082810360608401526115198185611776565b600060208252825180602084015261188d81604085016020870161195a565b601f01601f19169190910160400192915050565b6020808252818101527f4f776e61626c653a2063616c6c6572206973206e6f7420746865206f776e6572604082015260600190565b604051601f8201601f1916810167ffffffffffffffff811182821017156118ff576118ff6119b7565b604052919050565b600067ffffffffffffffff821115611921576119216119b7565b5060051b60200190565b6000821982111561193e5761193e6119a1565b500190565b600082821015611955576119556119a1565b500390565b60005b8381101561197557818101518382015260200161195d565b8381111561049d5750506000910152565b600060001982141561199a5761199a6119a1565b5060010190565b634e487b7160e01b600052601160045260246000fd5b634e487b7160e01b600052604160045260246000fd5b801515811461122157600080fdfea2646970667358221220c51cdf494944e99b0b824f4e9e60c8fc311ebab02754b500a2ce49ef0a9328eb64736f6c63430008030033",
  "linkReferences": {},
  "deployedLinkReferences": {}
}