{
  "_format": "hh-sol-artifact-1",
  "contractName": "Governable",
  "sourceName": "contracts/generic/Governable.sol",
  "abi": [
    {
      "anonymous": false,
      "inputs": [
        {
          "indexed": true,
          "internalType": "address",
          "name": "previousOwner",
          "type": "address"
        },
        {
          "indexed": true,
          "internalType": "address",
          "name": "newOwner",
          "type": "address"
        }
      ],
      "name": "OwnershipTransferred",
      "type": "event"
    },
    {
      "inputs": [],
      "name": "governance",
      "outputs": [
        {
          "internalType": "address",
          "name": "",
          "type": "address"
        }
      ],
      "stateMutability": "view",
      "type": "function"
    },
    {
      "inputs": [],
      "name": "owner",
      "outputs": [
        {
          "internalType": "address",
          "name": "",
          "type": "address"
        }
      ],
      "stateMutability": "view",
      "type": "function"
    },
    {
      "inputs": [],
      "name": "renounceOwnership",
      "outputs": [],
      "stateMutability": "nonpayable",
      "type": "function"
    },
    {
      "inputs": [
        {
          "internalType": "address",
          "name": "_gov",
          "type": "address"
        }
      ],
      "name": "setGovernance",
      "outputs": [],
      "stateMutability": "nonpayable",
      "type": "function"
    },
    {
      "inputs": [
        {
          "internalType": "address",
          "name": "newOwner",
          "type": "address"
        }
      ],
      "name": "transferOwnership",
      "outputs": [],
      "stateMutability": "nonpayable",
      "type": "function"
    }
  ],
  "bytecode": "0x608060405234801561001057600080fd5b5061036b806100206000396000f3fe608060405234801561001057600080fd5b50600436106100575760003560e01c80635aa6e6751461005c578063715018a61461008b5780638da5cb5b14610095578063ab033ea9146100a6578063f2fde38b146100b9575b600080fd5b60655461006f906001600160a01b031681565b6040516001600160a01b03909116815260200160405180910390f35b6100936100cc565b005b6033546001600160a01b031661006f565b6100936100b4366004610307565b610137565b6100936100c7366004610307565b6101ea565b6033546001600160a01b0316331461012b5760405162461bcd60e51b815260206004820181905260248201527f4f776e61626c653a2063616c6c6572206973206e6f7420746865206f776e657260448201526064015b60405180910390fd5b61013560006102b5565b565b6065546001600160a01b031633146101835760405162461bcd60e51b815260206004820152600f60248201526e216f6e6c79476f7665726e616e636560881b6044820152606401610122565b6001600160a01b0381166101c85760405162461bcd60e51b815260206004820152600c60248201526b6e756c6c206164647265737360a01b6044820152606401610122565b606580546001600160a01b0319166001600160a01b0392909216919091179055565b6033546001600160a01b031633146102445760405162461bcd60e51b815260206004820181905260248201527f4f776e61626c653a2063616c6c6572206973206e6f7420746865206f776e65726044820152606401610122565b6001600160a01b0381166102a95760405162461bcd60e51b815260206004820152602660248201527f4f776e61626c653a206e6577206f776e657220697320746865207a65726f206160448201526564647265737360d01b6064820152608401610122565b6102b2816102b5565b50565b603380546001600160a01b038381166001600160a01b0319831681179093556040519116919082907f8be0079c531659141344cd1fd0a4f28419497f9722a3daafe3b4186f6b6457e090600090a35050565b600060208284031215610318578081fd5b81356001600160a01b038116811461032e578182fd5b939250505056fea26469706673582212209be8c3d210649916c6e2cea6f10987391e40a44c748ac3ddf54ea63bb444286a64736f6c63430008030033",
  "linkReferences": {},
  "deployedLinkReferences": {}
}