{
  "_format": "hh-sol-artifact-1",
  "contractName": "DTOBridgeToken",
  "sourceName": "contracts/generic/DTOBridgeToken.sol",
  "abi": [
    {
      "anonymous": false,
      "inputs": [
        {
          "indexed": true,
          "internalType": "address",
          "name": "owner",
          "type": "address"
        },
        {
          "indexed": true,
          "internalType": "address",
          "name": "spender",
          "type": "address"
        },
        {
          "indexed": false,
          "internalType": "uint256",
          "name": "value",
          "type": "uint256"
        }
      ],
      "name": "Approval",
      "type": "event"
    },
    {
      "anonymous": false,
      "inputs": [
        {
          "indexed": true,
          "internalType": "address",
          "name": "previousOwner",
          "type": "address"
        },
        {
          "indexed": true,
          "internalType": "address",
          "name": "newOwner",
          "type": "address"
        }
      ],
      "name": "OwnershipTransferred",
      "type": "event"
    },
    {
      "anonymous": false,
      "inputs": [
        {
          "indexed": true,
          "internalType": "address",
          "name": "from",
          "type": "address"
        },
        {
          "indexed": true,
          "internalType": "address",
          "name": "to",
          "type": "address"
        },
        {
          "indexed": false,
          "internalType": "uint256",
          "name": "value",
          "type": "uint256"
        }
      ],
      "name": "Transfer",
      "type": "event"
    },
    {
      "inputs": [
        {
          "internalType": "address",
          "name": "owner",
          "type": "address"
        },
        {
          "internalType": "address",
          "name": "spender",
          "type": "address"
        }
      ],
      "name": "allowance",
      "outputs": [
        {
          "internalType": "uint256",
          "name": "",
          "type": "uint256"
        }
      ],
      "stateMutability": "view",
      "type": "function"
    },
    {
      "inputs": [
        {
          "internalType": "bytes32",
          "name": "",
          "type": "bytes32"
        }
      ],
      "name": "alreadyClaims",
      "outputs": [
        {
          "internalType": "bool",
          "name": "",
          "type": "bool"
        }
      ],
      "stateMutability": "view",
      "type": "function"
    },
    {
      "inputs": [
        {
          "internalType": "address",
          "name": "spender",
          "type": "address"
        },
        {
          "internalType": "uint256",
          "name": "amount",
          "type": "uint256"
        }
      ],
      "name": "approve",
      "outputs": [
        {
          "internalType": "bool",
          "name": "",
          "type": "bool"
        }
      ],
      "stateMutability": "nonpayable",
      "type": "function"
    },
    {
      "inputs": [
        {
          "internalType": "address",
          "name": "account",
          "type": "address"
        }
      ],
      "name": "balanceOf",
      "outputs": [
        {
          "internalType": "uint256",
          "name": "",
          "type": "uint256"
        }
      ],
      "stateMutability": "view",
      "type": "function"
    },
    {
      "inputs": [
        {
          "internalType": "uint256",
          "name": "amount",
          "type": "uint256"
        }
      ],
      "name": "burn",
      "outputs": [],
      "stateMutability": "nonpayable",
      "type": "function"
    },
    {
      "inputs": [
        {
          "internalType": "address",
          "name": "account",
          "type": "address"
        },
        {
          "internalType": "uint256",
          "name": "amount",
          "type": "uint256"
        }
      ],
      "name": "burnFrom",
      "outputs": [],
      "stateMutability": "nonpayable",
      "type": "function"
    },
    {
      "inputs": [],
      "name": "chainId",
      "outputs": [
        {
          "internalType": "uint256",
          "name": "",
          "type": "uint256"
        }
      ],
      "stateMutability": "view",
      "type": "function"
    },
    {
      "inputs": [
        {
          "internalType": "address",
          "name": "_originToken",
          "type": "address"
        },
        {
          "internalType": "address",
          "name": "_to",
          "type": "address"
        },
        {
          "internalType": "uint256",
          "name": "_amount",
          "type": "uint256"
        },
        {
          "internalType": "uint256[]",
          "name": "_chainIdsIndex",
          "type": "uint256[]"
        },
        {
          "internalType": "bytes32",
          "name": "_txHash",
          "type": "bytes32"
        }
      ],
      "name": "claimBridgeToken",
      "outputs": [],
      "stateMutability": "nonpayable",
      "type": "function"
    },
    {
      "inputs": [],
      "name": "decimals",
      "outputs": [
        {
          "internalType": "uint8",
          "name": "",
          "type": "uint8"
        }
      ],
      "stateMutability": "view",
      "type": "function"
    },
    {
      "inputs": [
        {
          "internalType": "address",
          "name": "spender",
          "type": "address"
        },
        {
          "internalType": "uint256",
          "name": "subtractedValue",
          "type": "uint256"
        }
      ],
      "name": "decreaseAllowance",
      "outputs": [
        {
          "internalType": "bool",
          "name": "",
          "type": "bool"
        }
      ],
      "stateMutability": "nonpayable",
      "type": "function"
    },
    {
      "inputs": [
        {
          "internalType": "address",
          "name": "spender",
          "type": "address"
        },
        {
          "internalType": "uint256",
          "name": "addedValue",
          "type": "uint256"
        }
      ],
      "name": "increaseAllowance",
      "outputs": [
        {
          "internalType": "bool",
          "name": "",
          "type": "bool"
        }
      ],
      "stateMutability": "nonpayable",
      "type": "function"
    },
    {
      "inputs": [
        {
          "internalType": "address",
          "name": "_originalTokenAddress",
          "type": "address"
        },
        {
          "internalType": "uint256",
          "name": "_originChainId",
          "type": "uint256"
        },
        {
          "internalType": "string",
          "name": "_tokenName",
          "type": "string"
        },
        {
          "internalType": "string",
          "name": "_tokenSymbol",
          "type": "string"
        },
        {
          "internalType": "uint8",
          "name": "__decimals",
          "type": "uint8"
        }
      ],
      "name": "initialize",
      "outputs": [],
      "stateMutability": "nonpayable",
      "type": "function"
    },
    {
      "inputs": [],
      "name": "name",
      "outputs": [
        {
          "internalType": "string",
          "name": "",
          "type": "string"
        }
      ],
      "stateMutability": "view",
      "type": "function"
    },
    {
      "inputs": [],
      "name": "originChainId",
      "outputs": [
        {
          "internalType": "uint256",
          "name": "",
          "type": "uint256"
        }
      ],
      "stateMutability": "view",
      "type": "function"
    },
    {
      "inputs": [],
      "name": "originalTokenAddress",
      "outputs": [
        {
          "internalType": "address",
          "name": "",
          "type": "address"
        }
      ],
      "stateMutability": "view",
      "type": "function"
    },
    {
      "inputs": [],
      "name": "owner",
      "outputs": [
        {
          "internalType": "address",
          "name": "",
          "type": "address"
        }
      ],
      "stateMutability": "view",
      "type": "function"
    },
    {
      "inputs": [],
      "name": "renounceOwnership",
      "outputs": [],
      "stateMutability": "nonpayable",
      "type": "function"
    },
    {
      "inputs": [],
      "name": "symbol",
      "outputs": [
        {
          "internalType": "string",
          "name": "",
          "type": "string"
        }
      ],
      "stateMutability": "view",
      "type": "function"
    },
    {
      "inputs": [],
      "name": "totalSupply",
      "outputs": [
        {
          "internalType": "uint256",
          "name": "",
          "type": "uint256"
        }
      ],
      "stateMutability": "view",
      "type": "function"
    },
    {
      "inputs": [
        {
          "internalType": "address",
          "name": "recipient",
          "type": "address"
        },
        {
          "internalType": "uint256",
          "name": "amount",
          "type": "uint256"
        }
      ],
      "name": "transfer",
      "outputs": [
        {
          "internalType": "bool",
          "name": "",
          "type": "bool"
        }
      ],
      "stateMutability": "nonpayable",
      "type": "function"
    },
    {
      "inputs": [
        {
          "internalType": "address",
          "name": "sender",
          "type": "address"
        },
        {
          "internalType": "address",
          "name": "recipient",
          "type": "address"
        },
        {
          "internalType": "uint256",
          "name": "amount",
          "type": "uint256"
        }
      ],
      "name": "transferFrom",
      "outputs": [
        {
          "internalType": "bool",
          "name": "",
          "type": "bool"
        }
      ],
      "stateMutability": "nonpayable",
      "type": "function"
    },
    {
      "inputs": [
        {
          "internalType": "address",
          "name": "newOwner",
          "type": "address"
        }
      ],
      "name": "transferOwnership",
      "outputs": [],
      "stateMutability": "nonpayable",
      "type": "function"
    }
  ],
  "bytecode": "0x608060405234801561001057600080fd5b5061179d806100206000396000f3fe608060405234801561001057600080fd5b50600436106101425760003560e01c806379cc6790116100b85780639a8a05921161007c5780639a8a05921461029f578063a457c2d7146102a8578063a9059cbb146102bb578063be88368d146102ce578063dd62ed3e146102e1578063f2fde38b1461031a57610142565b806379cc6790146102255780637a4f7d79146102385780638d68fdc8146102635780638da5cb5b1461028657806395d89b411461029757610142565b8063313ce5671161010a578063313ce567146101ba57806339509351146101cf57806342966c68146101e257806370a08231146101f7578063715018a61461020a57806378062d021461021257610142565b806306fdde0314610147578063095ea7b3146101655780630ac7f5611461018857806318160ddd1461019f57806323b872dd146101a7575b600080fd5b61014f61032d565b60405161015c919061160a565b60405180910390f35b61017861017336600461143e565b6103bf565b604051901515815260200161015c565b61019160cc5481565b60405190815260200161015c565b603554610191565b6101786101b5366004611328565b6103d5565b60cd5460405160ff909116815260200161015c565b6101786101dd36600461143e565b610484565b6101f56101f03660046114fc565b6104c0565b005b6101916102053660046112d5565b6104cd565b6101f56104ec565b6101f5610220366004611363565b610522565b6101f561023336600461143e565b610762565b60cb5461024b906001600160a01b031681565b6040516001600160a01b03909116815260200161015c565b6101786102713660046114fc565b60ca6020526000908152604090205460ff1681565b6097546001600160a01b031661024b565b61014f6107e8565b61019160c95481565b6101786102b636600461143e565b6107f7565b6101786102c936600461143e565b610890565b6101f56102dc366004611467565b61089d565b6101916102ef3660046112f6565b6001600160a01b03918216600090815260346020908152604080832093909416825291909152205490565b6101f56103283660046112d5565b610957565b60606036805461033c90611700565b80601f016020809104026020016040519081016040528092919081815260200182805461036890611700565b80156103b55780601f1061038a576101008083540402835291602001916103b5565b820191906000526020600020905b81548152906001019060200180831161039857829003601f168201915b5050505050905090565b60006103cc3384846109ef565b50600192915050565b60006103e2848484610b13565b6001600160a01b03841660009081526034602090815260408083203384529091529020548281101561046c5760405162461bcd60e51b815260206004820152602860248201527f45524332303a207472616e7366657220616d6f756e74206578636565647320616044820152676c6c6f77616e636560c01b60648201526084015b60405180910390fd5b61047985338584036109ef565b506001949350505050565b3360008181526034602090815260408083206001600160a01b038716845290915281205490916103cc9185906104bb9086906116d1565b6109ef565b6104ca3382610ce2565b50565b6001600160a01b0381166000908152603360205260409020545b919050565b6097546001600160a01b031633146105165760405162461bcd60e51b81526004016104639061166b565b6105206000610e30565b565b6097546001600160a01b0316331461054c5760405162461bcd60e51b81526004016104639061166b565b81516004146105965760405162461bcd60e51b8152602060048201526016602482015275042bec6d0c2d2dc92c8e692dcc8caf05cd8cadccee8d60531b6044820152606401610463565b60cb546001600160a01b038681169116146105eb5760405162461bcd60e51b8152602060048201526015602482015274216f726967696e616c546f6b656e4164647265737360581b6044820152606401610463565b60c9548260028151811061060f57634e487b7160e01b600052603260045260246000fd5b6020026020010151146106575760405162461bcd60e51b815260206004820152601060248201526f085a5b9d985b1a590818da185a5b925960821b6044820152606401610463565b6001600160a01b03841661069b5760405162461bcd60e51b815260206004820152600b60248201526a21696e76616c696420746f60a81b6044820152606401610463565b600085858585856106aa61032d565b6106b26107e8565b60cd5460ff166040516020016106cf98979695949392919061155f565b60408051601f198184030181529181528151602092830120600081815260ca90935291205490915060ff16156107375760405162461bcd60e51b815260206004820152600d60248201526c616c726561647920636c61696d60981b6044820152606401610463565b600081815260ca60205260409020805460ff1916600117905561075a8585610e82565b505050505050565b600061076e83336102ef565b9050818110156107cc5760405162461bcd60e51b8152602060048201526024808201527f45524332303a206275726e20616d6f756e74206578636565647320616c6c6f77604482015263616e636560e01b6064820152608401610463565b6107d983338484036109ef565b6107e38383610ce2565b505050565b60606037805461033c90611700565b3360009081526034602090815260408083206001600160a01b0386168452909152812054828110156108795760405162461bcd60e51b815260206004820152602560248201527f45524332303a2064656372656173656420616c6c6f77616e63652062656c6f77604482015264207a65726f60d81b6064820152608401610463565b61088633858584036109ef565b5060019392505050565b60006103cc338484610b13565b600054610100900460ff16806108b6575060005460ff16155b6108d25760405162461bcd60e51b81526004016104639061161d565b600054610100900460ff161580156108f4576000805461ffff19166101011790555b6108fc610f61565b6109054660c955565b61090f8484610fdc565b60cd805460ff191660ff841617905560cb80546001600160a01b0319166001600160a01b03881617905560cc859055801561075a576000805461ff0019169055505050505050565b6097546001600160a01b031633146109815760405162461bcd60e51b81526004016104639061166b565b6001600160a01b0381166109e65760405162461bcd60e51b815260206004820152602660248201527f4f776e61626c653a206e6577206f776e657220697320746865207a65726f206160448201526564647265737360d01b6064820152608401610463565b6104ca81610e30565b6001600160a01b038316610a515760405162461bcd60e51b8152602060048201526024808201527f45524332303a20617070726f76652066726f6d20746865207a65726f206164646044820152637265737360e01b6064820152608401610463565b6001600160a01b038216610ab25760405162461bcd60e51b815260206004820152602260248201527f45524332303a20617070726f766520746f20746865207a65726f206164647265604482015261737360f01b6064820152608401610463565b6001600160a01b0383811660008181526034602090815260408083209487168084529482529182902085905590518481527f8c5be1e5ebec7d5bd14f71427d1e84f3dd0314c0f7b2291e5b200ac8c7c3b925910160405180910390a3505050565b6001600160a01b038316610b775760405162461bcd60e51b815260206004820152602560248201527f45524332303a207472616e736665722066726f6d20746865207a65726f206164604482015264647265737360d81b6064820152608401610463565b6001600160a01b038216610bd95760405162461bcd60e51b815260206004820152602360248201527f45524332303a207472616e7366657220746f20746865207a65726f206164647260448201526265737360e81b6064820152608401610463565b6001600160a01b03831660009081526033602052604090205481811015610c515760405162461bcd60e51b815260206004820152602660248201527f45524332303a207472616e7366657220616d6f756e7420657863656564732062604482015265616c616e636560d01b6064820152608401610463565b6001600160a01b03808516600090815260336020526040808220858503905591851681529081208054849290610c889084906116d1565b92505081905550826001600160a01b0316846001600160a01b03167fddf252ad1be2c89b69c2b068fc378daa952ba7f163c4a11628f55a4df523b3ef84604051610cd491815260200190565b60405180910390a350505050565b6001600160a01b038216610d425760405162461bcd60e51b815260206004820152602160248201527f45524332303a206275726e2066726f6d20746865207a65726f206164647265736044820152607360f81b6064820152608401610463565b6001600160a01b03821660009081526033602052604090205481811015610db65760405162461bcd60e51b815260206004820152602260248201527f45524332303a206275726e20616d6f756e7420657863656564732062616c616e604482015261636560f01b6064820152608401610463565b6001600160a01b0383166000908152603360205260408120838303905560358054849290610de59084906116e9565b90915550506040518281526000906001600160a01b038516907fddf252ad1be2c89b69c2b068fc378daa952ba7f163c4a11628f55a4df523b3ef9060200160405180910390a36107e3565b609780546001600160a01b038381166001600160a01b0319831681179093556040519116919082907f8be0079c531659141344cd1fd0a4f28419497f9722a3daafe3b4186f6b6457e090600090a35050565b6001600160a01b038216610ed85760405162461bcd60e51b815260206004820152601f60248201527f45524332303a206d696e7420746f20746865207a65726f2061646472657373006044820152606401610463565b8060356000828254610eea91906116d1565b90915550506001600160a01b03821660009081526033602052604081208054839290610f179084906116d1565b90915550506040518181526001600160a01b038316906000907fddf252ad1be2c89b69c2b068fc378daa952ba7f163c4a11628f55a4df523b3ef9060200160405180910390a35050565b600054610100900460ff1680610f7a575060005460ff16155b610f965760405162461bcd60e51b81526004016104639061161d565b600054610100900460ff16158015610fb8576000805461ffff19166101011790555b610fc061105b565b610fc86110c5565b80156104ca576000805461ff001916905550565b600054610100900460ff1680610ff5575060005460ff16155b6110115760405162461bcd60e51b81526004016104639061161d565b600054610100900460ff16158015611033576000805461ffff19166101011790555b61103b61105b565b6110458383611125565b80156107e3576000805461ff0019169055505050565b600054610100900460ff1680611074575060005460ff16155b6110905760405162461bcd60e51b81526004016104639061161d565b600054610100900460ff16158015610fc8576000805461ffff191661010117905580156104ca576000805461ff001916905550565b600054610100900460ff16806110de575060005460ff16155b6110fa5760405162461bcd60e51b81526004016104639061161d565b600054610100900460ff1615801561111c576000805461ffff19166101011790555b610fc833610e30565b600054610100900460ff168061113e575060005460ff16155b61115a5760405162461bcd60e51b81526004016104639061161d565b600054610100900460ff1615801561117c576000805461ffff19166101011790555b825161118f9060369060208601906111ba565b5081516111a39060379060208501906111ba565b5080156107e3576000805461ff0019169055505050565b8280546111c690611700565b90600052602060002090601f0160209004810192826111e8576000855561122e565b82601f1061120157805160ff191683800117855561122e565b8280016001018555821561122e579182015b8281111561122e578251825591602001919060010190611213565b5061123a92915061123e565b5090565b5b8082111561123a576000815560010161123f565b80356001600160a01b03811681146104e757600080fd5b600082601f83011261127a578081fd5b813567ffffffffffffffff81111561129457611294611751565b6112a7601f8201601f19166020016116a0565b8181528460208386010111156112bb578283fd5b816020850160208301379081016020019190915292915050565b6000602082840312156112e6578081fd5b6112ef82611253565b9392505050565b60008060408385031215611308578081fd5b61131183611253565b915061131f60208401611253565b90509250929050565b60008060006060848603121561133c578081fd5b61134584611253565b925061135360208501611253565b9150604084013590509250925092565b600080600080600060a0868803121561137a578081fd5b61138386611253565b94506020611392818801611253565b945060408701359350606087013567ffffffffffffffff808211156113b5578384fd5b818901915089601f8301126113c8578384fd5b8135818111156113da576113da611751565b8060051b91506113eb8483016116a0565b8181528481019084860184860187018e1015611405578788fd5b8795505b83861015611427578035835260019590950194918601918601611409565b50999c989b50969960800135979650505050505050565b60008060408385031215611450578182fd5b61145983611253565b946020939093013593505050565b600080600080600060a0868803121561147e578081fd5b61148786611253565b945060208601359350604086013567ffffffffffffffff808211156114aa578283fd5b6114b689838a0161126a565b945060608801359150808211156114cb578283fd5b506114d88882890161126a565b925050608086013560ff811681146114ee578182fd5b809150509295509295909350565b60006020828403121561150d578081fd5b5035919050565b60008151808452815b818110156115395760208185018101518683018201520161151d565b8181111561154a5782602083870101525b50601f01601f19169290920160200192915050565b6001600160a01b03898116825288166020808301919091526040820188905261010060608301819052875190830181905260009161012084019189820191845b828110156115bb5783518552938101939281019260010161159f565b5050505086608084015282810360a08401526115d78187611514565b905082810360c08401526115eb8186611514565b9150506115fd60e083018460ff169052565b9998505050505050505050565b6000602082526112ef6020830184611514565b6020808252602e908201527f496e697469616c697a61626c653a20636f6e747261637420697320616c72656160408201526d191e481a5b9a5d1a585b1a5e995960921b606082015260800190565b6020808252818101527f4f776e61626c653a2063616c6c6572206973206e6f7420746865206f776e6572604082015260600190565b604051601f8201601f1916810167ffffffffffffffff811182821017156116c9576116c9611751565b604052919050565b600082198211156116e4576116e461173b565b500190565b6000828210156116fb576116fb61173b565b500390565b600181811c9082168061171457607f821691505b6020821081141561173557634e487b7160e01b600052602260045260246000fd5b50919050565b634e487b7160e01b600052601160045260246000fd5b634e487b7160e01b600052604160045260246000fdfea2646970667358221220f1baad48d499ee8930d1919fc8390944bf4f0f021dc612b67a9bad4a069750a364736f6c63430008030033",
  "linkReferences": {},
  "deployedLinkReferences": {}
}