{
  "_format": "hh-sol-artifact-1",
  "contractName": "DTOStaking",
  "sourceName": "contracts/validator/DTOStaking.sol",
  "abi": [
    {
      "inputs": [],
      "stateMutability": "nonpayable",
      "type": "constructor"
    },
    {
      "anonymous": false,
      "inputs": [
        {
          "indexed": false,
          "internalType": "address",
          "name": "previousAdmin",
          "type": "address"
        },
        {
          "indexed": false,
          "internalType": "address",
          "name": "newAdmin",
          "type": "address"
        }
      ],
      "name": "AdminChanged",
      "type": "event"
    },
    {
      "anonymous": false,
      "inputs": [
        {
          "indexed": true,
          "internalType": "address",
          "name": "beacon",
          "type": "address"
        }
      ],
      "name": "BeaconUpgraded",
      "type": "event"
    },
    {
      "anonymous": false,
      "inputs": [
        {
          "indexed": true,
          "internalType": "address",
          "name": "previousOwner",
          "type": "address"
        },
        {
          "indexed": true,
          "internalType": "address",
          "name": "newOwner",
          "type": "address"
        }
      ],
      "name": "OwnershipTransferred",
      "type": "event"
    },
    {
      "anonymous": false,
      "inputs": [
        {
          "indexed": false,
          "internalType": "address",
          "name": "account",
          "type": "address"
        }
      ],
      "name": "Paused",
      "type": "event"
    },
    {
      "anonymous": false,
      "inputs": [
        {
          "indexed": false,
          "internalType": "address",
          "name": "token",
          "type": "address"
        },
        {
          "indexed": false,
          "internalType": "uint256",
          "name": "amount",
          "type": "uint256"
        }
      ],
      "name": "Recovered",
      "type": "event"
    },
    {
      "anonymous": false,
      "inputs": [
        {
          "indexed": false,
          "internalType": "uint256",
          "name": "reward",
          "type": "uint256"
        }
      ],
      "name": "RewardAdded",
      "type": "event"
    },
    {
      "anonymous": false,
      "inputs": [
        {
          "indexed": true,
          "internalType": "address",
          "name": "user",
          "type": "address"
        },
        {
          "indexed": false,
          "internalType": "uint256",
          "name": "reward",
          "type": "uint256"
        }
      ],
      "name": "RewardPaid",
      "type": "event"
    },
    {
      "anonymous": false,
      "inputs": [
        {
          "indexed": false,
          "internalType": "uint256",
          "name": "newDuration",
          "type": "uint256"
        }
      ],
      "name": "RewardsDurationUpdated",
      "type": "event"
    },
    {
      "anonymous": false,
      "inputs": [
        {
          "indexed": true,
          "internalType": "address",
          "name": "user",
          "type": "address"
        },
        {
          "indexed": false,
          "internalType": "uint256",
          "name": "amount",
          "type": "uint256"
        }
      ],
      "name": "Staked",
      "type": "event"
    },
    {
      "anonymous": false,
      "inputs": [
        {
          "indexed": false,
          "internalType": "address",
          "name": "account",
          "type": "address"
        }
      ],
      "name": "Unpaused",
      "type": "event"
    },
    {
      "anonymous": false,
      "inputs": [
        {
          "indexed": true,
          "internalType": "address",
          "name": "implementation",
          "type": "address"
        }
      ],
      "name": "Upgraded",
      "type": "event"
    },
    {
      "anonymous": false,
      "inputs": [
        {
          "indexed": true,
          "internalType": "address",
          "name": "user",
          "type": "address"
        },
        {
          "indexed": false,
          "internalType": "uint256",
          "name": "amount",
          "type": "uint256"
        }
      ],
      "name": "Withdrawn",
      "type": "event"
    },
    {
      "inputs": [
        {
          "internalType": "address",
          "name": "account",
          "type": "address"
        }
      ],
      "name": "balanceOf",
      "outputs": [
        {
          "internalType": "uint256",
          "name": "",
          "type": "uint256"
        }
      ],
      "stateMutability": "view",
      "type": "function"
    },
    {
      "inputs": [
        {
          "internalType": "uint256",
          "name": "_stakingLockTime",
          "type": "uint256"
        }
      ],
      "name": "changeLockTime",
      "outputs": [],
      "stateMutability": "nonpayable",
      "type": "function"
    },
    {
      "inputs": [
        {
          "internalType": "address",
          "name": "account",
          "type": "address"
        }
      ],
      "name": "earned",
      "outputs": [
        {
          "internalType": "uint256",
          "name": "",
          "type": "uint256"
        }
      ],
      "stateMutability": "view",
      "type": "function"
    },
    {
      "inputs": [],
      "name": "exit",
      "outputs": [],
      "stateMutability": "nonpayable",
      "type": "function"
    },
    {
      "inputs": [
        {
          "internalType": "address",
          "name": "_user",
          "type": "address"
        }
      ],
      "name": "getLockInfo",
      "outputs": [
        {
          "internalType": "bool[]",
          "name": "isWithdrawns",
          "type": "bool[]"
        },
        {
          "internalType": "address[]",
          "name": "tokens",
          "type": "address[]"
        },
        {
          "internalType": "uint256[]",
          "name": "unlockableAts",
          "type": "uint256[]"
        },
        {
          "internalType": "uint256[]",
          "name": "amounts",
          "type": "uint256[]"
        }
      ],
      "stateMutability": "view",
      "type": "function"
    },
    {
      "inputs": [
        {
          "internalType": "address",
          "name": "_addr",
          "type": "address"
        },
        {
          "internalType": "uint256[]",
          "name": "_indexes",
          "type": "uint256[]"
        }
      ],
      "name": "getLockInfoByIndexes",
      "outputs": [
        {
          "internalType": "bool[]",
          "name": "isWithdrawns",
          "type": "bool[]"
        },
        {
          "internalType": "address[]",
          "name": "tokens",
          "type": "address[]"
        },
        {
          "internalType": "uint256[]",
          "name": "unlockableAts",
          "type": "uint256[]"
        },
        {
          "internalType": "uint256[]",
          "name": "amounts",
          "type": "uint256[]"
        }
      ],
      "stateMutability": "view",
      "type": "function"
    },
    {
      "inputs": [
        {
          "internalType": "address",
          "name": "_addr",
          "type": "address"
        }
      ],
      "name": "getLockInfoLength",
      "outputs": [
        {
          "internalType": "uint256",
          "name": "",
          "type": "uint256"
        }
      ],
      "stateMutability": "view",
      "type": "function"
    },
    {
      "inputs": [],
      "name": "getReward",
      "outputs": [],
      "stateMutability": "nonpayable",
      "type": "function"
    },
    {
      "inputs": [],
      "name": "getRewardForDuration",
      "outputs": [
        {
          "internalType": "uint256",
          "name": "",
          "type": "uint256"
        }
      ],
      "stateMutability": "view",
      "type": "function"
    },
    {
      "inputs": [
        {
          "internalType": "address",
          "name": "_addr",
          "type": "address"
        },
        {
          "internalType": "uint256",
          "name": "index",
          "type": "uint256"
        }
      ],
      "name": "getUnlock",
      "outputs": [],
      "stateMutability": "nonpayable",
      "type": "function"
    },
    {
      "inputs": [
        {
          "internalType": "address",
          "name": "_rewardsToken",
          "type": "address"
        },
        {
          "internalType": "address",
          "name": "_stakingToken",
          "type": "address"
        },
        {
          "internalType": "address",
          "name": "_stakingTokenLock",
          "type": "address"
        },
        {
          "internalType": "uint256",
          "name": "_periodFinish",
          "type": "uint256"
        },
        {
          "internalType": "uint256",
          "name": "_rewardRate",
          "type": "uint256"
        },
        {
          "internalType": "uint256",
          "name": "_rewardsDuration",
          "type": "uint256"
        },
        {
          "internalType": "uint256",
          "name": "_stakingLockTime",
          "type": "uint256"
        }
      ],
      "name": "initialize",
      "outputs": [],
      "stateMutability": "nonpayable",
      "type": "function"
    },
    {
      "inputs": [],
      "name": "lastTimeRewardApplicable",
      "outputs": [
        {
          "internalType": "uint256",
          "name": "",
          "type": "uint256"
        }
      ],
      "stateMutability": "view",
      "type": "function"
    },
    {
      "inputs": [],
      "name": "lastUpdateTime",
      "outputs": [
        {
          "internalType": "uint256",
          "name": "",
          "type": "uint256"
        }
      ],
      "stateMutability": "view",
      "type": "function"
    },
    {
      "inputs": [
        {
          "internalType": "uint256",
          "name": "reward",
          "type": "uint256"
        }
      ],
      "name": "notifyRewardAmount",
      "outputs": [],
      "stateMutability": "nonpayable",
      "type": "function"
    },
    {
      "inputs": [],
      "name": "owner",
      "outputs": [
        {
          "internalType": "address",
          "name": "",
          "type": "address"
        }
      ],
      "stateMutability": "view",
      "type": "function"
    },
    {
      "inputs": [],
      "name": "paused",
      "outputs": [
        {
          "internalType": "bool",
          "name": "",
          "type": "bool"
        }
      ],
      "stateMutability": "view",
      "type": "function"
    },
    {
      "inputs": [],
      "name": "periodFinish",
      "outputs": [
        {
          "internalType": "uint256",
          "name": "",
          "type": "uint256"
        }
      ],
      "stateMutability": "view",
      "type": "function"
    },
    {
      "inputs": [
        {
          "internalType": "address",
          "name": "tokenAddress",
          "type": "address"
        },
        {
          "internalType": "uint256",
          "name": "tokenAmount",
          "type": "uint256"
        }
      ],
      "name": "recoverERC20",
      "outputs": [],
      "stateMutability": "nonpayable",
      "type": "function"
    },
    {
      "inputs": [],
      "name": "renounceOwnership",
      "outputs": [],
      "stateMutability": "nonpayable",
      "type": "function"
    },
    {
      "inputs": [],
      "name": "rewardPerToken",
      "outputs": [
        {
          "internalType": "uint256",
          "name": "",
          "type": "uint256"
        }
      ],
      "stateMutability": "view",
      "type": "function"
    },
    {
      "inputs": [],
      "name": "rewardPerTokenStored",
      "outputs": [
        {
          "internalType": "uint256",
          "name": "",
          "type": "uint256"
        }
      ],
      "stateMutability": "view",
      "type": "function"
    },
    {
      "inputs": [],
      "name": "rewardRate",
      "outputs": [
        {
          "internalType": "uint256",
          "name": "",
          "type": "uint256"
        }
      ],
      "stateMutability": "view",
      "type": "function"
    },
    {
      "inputs": [
        {
          "internalType": "address",
          "name": "",
          "type": "address"
        }
      ],
      "name": "rewards",
      "outputs": [
        {
          "internalType": "uint256",
          "name": "",
          "type": "uint256"
        }
      ],
      "stateMutability": "view",
      "type": "function"
    },
    {
      "inputs": [],
      "name": "rewardsDistribution",
      "outputs": [
        {
          "internalType": "address",
          "name": "",
          "type": "address"
        }
      ],
      "stateMutability": "view",
      "type": "function"
    },
    {
      "inputs": [],
      "name": "rewardsDuration",
      "outputs": [
        {
          "internalType": "uint256",
          "name": "",
          "type": "uint256"
        }
      ],
      "stateMutability": "view",
      "type": "function"
    },
    {
      "inputs": [],
      "name": "rewardsToken",
      "outputs": [
        {
          "internalType": "contract IERC20Upgradeable",
          "name": "",
          "type": "address"
        }
      ],
      "stateMutability": "view",
      "type": "function"
    },
    {
      "inputs": [
        {
          "internalType": "uint256",
          "name": "_rewardsDuration",
          "type": "uint256"
        }
      ],
      "name": "setRewardsDuration",
      "outputs": [],
      "stateMutability": "nonpayable",
      "type": "function"
    },
    {
      "inputs": [
        {
          "internalType": "uint256",
          "name": "amount",
          "type": "uint256"
        }
      ],
      "name": "stake",
      "outputs": [],
      "stateMutability": "nonpayable",
      "type": "function"
    },
    {
      "inputs": [],
      "name": "stakingLockTime",
      "outputs": [
        {
          "internalType": "uint256",
          "name": "",
          "type": "uint256"
        }
      ],
      "stateMutability": "view",
      "type": "function"
    },
    {
      "inputs": [],
      "name": "stakingToken",
      "outputs": [
        {
          "internalType": "contract IERC20Upgradeable",
          "name": "",
          "type": "address"
        }
      ],
      "stateMutability": "view",
      "type": "function"
    },
    {
      "inputs": [],
      "name": "stakingTokenLock",
      "outputs": [
        {
          "internalType": "contract IStakingTokenLock",
          "name": "",
          "type": "address"
        }
      ],
      "stateMutability": "view",
      "type": "function"
    },
    {
      "inputs": [],
      "name": "totalSupply",
      "outputs": [
        {
          "internalType": "uint256",
          "name": "",
          "type": "uint256"
        }
      ],
      "stateMutability": "view",
      "type": "function"
    },
    {
      "inputs": [
        {
          "internalType": "address",
          "name": "newOwner",
          "type": "address"
        }
      ],
      "name": "transferOwnership",
      "outputs": [],
      "stateMutability": "nonpayable",
      "type": "function"
    },
    {
      "inputs": [
        {
          "internalType": "address",
          "name": "newImplementation",
          "type": "address"
        }
      ],
      "name": "upgradeTo",
      "outputs": [],
      "stateMutability": "nonpayable",
      "type": "function"
    },
    {
      "inputs": [
        {
          "internalType": "address",
          "name": "newImplementation",
          "type": "address"
        },
        {
          "internalType": "bytes",
          "name": "data",
          "type": "bytes"
        }
      ],
      "name": "upgradeToAndCall",
      "outputs": [],
      "stateMutability": "payable",
      "type": "function"
    },
    {
      "inputs": [
        {
          "internalType": "address",
          "name": "",
          "type": "address"
        }
      ],
      "name": "userRewardPerTokenPaid",
      "outputs": [
        {
          "internalType": "uint256",
          "name": "",
          "type": "uint256"
        }
      ],
      "stateMutability": "view",
      "type": "function"
    },
    {
      "inputs": [
        {
          "internalType": "uint256",
          "name": "amount",
          "type": "uint256"
        }
      ],
      "name": "withdraw",
      "outputs": [],
      "stateMutability": "nonpayable",
      "type": "function"
    }
  ],
  "bytecode": "0x608060405234801561001057600080fd5b50600054610100900460ff168061002a575060005460ff16155b6100915760405162461bcd60e51b815260206004820152602e60248201527f496e697469616c697a61626c653a20636f6e747261637420697320616c72656160448201526d191e481a5b9a5d1a585b1a5e995960921b606482015260840160405180910390fd5b600054610100900460ff161580156100b3576000805461ffff19166101011790555b80156100c5576000805461ff00191690555b506125ed80620000d66000396000f3fe6080604052600436106102195760003560e01c806372f702f311610123578063cc1a378f116100ab578063e9fad8ee1161006f578063e9fad8ee14610617578063ebe2b12b1461062c578063efa5b2f214610643578063f1a5854214610663578063f2fde38b1461068357610219565b8063cc1a378f1461058a578063cd3daf9d146105aa578063d1af0c7d146105bf578063dcf9e59e146105e0578063df136d651461060057610219565b80638b876347116100f25780638b876347146104e75780638da5cb5b1461051557806396cf522714610533578063a694fc3a14610553578063c8f33c911461057357610219565b806372f702f31461047a5780637b0a47ee1461049b57806380faa57d146104b25780638980f11f146104c757610219565b80633d18b912116101a65780635c975abb116101755780635c975abb146103c45780636ee7ee55146103e757806370a08231146103fe578063715018a6146104355780637238ccdb1461044a57610219565b80633d18b912146103425780633fc6df6e14610357578063437386f0146103905780634f1ef286146103b157610219565b80632b4656c8116101ed5780632b4656c8146102a95780632e1a7d4d146102cb5780633659cfe6146102eb578063386a95251461030b5780633c6b16ab1461032257610219565b80628cc2621461021e5780630700037d1461025157806318160ddd1461027f5780631c1f78eb14610294575b600080fd5b34801561022a57600080fd5b5061023e610239366004611f04565b6106a3565b6040519081526020015b60405180910390f35b34801561025d57600080fd5b5061023e61026c366004611f04565b6101366020526000908152604090205481565b34801561028b57600080fd5b5061023e610726565b3480156102a057600080fd5b5061023e61072e565b3480156102b557600080fd5b506102c96102c4366004611f20565b61074e565b005b3480156102d757600080fd5b506102c96102e6366004612227565b61082a565b3480156102f757600080fd5b506102c9610306366004611f04565b610a0d565b34801561031757600080fd5b5061023e6101325481565b34801561032e57600080fd5b506102c961033d366004612227565b610a34565b34801561034e57600080fd5b506102c9610c60565b34801561036357600080fd5b5061013a54610378906001600160a01b031681565b6040516001600160a01b039091168152602001610248565b34801561039c57600080fd5b5061012d54610378906001600160a01b031681565b6102c96103bf366004612035565b610d64565b3480156103d057600080fd5b5060c95460ff166040519015158152602001610248565b3480156103f357600080fd5b5061023e6101395481565b34801561040a57600080fd5b5061023e610419366004611f04565b6001600160a01b03166000908152610138602052604090205490565b34801561044157600080fd5b506102c9610d7d565b34801561045657600080fd5b5061046a610465366004611f04565b610db3565b60405161024894939291906122d1565b34801561048657600080fd5b5061012f54610378906001600160a01b031681565b3480156104a757600080fd5b5061023e6101315481565b3480156104be57600080fd5b5061023e610e4b565b3480156104d357600080fd5b506102c96104e23660046120d7565b610e65565b3480156104f357600080fd5b5061023e610502366004611f04565b6101356020526000908152604090205481565b34801561052157600080fd5b5060fb546001600160a01b0316610378565b34801561053f57600080fd5b506102c961054e366004612227565b610f52565b34801561055f57600080fd5b506102c961056e366004612227565b610f82565b34801561057f57600080fd5b5061023e6101335481565b34801561059657600080fd5b506102c96105a5366004612227565b61111f565b3480156105b657600080fd5b5061023e611223565b3480156105cb57600080fd5b5061012e54610378906001600160a01b031681565b3480156105ec57600080fd5b5061046a6105fb366004611f8d565b611277565b34801561060c57600080fd5b5061023e6101345481565b34801561062357600080fd5b506102c9611317565b34801561063857600080fd5b5061023e6101305481565b34801561064f57600080fd5b506102c961065e3660046120d7565b611339565b34801561066f57600080fd5b5061023e61067e366004611f04565b6113a4565b34801561068f57600080fd5b506102c961069e366004611f04565b611423565b6001600160a01b0381166000908152610136602090815260408083205461013590925282205461071e919061071890670de0b6b3a764000090610712906106f2906106ec611223565b906114bb565b6001600160a01b03881660009081526101386020526040902054906114ce565b906114da565b906114e6565b90505b919050565b610137545b90565b600061074961013254610131546114ce90919063ffffffff16565b905090565b600054610100900460ff1680610767575060005460ff16155b61078c5760405162461bcd60e51b8152600401610783906123a6565b60405180910390fd5b600054610100900460ff161580156107ae576000805461ffff19166101011790555b6107b66114f2565b61012e80546001600160a01b03808b166001600160a01b03199283161790925561012f80548a841690831617905561012d8054928916929091169190911790556101308590556101318490556101328390556101398290558015610820576000805461ff00191690555b5050505050505050565b6002600154141561084d5760405162461bcd60e51b815260040161078390612429565b60026001553361085b611223565b61013455610867610e4b565b610133556001600160a01b038116156108b257610883816106a3565b6001600160a01b0382166000908152610136602090815260408083209390935561013454610135909152919020555b600082116108f65760405162461bcd60e51b8152602060048201526011602482015270043616e6e6f74207769746864726177203607c1b6044820152606401610783565b6101375461090490836114bb565b61013755336000908152610138602052604090205461092390836114bb565b336000908152610138602052604090205561012d5461012f54610953916001600160a01b0391821691168461156d565b61012d5461012f5461013954604051634b86c22560e01b81526001600160a01b039283166004820152336024820152604481018690526064810191909152911690634b86c22590608401600060405180830381600087803b1580156109b757600080fd5b505af11580156109cb573d6000803e3d6000fd5b50506040518481523392507f7084f5476618d8e60b11ef0d7d3f06914655adb8793e28ff7f018d4c76d505d591506020015b60405180910390a2505060018055565b610a16816116c9565b610a31816040518060200160405280600081525060006116f3565b50565b60fb546001600160a01b03163314610a5e5760405162461bcd60e51b8152600401610783906123f4565b6000610a68611223565b61013455610a74610e4b565b610133556001600160a01b03811615610abf57610a90816106a3565b6001600160a01b0382166000908152610136602090815260408083209390935561013454610135909152919020555b610130544210610ae15761013254610ad89083906114da565b61013155610b28565b61013054600090610af290426114bb565b90506000610b0c61013154836114ce90919063ffffffff16565b61013254909150610b219061071286846114e6565b6101315550505b61012e546040516370a0823160e01b81523060048201526000916001600160a01b0316906370a082319060240160206040518083038186803b158015610b6d57600080fd5b505afa158015610b81573d6000803e3d6000fd5b505050506040513d601f19601f82011682018060405250810190610ba5919061223f565b9050610bbd61013254826114da90919063ffffffff16565b610131541115610c0f5760405162461bcd60e51b815260206004820152601860248201527f50726f76696465642072657761726420746f6f206869676800000000000000006044820152606401610783565b4261013381905561013254610c2491906114e6565b610130556040518381527fde88a922e0d3b88b24e9623efeb464919c6bf9f66857a65e2bfcf2ce87a9433d9060200160405180910390a1505050565b60026001541415610c835760405162461bcd60e51b815260040161078390612429565b600260015533610c91611223565b61013455610c9d610e4b565b610133556001600160a01b03811615610ce857610cb9816106a3565b6001600160a01b0382166000908152610136602090815260408083209390935561013454610135909152919020555b33600090815261013660205260409020548015610d5c57336000818152610136602052604081205561012e54610d2a916001600160a01b03909116908361187b565b60405181815233907fe2403640ba68fed3a2f88b7557551d1993f84b99bb10ff833f0cf8db0c5e0486906020016109fd565b505060018055565b610d6d826116c9565b610d79828260016116f3565b5050565b60fb546001600160a01b03163314610da75760405162461bcd60e51b8152600401610783906123f4565b610db160006118ab565b565b61012d54604051637238ccdb60e01b81526001600160a01b0383811660048301526060928392839283921690637238ccdb9060240160006040518083038186803b158015610e0057600080fd5b505afa158015610e14573d6000803e3d6000fd5b505050506040513d6000823e601f3d908101601f19168201604052610e3c9190810190612102565b93509350935093509193509193565b6000610130544210610e605761013054610749565b504290565b60fb546001600160a01b03163314610e8f5760405162461bcd60e51b8152600401610783906123f4565b61012f546001600160a01b0383811691161415610ef85760405162461bcd60e51b815260206004820152602160248201527f43616e6e6f7420776974686472617720746865207374616b696e6720746f6b656044820152603760f91b6064820152608401610783565b610f0c6001600160a01b038316338361187b565b604080516001600160a01b0384168152602081018390527f8c1256b8896378cd5044f80c202f9772b9d77dc85c8a6eb51967210b09bfaa28910160405180910390a15050565b60fb546001600160a01b03163314610f7c5760405162461bcd60e51b8152600401610783906123f4565b61013955565b60026001541415610fa55760405162461bcd60e51b815260040161078390612429565b600260015560c95460ff1615610ff05760405162461bcd60e51b815260206004820152601060248201526f14185d5cd8589b194e881c185d5cd95960821b6044820152606401610783565b33610ff9611223565b61013455611005610e4b565b610133556001600160a01b0381161561105057611021816106a3565b6001600160a01b0382166000908152610136602090815260408083209390935561013454610135909152919020555b600082116110915760405162461bcd60e51b815260206004820152600e60248201526d043616e6e6f74207374616b6520360941b6044820152606401610783565b6101375461109f90836114e6565b6101375533600090815261013860205260409020546110be90836114e6565b336000818152610138602052604090209190915561012f546110ed916001600160a01b039091169030856118fd565b60405182815233907f9e71bc8eea02a63969f509818f2dafb9254532904319f9dbda79b67bd34a5f3d906020016109fd565b60fb546001600160a01b031633146111495760405162461bcd60e51b8152600401610783906123f4565b6101305442116111e75760405162461bcd60e51b815260206004820152605860248201527f50726576696f7573207265776172647320706572696f64206d7573742062652060448201527f636f6d706c657465206265666f7265206368616e67696e67207468652064757260648201527f6174696f6e20666f7220746865206e657720706572696f640000000000000000608482015260a401610783565b6101328190556040518181527ffb46ca5a5e06d4540d6387b930a7c978bce0db5f449ec6b3f5d07c6e1d44f2d39060200160405180910390a150565b6000610137546000141561123b57506101345461072b565b61074961126d61013754610712670de0b6b3a764000061126761013154611267610133546106ec610e4b565b906114ce565b61013454906114e6565b61012d54604051636e7cf2cf60e11b81526060918291829182916001600160a01b039091169063dcf9e59e906112b390899089906004016122ad565b60006040518083038186803b1580156112cb57600080fd5b505afa1580156112df573d6000803e3d6000fd5b505050506040513d6000823e601f3d908101601f191682016040526113079190810190612102565b9299919850965090945092505050565b33600090815261013860205260409020546113319061082a565b610db1610c60565b61012d54604051637eee288d60e01b81526001600160a01b0384811660048301526024820184905290911690637eee288d90604401600060405180830381600087803b15801561138857600080fd5b505af115801561139c573d6000803e3d6000fd5b505050505050565b61012d546040516378d2c2a160e11b81526001600160a01b038381166004830152600092169063f1a585429060240160206040518083038186803b1580156113eb57600080fd5b505afa1580156113ff573d6000803e3d6000fd5b505050506040513d601f19601f8201168201806040525081019061071e919061223f565b60fb546001600160a01b0316331461144d5760405162461bcd60e51b8152600401610783906123f4565b6001600160a01b0381166114b25760405162461bcd60e51b815260206004820152602660248201527f4f776e61626c653a206e6577206f776e657220697320746865207a65726f206160448201526564647265737360d01b6064820152608401610783565b610a31816118ab565b60006114c7828461250c565b9392505050565b60006114c782846124ed565b60006114c782846124cd565b60006114c782846124b5565b600054610100900460ff168061150b575060005460ff16155b6115275760405162461bcd60e51b8152600401610783906123a6565b600054610100900460ff16158015611549576000805461ffff19166101011790555b61155161193b565b6115596119a5565b8015610a31576000805461ff001916905550565b8015806115f65750604051636eb1769f60e11b81523060048201526001600160a01b03838116602483015284169063dd62ed3e9060440160206040518083038186803b1580156115bc57600080fd5b505afa1580156115d0573d6000803e3d6000fd5b505050506040513d601f19601f820116820180604052508101906115f4919061223f565b155b6116615760405162461bcd60e51b815260206004820152603660248201527f5361666545524332303a20617070726f76652066726f6d206e6f6e2d7a65726f60448201527520746f206e6f6e2d7a65726f20616c6c6f77616e636560501b6064820152608401610783565b6040516001600160a01b0383166024820152604481018290526116c490849063095ea7b360e01b906064015b60408051601f198184030181529190526020810180516001600160e01b03166001600160e01b031990931692909217909152611a05565b505050565b60fb546001600160a01b03163314610a315760405162461bcd60e51b8152600401610783906123f4565b60006117267f360894a13ba1a3210667c828492db98dca3e2076cc3735a920a3ca505d382bbc546001600160a01b031690565b905061173184611ad7565b60008351118061173e5750815b1561174f5761174d8484611b7c565b505b7f4910fdfa16fed3260ed0e7147f7cc6da11a60208b5b9406d12a635614ffd9143805460ff1661187457805460ff191660011781556040516001600160a01b03831660248201526117ce90869060440160408051601f198184030181529190526020810180516001600160e01b0316631b2ce7f360e11b179052611b7c565b50805460ff191681557f360894a13ba1a3210667c828492db98dca3e2076cc3735a920a3ca505d382bbc546001600160a01b0383811691161461186b5760405162461bcd60e51b815260206004820152602f60248201527f45524331393637557067726164653a207570677261646520627265616b73206660448201526e75727468657220757067726164657360881b6064820152608401610783565b61187485611c67565b5050505050565b6040516001600160a01b0383166024820152604481018290526116c490849063a9059cbb60e01b9060640161168d565b60fb80546001600160a01b038381166001600160a01b0319831681179093556040519116919082907f8be0079c531659141344cd1fd0a4f28419497f9722a3daafe3b4186f6b6457e090600090a35050565b6040516001600160a01b03808516602483015283166044820152606481018290526119359085906323b872dd60e01b9060840161168d565b50505050565b600054610100900460ff1680611954575060005460ff16155b6119705760405162461bcd60e51b8152600401610783906123a6565b600054610100900460ff16158015611559576000805461ffff19166101011790558015610a31576000805461ff001916905550565b600054610100900460ff16806119be575060005460ff16155b6119da5760405162461bcd60e51b8152600401610783906123a6565b600054610100900460ff161580156119fc576000805461ffff19166101011790555b611559336118ab565b6000611a5a826040518060400160405280602081526020017f5361666545524332303a206c6f772d6c6576656c2063616c6c206661696c6564815250856001600160a01b0316611ca79092919063ffffffff16565b8051909150156116c45780806020019051810190611a78919061220d565b6116c45760405162461bcd60e51b815260206004820152602a60248201527f5361666545524332303a204552433230206f7065726174696f6e20646964206e6044820152691bdd081cdd58d8d9595960b21b6064820152608401610783565b803b611b3b5760405162461bcd60e51b815260206004820152602d60248201527f455243313936373a206e657720696d706c656d656e746174696f6e206973206e60448201526c1bdd08184818dbdb9d1c9858dd609a1b6064820152608401610783565b7f360894a13ba1a3210667c828492db98dca3e2076cc3735a920a3ca505d382bbc80546001600160a01b0319166001600160a01b0392909216919091179055565b6060823b611bdb5760405162461bcd60e51b815260206004820152602660248201527f416464726573733a2064656c65676174652063616c6c20746f206e6f6e2d636f6044820152651b9d1c9858dd60d21b6064820152608401610783565b600080846001600160a01b031684604051611bf69190612291565b600060405180830381855af49150503d8060008114611c31576040519150601f19603f3d011682016040523d82523d6000602084013e611c36565b606091505b5091509150611c5e828260405180606001604052806027815260200161259160279139611cbe565b95945050505050565b611c7081611ad7565b6040516001600160a01b038216907fbc7cd75a20ee27fd9adebab32041f755214dbc6bffa90cc0225b39da2e5c2d3b90600090a250565b6060611cb68484600085611cf7565b949350505050565b60608315611ccd5750816114c7565b825115611cdd5782518084602001fd5b8160405162461bcd60e51b81526004016107839190612373565b606082471015611d585760405162461bcd60e51b815260206004820152602660248201527f416464726573733a20696e73756666696369656e742062616c616e636520666f6044820152651c8818d85b1b60d21b6064820152608401610783565b843b611da65760405162461bcd60e51b815260206004820152601d60248201527f416464726573733a2063616c6c20746f206e6f6e2d636f6e74726163740000006044820152606401610783565b600080866001600160a01b03168587604051611dc29190612291565b60006040518083038185875af1925050503d8060008114611dff576040519150601f19603f3d011682016040523d82523d6000602084013e611e04565b606091505b5091509150611e14828286611cbe565b979650505050505050565b600082601f830112611e2f578081fd5b81516020611e44611e3f83612491565b612460565b80838252828201915082860187848660051b8901011115611e63578586fd5b855b85811015611e8a578151611e788161257b565b84529284019290840190600101611e65565b5090979650505050505050565b600082601f830112611ea7578081fd5b81516020611eb7611e3f83612491565b80838252828201915082860187848660051b8901011115611ed6578586fd5b855b85811015611e8a57815184529284019290840190600101611ed8565b8051801515811461072157600080fd5b600060208284031215611f15578081fd5b81356114c78161257b565b600080600080600080600060e0888a031215611f3a578283fd5b8735611f458161257b565b96506020880135611f558161257b565b95506040880135611f658161257b565b969995985095966060810135965060808101359560a0820135955060c0909101359350915050565b60008060408385031215611f9f578182fd5b8235611faa8161257b565b915060208381013567ffffffffffffffff811115611fc6578283fd5b8401601f81018613611fd6578283fd5b8035611fe4611e3f82612491565b80828252848201915084840189868560051b8701011115612003578687fd5b8694505b83851015612025578035835260019490940193918501918501612007565b5080955050505050509250929050565b60008060408385031215612047578182fd5b82356120528161257b565b915060208381013567ffffffffffffffff8082111561206f578384fd5b818601915086601f830112612082578384fd5b81358181111561209457612094612565565b6120a6601f8201601f19168501612460565b915080825287848285010111156120bb578485fd5b8084840185840137810190920192909252919491935090915050565b600080604083850312156120e9578182fd5b82356120f48161257b565b946020939093013593505050565b60008060008060808587031215612117578384fd5b845167ffffffffffffffff8082111561212e578586fd5b818701915087601f830112612141578586fd5b81516020612151611e3f83612491565b8083825282820191508286018c848660051b8901011115612170578a8bfd5b8a96505b848710156121995761218581611ef4565b835260019690960195918301918301612174565b50918a01519198509093505050808211156121b2578485fd5b6121be88838901611e1f565b945060408701519150808211156121d3578384fd5b6121df88838901611e97565b935060608701519150808211156121f4578283fd5b5061220187828801611e97565b91505092959194509250565b60006020828403121561221e578081fd5b6114c782611ef4565b600060208284031215612238578081fd5b5035919050565b600060208284031215612250578081fd5b5051919050565b6000815180845260208085019450808401835b838110156122865781518752958201959082019060010161226a565b509495945050505050565b600082516122a3818460208701612523565b9190910192915050565b6001600160a01b0383168152604060208201819052600090611cb690830184612257565b6080808252855190820181905260009060209060a0840190828901845b8281101561230c5781511515845292840192908401906001016122ee565b50505083810382850152865180825287830191830190845b818110156123495783516001600160a01b031683529284019291840191600101612324565b5050848103604086015261235d8188612257565b925050508281036060840152611e148185612257565b6000602082528251806020840152612392816040850160208701612523565b601f01601f19169190910160400192915050565b6020808252602e908201527f496e697469616c697a61626c653a20636f6e747261637420697320616c72656160408201526d191e481a5b9a5d1a585b1a5e995960921b606082015260800190565b6020808252818101527f4f776e61626c653a2063616c6c6572206973206e6f7420746865206f776e6572604082015260600190565b6020808252601f908201527f5265656e7472616e637947756172643a207265656e7472616e742063616c6c00604082015260600190565b604051601f8201601f1916810167ffffffffffffffff8111828210171561248957612489612565565b604052919050565b600067ffffffffffffffff8211156124ab576124ab612565565b5060051b60200190565b600082198211156124c8576124c861254f565b500190565b6000826124e857634e487b7160e01b81526012600452602481fd5b500490565b60008160001904831182151516156125075761250761254f565b500290565b60008282101561251e5761251e61254f565b500390565b60005b8381101561253e578181015183820152602001612526565b838111156119355750506000910152565b634e487b7160e01b600052601160045260246000fd5b634e487b7160e01b600052604160045260246000fd5b6001600160a01b0381168114610a3157600080fdfe416464726573733a206c6f772d6c6576656c2064656c65676174652063616c6c206661696c6564a26469706673582212202f382d800ae9479d27a2a2876c2a8ac727f86eac5758ec996fabe24829a78a4464736f6c63430008030033",
  "linkReferences": {},
  "deployedLinkReferences": {}
}