{
  "_format": "hh-sol-artifact-1",
  "contractName": "OracleRegistry",
  "sourceName": "contracts/oracle/OracleRegistry.sol",
  "abi": [
    {
      "inputs": [
        {
          "internalType": "address",
          "name": "",
          "type": "address"
        },
        {
          "internalType": "uint256",
          "name": "",
          "type": "uint256"
        }
      ],
      "name": "externalUrls",
      "outputs": [
        {
          "internalType": "string",
          "name": "",
          "type": "string"
        }
      ],
      "stateMutability": "view",
      "type": "function"
    },
    {
      "inputs": [
        {
          "internalType": "address",
          "name": "_oracle",
          "type": "address"
        },
        {
          "internalType": "string",
          "name": "_newUrl",
          "type": "string"
        }
      ],
      "name": "registerUrl",
      "outputs": [],
      "stateMutability": "nonpayable",
      "type": "function"
    },
    {
      "inputs": [
        {
          "internalType": "address",
          "name": "_oracle",
          "type": "address"
        },
        {
          "internalType": "uint256",
          "name": "_index",
          "type": "uint256"
        }
      ],
      "name": "unregisterUrl",
      "outputs": [],
      "stateMutability": "nonpayable",
      "type": "function"
    }
  ],
  "bytecode": "0x608060405234801561001057600080fd5b506107fa806100206000396000f3fe608060405234801561001057600080fd5b50600436106100415760003560e01c806396ca68e814610046578063dcc983741461006f578063e37f50f714610084575b600080fd5b6100596100543660046106bd565b610097565b60405161006691906106e8565b60405180910390f35b61008261007d3660046105fe565b610150565b005b6100826100923660046106bd565b61025e565b600060205281600052604060002081815481106100b357600080fd5b906000526020600020016000915091505080546100cf9061075e565b80601f01602080910402602001604051908101604052809291908181526020018280546100fb9061075e565b80156101485780601f1061011d57610100808354040283529160200191610148565b820191906000526020600020905b81548152906001019060200180831161012b57829003601f168201915b505050505081565b81336001600160a01b0316816001600160a01b031663a578be166040518163ffffffff1660e01b815260040160206040518083038186803b15801561019457600080fd5b505afa1580156101a8573d6000803e3d6000fd5b505050506040513d601f19601f820116820180604052508101906101cc91906105db565b6001600160a01b03161461021e5760405162461bcd60e51b815260206004820152601460248201527334b73b30b634b21037b930b1b6329037bbb732b960611b60448201526064015b60405180910390fd5b6001600160a01b03831660009081526020818152604082208054600181018255908352918190208451610258939190910191850190610488565b50505050565b81336001600160a01b0316816001600160a01b031663a578be166040518163ffffffff1660e01b815260040160206040518083038186803b1580156102a257600080fd5b505afa1580156102b6573d6000803e3d6000fd5b505050506040513d601f19601f820116820180604052508101906102da91906105db565b6001600160a01b0316146103275760405162461bcd60e51b815260206004820152601460248201527334b73b30b634b21037b930b1b6329037bbb732b960611b6044820152606401610215565b6001600160a01b038316600090815260208190526040902054821061037d5760405162461bcd60e51b815260206004820152600c60248201526b6f7574206f662072616e676560a01b6044820152606401610215565b6001600160a01b038316600090815260208190526040902080546103a39060019061073b565b815481106103c157634e487b7160e01b600052603260045260246000fd5b90600052602060002001600080856001600160a01b03166001600160a01b03168152602001908152602001600020838154811061040e57634e487b7160e01b600052603260045260246000fd5b906000526020600020019080546104249061075e565b61042f92919061050c565b506001600160a01b038316600090815260208190526040902080548061046557634e487b7160e01b600052603160045260246000fd5b6001900381819060005260206000200160006104819190610587565b9055505050565b8280546104949061075e565b90600052602060002090601f0160209004810192826104b657600085556104fc565b82601f106104cf57805160ff19168380011785556104fc565b828001600101855582156104fc579182015b828111156104fc5782518255916020019190600101906104e1565b506105089291506105c6565b5090565b8280546105189061075e565b90600052602060002090601f01602090048101928261053a57600085556104fc565b82601f1061054b57805485556104fc565b828001600101855582156104fc57600052602060002091601f016020900482015b828111156104fc57825482559160010191906001019061056c565b5080546105939061075e565b6000825580601f106105a557506105c3565b601f0160209004906000526020600020908101906105c391906105c6565b50565b5b8082111561050857600081556001016105c7565b6000602082840312156105ec578081fd5b81516105f7816107af565b9392505050565b60008060408385031215610610578081fd5b823561061b816107af565b9150602083013567ffffffffffffffff80821115610637578283fd5b818501915085601f83011261064a578283fd5b81358181111561065c5761065c610799565b604051601f8201601f19908116603f0116810190838211818310171561068457610684610799565b8160405282815288602084870101111561069c578586fd5b82602086016020830137856020848301015280955050505050509250929050565b600080604083850312156106cf578182fd5b82356106da816107af565b946020939093013593505050565b6000602080835283518082850152825b81811015610714578581018301518582016040015282016106f8565b818111156107255783604083870101525b50601f01601f1916929092016040019392505050565b60008282101561075957634e487b7160e01b81526011600452602481fd5b500390565b600181811c9082168061077257607f821691505b6020821081141561079357634e487b7160e01b600052602260045260246000fd5b50919050565b634e487b7160e01b600052604160045260246000fd5b6001600160a01b03811681146105c357600080fdfea2646970667358221220fb13d09719226c612562149b0eb950382bf83429c247377436bbf1c17e3ec81764736f6c63430008030033",
  "linkReferences": {},
  "deployedLinkReferences": {}
}