{
  "_format": "hh-sol-artifact-1",
  "contractName": "NFT721BridgeOld",
  "sourceName": "contracts/generic/NFT721BridgeOld.sol",
  "abi": [
    {
      "anonymous": false,
      "inputs": [
        {
          "indexed": false,
          "internalType": "address",
          "name": "previousAdmin",
          "type": "address"
        },
        {
          "indexed": false,
          "internalType": "address",
          "name": "newAdmin",
          "type": "address"
        }
      ],
      "name": "AdminChanged",
      "type": "event"
    },
    {
      "anonymous": false,
      "inputs": [
        {
          "indexed": true,
          "internalType": "address",
          "name": "beacon",
          "type": "address"
        }
      ],
      "name": "BeaconUpgraded",
      "type": "event"
    },
    {
      "anonymous": false,
      "inputs": [
        {
          "indexed": false,
          "internalType": "bytes",
          "name": "_token",
          "type": "bytes"
        },
        {
          "indexed": true,
          "internalType": "address",
          "name": "_toAddr",
          "type": "address"
        },
        {
          "indexed": false,
          "internalType": "bytes",
          "name": "_tokenIds",
          "type": "bytes"
        },
        {
          "indexed": false,
          "internalType": "uint256",
          "name": "_originChainId",
          "type": "uint256"
        },
        {
          "indexed": false,
          "internalType": "uint256",
          "name": "_fromChainId",
          "type": "uint256"
        },
        {
          "indexed": false,
          "internalType": "uint256",
          "name": "_toChainId",
          "type": "uint256"
        },
        {
          "indexed": false,
          "internalType": "uint256",
          "name": "_index",
          "type": "uint256"
        },
        {
          "indexed": false,
          "internalType": "bytes32",
          "name": "_claimId",
          "type": "bytes32"
        }
      ],
      "name": "ClaimMultiNFT721",
      "type": "event"
    },
    {
      "anonymous": false,
      "inputs": [
        {
          "indexed": true,
          "internalType": "address",
          "name": "previousOwner",
          "type": "address"
        },
        {
          "indexed": true,
          "internalType": "address",
          "name": "newOwner",
          "type": "address"
        }
      ],
      "name": "OwnershipTransferred",
      "type": "event"
    },
    {
      "anonymous": false,
      "inputs": [
        {
          "indexed": false,
          "internalType": "bytes",
          "name": "_token",
          "type": "bytes"
        },
        {
          "indexed": false,
          "internalType": "bytes",
          "name": "_toAddr",
          "type": "bytes"
        },
        {
          "indexed": false,
          "internalType": "bytes",
          "name": "_tokenIds",
          "type": "bytes"
        },
        {
          "indexed": false,
          "internalType": "uint256",
          "name": "_originChainId",
          "type": "uint256"
        },
        {
          "indexed": false,
          "internalType": "uint256",
          "name": "_fromChainId",
          "type": "uint256"
        },
        {
          "indexed": false,
          "internalType": "uint256",
          "name": "_toChainId",
          "type": "uint256"
        },
        {
          "indexed": false,
          "internalType": "uint256",
          "name": "_index",
          "type": "uint256"
        }
      ],
      "name": "RequestMultiNFT721Bridge",
      "type": "event"
    },
    {
      "anonymous": false,
      "inputs": [
        {
          "indexed": true,
          "internalType": "address",
          "name": "implementation",
          "type": "address"
        }
      ],
      "name": "Upgraded",
      "type": "event"
    },
    {
      "inputs": [],
      "name": "IID_ICHECK",
      "outputs": [
        {
          "internalType": "bytes4",
          "name": "",
          "type": "bytes4"
        }
      ],
      "stateMutability": "view",
      "type": "function"
    },
    {
      "inputs": [],
      "name": "IID_IERC165",
      "outputs": [
        {
          "internalType": "bytes4",
          "name": "",
          "type": "bytes4"
        }
      ],
      "stateMutability": "view",
      "type": "function"
    },
    {
      "inputs": [],
      "name": "IID_IERC721",
      "outputs": [
        {
          "internalType": "bytes4",
          "name": "",
          "type": "bytes4"
        }
      ],
      "stateMutability": "view",
      "type": "function"
    },
    {
      "inputs": [
        {
          "internalType": "bytes32",
          "name": "",
          "type": "bytes32"
        }
      ],
      "name": "alreadyClaims",
      "outputs": [
        {
          "internalType": "bool",
          "name": "",
          "type": "bool"
        }
      ],
      "stateMutability": "view",
      "type": "function"
    },
    {
      "inputs": [
        {
          "internalType": "address",
          "name": "",
          "type": "address"
        }
      ],
      "name": "approverMap",
      "outputs": [
        {
          "internalType": "bool",
          "name": "",
          "type": "bool"
        }
      ],
      "stateMutability": "view",
      "type": "function"
    },
    {
      "inputs": [
        {
          "internalType": "uint256",
          "name": "",
          "type": "uint256"
        }
      ],
      "name": "bridgeApprovers",
      "outputs": [
        {
          "internalType": "address",
          "name": "",
          "type": "address"
        }
      ],
      "stateMutability": "view",
      "type": "function"
    },
    {
      "inputs": [
        {
          "internalType": "address",
          "name": "",
          "type": "address"
        }
      ],
      "name": "bridgeNFT721Tokens",
      "outputs": [
        {
          "internalType": "bool",
          "name": "",
          "type": "bool"
        }
      ],
      "stateMutability": "view",
      "type": "function"
    },
    {
      "inputs": [
        {
          "internalType": "bytes",
          "name": "bys",
          "type": "bytes"
        }
      ],
      "name": "bytesToAddress",
      "outputs": [
        {
          "internalType": "address",
          "name": "addr",
          "type": "address"
        }
      ],
      "stateMutability": "pure",
      "type": "function"
    },
    {
      "inputs": [],
      "name": "chainId",
      "outputs": [
        {
          "internalType": "uint256",
          "name": "",
          "type": "uint256"
        }
      ],
      "stateMutability": "view",
      "type": "function"
    },
    {
      "inputs": [
        {
          "internalType": "bytes",
          "name": "_originToken",
          "type": "bytes"
        },
        {
          "internalType": "address",
          "name": "_toAddr",
          "type": "address"
        },
        {
          "internalType": "uint256[]",
          "name": "_tokenIds",
          "type": "uint256[]"
        },
        {
          "internalType": "string[]",
          "name": "_originTokenIds",
          "type": "string[]"
        },
        {
          "internalType": "uint256[]",
          "name": "_chainIdsIndex",
          "type": "uint256[]"
        },
        {
          "internalType": "bytes32",
          "name": "_txHash",
          "type": "bytes32"
        },
        {
          "internalType": "bytes32[]",
          "name": "r",
          "type": "bytes32[]"
        },
        {
          "internalType": "bytes32[]",
          "name": "s",
          "type": "bytes32[]"
        },
        {
          "internalType": "uint8[]",
          "name": "v",
          "type": "uint8[]"
        },
        {
          "internalType": "string[2]",
          "name": "_nameAndSymbol",
          "type": "string[2]"
        },
        {
          "internalType": "string[]",
          "name": "_uris",
          "type": "string[]"
        }
      ],
      "name": "claimMultiNFT721Token",
      "outputs": [],
      "stateMutability": "payable",
      "type": "function"
    },
    {
      "inputs": [],
      "name": "feeReceiver",
      "outputs": [
        {
          "internalType": "address payable",
          "name": "",
          "type": "address"
        }
      ],
      "stateMutability": "view",
      "type": "function"
    },
    {
      "inputs": [],
      "name": "getBridgeApprovers",
      "outputs": [
        {
          "internalType": "address[]",
          "name": "",
          "type": "address[]"
        }
      ],
      "stateMutability": "view",
      "type": "function"
    },
    {
      "inputs": [
        {
          "internalType": "address",
          "name": "_token",
          "type": "address"
        }
      ],
      "name": "getSupportedChainsForToken",
      "outputs": [
        {
          "internalType": "uint256[]",
          "name": "",
          "type": "uint256[]"
        }
      ],
      "stateMutability": "view",
      "type": "function"
    },
    {
      "inputs": [],
      "name": "index",
      "outputs": [
        {
          "internalType": "uint256",
          "name": "",
          "type": "uint256"
        }
      ],
      "stateMutability": "view",
      "type": "function"
    },
    {
      "inputs": [
        {
          "internalType": "uint256[]",
          "name": "_chainIds",
          "type": "uint256[]"
        }
      ],
      "name": "initialize",
      "outputs": [],
      "stateMutability": "nonpayable",
      "type": "function"
    },
    {
      "inputs": [
        {
          "internalType": "address",
          "name": "nftAddress",
          "type": "address"
        }
      ],
      "name": "isERC721",
      "outputs": [
        {
          "internalType": "bool",
          "name": "",
          "type": "bool"
        }
      ],
      "stateMutability": "view",
      "type": "function"
    },
    {
      "inputs": [],
      "name": "minApprovers",
      "outputs": [
        {
          "internalType": "uint256",
          "name": "",
          "type": "uint256"
        }
      ],
      "stateMutability": "view",
      "type": "function"
    },
    {
      "inputs": [],
      "name": "nativeFee",
      "outputs": [
        {
          "internalType": "uint256",
          "name": "",
          "type": "uint256"
        }
      ],
      "stateMutability": "view",
      "type": "function"
    },
    {
      "inputs": [
        {
          "internalType": "address",
          "name": "operator",
          "type": "address"
        },
        {
          "internalType": "address",
          "name": "from",
          "type": "address"
        },
        {
          "internalType": "uint256",
          "name": "tokenId",
          "type": "uint256"
        },
        {
          "internalType": "bytes",
          "name": "data",
          "type": "bytes"
        }
      ],
      "name": "onERC721Received",
      "outputs": [
        {
          "internalType": "bytes4",
          "name": "",
          "type": "bytes4"
        }
      ],
      "stateMutability": "nonpayable",
      "type": "function"
    },
    {
      "inputs": [
        {
          "internalType": "bytes",
          "name": "",
          "type": "bytes"
        }
      ],
      "name": "originChainTokens",
      "outputs": [
        {
          "internalType": "bool",
          "name": "",
          "type": "bool"
        }
      ],
      "stateMutability": "view",
      "type": "function"
    },
    {
      "inputs": [],
      "name": "owner",
      "outputs": [
        {
          "internalType": "address",
          "name": "",
          "type": "address"
        }
      ],
      "stateMutability": "view",
      "type": "function"
    },
    {
      "inputs": [],
      "name": "renounceOwnership",
      "outputs": [],
      "stateMutability": "nonpayable",
      "type": "function"
    },
    {
      "inputs": [
        {
          "internalType": "address",
          "name": "_tokenAddress",
          "type": "address"
        },
        {
          "internalType": "bytes",
          "name": "_toAddr",
          "type": "bytes"
        },
        {
          "internalType": "uint256[]",
          "name": "_tokenIds",
          "type": "uint256[]"
        },
        {
          "internalType": "uint256",
          "name": "_toChainId",
          "type": "uint256"
        }
      ],
      "name": "requestMultiNFT721Bridge",
      "outputs": [],
      "stateMutability": "payable",
      "type": "function"
    },
    {
      "inputs": [
        {
          "internalType": "address[]",
          "name": "_addrs",
          "type": "address[]"
        },
        {
          "internalType": "bool",
          "name": "_value",
          "type": "bool"
        }
      ],
      "name": "setApprovers",
      "outputs": [],
      "stateMutability": "nonpayable",
      "type": "function"
    },
    {
      "inputs": [
        {
          "internalType": "address payable",
          "name": "_feeReceiver",
          "type": "address"
        },
        {
          "internalType": "uint256",
          "name": "_fee",
          "type": "uint256"
        },
        {
          "internalType": "uint256",
          "name": "_minApprovers",
          "type": "uint256"
        }
      ],
      "name": "setFeeAndMinApprovers",
      "outputs": [],
      "stateMutability": "nonpayable",
      "type": "function"
    },
    {
      "inputs": [
        {
          "internalType": "uint256",
          "name": "",
          "type": "uint256"
        }
      ],
      "name": "supportedChainIds",
      "outputs": [
        {
          "internalType": "bool",
          "name": "",
          "type": "bool"
        }
      ],
      "stateMutability": "view",
      "type": "function"
    },
    {
      "inputs": [
        {
          "internalType": "bytes4",
          "name": "interfaceId",
          "type": "bytes4"
        }
      ],
      "name": "supportsInterface",
      "outputs": [
        {
          "internalType": "bool",
          "name": "",
          "type": "bool"
        }
      ],
      "stateMutability": "view",
      "type": "function"
    },
    {
      "inputs": [
        {
          "internalType": "uint256",
          "name": "",
          "type": "uint256"
        },
        {
          "internalType": "bytes",
          "name": "",
          "type": "bytes"
        }
      ],
      "name": "tokenMap",
      "outputs": [
        {
          "internalType": "address",
          "name": "",
          "type": "address"
        }
      ],
      "stateMutability": "view",
      "type": "function"
    },
    {
      "inputs": [
        {
          "internalType": "address",
          "name": "",
          "type": "address"
        },
        {
          "internalType": "uint256",
          "name": "",
          "type": "uint256"
        }
      ],
      "name": "tokenMapList",
      "outputs": [
        {
          "internalType": "uint256",
          "name": "",
          "type": "uint256"
        }
      ],
      "stateMutability": "view",
      "type": "function"
    },
    {
      "inputs": [
        {
          "internalType": "address",
          "name": "",
          "type": "address"
        }
      ],
      "name": "tokenMapReverse",
      "outputs": [
        {
          "internalType": "bytes",
          "name": "addr",
          "type": "bytes"
        },
        {
          "internalType": "uint256",
          "name": "chainId",
          "type": "uint256"
        }
      ],
      "stateMutability": "view",
      "type": "function"
    },
    {
      "inputs": [
        {
          "internalType": "address",
          "name": "",
          "type": "address"
        },
        {
          "internalType": "uint256",
          "name": "",
          "type": "uint256"
        }
      ],
      "name": "tokenMapSupportCheck",
      "outputs": [
        {
          "internalType": "bool",
          "name": "",
          "type": "bool"
        }
      ],
      "stateMutability": "view",
      "type": "function"
    },
    {
      "inputs": [
        {
          "internalType": "address",
          "name": "newOwner",
          "type": "address"
        }
      ],
      "name": "transferOwnership",
      "outputs": [],
      "stateMutability": "nonpayable",
      "type": "function"
    },
    {
      "inputs": [
        {
          "internalType": "address",
          "name": "newImplementation",
          "type": "address"
        }
      ],
      "name": "upgradeTo",
      "outputs": [],
      "stateMutability": "nonpayable",
      "type": "function"
    },
    {
      "inputs": [
        {
          "internalType": "address",
          "name": "newImplementation",
          "type": "address"
        },
        {
          "internalType": "bytes",
          "name": "data",
          "type": "bytes"
        }
      ],
      "name": "upgradeToAndCall",
      "outputs": [],
      "stateMutability": "payable",
      "type": "function"
    }
  ],
  "bytecode": "0x60806040523480156200001157600080fd5b50600054610100900460ff16806200002c575060005460ff16155b620000945760405162461bcd60e51b815260206004820152602e60248201527f496e697469616c697a61626c653a20636f6e747261637420697320616c72656160448201526d191e481a5b9a5d1a585b1a5e995960921b606482015260840160405180910390fd5b600054610100900460ff16158015620000b7576000805461ffff19166101011790555b8015620000ca576000805461ff00191690555b50615cff80620000db6000396000f3fe6080604052600436106101f95760003560e01c806394c9d29b1161010d578063cc7427f0116100a0578063dee157ca1161006f578063dee157ca1461067f578063dfa52afd14610696578063e0966dad146106a9578063e4b74463146106c4578063f2fde38b146106df576101f9565b8063cc7427f0146105af578063d641e91614610602578063d9bdd65914610632578063daa09e541461065f576101f9565b8063a4027838116100dc578063a402783814610515578063b3f0067414610530578063bfa411f814610551578063c60c9a5414610573576101f9565b806394c9d29b1461047e578063996f79c0146104ac5780639a8a0592146104c35780639eb9c246146104d9576101f9565b806342526e4e1161019057806351b9dc6a1161015f57806351b9dc6a146103db5780636fe0e559146103fb578063715018a61461041b5780638d68fdc8146104305780638da5cb5b14610460576101f9565b806342526e4e1461033d57806345923dfb146103775780634cf2ab32146103975780634f1ef286146103c8576101f9565b80632986c0e5116101cc5780632986c0e5146102b85780633561a0dc146102dd5780633659cfe6146102fd57806336db95fb1461031d576101f9565b806301ffc9a7146101fe57806309b9a559146102335780630e00208714610264578063150b7a0214610279575b600080fd5b34801561020a57600080fd5b5061021e610219366004612e8a565b6106ff565b60405190151581526020015b60405180910390f35b34801561023f57600080fd5b5061021e61024e366004612b73565b6101046020526000908152604090205460ff1681565b610277610272366004612ee5565b610738565b005b34801561028557600080fd5b5061029f610294366004612bdf565b600095945050505050565b6040516001600160e01b0319909116815260200161022a565b3480156102c457600080fd5b506102cf6101065481565b60405190815260200161022a565b3480156102e957600080fd5b506102776102f8366004612bab565b610d42565b34801561030957600080fd5b50610277610318366004612b73565b610de7565b34801561032957600080fd5b506102cf610338366004612d42565b610e0e565b34801561034957600080fd5b5061035f610358366004612eb2565b6020015190565b6040516001600160a01b03909116815260200161022a565b34801561038357600080fd5b5061035f610392366004612e72565b610e40565b3480156103a357600080fd5b5061021e6103b2366004612e72565b60ff602081905260009182526040909120541681565b6102776103d6366004612c79565b610e6a565b3480156103e757600080fd5b506102776103f6366004612d6d565b610e83565b34801561040757600080fd5b50610277610416366004612e1b565b6111bf565b34801561042757600080fd5b506102776112cf565b34801561043c57600080fd5b5061021e61044b366004612e72565b60fc6020526000908152604090205460ff1681565b34801561046c57600080fd5b506097546001600160a01b031661035f565b34801561048a57600080fd5b5061049e610499366004612b73565b611305565b60405161022a9291906133f9565b3480156104b857600080fd5b506102cf6101055481565b3480156104cf57600080fd5b506102cf60fb5481565b3480156104e557600080fd5b5061021e6104f4366004612eb2565b80516020818301810180516101098252928201919093012091525460ff1681565b34801561052157600080fd5b5061029f6301ffc9a760e01b81565b34801561053c57600080fd5b506101085461035f906001600160a01b031681565b34801561055d57600080fd5b506105666113aa565b60405161022a919061316c565b34801561057f57600080fd5b5061021e61058e366004612d42565b61010160209081526000928352604080842090915290825290205460ff1681565b3480156105bb57600080fd5b5061035f6105ca366004613067565b61010260209081526000928352604090922081518083018401805192815290840192909301919091209152546001600160a01b031681565b34801561060e57600080fd5b5061021e61061d366004612b73565b60fe6020526000908152604090205460ff1681565b34801561063e57600080fd5b5061065261064d366004612b73565b61140c565b60405161022a91906131b9565b34801561066b57600080fd5b5061021e61067a366004612b73565b611479565b34801561068b57600080fd5b506102cf6101075481565b6102776106a4366004612cc7565b611495565b3480156106b557600080fd5b5061029f6380ac58cd60e01b81565b3480156106d057600080fd5b5061029f6336a8279560e21b81565b3480156106eb57600080fd5b506102776106fa366004612b73565b611933565b60006001600160e01b031982166336a8279560e21b148061073057506001600160e01b031982166301ffc9a760e01b145b90505b919050565b600260c95414156107905760405162461bcd60e51b815260206004820152601f60248201527f5265656e7472616e637947756172643a207265656e7472616e742063616c6c0060448201526064015b60405180910390fd5b600260c955865160041480156107cf5750866002815181106107c257634e487b7160e01b600052603260045260246000fd5b602002602001015160fb54145b61080d5760405162461bcd60e51b815260206004820152600f60248201526e21636861696e20696420636c61696d60881b6044820152606401610787565b805189511461085e5760405162461bcd60e51b815260206004820152601860248201527f21696e76616c696420746f6b656e2075726920696e70757400000000000000006044820152606401610787565b60008b8b8b8b8b8b8887602002015189600160200201518960405160200161088e9998979695949392919061323c565b6040516020818303038152906040528051906020012090506108b2868686846119cb565b6108f45760405162461bcd60e51b815260206004820152601360248201527221696e76616c6964207369676e61747572657360681b6044820152606401610787565b8b8b8b8b8b8b60405160200161090f969594939291906131cc565b60408051601f198184030181529181528151602092830120600081815260fc90935291205490915060ff16156109775760405162461bcd60e51b815260206004820152600d60248201526c616c726561647920636c61696d60981b6044820152606401610787565b600081815260fc60205260408120805460ff1916600117905588518991906109af57634e487b7160e01b600052603260045260246000fd5b602002602001015160fb5414158015610a33575060006001600160a01b031661010260008a6000815181106109f457634e487b7160e01b600052603260045260246000fd5b602002602001015181526020019081526020016000208d604051610a189190613150565b908152604051908190036020019020546001600160a01b0316145b15610c3b576000604051610a46906128c9565b604051809103906000f080158015610a62573d6000803e3d6000fd5b509050806001600160a01b031663de5a49f08e8b600081518110610a9657634e487b7160e01b600052603260045260246000fd5b602002602001015187600060028110610abf57634e487b7160e01b600052603260045260246000fd5b602002015188600160200201516040518563ffffffff1660e01b8152600401610aeb949392919061341b565b600060405180830381600087803b158015610b0557600080fd5b505af1158015610b19573d6000803e3d6000fd5b505050508061010260008b600081518110610b4457634e487b7160e01b600052603260045260246000fd5b602002602001015181526020019081526020016000208e604051610b689190613150565b908152602001604051809103902060006101000a8154816001600160a01b0302191690836001600160a01b0316021790555060405180604001604052808e81526020018a600081518110610bcc57634e487b7160e01b600052603260045260246000fd5b6020908102919091018101519091526001600160a01b0383166000908152610103825260409020825180519192610c08928492909101906128d6565b506020918201516001918201556001600160a01b03909216600090815261010490915260409020805460ff191690911790555b610c498a8d8b8b8f87611c8e565b8a6001600160a01b03167fbed5b56ec3b662ae3ad7466bf86d73e62356e3ee37b610fcbad058c515b83eb48d8c604051602001610c8691906131b9565b6040516020818303038152906040528b600081518110610cb657634e487b7160e01b600052603260045260246000fd5b60200260200101518c600181518110610cdf57634e487b7160e01b600052603260045260246000fd5b602002602001015160fb548e600381518110610d0b57634e487b7160e01b600052603260045260246000fd5b602002602001015188604051610d2797969594939291906133a9565b60405180910390a25050600160c95550505050505050505050565b6097546001600160a01b03163314610d6c5760405162461bcd60e51b81526004016107879061357b565b61010880546001600160a01b0319166001600160a01b0385161790556101058290556002811015610ddf5760405162461bcd60e51b815260206004820152601b60248201527f7265717569726564205f6d696e417070726f76657273203e3d203200000000006044820152606401610787565b610107555050565b610df0816121d0565b610e0b816040518060200160405280600081525060006121fa565b50565b6101006020528160005260406000208181548110610e2b57600080fd5b90600052602060002001600091509150505481565b60fd8181548110610e5057600080fd5b6000918252602090912001546001600160a01b0316905081565b610e73826121d0565b610e7f828260016121fa565b5050565b6097546001600160a01b03163314610ead5760405162461bcd60e51b81526004016107879061357b565b60005b82518110156111ba578115610fd75760fe6000848381518110610ee357634e487b7160e01b600052603260045260246000fd5b6020908102919091018101516001600160a01b031682528101919091526040016000205460ff16610fd25760fd838281518110610f3057634e487b7160e01b600052603260045260246000fd5b60209081029190910181015182546001808201855560009485529284200180546001600160a01b0319166001600160a01b039092169190911790558451909160fe91869085908110610f9257634e487b7160e01b600052603260045260246000fd5b60200260200101516001600160a01b03166001600160a01b0316815260200190815260200160002060006101000a81548160ff0219169083151502179055505b6111a8565b60005b60fd548110156111a65783828151811061100457634e487b7160e01b600052603260045260246000fd5b60200260200101516001600160a01b031660fd828154811061103657634e487b7160e01b600052603260045260246000fd5b6000918252602090912001546001600160a01b031614156111945760fd80546110619060019061361e565b8154811061107f57634e487b7160e01b600052603260045260246000fd5b60009182526020909120015460fd80546001600160a01b0390921691839081106110b957634e487b7160e01b600052603260045260246000fd5b9060005260206000200160006101000a8154816001600160a01b0302191690836001600160a01b0316021790555060fd80548061110657634e487b7160e01b600052603160045260246000fd5b6001900381819060005260206000200160006101000a8154906001600160a01b0302191690559055600060fe600086858151811061115457634e487b7160e01b600052603260045260246000fd5b60200260200101516001600160a01b03166001600160a01b0316815260200190815260200160002060006101000a81548160ff0219169083151502179055505b8061119e816136a0565b915050610fda565b505b806111b2816136a0565b915050610eb0565b505050565b600054610100900460ff16806111d8575060005460ff16155b6111f45760405162461bcd60e51b81526004016107879061352d565b600054610100900460ff16158015611216576000805461ffff19166101011790555b61121e612382565b6112274660fb55565b60026101075560fb54600090815260ff60205260408120805460ff191660011790555b82518110156112b957600160ff600085848151811061127957634e487b7160e01b600052603260045260246000fd5b6020026020010151815260200190815260200160002060006101000a81548160ff02191690831515021790555080806112b1906136a0565b91505061124a565b508015610e7f576000805461ff00191690555050565b6097546001600160a01b031633146112f95760405162461bcd60e51b81526004016107879061357b565b61130360006123f5565b565b6101036020526000908152604090208054819061132190613665565b80601f016020809104026020016040519081016040528092919081815260200182805461134d90613665565b801561139a5780601f1061136f5761010080835404028352916020019161139a565b820191906000526020600020905b81548152906001019060200180831161137d57829003601f168201915b5050505050908060010154905082565b606060fd80548060200260200160405190810160405280929190818152602001828054801561140257602002820191906000526020600020905b81546001600160a01b031681526001909101906020018083116113e4575b5050505050905090565b6001600160a01b0381166000908152610100602090815260409182902080548351818402810184019094528084526060939283018282801561146d57602002820191906000526020600020905b815481526020019060010190808311611459575b50505050509050919050565b60006107306001600160a01b0383166380ac58cd60e01b612447565b600260c95414156114e85760405162461bcd60e51b815260206004820152601f60248201527f5265656e7472616e637947756172643a207265656e7472616e742063616c6c006044820152606401610787565b600260c95560fb548114156115555760405162461bcd60e51b815260206004820152602d60248201527f736f7572636520616e642074617267657420636861696e20696473206d75737460448201526c08189948191a5999995c995b9d609a1b6064820152608401610787565b61155e84611479565b6115a35760405162461bcd60e51b81526020600482015260166024820152753ab739bab83837b93a32b2103a3434b9903a37b5b2b760511b6044820152606401610787565b610105543410156115e35760405162461bcd60e51b815260206004820152600a602482015269666565206973206c6f7760b01b6044820152606401610787565b341561162557610108546040516001600160a01b03909116903480156108fc02916000818181858888f19350505050158015611623573d6000803e3d6000fd5b505b60005b82518110156116e757846001600160a01b03166323b872dd333086858151811061166257634e487b7160e01b600052603260045260246000fd5b60209081029190910101516040516001600160e01b031960e086901b1681526001600160a01b0393841660048201529290911660248301526044820152606401600060405180830381600087803b1580156116bc57600080fd5b505af11580156116d0573d6000803e3d6000fd5b5050505080806116df906136a0565b915050611628565b506001600160a01b0384166000908152610104602052604090205460ff1661187857604080516001600160a01b03861660208201527ed12e72789dde3fcb0c020e7ca91e1b9caec588f827e2cb37b00fdb73b071779101604051602081830303815290604052848460405160200161175f91906131b9565b60408051601f198184030181529082905260fb546101065461178695949382918991613349565b60405180910390a1604080516001600160a01b0386166020820152600191610109910160408051601f19818403018152908290526117c391613150565b908152604051908190036020019020805491151560ff1990921691909117905561010680549060006117f4836136a0565b90915550506001600160a01b03841660009081526101016020908152604080832084845290915290205460ff16611873576001600160a01b0384166000818152610100602090815260408083208054600181810183559185528385200186905593835261010182528083208584529091529020805460ff191690911790555b611928565b6001600160a01b0384166000908152610103602090815260409182902091517ed12e72789dde3fcb0c020e7ca91e1b9caec588f827e2cb37b00fdb73b07177929186916118c7918791016131b9565b60408051601f198184030181528282526001600160a01b038a166000908152610103602052919091206001015460fb5461010654611909969594899190613465565b60405180910390a16101068054906000611922836136a0565b91905055505b5050600160c9555050565b6097546001600160a01b0316331461195d5760405162461bcd60e51b81526004016107879061357b565b6001600160a01b0381166119c25760405162461bcd60e51b815260206004820152602660248201527f4f776e61626c653a206e6577206f776e657220697320746865207a65726f206160448201526564647265737360d01b6064820152608401610787565b610e0b816123f5565b60006002610107541015611a125760405162461bcd60e51b815260206004820152600e60248201526d216d696e20617070726f7665727360901b6044820152606401610787565b6101075460fd541015611a585760405162461bcd60e51b815260206004820152600e60248201526d216d696e20617070726f7665727360901b6044820152606401610787565b600084518651148015611a6c575083518551145b8015611a7c575061010754845110155b15611c7f576000805b8751811015611c7c576040517f19457468657265756d205369676e6564204d6573736167653a0a3332000000006020820152603c8101869052600090600190605c0160405160208183030381529060405280519060200120888481518110611afd57634e487b7160e01b600052603260045260246000fd5b60200260200101518b8581518110611b2557634e487b7160e01b600052603260045260246000fd5b60200260200101518b8681518110611b4d57634e487b7160e01b600052603260045260246000fd5b602002602001015160405160008152602001604052604051611b8b949392919093845260ff9290921660208401526040830152606082015260800190565b6020604051602081039080840390855afa158015611bad573d6000803e3d6000fd5b505050602060405103519050806001600160a01b0316836001600160a01b031610611c355760405162461bcd60e51b815260206004820152603260248201527f7369676e617475726573206d75737420626520696e20696e6372656173696e67604482015271206f7264657273206f66207369676e65727360701b6064820152608401610787565b6001600160a01b038116600090815260fe6020526040902054909250829060ff1615611c695783611c65816136a0565b9450505b5080611c74816136a0565b915050611a85565b50505b61010754111595945050505050565b61010985604051611c9f9190613150565b9081526040519081900360200190205460ff168015611ce7575082600081518110611cda57634e487b7160e01b600052603260045260246000fd5b602002602001015160fb54145b15611db85760005b8651811015611db25760208601516001600160a01b03166323b872dd30858a8581518110611d2d57634e487b7160e01b600052603260045260246000fd5b60209081029190910101516040516001600160e01b031960e086901b1681526001600160a01b0393841660048201529290911660248301526044820152606401600060405180830381600087803b158015611d8757600080fd5b505af1158015611d9b573d6000803e3d6000fd5b505050508080611daa906136a0565b915050611cef565b506121c8565b6000610102600085600081518110611de057634e487b7160e01b600052603260045260246000fd5b6020026020010151815260200190815260200160002086604051611e049190613150565b908152604051908190036020019020546001600160a01b031690506000805b88518110156121c457826001600160a01b0316636352211e8a8381518110611e5b57634e487b7160e01b600052603260045260246000fd5b60200260200101516040518263ffffffff1660e01b8152600401611e8191815260200190565b60206040518083038186803b158015611e9957600080fd5b505afa925050508015611ec9575060408051601f3d908101601f19168201909252611ec691810190612b8f565b60015b611f03573d808015611ef7576040519150601f19603f3d011682016040523d82523d6000602084013e611efc565b606091505b5050611f06565b91505b6001600160a01b0382161561206b57826001600160a01b03166323b872dd30878c8581518110611f4657634e487b7160e01b600052603260045260246000fd5b60209081029190910101516040516001600160e01b031960e086901b1681526001600160a01b0393841660048201529290911660248301526044820152606401600060405180830381600087803b158015611fa057600080fd5b505af1158015611fb4573d6000803e3d6000fd5b50505050826001600160a01b031663f00040ee8a8381518110611fe757634e487b7160e01b600052603260045260246000fd5b602002602001015186848151811061200f57634e487b7160e01b600052603260045260246000fd5b60200260200101516040518363ffffffff1660e01b81526004016120349291906135b0565b600060405180830381600087803b15801561204e57600080fd5b505af1158015612062573d6000803e3d6000fd5b505050506121b2565b61010260008760008151811061209157634e487b7160e01b600052603260045260246000fd5b60200260200101518152602001908152602001600020886040516120b59190613150565b908152602001604051809103902060009054906101000a90046001600160a01b03166001600160a01b03166340bb0ddc89878c858151811061210757634e487b7160e01b600052603260045260246000fd5b60200260200101518b868151811061212f57634e487b7160e01b600052603260045260246000fd5b602002602001015189878151811061215757634e487b7160e01b600052603260045260246000fd5b60200260200101516040518663ffffffff1660e01b815260040161217f9594939291906132ee565b600060405180830381600087803b15801561219957600080fd5b505af11580156121ad573d6000803e3d6000fd5b505050505b806121bc816136a0565b915050611e23565b5050505b505050505050565b6097546001600160a01b03163314610e0b5760405162461bcd60e51b81526004016107879061357b565b600061222d7f360894a13ba1a3210667c828492db98dca3e2076cc3735a920a3ca505d382bbc546001600160a01b031690565b90506122388461246c565b6000835111806122455750815b15612256576122548484612511565b505b7f4910fdfa16fed3260ed0e7147f7cc6da11a60208b5b9406d12a635614ffd9143805460ff1661237b57805460ff191660011781556040516001600160a01b03831660248201526122d590869060440160408051601f198184030181529190526020810180516001600160e01b0316631b2ce7f360e11b179052612511565b50805460ff191681557f360894a13ba1a3210667c828492db98dca3e2076cc3735a920a3ca505d382bbc546001600160a01b038381169116146123725760405162461bcd60e51b815260206004820152602f60248201527f45524331393637557067726164653a207570677261646520627265616b73206660448201526e75727468657220757067726164657360881b6064820152608401610787565b61237b856125fc565b5050505050565b600054610100900460ff168061239b575060005460ff16155b6123b75760405162461bcd60e51b81526004016107879061352d565b600054610100900460ff161580156123d9576000805461ffff19166101011790555b6123e161263c565b8015610e0b576000805461ff001916905550565b609780546001600160a01b038381166001600160a01b0319831681179093556040519116919082907f8be0079c531659141344cd1fd0a4f28419497f9722a3daafe3b4186f6b6457e090600090a35050565b6000612452836126a3565b8015612463575061246383836126d6565b90505b92915050565b803b6124d05760405162461bcd60e51b815260206004820152602d60248201527f455243313936373a206e657720696d706c656d656e746174696f6e206973206e60448201526c1bdd08184818dbdb9d1c9858dd609a1b6064820152608401610787565b7f360894a13ba1a3210667c828492db98dca3e2076cc3735a920a3ca505d382bbc80546001600160a01b0319166001600160a01b0392909216919091179055565b6060823b6125705760405162461bcd60e51b815260206004820152602660248201527f416464726573733a2064656c65676174652063616c6c20746f206e6f6e2d636f6044820152651b9d1c9858dd60d21b6064820152608401610787565b600080846001600160a01b03168460405161258b9190613150565b600060405180830381855af49150503d80600081146125c6576040519150601f19603f3d011682016040523d82523d6000602084013e6125cb565b606091505b50915091506125f38282604051806060016040528060278152602001615ca3602791396127bf565b95945050505050565b6126058161246c565b6040516001600160a01b038216907fbc7cd75a20ee27fd9adebab32041f755214dbc6bffa90cc0225b39da2e5c2d3b90600090a250565b600054610100900460ff1680612655575060005460ff16155b6126715760405162461bcd60e51b81526004016107879061352d565b600054610100900460ff16158015612693576000805461ffff19166101011790555b61269b6127ff565b6123e1612869565b60006126b6826301ffc9a760e01b6126d6565b801561073057506126cf826001600160e01b03196126d6565b1592915050565b604080516001600160e01b0319831660248083019190915282518083039091018152604490910182526020810180516001600160e01b03166301ffc9a760e01b179052905160009190829081906001600160a01b038716906175309061273d908690613150565b6000604051808303818686fa925050503d8060008114612779576040519150601f19603f3d011682016040523d82523d6000602084013e61277e565b606091505b50915091506020815110156127995760009350505050612466565b8180156127b55750808060200190518101906127b59190612e56565b9695505050505050565b606083156127ce5750816127f8565b8251156127de5782518084602001fd5b8160405162461bcd60e51b8152600401610787919061351a565b9392505050565b600054610100900460ff1680612818575060005460ff16155b6128345760405162461bcd60e51b81526004016107879061352d565b600054610100900460ff161580156123e1576000805461ffff19166101011790558015610e0b576000805461ff001916905550565b600054610100900460ff1680612882575060005460ff16155b61289e5760405162461bcd60e51b81526004016107879061352d565b600054610100900460ff161580156128c0576000805461ffff19166101011790555b6123e1336123f5565b6125988061370b83390190565b8280546128e290613665565b90600052602060002090601f016020900481019282612904576000855561294a565b82601f1061291d57805160ff191683800117855561294a565b8280016001018555821561294a579182015b8281111561294a57825182559160200191906001019061292f565b5061295692915061295a565b5090565b5b80821115612956576000815560010161295b565b8035610733816136e7565b600082601f83011261298a578081fd5b8135602061299f61299a836135fa565b6135c9565b80838252828201915082860187848660051b89010111156129be578586fd5b855b858110156129dc578135845292840192908401906001016129c0565b5090979650505050505050565b600082601f8301126129f9578081fd5b612a0360406135c9565b8083835b6002811015612a3257612a1d8783358801612b08565b84526020938401939190910190600101612a07565b509095945050505050565b600082601f830112612a4d578081fd5b81356020612a5d61299a836135fa565b82815281810190858301855b858110156129dc57612a80898684358b0101612b08565b84529284019290840190600101612a69565b600082601f830112612aa2578081fd5b81356020612ab261299a836135fa565b80838252828201915082860187848660051b8901011115612ad1578586fd5b855b858110156129dc57813560ff81168114612aeb578788fd5b84529284019290840190600101612ad3565b8035610733816136fc565b600082601f830112612b18578081fd5b813567ffffffffffffffff811115612b3257612b326136d1565b612b45601f8201601f19166020016135c9565b818152846020838601011115612b59578283fd5b816020850160208301379081016020019190915292915050565b600060208284031215612b84578081fd5b81356127f8816136e7565b600060208284031215612ba0578081fd5b81516127f8816136e7565b600080600060608486031215612bbf578182fd5b8335612bca816136e7565b95602085013595506040909401359392505050565b600080600080600060808688031215612bf6578283fd5b8535612c01816136e7565b94506020860135612c11816136e7565b935060408601359250606086013567ffffffffffffffff80821115612c34578283fd5b818801915088601f830112612c47578283fd5b813581811115612c55578384fd5b896020828501011115612c66578384fd5b9699959850939650602001949392505050565b60008060408385031215612c8b578182fd5b8235612c96816136e7565b9150602083013567ffffffffffffffff811115612cb1578182fd5b612cbd85828601612b08565b9150509250929050565b60008060008060808587031215612cdc578182fd5b8435612ce7816136e7565b9350602085013567ffffffffffffffff80821115612d03578384fd5b612d0f88838901612b08565b94506040870135915080821115612d24578384fd5b50612d318782880161297a565b949793965093946060013593505050565b60008060408385031215612d54578182fd5b8235612d5f816136e7565b946020939093013593505050565b60008060408385031215612d7f578182fd5b823567ffffffffffffffff811115612d95578283fd5b8301601f81018513612da5578283fd5b80356020612db561299a836135fa565b80838252828201915082850189848660051b8801011115612dd4578788fd5b8795505b84861015612dff578035612deb816136e7565b835260019590950194918301918301612dd8565b509550612e0f9050868201612afd565b93505050509250929050565b600060208284031215612e2c578081fd5b813567ffffffffffffffff811115612e42578182fd5b612e4e8482850161297a565b949350505050565b600060208284031215612e67578081fd5b81516127f8816136fc565b600060208284031215612e83578081fd5b5035919050565b600060208284031215612e9b578081fd5b81356001600160e01b0319811681146127f8578182fd5b600060208284031215612ec3578081fd5b813567ffffffffffffffff811115612ed9578182fd5b612e4e84828501612b08565b60008060008060008060008060008060006101608c8e031215612f06578889fd5b67ffffffffffffffff808d351115612f1c57898afd5b612f298e8e358f01612b08565b9b50612f3760208e0161296f565b9a508060408e01351115612f4957898afd5b612f598e60408f01358f0161297a565b99508060608e01351115612f6b578687fd5b612f7b8e60608f01358f01612a3d565b98508060808e01351115612f8d578687fd5b612f9d8e60808f01358f0161297a565b975060a08d013596508060c08e01351115612fb6578586fd5b612fc68e60c08f01358f0161297a565b95508060e08e01351115612fd8578485fd5b612fe88e60e08f01358f0161297a565b9450806101008e01351115612ffb578384fd5b61300c8e6101008f01358f01612a92565b9350806101208e0135111561301f578283fd5b6130308e6101208f01358f016129e9565b9250806101408e01351115613043578182fd5b506130558d6101408e01358e01612a3d565b90509295989b509295989b9093969950565b60008060408385031215613079578182fd5b82359150602083013567ffffffffffffffff811115612cb1578182fd5b600081518084526020808501808196508360051b81019150828601855b858110156130dd5782840389526130cb848351613124565b988501989350908401906001016130b3565b5091979650505050505050565b6000815180845260208085019450808401835b83811015613119578151875295820195908201906001016130fd565b509495945050505050565b6000815180845261313c816020860160208601613635565b601f01601f19169290920160200192915050565b60008251613162818460208701613635565b9190910192915050565b6020808252825182820181905260009190848201906040850190845b818110156131ad5783516001600160a01b031683529284019291840191600101613188565b50909695505050505050565b60006020825261246360208301846130ea565b600060c082526131df60c0830189613124565b6001600160a01b0388166020840152828103604084015261320081886130ea565b905082810360608401526132148187613096565b9050828103608084015261322881866130ea565b9150508260a0830152979650505050505050565b60006101208083526132508184018d613124565b6001600160a01b038c16602085015283810360408501529050613273818b6130ea565b90508281036060840152613287818a613096565b9050828103608084015261329b81896130ea565b90508660a084015282810360c08401526132b58187613124565b905082810360e08401526132c98186613124565b90508281036101008401526132de8185613096565b9c9b505050505050505050505050565b600060a0825261330160a0830188613124565b6001600160a01b03871660208401526040830186905282810360608401526133298186613124565b9050828103608084015261333d8185613124565b98975050505050505050565b600060e0825261335c60e083018a613124565b828103602084015261336e818a613124565b905082810360408401526133828189613124565b9150508560608301528460808301528360a08301528260c083015298975050505050505050565b600060e082526133bc60e083018a613124565b82810360208401526133ce818a613124565b604084019890985250506060810194909452608084019290925260a083015260c09091015292915050565b60006040825261340c6040830185613124565b90508260208301529392505050565b60006080825261342e6080830187613124565b85602084015282810360408401526134468186613124565b9050828103606084015261345a8185613124565b979650505050505050565b600060e08252808954828160011c9050600182168061348557607f821691505b602082108114156134a457634e487b7160e01b85526022600452602485fd5b60e0860182905261010086018180156134c457600181146134d657613503565b60ff1985168252602082019550613503565b60008f815260209020875b858110156134fd578154848201526001909101906020016134e1565b83019650505b5050505050828103602084015261336e818a613124565b6000602082526124636020830184613124565b6020808252602e908201527f496e697469616c697a61626c653a20636f6e747261637420697320616c72656160408201526d191e481a5b9a5d1a585b1a5e995960921b606082015260800190565b6020808252818101527f4f776e61626c653a2063616c6c6572206973206e6f7420746865206f776e6572604082015260600190565b600083825260406020830152612e4e6040830184613124565b604051601f8201601f1916810167ffffffffffffffff811182821017156135f2576135f26136d1565b604052919050565b600067ffffffffffffffff821115613614576136146136d1565b5060051b60200190565b600082821015613630576136306136bb565b500390565b60005b83811015613650578181015183820152602001613638565b8381111561365f576000848401525b50505050565b600181811c9082168061367957607f821691505b6020821081141561369a57634e487b7160e01b600052602260045260246000fd5b50919050565b60006000198214156136b4576136b46136bb565b5060010190565b634e487b7160e01b600052601160045260246000fd5b634e487b7160e01b600052604160045260246000fd5b6001600160a01b0381168114610e0b57600080fd5b8015158114610e0b57600080fdfe608060405234801561001057600080fd5b50612578806100206000396000f3fe608060405234801561001057600080fd5b50600436106101da5760003560e01c806370a0823111610104578063a22cb465116100a2578063e985e9c511610071578063e985e9c5146103d9578063f00040ee14610415578063f2fde38b14610428578063f92ebf0a1461043b576101da565b8063a22cb4651461038d578063b88d4fde146103a0578063c87b56dd146103b3578063de5a49f0146103c6576101da565b80638d68fdc8116100de5780638d68fdc81461033e5780638da5cb5b14610361578063931688cb1461037257806395d89b4114610385576101da565b806370a082311461031b578063715018a61461032e5780637a4f7d7914610336576101da565b80632f745c591161017c57806342966c681161014b57806342966c68146102da5780634f6ccce7146102ed5780636352211e146103005780636c0360eb14610313576101da565b80632f745c591461028e5780633eed7770146102a157806340bb0ddc146102b457806342842e0e146102c7576101da565b8063095ea7b3116101b8578063095ea7b3146102475780630ac7f5611461025c57806318160ddd1461027357806323b872dd1461027b576101da565b806301ffc9a7146101df57806306fdde0314610207578063081812fc1461021c575b600080fd5b6101f26101ed366004611faf565b61044e565b60405190151581526020015b60405180910390f35b61020f61047b565b6040516101fe91906122d8565b61022f61022a366004611f97565b61050d565b6040516001600160a01b0390911681526020016101fe565b61025a610255366004611f6e565b6105a7565b005b61026560fd5481565b6040519081526020016101fe565b609954610265565b61025a610289366004611e93565b6106bd565b61026561029c366004611f6e565b6106ef565b61020f6102af366004611f97565b610785565b61025a6102c2366004611fe7565b610820565b61025a6102d5366004611e93565b610944565b61025a6102e8366004611f97565b61095f565b6102656102fb366004611f97565b6109d9565b61022f61030e366004611f97565b610a7a565b61020f610af1565b610265610329366004611e40565b610afe565b61025a610b85565b61020f610bbb565b6101f261034c366004611f97565b60fb6020526000908152604090205460ff1681565b60c9546001600160a01b031661022f565b61025a610380366004612108565b610bc8565b61020f610c09565b61025a61039b366004611f34565b610c18565b61025a6103ae366004611ece565b610cea565b61020f6103c1366004611f97565b610d22565b61025a6103d4366004612086565b610e85565b6101f26103e7366004611e61565b6001600160a01b039182166000908152606a6020908152604080832093909416825291909152205460ff1690565b61025a61042336600461213b565b610f20565b61025a610436366004611e40565b610f7e565b61020f610449366004611f97565b611016565b60006001600160e01b0319821663780e9d6360e01b148061047357506104738261102f565b90505b919050565b60606065805461048a90612480565b80601f01602080910402602001604051908101604052809291908181526020018280546104b690612480565b80156105035780601f106104d857610100808354040283529160200191610503565b820191906000526020600020905b8154815290600101906020018083116104e657829003601f168201915b5050505050905090565b6000818152606760205260408120546001600160a01b031661058b5760405162461bcd60e51b815260206004820152602c60248201527f4552433732313a20617070726f76656420717565727920666f72206e6f6e657860448201526b34b9ba32b73a103a37b5b2b760a11b60648201526084015b60405180910390fd5b506000908152606960205260409020546001600160a01b031690565b60006105b282610a7a565b9050806001600160a01b0316836001600160a01b031614156106205760405162461bcd60e51b815260206004820152602160248201527f4552433732313a20617070726f76616c20746f2063757272656e74206f776e656044820152603960f91b6064820152608401610582565b336001600160a01b038216148061063c575061063c81336103e7565b6106ae5760405162461bcd60e51b815260206004820152603860248201527f4552433732313a20617070726f76652063616c6c6572206973206e6f74206f7760448201527f6e6572206e6f7220617070726f76656420666f7220616c6c00000000000000006064820152608401610582565b6106b8838361107f565b505050565b6106c8335b826110ed565b6106e45760405162461bcd60e51b8152600401610582906123c0565b6106b88383836111e4565b60006106fa83610afe565b821061075c5760405162461bcd60e51b815260206004820152602b60248201527f455243373231456e756d657261626c653a206f776e657220696e646578206f7560448201526a74206f6620626f756e647360a81b6064820152608401610582565b506001600160a01b03919091166000908152609760209081526040808320938352929052205490565b610100602052600090815260409020805461079f90612480565b80601f01602080910402602001604051908101604052809291908181526020018280546107cb90612480565b80156108185780601f106107ed57610100808354040283529160200191610818565b820191906000526020600020905b8154815290600101906020018083116107fb57829003601f168201915b505050505081565b60c9546001600160a01b0316331461084a5760405162461bcd60e51b81526004016105829061238b565b60fc60405161085991906121ac565b60405180910390208580519060200120146108ae5760405162461bcd60e51b8152602060048201526015602482015274216f726967696e616c546f6b656e4164647265737360581b6044820152606401610582565b6001600160a01b0384166108f25760405162461bcd60e51b815260206004820152600b60248201526a21696e76616c696420746f60a81b6044820152606401610582565b6108fc848461138f565b600083815260ff60209081526040909120825161091b92840190611d09565b50600083815261010060209081526040909120835161093c92850190611d09565b505050505050565b6106b883838360405180602001604052806000815250610cea565b610968336106c2565b6109cd5760405162461bcd60e51b815260206004820152603060248201527f4552433732314275726e61626c653a2063616c6c6572206973206e6f74206f7760448201526f1b995c881b9bdc88185c1c1c9bdd995960821b6064820152608401610582565b6109d6816114dd565b50565b60006109e460995490565b8210610a475760405162461bcd60e51b815260206004820152602c60248201527f455243373231456e756d657261626c653a20676c6f62616c20696e646578206f60448201526b7574206f6620626f756e647360a01b6064820152608401610582565b60998281548110610a6857634e487b7160e01b600052603260045260246000fd5b90600052602060002001549050919050565b6000818152606760205260408120546001600160a01b0316806104735760405162461bcd60e51b815260206004820152602960248201527f4552433732313a206f776e657220717565727920666f72206e6f6e657869737460448201526832b73a103a37b5b2b760b91b6064820152608401610582565b60fe805461079f90612480565b60006001600160a01b038216610b695760405162461bcd60e51b815260206004820152602a60248201527f4552433732313a2062616c616e636520717565727920666f7220746865207a65604482015269726f206164647265737360b01b6064820152608401610582565b506001600160a01b031660009081526068602052604090205490565b60c9546001600160a01b03163314610baf5760405162461bcd60e51b81526004016105829061238b565b610bb96000611584565b565b60fc805461079f90612480565b60c9546001600160a01b03163314610bf25760405162461bcd60e51b81526004016105829061238b565b8051610c059060fe906020840190611d09565b5050565b60606066805461048a90612480565b6001600160a01b038216331415610c715760405162461bcd60e51b815260206004820152601960248201527f4552433732313a20617070726f766520746f2063616c6c6572000000000000006044820152606401610582565b336000818152606a602090815260408083206001600160a01b0387168085529252909120805460ff1916841515179055906001600160a01b03167f17307eab39ab6107e8899845ad3d59bd9653f200f220920489ca2b5937696c3183604051610cde911515815260200190565b60405180910390a35050565b610cf433836110ed565b610d105760405162461bcd60e51b8152600401610582906123c0565b610d1c848484846115d6565b50505050565b6000818152606760205260409020546060906001600160a01b0316610da15760405162461bcd60e51b815260206004820152602f60248201527f4552433732314d657461646174613a2055524920717565727920666f72206e6f60448201526e3732bc34b9ba32b73a103a37b5b2b760891b6064820152608401610582565b600060fe8054610db090612480565b905011610e5357600082815260ff602052604090208054610dd090612480565b80601f0160208091040260200160405190810160405280929190818152602001828054610dfc90612480565b8015610e495780601f10610e1e57610100808354040283529160200191610e49565b820191906000526020600020905b815481529060010190602001808311610e2c57829003601f168201915b5050505050610473565b60fe610e5e83611609565b604051602001610e6f92919061221b565b6040516020818303038152906040529050919050565b600054610100900460ff1680610e9e575060005460ff16155b610eba5760405162461bcd60e51b81526004016105829061233d565b600054610100900460ff16158015610edc576000805461ffff19166101011790555b610ee4611724565b610eee838361179f565b8451610f019060fc906020880190611d09565b5060fd8490558015610f19576000805461ff00191690555b5050505050565b60c9546001600160a01b03163314610f4a5760405162461bcd60e51b81526004016105829061238b565b60fe8054610f5790612480565b15159050610c0557600082815260ff6020908152604090912082516106b892840190611d09565b60c9546001600160a01b03163314610fa85760405162461bcd60e51b81526004016105829061238b565b6001600160a01b03811661100d5760405162461bcd60e51b815260206004820152602660248201527f4f776e61626c653a206e6577206f776e657220697320746865207a65726f206160448201526564647265737360d01b6064820152608401610582565b6109d681611584565b60ff602052600090815260409020805461079f90612480565b60006001600160e01b031982166380ac58cd60e01b148061106057506001600160e01b03198216635b5e139f60e01b145b8061047357506301ffc9a760e01b6001600160e01b0319831614610473565b600081815260696020526040902080546001600160a01b0319166001600160a01b03841690811790915581906110b482610a7a565b6001600160a01b03167f8c5be1e5ebec7d5bd14f71427d1e84f3dd0314c0f7b2291e5b200ac8c7c3b92560405160405180910390a45050565b6000818152606760205260408120546001600160a01b03166111665760405162461bcd60e51b815260206004820152602c60248201527f4552433732313a206f70657261746f7220717565727920666f72206e6f6e657860448201526b34b9ba32b73a103a37b5b2b760a11b6064820152608401610582565b600061117183610a7a565b9050806001600160a01b0316846001600160a01b031614806111ac5750836001600160a01b03166111a18461050d565b6001600160a01b0316145b806111dc57506001600160a01b038082166000908152606a602090815260408083209388168352929052205460ff165b949350505050565b826001600160a01b03166111f782610a7a565b6001600160a01b03161461125f5760405162461bcd60e51b815260206004820152602960248201527f4552433732313a207472616e73666572206f6620746f6b656e2074686174206960448201526839903737ba1037bbb760b91b6064820152608401610582565b6001600160a01b0382166112c15760405162461bcd60e51b8152602060048201526024808201527f4552433732313a207472616e7366657220746f20746865207a65726f206164646044820152637265737360e01b6064820152608401610582565b6112cc838383611826565b6112d760008261107f565b6001600160a01b038316600090815260686020526040812080546001929061130090849061243d565b90915550506001600160a01b038216600090815260686020526040812080546001929061132e908490612411565b909155505060008181526067602052604080822080546001600160a01b0319166001600160a01b0386811691821790925591518493918716917fddf252ad1be2c89b69c2b068fc378daa952ba7f163c4a11628f55a4df523b3ef91a4505050565b6001600160a01b0382166113e55760405162461bcd60e51b815260206004820181905260248201527f4552433732313a206d696e7420746f20746865207a65726f20616464726573736044820152606401610582565b6000818152606760205260409020546001600160a01b03161561144a5760405162461bcd60e51b815260206004820152601c60248201527f4552433732313a20746f6b656e20616c7265616479206d696e746564000000006044820152606401610582565b61145660008383611826565b6001600160a01b038216600090815260686020526040812080546001929061147f908490612411565b909155505060008181526067602052604080822080546001600160a01b0319166001600160a01b03861690811790915590518392907fddf252ad1be2c89b69c2b068fc378daa952ba7f163c4a11628f55a4df523b3ef908290a45050565b60006114e882610a7a565b90506114f681600084611826565b61150160008361107f565b6001600160a01b038116600090815260686020526040812080546001929061152a90849061243d565b909155505060008281526067602052604080822080546001600160a01b0319169055518391906001600160a01b038416907fddf252ad1be2c89b69c2b068fc378daa952ba7f163c4a11628f55a4df523b3ef908390a45050565b60c980546001600160a01b038381166001600160a01b0319831681179093556040519116919082907f8be0079c531659141344cd1fd0a4f28419497f9722a3daafe3b4186f6b6457e090600090a35050565b6115e18484846111e4565b6115ed848484846118e3565b610d1c5760405162461bcd60e51b8152600401610582906122eb565b60608161162e57506040805180820190915260018152600360fc1b6020820152610476565b8160005b81156116585780611642816124bb565b91506116519050600a83612429565b9150611632565b60008167ffffffffffffffff81111561168157634e487b7160e01b600052604160045260246000fd5b6040519080825280601f01601f1916602001820160405280156116ab576020820181803683370190505b5090505b84156111dc576116c060018361243d565b91506116cd600a866124d6565b6116d8906030612411565b60f81b8183815181106116fb57634e487b7160e01b600052603260045260246000fd5b60200101906001600160f81b031916908160001a90535061171d600a86612429565b94506116af565b600054610100900460ff168061173d575060005460ff16155b6117595760405162461bcd60e51b81526004016105829061233d565b600054610100900460ff1615801561177b576000805461ffff19166101011790555b6117836119f0565b61178b611a5a565b80156109d6576000805461ff001916905550565b600054610100900460ff16806117b8575060005460ff16155b6117d45760405162461bcd60e51b81526004016105829061233d565b600054610100900460ff161580156117f6576000805461ffff19166101011790555b6117fe6119f0565b6118066119f0565b6118108383611aba565b80156106b8576000805461ff0019169055505050565b6001600160a01b0383166118815761187c81609980546000838152609a60205260408120829055600182018355919091527f72a152ddfb8e864297c917af52ea6c1c68aead0fee1a62673fcc7e0c94979d000155565b6118a4565b816001600160a01b0316836001600160a01b0316146118a4576118a48382611b4f565b6001600160a01b0382166118c0576118bb81611bec565b6106b8565b826001600160a01b0316826001600160a01b0316146106b8576106b88282611cc5565b60006001600160a01b0384163b156119e557604051630a85bd0160e11b81526001600160a01b0385169063150b7a029061192790339089908890889060040161229b565b602060405180830381600087803b15801561194157600080fd5b505af1925050508015611971575060408051601f3d908101601f1916820190925261196e91810190611fcb565b60015b6119cb573d80801561199f576040519150601f19603f3d011682016040523d82523d6000602084013e6119a4565b606091505b5080516119c35760405162461bcd60e51b8152600401610582906122eb565b805181602001fd5b6001600160e01b031916630a85bd0160e11b1490506111dc565b506001949350505050565b600054610100900460ff1680611a09575060005460ff16155b611a255760405162461bcd60e51b81526004016105829061233d565b600054610100900460ff1615801561178b576000805461ffff191661010117905580156109d6576000805461ff001916905550565b600054610100900460ff1680611a73575060005460ff16155b611a8f5760405162461bcd60e51b81526004016105829061233d565b600054610100900460ff16158015611ab1576000805461ffff19166101011790555b61178b33611584565b600054610100900460ff1680611ad3575060005460ff16155b611aef5760405162461bcd60e51b81526004016105829061233d565b600054610100900460ff16158015611b11576000805461ffff19166101011790555b8251611b24906065906020860190611d09565b508151611b38906066906020850190611d09565b5080156106b8576000805461ff0019169055505050565b60006001611b5c84610afe565b611b66919061243d565b600083815260986020526040902054909150808214611bb9576001600160a01b03841660009081526097602090815260408083208584528252808320548484528184208190558352609890915290208190555b5060009182526098602090815260408084208490556001600160a01b039094168352609781528383209183525290812055565b609954600090611bfe9060019061243d565b6000838152609a602052604081205460998054939450909284908110611c3457634e487b7160e01b600052603260045260246000fd5b906000526020600020015490508060998381548110611c6357634e487b7160e01b600052603260045260246000fd5b6000918252602080832090910192909255828152609a90915260408082208490558582528120556099805480611ca957634e487b7160e01b600052603160045260246000fd5b6001900381819060005260206000200160009055905550505050565b6000611cd083610afe565b6001600160a01b039093166000908152609760209081526040808320868452825280832085905593825260989052919091209190915550565b828054611d1590612480565b90600052602060002090601f016020900481019282611d375760008555611d7d565b82601f10611d5057805160ff1916838001178555611d7d565b82800160010185558215611d7d579182015b82811115611d7d578251825591602001919060010190611d62565b50611d89929150611d8d565b5090565b5b80821115611d895760008155600101611d8e565b80356001600160a01b038116811461047657600080fd5b600082601f830112611dc9578081fd5b813567ffffffffffffffff80821115611de457611de4612516565b604051601f8301601f19908116603f01168101908282118183101715611e0c57611e0c612516565b81604052838152866020858801011115611e24578485fd5b8360208701602083013792830160200193909352509392505050565b600060208284031215611e51578081fd5b611e5a82611da2565b9392505050565b60008060408385031215611e73578081fd5b611e7c83611da2565b9150611e8a60208401611da2565b90509250929050565b600080600060608486031215611ea7578081fd5b611eb084611da2565b9250611ebe60208501611da2565b9150604084013590509250925092565b60008060008060808587031215611ee3578081fd5b611eec85611da2565b9350611efa60208601611da2565b925060408501359150606085013567ffffffffffffffff811115611f1c578182fd5b611f2887828801611db9565b91505092959194509250565b60008060408385031215611f46578182fd5b611f4f83611da2565b915060208301358015158114611f63578182fd5b809150509250929050565b60008060408385031215611f80578182fd5b611f8983611da2565b946020939093013593505050565b600060208284031215611fa8578081fd5b5035919050565b600060208284031215611fc0578081fd5b8135611e5a8161252c565b600060208284031215611fdc578081fd5b8151611e5a8161252c565b600080600080600060a08688031215611ffe578081fd5b853567ffffffffffffffff80821115612015578283fd5b61202189838a01611db9565b965061202f60208901611da2565b955060408801359450606088013591508082111561204b578283fd5b61205789838a01611db9565b9350608088013591508082111561206c578283fd5b5061207988828901611db9565b9150509295509295909350565b6000806000806080858703121561209b578384fd5b843567ffffffffffffffff808211156120b2578586fd5b6120be88838901611db9565b95506020870135945060408701359150808211156120da578384fd5b6120e688838901611db9565b935060608701359150808211156120fb578283fd5b50611f2887828801611db9565b600060208284031215612119578081fd5b813567ffffffffffffffff81111561212f578182fd5b6111dc84828501611db9565b6000806040838503121561214d578182fd5b82359150602083013567ffffffffffffffff81111561216a578182fd5b61217685828601611db9565b9150509250929050565b60008151808452612198816020860160208601612454565b601f01601f19169290920160200192915050565b60008083546121ba81612480565b600182811680156121d257600181146121e35761220f565b60ff1984168752828701945061220f565b8786526020808720875b858110156122065781548a8201529084019082016121ed565b50505082870194505b50929695505050505050565b600080845461222981612480565b6001828116801561224157600181146122525761227e565b60ff1984168752828701945061227e565b8886526020808720875b858110156122755781548a82015290840190820161225c565b50505082870194505b505050508351612292818360208801612454565b01949350505050565b6001600160a01b03858116825284166020820152604081018390526080606082018190526000906122ce90830184612180565b9695505050505050565b600060208252611e5a6020830184612180565b60208082526032908201527f4552433732313a207472616e7366657220746f206e6f6e20455243373231526560408201527131b2b4bb32b91034b6b83632b6b2b73a32b960711b606082015260800190565b6020808252602e908201527f496e697469616c697a61626c653a20636f6e747261637420697320616c72656160408201526d191e481a5b9a5d1a585b1a5e995960921b606082015260800190565b6020808252818101527f4f776e61626c653a2063616c6c6572206973206e6f7420746865206f776e6572604082015260600190565b60208082526031908201527f4552433732313a207472616e736665722063616c6c6572206973206e6f74206f6040820152701ddb995c881b9bdc88185c1c1c9bdd9959607a1b606082015260800190565b60008219821115612424576124246124ea565b500190565b60008261243857612438612500565b500490565b60008282101561244f5761244f6124ea565b500390565b60005b8381101561246f578181015183820152602001612457565b83811115610d1c5750506000910152565b600181811c9082168061249457607f821691505b602082108114156124b557634e487b7160e01b600052602260045260246000fd5b50919050565b60006000198214156124cf576124cf6124ea565b5060010190565b6000826124e5576124e5612500565b500690565b634e487b7160e01b600052601160045260246000fd5b634e487b7160e01b600052601260045260246000fd5b634e487b7160e01b600052604160045260246000fd5b6001600160e01b0319811681146109d657600080fdfea264697066735822122063d6d3d697e87df67ecd1cd5ae648eba84618c3c8df7fbb0155db8524e75529064736f6c63430008030033416464726573733a206c6f772d6c6576656c2064656c65676174652063616c6c206661696c6564a264697066735822122069ac217305a64df576a96f1db034d9bfbe1794bca9c856e40bf92ff6f46ca95764736f6c63430008030033",
  "linkReferences": {},
  "deployedLinkReferences": {}
}